{
	"data": {
		"bytecode": {
			"linkReferences": {},
			"object": "60a06040527f79d3d8832d904592c0bf9818b621522c988bb8b0c05cdc3b15aea1b6e8db0c1560001b600155620249f0600260006101000a81548163ffffffff021916908363ffffffff1602179055503480156200005c57600080fd5b5060405162002c1138038062002c118339818101604052810190620000829190620001db565b732ca8e0c643bde4c2e08ab1fa0da3401adad7734d8073ffffffffffffffffffffffffffffffffffffffff1660808173ffffffffffffffffffffffffffffffffffffffff168152505050732ca8e0c643bde4c2e08ab1fa0da3401adad7734d6000806101000a81548173ffffffffffffffffffffffffffffffffffffffff021916908373ffffffffffffffffffffffffffffffffffffffff16021790555080600060146101000a81548167ffffffffffffffff021916908367ffffffffffffffff16021790555033600260046101000a81548173ffffffffffffffffffffffffffffffffffffffff021916908373ffffffffffffffffffffffffffffffffffffffff160217905550506200020d565b600080fd5b600067ffffffffffffffff82169050919050565b620001b58162000196565b8114620001c157600080fd5b50565b600081519050620001d581620001aa565b92915050565b600060208284031215620001f457620001f362000191565b5b60006200020484828501620001c4565b91505092915050565b6080516129e162000230600039600081816104f4015261054801526129e16000f3fe6080604052600436106100a75760003560e01c80635ae2bfdb116100645780635ae2bfdb146101c05780639619367d146101eb578063a648567b14610216578063b163cc3814610232578063d504cb651461023c578063ff9b3acf1461026b576100a7565b80630d6f8563146100ac5780631116fd04146100d55780631fe543e3146101165780632e5b21681461013f5780633fb64e751461016a578063453a709714610195575b600080fd5b3480156100b857600080fd5b506100d360048036038101906100ce91906116fd565b610296565b005b3480156100e157600080fd5b506100fc60048036038101906100f791906116fd565b610475565b60405161010d959493929190611828565b60405180910390f35b34801561012257600080fd5b5061013d600480360381019061013891906119d4565b6104f2565b005b34801561014b57600080fd5b506101546105b2565b6040516101619190611a30565b60405180910390f35b34801561017657600080fd5b5061017f6105b8565b60405161018c9190611a4b565b60405180910390f35b3480156101a157600080fd5b506101aa6105cb565b6040516101b79190611a66565b60405180910390f35b3480156101cc57600080fd5b506101d56105de565b6040516101e29190611a30565b60405180910390f35b3480156101f757600080fd5b506102006105e4565b60405161020d9190611a30565b60405180910390f35b610230600480360381019061022b9190611ad2565b6105ea565b005b61023a610b1d565b005b34801561024857600080fd5b50610251610b27565b604051610262959493929190611828565b60405180910390f35b34801561027757600080fd5b50610280610b92565b60405161028d9190611b12565b60405180910390f35b600c60009054906101000a900460ff16156102e6576040517f08c379a00000000000000000000000000000000000000000000000000000000081526004016102dd90611b8a565b60405180910390fd5b6001600c60006101000a81548160ff021916908315150217905550600260049054906101000a900473ffffffffffffffffffffffffffffffffffffffff1673ffffffffffffffffffffffffffffffffffffffff163373ffffffffffffffffffffffffffffffffffffffff1614610391576040517f08c379a000000000000000000000000000000000000000000000000000000000815260040161038890611c1c565b60405180910390fd5b600a60009054906101000a900460ff16156103e1576040517f08c379a00000000000000000000000000000000000000000000000000000000081526004016103d890611cae565b60405180910390fd5b60004790503373ffffffffffffffffffffffffffffffffffffffff166108fc839081150290604051600060405180830381858888f1935050505015801561042c573d6000803e3d6000fd5b50600047905080838361043f9190611cfd565b1461044d5761044c611d31565b5b610455610bb8565b50506000600c60006101000a81548160ff02191690831515021790555050565b600b6020528060005260406000206000915090508060000160009054906101000a900473ffffffffffffffffffffffffffffffffffffffff16908060010154908060020160009054906101000a900460ff16908060020160019054906101000a900460ff16908060020160029054906101000a900460ff16905085565b7f000000000000000000000000000000000000000000000000000000000000000073ffffffffffffffffffffffffffffffffffffffff163373ffffffffffffffffffffffffffffffffffffffff16146105a457337f00000000000000000000000000000000000000000000000000000000000000006040517f1cf993f400000000000000000000000000000000000000000000000000000000815260040161059b929190611d81565b60405180910390fd5b6105ae8282610cb4565b5050565b60035481565b600a60009054906101000a900460ff1681565b600560009054906101000a900460ff1681565b60095481565b60045481565b600c60009054906101000a900460ff161561063a576040517f08c379a000000000000000000000000000000000000000000000000000000000815260040161063190611b8a565b60405180910390fd5b6001600c60006101000a81548160ff021916908315150217905550600a60009054906101000a900460ff16156106a5576040517f08c379a000000000000000000000000000000000000000000000000000000000815260040161069c90611e1c565b60405180910390fd5b6004543410156106ea576040517f08c379a00000000000000000000000000000000000000000000000000000000081526004016106e190611eae565b60405180910390fd5b60035434111561072f576040517f08c379a000000000000000000000000000000000000000000000000000000000815260040161072690611f40565b60405180910390fd5b600060058111156107435761074261177a565b5b8160058111156107565761075561177a565b5b036107b75760008260ff1610158015610773575060248260ff1611155b6107b2576040517f08c379a00000000000000000000000000000000000000000000000000000000081526004016107a990611fd2565b60405180910390fd5b610987565b600160058111156107cb576107ca61177a565b5b8160058111156107de576107dd61177a565b5b0361083f5760018260ff16101580156107fb575060038260ff1611155b61083a576040517f08c379a000000000000000000000000000000000000000000000000000000000815260040161083190612064565b60405180910390fd5b610986565b600260058111156108535761085261177a565b5b8160058111156108665761086561177a565b5b14806108965750600360058111156108815761088061177a565b5b8160058111156108945761089361177a565b5b145b806108c55750600460058111156108b0576108af61177a565b5b8160058111156108c3576108c261177a565b5b145b806108f357506005808111156108de576108dd61177a565b5b8160058111156108f1576108f061177a565b5b145b156109435760018260ff161461093e576040517f08c379a00000000000000000000000000000000000000000000000000000000081526004016109359061211c565b60405180910390fd5b610985565b6000610984576040517f08c379a000000000000000000000000000000000000000000000000000000000815260040161097b906121d4565b60405180910390fd5b5b5b5b6001600a60006101000a81548160ff0219169083151502179055506040518060a001604052803373ffffffffffffffffffffffffffffffffffffffff1681526020013481526020018260058111156109e2576109e161177a565b5b81526020018360ff16815260200160001515815250600660008201518160000160006101000a81548173ffffffffffffffffffffffffffffffffffffffff021916908373ffffffffffffffffffffffffffffffffffffffff1602179055506020820151816001015560408201518160020160006101000a81548160ff02191690836005811115610a7557610a7461177a565b5b021790555060608201518160020160016101000a81548160ff021916908360ff16021790555060808201518160020160026101000a81548160ff0219169083151502179055509050507f17765110fdca5f4ba1cf2df414d1cf822fa07c70797d184d4c43e9fde1846eb56006604051610aee91906123cc565b60405180910390a1610afe610d7b565b6000600c60006101000a81548160ff0219169083151502179055505050565b610b25610bb8565b565b60068060000160009054906101000a900473ffffffffffffffffffffffffffffffffffffffff16908060010154908060020160009054906101000a900460ff16908060020160019054906101000a900460ff16908060020160029054906101000a900460ff16905085565b600260049054906101000a900473ffffffffffffffffffffffffffffffffffffffff1681565b60004790506000617530905080600260009054906101000a900463ffffffff1663ffffffff16610be891906123e7565b600481905550600454602383610bfe919061244a565b11610c3e576040517f08c379a0000000000000000000000000000000000000000000000000000000008152600401610c35906124ed565b60405180910390fd5b600454602383610c4e919061244a565b610c589190611cfd565b6003819055507fd6c35f99cd113b65660d600ed2917da92e279b96836a62bd211b0445e6afa0cf600354600454604051610c9392919061250d565b60405180910390a16004546003541015610cb057610caf611d31565b5b5050565b8160095414610cf8576040517f08c379a0000000000000000000000000000000000000000000000000000000008152600401610cef90612582565b60405180910390fd5b602581600081518110610d0e57610d0d6125a2565b5b6020026020010151610d2091906125d1565b600560006101000a81548160ff021916908360ff1602179055507fd26a1ef5c184c4e0eb2179564cc0202c6ee2f00c1b3514d54ded3d5bc598e516604051610d679061264e565b60405180910390a1610d77610f82565b5050565b60006003905060006001905060008054906101000a900473ffffffffffffffffffffffffffffffffffffffff1673ffffffffffffffffffffffffffffffffffffffff16635d3b1d30600154600060149054906101000a900467ffffffffffffffff1685600260009054906101000a900463ffffffff16866040518663ffffffff1660e01b8152600401610e129594939291906126e6565b6020604051808303816000875af1158015610e31573d6000803e3d6000fd5b505050506040513d601f19601f82011682018060405250810190610e55919061274e565b6009819055506006600b600060095481526020019081526020016000206000820160009054906101000a900473ffffffffffffffffffffffffffffffffffffffff168160000160006101000a81548173ffffffffffffffffffffffffffffffffffffffff021916908373ffffffffffffffffffffffffffffffffffffffff160217905550600182015481600101556002820160009054906101000a900460ff168160020160006101000a81548160ff02191690836005811115610f1b57610f1a61177a565b5b02179055506002820160019054906101000a900460ff168160020160016101000a81548160ff021916908360ff1602179055506002820160029054906101000a900460ff168160020160026101000a81548160ff0219169083151502179055509050505050565b6000600660000160009054906101000a900473ffffffffffffffffffffffffffffffffffffffff169050600060066001015490506000600660020160009054906101000a900460ff1690506000600660020160019054906101000a900460ff16905060006005811115610ff857610ff761177a565b5b82600581111561100b5761100a61177a565b5b036110ae578060ff16600560009054906101000a900460ff1660ff160361109c578373ffffffffffffffffffffffffffffffffffffffff166108fc602385611053919061277b565b9081150290604051600060405180830381858888f1935050505015801561107e573d6000803e3d6000fd5b50611097846001602386611092919061277b565b61154c565b6110a9565b6110a88460008061154c565b5b6114ee565b600160058111156110c2576110c161177a565b5b8260058111156110d5576110d461177a565b5b036111bf57600c6001826110e991906127bd565b6110f391906127f2565b60ff16600560009054906101000a900460ff1660ff16101580156111385750600c8161111f91906127f2565b60ff16600560009054906101000a900460ff1660ff1611155b156111ad578373ffffffffffffffffffffffffffffffffffffffff166108fc600385611164919061277b565b9081150290604051600060405180830381858888f1935050505015801561118f573d6000803e3d6000fd5b506111a88460016003866111a3919061277b565b61154c565b6111ba565b6111b98460008061154c565b5b6114ed565b600260058111156111d3576111d261177a565b5b8260058111156111e6576111e561177a565b5b0361128a57611203600560009054906101000a900460ff16611600565b15611278578373ffffffffffffffffffffffffffffffffffffffff166108fc60028561122f919061277b565b9081150290604051600060405180830381858888f1935050505015801561125a573d6000803e3d6000fd5b5061127384600160028661126e919061277b565b61154c565b611285565b6112848460008061154c565b5b6114ec565b6003600581111561129e5761129d61177a565b5b8260058111156112b1576112b061177a565b5b03611354576112ce600560009054906101000a900460ff16611600565b611342578373ffffffffffffffffffffffffffffffffffffffff166108fc6002856112f9919061277b565b9081150290604051600060405180830381858888f19350505050158015611324573d6000803e3d6000fd5b5061133d846001600286611338919061277b565b61154c565b61134f565b61134e8460008061154c565b5b6114eb565b600460058111156113685761136761177a565b5b82600581111561137b5761137a61177a565b5b0361141f57611398600560009054906101000a900460ff166116a1565b1561140d578373ffffffffffffffffffffffffffffffffffffffff166108fc6002856113c4919061277b565b9081150290604051600060405180830381858888f193505050501580156113ef573d6000803e3d6000fd5b50611408846001600286611403919061277b565b61154c565b61141a565b6114198460008061154c565b5b6114ea565b6005808111156114325761143161177a565b5b8260058111156114455761144461177a565b5b036114e857611462600560009054906101000a900460ff166116a1565b6114d6578373ffffffffffffffffffffffffffffffffffffffff166108fc60028561148d919061277b565b9081150290604051600060405180830381858888f193505050501580156114b8573d6000803e3d6000fd5b506114d18460016002866114cc919061277b565b61154c565b6114e3565b6114e28460008061154c565b5b6114e9565b5b5b5b5b5b5b6114f6610bb8565b6000600a60006101000a81548160ff0219169083151502179055507f09e32d9879388c92fa8390c5a92317126522ae46eac27fddfedac4ddc795b8f360405161153e9061287b565b60405180910390a150505050565b81156115c1577fc32342dc8906e5e3a410389d8ea8527aca5f746ccd18f74703cc4a2a32c99f4683826040516115839291906128e7565b60405180910390a16001600b6000600954815260200190815260200160002060020160026101000a81548160ff0219169083151502179055506115fb565b7fc32342dc8906e5e3a410389d8ea8527aca5f746ccd18f74703cc4a2a32c99f4683826040516115f292919061296f565b60405180910390a15b505050565b600060018260ff161015801561161a5750600a8260ff1611155b80611639575060138260ff16101580156116385750601c8260ff1611155b5b801561164a5750611649826116a1565b5b8061169a5750600b8260ff1610158015611668575060128260ff1611155b806116875750601d8260ff1610158015611686575060248260ff1611155b5b80156116995750611697826116a1565b155b5b9050919050565b6000600180831660ff16149050919050565b6000604051905090565b600080fd5b600080fd5b6000819050919050565b6116da816116c7565b81146116e557600080fd5b50565b6000813590506116f7816116d1565b92915050565b600060208284031215611713576117126116bd565b5b6000611721848285016116e8565b91505092915050565b600073ffffffffffffffffffffffffffffffffffffffff82169050919050565b60006117558261172a565b9050919050565b6117658161174a565b82525050565b611774816116c7565b82525050565b7f4e487b7100000000000000000000000000000000000000000000000000000000600052602160045260246000fd5b600681106117ba576117b961177a565b5b50565b60008190506117cb826117a9565b919050565b60006117db826117bd565b9050919050565b6117eb816117d0565b82525050565b600060ff82169050919050565b611807816117f1565b82525050565b60008115159050919050565b6118228161180d565b82525050565b600060a08201905061183d600083018861175c565b61184a602083018761176b565b61185760408301866117e2565b61186460608301856117fe565b6118716080830184611819565b9695505050505050565b600080fd5b6000601f19601f8301169050919050565b7f4e487b7100000000000000000000000000000000000000000000000000000000600052604160045260246000fd5b6118c982611880565b810181811067ffffffffffffffff821117156118e8576118e7611891565b5b80604052505050565b60006118fb6116b3565b905061190782826118c0565b919050565b600067ffffffffffffffff82111561192757611926611891565b5b602082029050602081019050919050565b600080fd5b600061195061194b8461190c565b6118f1565b9050808382526020820190506020840283018581111561197357611972611938565b5b835b8181101561199c578061198888826116e8565b845260208401935050602081019050611975565b5050509392505050565b600082601f8301126119bb576119ba61187b565b5b81356119cb84826020860161193d565b91505092915050565b600080604083850312156119eb576119ea6116bd565b5b60006119f9858286016116e8565b925050602083013567ffffffffffffffff811115611a1a57611a196116c2565b5b611a26858286016119a6565b9150509250929050565b6000602082019050611a45600083018461176b565b92915050565b6000602082019050611a606000830184611819565b92915050565b6000602082019050611a7b60008301846117fe565b92915050565b611a8a816117f1565b8114611a9557600080fd5b50565b600081359050611aa781611a81565b92915050565b60068110611aba57600080fd5b50565b600081359050611acc81611aad565b92915050565b60008060408385031215611ae957611ae86116bd565b5b6000611af785828601611a98565b9250506020611b0885828601611abd565b9150509250929050565b6000602082019050611b27600083018461175c565b92915050565b600082825260208201905092915050565b7f4e6f2072652d656e7472616e6379000000000000000000000000000000000000600082015250565b6000611b74600e83611b2d565b9150611b7f82611b3e565b602082019050919050565b60006020820190508181036000830152611ba381611b67565b9050919050565b7f4f6e6c792074686520636f6e7472616374206f776e65722063616e207769746860008201527f64726177206d6f6e657921000000000000000000000000000000000000000000602082015250565b6000611c06602b83611b2d565b9150611c1182611baa565b604082019050919050565b60006020820190508181036000830152611c3581611bf9565b9050919050565b7f446f206e6f7420617474656d707420746f207769746864726177207768696c6560008201527f20612067616d6520697320696e2070726f67726573732e000000000000000000602082015250565b6000611c98603783611b2d565b9150611ca382611c3c565b604082019050919050565b60006020820190508181036000830152611cc781611c8b565b9050919050565b7f4e487b7100000000000000000000000000000000000000000000000000000000600052601160045260246000fd5b6000611d08826116c7565b9150611d13836116c7565b9250828203905081811115611d2b57611d2a611cce565b5b92915050565b7f4e487b7100000000000000000000000000000000000000000000000000000000600052600160045260246000fd5b6000611d6b8261172a565b9050919050565b611d7b81611d60565b82525050565b6000604082019050611d966000830185611d72565b611da36020830184611d72565b9392505050565b7f412067616d6520697320616c726561647920696e2070726f67726573732c207060008201527f6c6561736520686176652061206d6f6d656e74206f662070617469656e63652e602082015250565b6000611e06604083611b2d565b9150611e1182611daa565b604082019050919050565b60006020820190508181036000830152611e3581611df9565b9050919050565b7f54686520616d6f756e74206f66206d6f6e657920696e2074686520626574206d60008201527f7573742065786365656420746865206d696e696d756d206265742e0000000000602082015250565b6000611e98603b83611b2d565b9150611ea382611e3c565b604082019050919050565b60006020820190508181036000830152611ec781611e8b565b9050919050565b7f54686520616d6f756e74206f66206d6f6e657920696e2074686520626574206d60008201527f7573742062652062656c6f7720746865206d6178696d756d206265742e000000602082015250565b6000611f2a603d83611b2d565b9150611f3582611ece565b604082019050919050565b60006020820190508181036000830152611f5981611f1d565b9050919050565b7f496e76616c6964206265742e2053696e676c6520626574206d7573742062652060008201527f6265747765656e203020616e6420333620696e636c75736976652e0000000000602082015250565b6000611fbc603b83611b2d565b9150611fc782611f60565b604082019050919050565b60006020820190508181036000830152611feb81611faf565b9050919050565b7f496e76616c6964206265742e20546869726420626574206d757374206265206260008201527f65747765656e203120616e64203320696e636c75736976652e00000000000000602082015250565b600061204e603983611b2d565b915061205982611ff2565b604082019050919050565b6000602082019050818103600083015261207d81612041565b9050919050565b7f496e76616c6964206265742e205265642f626c61636b2f6f64642f6576656e2060008201527f62657473206d75737420626520706c616365642077697468206120626574206f60208201527f6620312e00000000000000000000000000000000000000000000000000000000604082015250565b6000612106604483611b2d565b915061211182612084565b606082019050919050565b60006020820190508181036000830152612135816120f9565b9050919050565b7f496e76616c69642062657420747970652e20506c656173652063686f6f73652060008201527f2773696e676c65272c20277468697264272c2027726564272c2027626c61636b60208201527f272c20276f6464272c206f7220276576656e272e000000000000000000000000604082015250565b60006121be605483611b2d565b91506121c98261213c565b606082019050919050565b600060208201905081810360008301526121ed816121b1565b9050919050565b60008160001c9050919050565b600073ffffffffffffffffffffffffffffffffffffffff82169050919050565b600061223461222f836121f4565b612201565b9050919050565b6122448161174a565b82525050565b6000819050919050565b6000612267612262836121f4565b61224a565b9050919050565b612277816116c7565b82525050565b600060ff82169050919050565b600061229d612298836121f4565b61227d565b9050919050565b6122ad816117d0565b82525050565b60008160081c9050919050565b600060ff82169050919050565b60006122e06122db836122b3565b6122c0565b9050919050565b6122f0816117f1565b82525050565b60008160101c9050919050565b600060ff82169050919050565b600061232361231e836122f6565b612303565b9050919050565b6123338161180d565b82525050565b60a08201600080830154905061234e81612221565b61235b600086018261223b565b506001830154905061236c81612254565b612379602086018261226e565b506002830154905061238a8161228a565b61239760408601826122a4565b506123a1816122cd565b6123ae60608601826122e7565b506123b881612310565b6123c5608086018261232a565b5050505050565b600060a0820190506123e16000830184612339565b92915050565b60006123f2826116c7565b91506123fd836116c7565b925082820190508082111561241557612414611cce565b5b92915050565b7f4e487b7100000000000000000000000000000000000000000000000000000000600052601260045260246000fd5b6000612455826116c7565b9150612460836116c7565b9250826124705761246f61241b565b5b828204905092915050565b7f5468652066756e647320696e207468697320636f6e747261637420617265207460008201527f6f6f206c6f7720616e64206e65656420746f206265206869676865722e000000602082015250565b60006124d7603d83611b2d565b91506124e28261247b565b604082019050919050565b60006020820190508181036000830152612506816124ca565b9050919050565b6000604082019050612522600083018561176b565b61252f602083018461176b565b9392505050565b7f54686520726571756573742049447320646f206e6f74206d6174636800000000600082015250565b600061256c601c83611b2d565b915061257782612536565b602082019050919050565b6000602082019050818103600083015261259b8161255f565b9050919050565b7f4e487b7100000000000000000000000000000000000000000000000000000000600052603260045260246000fd5b60006125dc826116c7565b91506125e7836116c7565b9250826125f7576125f661241b565b5b828206905092915050565b7f41207061796f757420686173206265656e2063616c6c65642e00000000000000600082015250565b6000612638601983611b2d565b915061264382612602565b602082019050919050565b600060208201905081810360008301526126678161262b565b9050919050565b6000819050919050565b6126818161266e565b82525050565b600067ffffffffffffffff82169050919050565b6126a481612687565b82525050565b600061ffff82169050919050565b6126c1816126aa565b82525050565b600063ffffffff82169050919050565b6126e0816126c7565b82525050565b600060a0820190506126fb6000830188612678565b612708602083018761269b565b61271560408301866126b8565b61272260608301856126d7565b61272f60808301846126d7565b9695505050505050565b600081519050612748816116d1565b92915050565b600060208284031215612764576127636116bd565b5b600061277284828501612739565b91505092915050565b6000612786826116c7565b9150612791836116c7565b925082820261279f816116c7565b915082820484148315176127b6576127b5611cce565b5b5092915050565b60006127c8826117f1565b91506127d3836117f1565b9250828203905060ff8111156127ec576127eb611cce565b5b92915050565b60006127fd826117f1565b9150612808836117f1565b9250828202612816816117f1565b915080821461282857612827611cce565b5b5092915050565b7f5468652067616d652068617320656e6465640000000000000000000000000000600082015250565b6000612865601283611b2d565b91506128708261282f565b602082019050919050565b6000602082019050818103600083015261289481612858565b9050919050565b7f506c617965722068617320776f6e2e0000000000000000000000000000000000600082015250565b60006128d1600f83611b2d565b91506128dc8261289b565b602082019050919050565b60006060820190506128fc6000830185611d72565b818103602083015261290d816128c4565b905061291c604083018461176b565b9392505050565b7f506c6179657220686173206c6f73742e00000000000000000000000000000000600082015250565b6000612959601083611b2d565b915061296482612923565b602082019050919050565b60006060820190506129846000830185611d72565b81810360208301526129958161294c565b90506129a4604083018461176b565b939250505056fea26469706673582212204bf0ed5cfdd40276516ee95959bf0642e44834685cd92eac6410ae6ba4e95f1564736f6c63430008110033",
			"opcodes": "PUSH1 0xA0 PUSH1 0x40 MSTORE PUSH32 0x79D3D8832D904592C0BF9818B621522C988BB8B0C05CDC3B15AEA1B6E8DB0C15 PUSH1 0x0 SHL PUSH1 0x1 SSTORE PUSH3 0x249F0 PUSH1 0x2 PUSH1 0x0 PUSH2 0x100 EXP DUP2 SLOAD DUP2 PUSH4 0xFFFFFFFF MUL NOT AND SWAP1 DUP4 PUSH4 0xFFFFFFFF AND MUL OR SWAP1 SSTORE POP CALLVALUE DUP1 ISZERO PUSH3 0x5C JUMPI PUSH1 0x0 DUP1 REVERT JUMPDEST POP PUSH1 0x40 MLOAD PUSH3 0x2C11 CODESIZE SUB DUP1 PUSH3 0x2C11 DUP4 CODECOPY DUP2 DUP2 ADD PUSH1 0x40 MSTORE DUP2 ADD SWAP1 PUSH3 0x82 SWAP2 SWAP1 PUSH3 0x1DB JUMP JUMPDEST PUSH20 0x2CA8E0C643BDE4C2E08AB1FA0DA3401ADAD7734D DUP1 PUSH20 0xFFFFFFFFFFFFFFFFFFFFFFFFFFFFFFFFFFFFFFFF AND PUSH1 0x80 DUP2 PUSH20 0xFFFFFFFFFFFFFFFFFFFFFFFFFFFFFFFFFFFFFFFF AND DUP2 MSTORE POP POP POP PUSH20 0x2CA8E0C643BDE4C2E08AB1FA0DA3401ADAD7734D PUSH1 0x0 DUP1 PUSH2 0x100 EXP DUP2 SLOAD DUP2 PUSH20 0xFFFFFFFFFFFFFFFFFFFFFFFFFFFFFFFFFFFFFFFF MUL NOT AND SWAP1 DUP4 PUSH20 0xFFFFFFFFFFFFFFFFFFFFFFFFFFFFFFFFFFFFFFFF AND MUL OR SWAP1 SSTORE POP DUP1 PUSH1 0x0 PUSH1 0x14 PUSH2 0x100 EXP DUP2 SLOAD DUP2 PUSH8 0xFFFFFFFFFFFFFFFF MUL NOT AND SWAP1 DUP4 PUSH8 0xFFFFFFFFFFFFFFFF AND MUL OR SWAP1 SSTORE POP CALLER PUSH1 0x2 PUSH1 0x4 PUSH2 0x100 EXP DUP2 SLOAD DUP2 PUSH20 0xFFFFFFFFFFFFFFFFFFFFFFFFFFFFFFFFFFFFFFFF MUL NOT AND SWAP1 DUP4 PUSH20 0xFFFFFFFFFFFFFFFFFFFFFFFFFFFFFFFFFFFFFFFF AND MUL OR SWAP1 SSTORE POP POP PUSH3 0x20D JUMP JUMPDEST PUSH1 0x0 DUP1 REVERT JUMPDEST PUSH1 0x0 PUSH8 0xFFFFFFFFFFFFFFFF DUP3 AND SWAP1 POP SWAP2 SWAP1 POP JUMP JUMPDEST PUSH3 0x1B5 DUP2 PUSH3 0x196 JUMP JUMPDEST DUP2 EQ PUSH3 0x1C1 JUMPI PUSH1 0x0 DUP1 REVERT JUMPDEST POP JUMP JUMPDEST PUSH1 0x0 DUP2 MLOAD SWAP1 POP PUSH3 0x1D5 DUP2 PUSH3 0x1AA JUMP JUMPDEST SWAP3 SWAP2 POP POP JUMP JUMPDEST PUSH1 0x0 PUSH1 0x20 DUP3 DUP5 SUB SLT ISZERO PUSH3 0x1F4 JUMPI PUSH3 0x1F3 PUSH3 0x191 JUMP JUMPDEST JUMPDEST PUSH1 0x0 PUSH3 0x204 DUP5 DUP3 DUP6 ADD PUSH3 0x1C4 JUMP JUMPDEST SWAP2 POP POP SWAP3 SWAP2 POP POP JUMP JUMPDEST PUSH1 0x80 MLOAD PUSH2 0x29E1 PUSH3 0x230 PUSH1 0x0 CODECOPY PUSH1 0x0 DUP2 DUP2 PUSH2 0x4F4 ADD MSTORE PUSH2 0x548 ADD MSTORE PUSH2 0x29E1 PUSH1 0x0 RETURN INVALID PUSH1 0x80 PUSH1 0x40 MSTORE PUSH1 0x4 CALLDATASIZE LT PUSH2 0xA7 JUMPI PUSH1 0x0 CALLDATALOAD PUSH1 0xE0 SHR DUP1 PUSH4 0x5AE2BFDB GT PUSH2 0x64 JUMPI DUP1 PUSH4 0x5AE2BFDB EQ PUSH2 0x1C0 JUMPI DUP1 PUSH4 0x9619367D EQ PUSH2 0x1EB JUMPI DUP1 PUSH4 0xA648567B EQ PUSH2 0x216 JUMPI DUP1 PUSH4 0xB163CC38 EQ PUSH2 0x232 JUMPI DUP1 PUSH4 0xD504CB65 EQ PUSH2 0x23C JUMPI DUP1 PUSH4 0xFF9B3ACF EQ PUSH2 0x26B JUMPI PUSH2 0xA7 JUMP JUMPDEST DUP1 PUSH4 0xD6F8563 EQ PUSH2 0xAC JUMPI DUP1 PUSH4 0x1116FD04 EQ PUSH2 0xD5 JUMPI DUP1 PUSH4 0x1FE543E3 EQ PUSH2 0x116 JUMPI DUP1 PUSH4 0x2E5B2168 EQ PUSH2 0x13F JUMPI DUP1 PUSH4 0x3FB64E75 EQ PUSH2 0x16A JUMPI DUP1 PUSH4 0x453A7097 EQ PUSH2 0x195 JUMPI JUMPDEST PUSH1 0x0 DUP1 REVERT JUMPDEST CALLVALUE DUP1 ISZERO PUSH2 0xB8 JUMPI PUSH1 0x0 DUP1 REVERT JUMPDEST POP PUSH2 0xD3 PUSH1 0x4 DUP1 CALLDATASIZE SUB DUP2 ADD SWAP1 PUSH2 0xCE SWAP2 SWAP1 PUSH2 0x16FD JUMP JUMPDEST PUSH2 0x296 JUMP JUMPDEST STOP JUMPDEST CALLVALUE DUP1 ISZERO PUSH2 0xE1 JUMPI PUSH1 0x0 DUP1 REVERT JUMPDEST POP PUSH2 0xFC PUSH1 0x4 DUP1 CALLDATASIZE SUB DUP2 ADD SWAP1 PUSH2 0xF7 SWAP2 SWAP1 PUSH2 0x16FD JUMP JUMPDEST PUSH2 0x475 JUMP JUMPDEST PUSH1 0x40 MLOAD PUSH2 0x10D SWAP6 SWAP5 SWAP4 SWAP3 SWAP2 SWAP1 PUSH2 0x1828 JUMP JUMPDEST PUSH1 0x40 MLOAD DUP1 SWAP2 SUB SWAP1 RETURN JUMPDEST CALLVALUE DUP1 ISZERO PUSH2 0x122 JUMPI PUSH1 0x0 DUP1 REVERT JUMPDEST POP PUSH2 0x13D PUSH1 0x4 DUP1 CALLDATASIZE SUB DUP2 ADD SWAP1 PUSH2 0x138 SWAP2 SWAP1 PUSH2 0x19D4 JUMP JUMPDEST PUSH2 0x4F2 JUMP JUMPDEST STOP JUMPDEST CALLVALUE DUP1 ISZERO PUSH2 0x14B JUMPI PUSH1 0x0 DUP1 REVERT JUMPDEST POP PUSH2 0x154 PUSH2 0x5B2 JUMP JUMPDEST PUSH1 0x40 MLOAD PUSH2 0x161 SWAP2 SWAP1 PUSH2 0x1A30 JUMP JUMPDEST PUSH1 0x40 MLOAD DUP1 SWAP2 SUB SWAP1 RETURN JUMPDEST CALLVALUE DUP1 ISZERO PUSH2 0x176 JUMPI PUSH1 0x0 DUP1 REVERT JUMPDEST POP PUSH2 0x17F PUSH2 0x5B8 JUMP JUMPDEST PUSH1 0x40 MLOAD PUSH2 0x18C SWAP2 SWAP1 PUSH2 0x1A4B JUMP JUMPDEST PUSH1 0x40 MLOAD DUP1 SWAP2 SUB SWAP1 RETURN JUMPDEST CALLVALUE DUP1 ISZERO PUSH2 0x1A1 JUMPI PUSH1 0x0 DUP1 REVERT JUMPDEST POP PUSH2 0x1AA PUSH2 0x5CB JUMP JUMPDEST PUSH1 0x40 MLOAD PUSH2 0x1B7 SWAP2 SWAP1 PUSH2 0x1A66 JUMP JUMPDEST PUSH1 0x40 MLOAD DUP1 SWAP2 SUB SWAP1 RETURN JUMPDEST CALLVALUE DUP1 ISZERO PUSH2 0x1CC JUMPI PUSH1 0x0 DUP1 REVERT JUMPDEST POP PUSH2 0x1D5 PUSH2 0x5DE JUMP JUMPDEST PUSH1 0x40 MLOAD PUSH2 0x1E2 SWAP2 SWAP1 PUSH2 0x1A30 JUMP JUMPDEST PUSH1 0x40 MLOAD DUP1 SWAP2 SUB SWAP1 RETURN JUMPDEST CALLVALUE DUP1 ISZERO PUSH2 0x1F7 JUMPI PUSH1 0x0 DUP1 REVERT JUMPDEST POP PUSH2 0x200 PUSH2 0x5E4 JUMP JUMPDEST PUSH1 0x40 MLOAD PUSH2 0x20D SWAP2 SWAP1 PUSH2 0x1A30 JUMP JUMPDEST PUSH1 0x40 MLOAD DUP1 SWAP2 SUB SWAP1 RETURN JUMPDEST PUSH2 0x230 PUSH1 0x4 DUP1 CALLDATASIZE SUB DUP2 ADD SWAP1 PUSH2 0x22B SWAP2 SWAP1 PUSH2 0x1AD2 JUMP JUMPDEST PUSH2 0x5EA JUMP JUMPDEST STOP JUMPDEST PUSH2 0x23A PUSH2 0xB1D JUMP JUMPDEST STOP JUMPDEST CALLVALUE DUP1 ISZERO PUSH2 0x248 JUMPI PUSH1 0x0 DUP1 REVERT JUMPDEST POP PUSH2 0x251 PUSH2 0xB27 JUMP JUMPDEST PUSH1 0x40 MLOAD PUSH2 0x262 SWAP6 SWAP5 SWAP4 SWAP3 SWAP2 SWAP1 PUSH2 0x1828 JUMP JUMPDEST PUSH1 0x40 MLOAD DUP1 SWAP2 SUB SWAP1 RETURN JUMPDEST CALLVALUE DUP1 ISZERO PUSH2 0x277 JUMPI PUSH1 0x0 DUP1 REVERT JUMPDEST POP PUSH2 0x280 PUSH2 0xB92 JUMP JUMPDEST PUSH1 0x40 MLOAD PUSH2 0x28D SWAP2 SWAP1 PUSH2 0x1B12 JUMP JUMPDEST PUSH1 0x40 MLOAD DUP1 SWAP2 SUB SWAP1 RETURN JUMPDEST PUSH1 0xC PUSH1 0x0 SWAP1 SLOAD SWAP1 PUSH2 0x100 EXP SWAP1 DIV PUSH1 0xFF AND ISZERO PUSH2 0x2E6 JUMPI PUSH1 0x40 MLOAD PUSH32 0x8C379A000000000000000000000000000000000000000000000000000000000 DUP2 MSTORE PUSH1 0x4 ADD PUSH2 0x2DD SWAP1 PUSH2 0x1B8A JUMP JUMPDEST PUSH1 0x40 MLOAD DUP1 SWAP2 SUB SWAP1 REVERT JUMPDEST PUSH1 0x1 PUSH1 0xC PUSH1 0x0 PUSH2 0x100 EXP DUP2 SLOAD DUP2 PUSH1 0xFF MUL NOT AND SWAP1 DUP4 ISZERO ISZERO MUL OR SWAP1 SSTORE POP PUSH1 0x2 PUSH1 0x4 SWAP1 SLOAD SWAP1 PUSH2 0x100 EXP SWAP1 DIV PUSH20 0xFFFFFFFFFFFFFFFFFFFFFFFFFFFFFFFFFFFFFFFF AND PUSH20 0xFFFFFFFFFFFFFFFFFFFFFFFFFFFFFFFFFFFFFFFF AND CALLER PUSH20 0xFFFFFFFFFFFFFFFFFFFFFFFFFFFFFFFFFFFFFFFF AND EQ PUSH2 0x391 JUMPI PUSH1 0x40 MLOAD PUSH32 0x8C379A000000000000000000000000000000000000000000000000000000000 DUP2 MSTORE PUSH1 0x4 ADD PUSH2 0x388 SWAP1 PUSH2 0x1C1C JUMP JUMPDEST PUSH1 0x40 MLOAD DUP1 SWAP2 SUB SWAP1 REVERT JUMPDEST PUSH1 0xA PUSH1 0x0 SWAP1 SLOAD SWAP1 PUSH2 0x100 EXP SWAP1 DIV PUSH1 0xFF AND ISZERO PUSH2 0x3E1 JUMPI PUSH1 0x40 MLOAD PUSH32 0x8C379A000000000000000000000000000000000000000000000000000000000 DUP2 MSTORE PUSH1 0x4 ADD PUSH2 0x3D8 SWAP1 PUSH2 0x1CAE JUMP JUMPDEST PUSH1 0x40 MLOAD DUP1 SWAP2 SUB SWAP1 REVERT JUMPDEST PUSH1 0x0 SELFBALANCE SWAP1 POP CALLER PUSH20 0xFFFFFFFFFFFFFFFFFFFFFFFFFFFFFFFFFFFFFFFF AND PUSH2 0x8FC DUP4 SWAP1 DUP2 ISZERO MUL SWAP1 PUSH1 0x40 MLOAD PUSH1 0x0 PUSH1 0x40 MLOAD DUP1 DUP4 SUB DUP2 DUP6 DUP9 DUP9 CALL SWAP4 POP POP POP POP ISZERO DUP1 ISZERO PUSH2 0x42C JUMPI RETURNDATASIZE PUSH1 0x0 DUP1 RETURNDATACOPY RETURNDATASIZE PUSH1 0x0 REVERT JUMPDEST POP PUSH1 0x0 SELFBALANCE SWAP1 POP DUP1 DUP4 DUP4 PUSH2 0x43F SWAP2 SWAP1 PUSH2 0x1CFD JUMP JUMPDEST EQ PUSH2 0x44D JUMPI PUSH2 0x44C PUSH2 0x1D31 JUMP JUMPDEST JUMPDEST PUSH2 0x455 PUSH2 0xBB8 JUMP JUMPDEST POP POP PUSH1 0x0 PUSH1 0xC PUSH1 0x0 PUSH2 0x100 EXP DUP2 SLOAD DUP2 PUSH1 0xFF MUL NOT AND SWAP1 DUP4 ISZERO ISZERO MUL OR SWAP1 SSTORE POP POP JUMP JUMPDEST PUSH1 0xB PUSH1 0x20 MSTORE DUP1 PUSH1 0x0 MSTORE PUSH1 0x40 PUSH1 0x0 KECCAK256 PUSH1 0x0 SWAP2 POP SWAP1 POP DUP1 PUSH1 0x0 ADD PUSH1 0x0 SWAP1 SLOAD SWAP1 PUSH2 0x100 EXP SWAP1 DIV PUSH20 0xFFFFFFFFFFFFFFFFFFFFFFFFFFFFFFFFFFFFFFFF AND SWAP1 DUP1 PUSH1 0x1 ADD SLOAD SWAP1 DUP1 PUSH1 0x2 ADD PUSH1 0x0 SWAP1 SLOAD SWAP1 PUSH2 0x100 EXP SWAP1 DIV PUSH1 0xFF AND SWAP1 DUP1 PUSH1 0x2 ADD PUSH1 0x1 SWAP1 SLOAD SWAP1 PUSH2 0x100 EXP SWAP1 DIV PUSH1 0xFF AND SWAP1 DUP1 PUSH1 0x2 ADD PUSH1 0x2 SWAP1 SLOAD SWAP1 PUSH2 0x100 EXP SWAP1 DIV PUSH1 0xFF AND SWAP1 POP DUP6 JUMP JUMPDEST PUSH32 0x0 PUSH20 0xFFFFFFFFFFFFFFFFFFFFFFFFFFFFFFFFFFFFFFFF AND CALLER PUSH20 0xFFFFFFFFFFFFFFFFFFFFFFFFFFFFFFFFFFFFFFFF AND EQ PUSH2 0x5A4 JUMPI CALLER PUSH32 0x0 PUSH1 0x40 MLOAD PUSH32 0x1CF993F400000000000000000000000000000000000000000000000000000000 DUP2 MSTORE PUSH1 0x4 ADD PUSH2 0x59B SWAP3 SWAP2 SWAP1 PUSH2 0x1D81 JUMP JUMPDEST PUSH1 0x40 MLOAD DUP1 SWAP2 SUB SWAP1 REVERT JUMPDEST PUSH2 0x5AE DUP3 DUP3 PUSH2 0xCB4 JUMP JUMPDEST POP POP JUMP JUMPDEST PUSH1 0x3 SLOAD DUP2 JUMP JUMPDEST PUSH1 0xA PUSH1 0x0 SWAP1 SLOAD SWAP1 PUSH2 0x100 EXP SWAP1 DIV PUSH1 0xFF AND DUP2 JUMP JUMPDEST PUSH1 0x5 PUSH1 0x0 SWAP1 SLOAD SWAP1 PUSH2 0x100 EXP SWAP1 DIV PUSH1 0xFF AND DUP2 JUMP JUMPDEST PUSH1 0x9 SLOAD DUP2 JUMP JUMPDEST PUSH1 0x4 SLOAD DUP2 JUMP JUMPDEST PUSH1 0xC PUSH1 0x0 SWAP1 SLOAD SWAP1 PUSH2 0x100 EXP SWAP1 DIV PUSH1 0xFF AND ISZERO PUSH2 0x63A JUMPI PUSH1 0x40 MLOAD PUSH32 0x8C379A000000000000000000000000000000000000000000000000000000000 DUP2 MSTORE PUSH1 0x4 ADD PUSH2 0x631 SWAP1 PUSH2 0x1B8A JUMP JUMPDEST PUSH1 0x40 MLOAD DUP1 SWAP2 SUB SWAP1 REVERT JUMPDEST PUSH1 0x1 PUSH1 0xC PUSH1 0x0 PUSH2 0x100 EXP DUP2 SLOAD DUP2 PUSH1 0xFF MUL NOT AND SWAP1 DUP4 ISZERO ISZERO MUL OR SWAP1 SSTORE POP PUSH1 0xA PUSH1 0x0 SWAP1 SLOAD SWAP1 PUSH2 0x100 EXP SWAP1 DIV PUSH1 0xFF AND ISZERO PUSH2 0x6A5 JUMPI PUSH1 0x40 MLOAD PUSH32 0x8C379A000000000000000000000000000000000000000000000000000000000 DUP2 MSTORE PUSH1 0x4 ADD PUSH2 0x69C SWAP1 PUSH2 0x1E1C JUMP JUMPDEST PUSH1 0x40 MLOAD DUP1 SWAP2 SUB SWAP1 REVERT JUMPDEST PUSH1 0x4 SLOAD CALLVALUE LT ISZERO PUSH2 0x6EA JUMPI PUSH1 0x40 MLOAD PUSH32 0x8C379A000000000000000000000000000000000000000000000000000000000 DUP2 MSTORE PUSH1 0x4 ADD PUSH2 0x6E1 SWAP1 PUSH2 0x1EAE JUMP JUMPDEST PUSH1 0x40 MLOAD DUP1 SWAP2 SUB SWAP1 REVERT JUMPDEST PUSH1 0x3 SLOAD CALLVALUE GT ISZERO PUSH2 0x72F JUMPI PUSH1 0x40 MLOAD PUSH32 0x8C379A000000000000000000000000000000000000000000000000000000000 DUP2 MSTORE PUSH1 0x4 ADD PUSH2 0x726 SWAP1 PUSH2 0x1F40 JUMP JUMPDEST PUSH1 0x40 MLOAD DUP1 SWAP2 SUB SWAP1 REVERT JUMPDEST PUSH1 0x0 PUSH1 0x5 DUP2 GT ISZERO PUSH2 0x743 JUMPI PUSH2 0x742 PUSH2 0x177A JUMP JUMPDEST JUMPDEST DUP2 PUSH1 0x5 DUP2 GT ISZERO PUSH2 0x756 JUMPI PUSH2 0x755 PUSH2 0x177A JUMP JUMPDEST JUMPDEST SUB PUSH2 0x7B7 JUMPI PUSH1 0x0 DUP3 PUSH1 0xFF AND LT ISZERO DUP1 ISZERO PUSH2 0x773 JUMPI POP PUSH1 0x24 DUP3 PUSH1 0xFF AND GT ISZERO JUMPDEST PUSH2 0x7B2 JUMPI PUSH1 0x40 MLOAD PUSH32 0x8C379A000000000000000000000000000000000000000000000000000000000 DUP2 MSTORE PUSH1 0x4 ADD PUSH2 0x7A9 SWAP1 PUSH2 0x1FD2 JUMP JUMPDEST PUSH1 0x40 MLOAD DUP1 SWAP2 SUB SWAP1 REVERT JUMPDEST PUSH2 0x987 JUMP JUMPDEST PUSH1 0x1 PUSH1 0x5 DUP2 GT ISZERO PUSH2 0x7CB JUMPI PUSH2 0x7CA PUSH2 0x177A JUMP JUMPDEST JUMPDEST DUP2 PUSH1 0x5 DUP2 GT ISZERO PUSH2 0x7DE JUMPI PUSH2 0x7DD PUSH2 0x177A JUMP JUMPDEST JUMPDEST SUB PUSH2 0x83F JUMPI PUSH1 0x1 DUP3 PUSH1 0xFF AND LT ISZERO DUP1 ISZERO PUSH2 0x7FB JUMPI POP PUSH1 0x3 DUP3 PUSH1 0xFF AND GT ISZERO JUMPDEST PUSH2 0x83A JUMPI PUSH1 0x40 MLOAD PUSH32 0x8C379A000000000000000000000000000000000000000000000000000000000 DUP2 MSTORE PUSH1 0x4 ADD PUSH2 0x831 SWAP1 PUSH2 0x2064 JUMP JUMPDEST PUSH1 0x40 MLOAD DUP1 SWAP2 SUB SWAP1 REVERT JUMPDEST PUSH2 0x986 JUMP JUMPDEST PUSH1 0x2 PUSH1 0x5 DUP2 GT ISZERO PUSH2 0x853 JUMPI PUSH2 0x852 PUSH2 0x177A JUMP JUMPDEST JUMPDEST DUP2 PUSH1 0x5 DUP2 GT ISZERO PUSH2 0x866 JUMPI PUSH2 0x865 PUSH2 0x177A JUMP JUMPDEST JUMPDEST EQ DUP1 PUSH2 0x896 JUMPI POP PUSH1 0x3 PUSH1 0x5 DUP2 GT ISZERO PUSH2 0x881 JUMPI PUSH2 0x880 PUSH2 0x177A JUMP JUMPDEST JUMPDEST DUP2 PUSH1 0x5 DUP2 GT ISZERO PUSH2 0x894 JUMPI PUSH2 0x893 PUSH2 0x177A JUMP JUMPDEST JUMPDEST EQ JUMPDEST DUP1 PUSH2 0x8C5 JUMPI POP PUSH1 0x4 PUSH1 0x5 DUP2 GT ISZERO PUSH2 0x8B0 JUMPI PUSH2 0x8AF PUSH2 0x177A JUMP JUMPDEST JUMPDEST DUP2 PUSH1 0x5 DUP2 GT ISZERO PUSH2 0x8C3 JUMPI PUSH2 0x8C2 PUSH2 0x177A JUMP JUMPDEST JUMPDEST EQ JUMPDEST DUP1 PUSH2 0x8F3 JUMPI POP PUSH1 0x5 DUP1 DUP2 GT ISZERO PUSH2 0x8DE JUMPI PUSH2 0x8DD PUSH2 0x177A JUMP JUMPDEST JUMPDEST DUP2 PUSH1 0x5 DUP2 GT ISZERO PUSH2 0x8F1 JUMPI PUSH2 0x8F0 PUSH2 0x177A JUMP JUMPDEST JUMPDEST EQ JUMPDEST ISZERO PUSH2 0x943 JUMPI PUSH1 0x1 DUP3 PUSH1 0xFF AND EQ PUSH2 0x93E JUMPI PUSH1 0x40 MLOAD PUSH32 0x8C379A000000000000000000000000000000000000000000000000000000000 DUP2 MSTORE PUSH1 0x4 ADD PUSH2 0x935 SWAP1 PUSH2 0x211C JUMP JUMPDEST PUSH1 0x40 MLOAD DUP1 SWAP2 SUB SWAP1 REVERT JUMPDEST PUSH2 0x985 JUMP JUMPDEST PUSH1 0x0 PUSH2 0x984 JUMPI PUSH1 0x40 MLOAD PUSH32 0x8C379A000000000000000000000000000000000000000000000000000000000 DUP2 MSTORE PUSH1 0x4 ADD PUSH2 0x97B SWAP1 PUSH2 0x21D4 JUMP JUMPDEST PUSH1 0x40 MLOAD DUP1 SWAP2 SUB SWAP1 REVERT JUMPDEST JUMPDEST JUMPDEST JUMPDEST PUSH1 0x1 PUSH1 0xA PUSH1 0x0 PUSH2 0x100 EXP DUP2 SLOAD DUP2 PUSH1 0xFF MUL NOT AND SWAP1 DUP4 ISZERO ISZERO MUL OR SWAP1 SSTORE POP PUSH1 0x40 MLOAD DUP1 PUSH1 0xA0 ADD PUSH1 0x40 MSTORE DUP1 CALLER PUSH20 0xFFFFFFFFFFFFFFFFFFFFFFFFFFFFFFFFFFFFFFFF AND DUP2 MSTORE PUSH1 0x20 ADD CALLVALUE DUP2 MSTORE PUSH1 0x20 ADD DUP3 PUSH1 0x5 DUP2 GT ISZERO PUSH2 0x9E2 JUMPI PUSH2 0x9E1 PUSH2 0x177A JUMP JUMPDEST JUMPDEST DUP2 MSTORE PUSH1 0x20 ADD DUP4 PUSH1 0xFF AND DUP2 MSTORE PUSH1 0x20 ADD PUSH1 0x0 ISZERO ISZERO DUP2 MSTORE POP PUSH1 0x6 PUSH1 0x0 DUP3 ADD MLOAD DUP2 PUSH1 0x0 ADD PUSH1 0x0 PUSH2 0x100 EXP DUP2 SLOAD DUP2 PUSH20 0xFFFFFFFFFFFFFFFFFFFFFFFFFFFFFFFFFFFFFFFF MUL NOT AND SWAP1 DUP4 PUSH20 0xFFFFFFFFFFFFFFFFFFFFFFFFFFFFFFFFFFFFFFFF AND MUL OR SWAP1 SSTORE POP PUSH1 0x20 DUP3 ADD MLOAD DUP2 PUSH1 0x1 ADD SSTORE PUSH1 0x40 DUP3 ADD MLOAD DUP2 PUSH1 0x2 ADD PUSH1 0x0 PUSH2 0x100 EXP DUP2 SLOAD DUP2 PUSH1 0xFF MUL NOT AND SWAP1 DUP4 PUSH1 0x5 DUP2 GT ISZERO PUSH2 0xA75 JUMPI PUSH2 0xA74 PUSH2 0x177A JUMP JUMPDEST JUMPDEST MUL OR SWAP1 SSTORE POP PUSH1 0x60 DUP3 ADD MLOAD DUP2 PUSH1 0x2 ADD PUSH1 0x1 PUSH2 0x100 EXP DUP2 SLOAD DUP2 PUSH1 0xFF MUL NOT AND SWAP1 DUP4 PUSH1 0xFF AND MUL OR SWAP1 SSTORE POP PUSH1 0x80 DUP3 ADD MLOAD DUP2 PUSH1 0x2 ADD PUSH1 0x2 PUSH2 0x100 EXP DUP2 SLOAD DUP2 PUSH1 0xFF MUL NOT AND SWAP1 DUP4 ISZERO ISZERO MUL OR SWAP1 SSTORE POP SWAP1 POP POP PUSH32 0x17765110FDCA5F4BA1CF2DF414D1CF822FA07C70797D184D4C43E9FDE1846EB5 PUSH1 0x6 PUSH1 0x40 MLOAD PUSH2 0xAEE SWAP2 SWAP1 PUSH2 0x23CC JUMP JUMPDEST PUSH1 0x40 MLOAD DUP1 SWAP2 SUB SWAP1 LOG1 PUSH2 0xAFE PUSH2 0xD7B JUMP JUMPDEST PUSH1 0x0 PUSH1 0xC PUSH1 0x0 PUSH2 0x100 EXP DUP2 SLOAD DUP2 PUSH1 0xFF MUL NOT AND SWAP1 DUP4 ISZERO ISZERO MUL OR SWAP1 SSTORE POP POP POP JUMP JUMPDEST PUSH2 0xB25 PUSH2 0xBB8 JUMP JUMPDEST JUMP JUMPDEST PUSH1 0x6 DUP1 PUSH1 0x0 ADD PUSH1 0x0 SWAP1 SLOAD SWAP1 PUSH2 0x100 EXP SWAP1 DIV PUSH20 0xFFFFFFFFFFFFFFFFFFFFFFFFFFFFFFFFFFFFFFFF AND SWAP1 DUP1 PUSH1 0x1 ADD SLOAD SWAP1 DUP1 PUSH1 0x2 ADD PUSH1 0x0 SWAP1 SLOAD SWAP1 PUSH2 0x100 EXP SWAP1 DIV PUSH1 0xFF AND SWAP1 DUP1 PUSH1 0x2 ADD PUSH1 0x1 SWAP1 SLOAD SWAP1 PUSH2 0x100 EXP SWAP1 DIV PUSH1 0xFF AND SWAP1 DUP1 PUSH1 0x2 ADD PUSH1 0x2 SWAP1 SLOAD SWAP1 PUSH2 0x100 EXP SWAP1 DIV PUSH1 0xFF AND SWAP1 POP DUP6 JUMP JUMPDEST PUSH1 0x2 PUSH1 0x4 SWAP1 SLOAD SWAP1 PUSH2 0x100 EXP SWAP1 DIV PUSH20 0xFFFFFFFFFFFFFFFFFFFFFFFFFFFFFFFFFFFFFFFF AND DUP2 JUMP JUMPDEST PUSH1 0x0 SELFBALANCE SWAP1 POP PUSH1 0x0 PUSH2 0x7530 SWAP1 POP DUP1 PUSH1 0x2 PUSH1 0x0 SWAP1 SLOAD SWAP1 PUSH2 0x100 EXP SWAP1 DIV PUSH4 0xFFFFFFFF AND PUSH4 0xFFFFFFFF AND PUSH2 0xBE8 SWAP2 SWAP1 PUSH2 0x23E7 JUMP JUMPDEST PUSH1 0x4 DUP2 SWAP1 SSTORE POP PUSH1 0x4 SLOAD PUSH1 0x23 DUP4 PUSH2 0xBFE SWAP2 SWAP1 PUSH2 0x244A JUMP JUMPDEST GT PUSH2 0xC3E JUMPI PUSH1 0x40 MLOAD PUSH32 0x8C379A000000000000000000000000000000000000000000000000000000000 DUP2 MSTORE PUSH1 0x4 ADD PUSH2 0xC35 SWAP1 PUSH2 0x24ED JUMP JUMPDEST PUSH1 0x40 MLOAD DUP1 SWAP2 SUB SWAP1 REVERT JUMPDEST PUSH1 0x4 SLOAD PUSH1 0x23 DUP4 PUSH2 0xC4E SWAP2 SWAP1 PUSH2 0x244A JUMP JUMPDEST PUSH2 0xC58 SWAP2 SWAP1 PUSH2 0x1CFD JUMP JUMPDEST PUSH1 0x3 DUP2 SWAP1 SSTORE POP PUSH32 0xD6C35F99CD113B65660D600ED2917DA92E279B96836A62BD211B0445E6AFA0CF PUSH1 0x3 SLOAD PUSH1 0x4 SLOAD PUSH1 0x40 MLOAD PUSH2 0xC93 SWAP3 SWAP2 SWAP1 PUSH2 0x250D JUMP JUMPDEST PUSH1 0x40 MLOAD DUP1 SWAP2 SUB SWAP1 LOG1 PUSH1 0x4 SLOAD PUSH1 0x3 SLOAD LT ISZERO PUSH2 0xCB0 JUMPI PUSH2 0xCAF PUSH2 0x1D31 JUMP JUMPDEST JUMPDEST POP POP JUMP JUMPDEST DUP2 PUSH1 0x9 SLOAD EQ PUSH2 0xCF8 JUMPI PUSH1 0x40 MLOAD PUSH32 0x8C379A000000000000000000000000000000000000000000000000000000000 DUP2 MSTORE PUSH1 0x4 ADD PUSH2 0xCEF SWAP1 PUSH2 0x2582 JUMP JUMPDEST PUSH1 0x40 MLOAD DUP1 SWAP2 SUB SWAP1 REVERT JUMPDEST PUSH1 0x25 DUP2 PUSH1 0x0 DUP2 MLOAD DUP2 LT PUSH2 0xD0E JUMPI PUSH2 0xD0D PUSH2 0x25A2 JUMP JUMPDEST JUMPDEST PUSH1 0x20 MUL PUSH1 0x20 ADD ADD MLOAD PUSH2 0xD20 SWAP2 SWAP1 PUSH2 0x25D1 JUMP JUMPDEST PUSH1 0x5 PUSH1 0x0 PUSH2 0x100 EXP DUP2 SLOAD DUP2 PUSH1 0xFF MUL NOT AND SWAP1 DUP4 PUSH1 0xFF AND MUL OR SWAP1 SSTORE POP PUSH32 0xD26A1EF5C184C4E0EB2179564CC0202C6EE2F00C1B3514D54DED3D5BC598E516 PUSH1 0x40 MLOAD PUSH2 0xD67 SWAP1 PUSH2 0x264E JUMP JUMPDEST PUSH1 0x40 MLOAD DUP1 SWAP2 SUB SWAP1 LOG1 PUSH2 0xD77 PUSH2 0xF82 JUMP JUMPDEST POP POP JUMP JUMPDEST PUSH1 0x0 PUSH1 0x3 SWAP1 POP PUSH1 0x0 PUSH1 0x1 SWAP1 POP PUSH1 0x0 DUP1 SLOAD SWAP1 PUSH2 0x100 EXP SWAP1 DIV PUSH20 0xFFFFFFFFFFFFFFFFFFFFFFFFFFFFFFFFFFFFFFFF AND PUSH20 0xFFFFFFFFFFFFFFFFFFFFFFFFFFFFFFFFFFFFFFFF AND PUSH4 0x5D3B1D30 PUSH1 0x1 SLOAD PUSH1 0x0 PUSH1 0x14 SWAP1 SLOAD SWAP1 PUSH2 0x100 EXP SWAP1 DIV PUSH8 0xFFFFFFFFFFFFFFFF AND DUP6 PUSH1 0x2 PUSH1 0x0 SWAP1 SLOAD SWAP1 PUSH2 0x100 EXP SWAP1 DIV PUSH4 0xFFFFFFFF AND DUP7 PUSH1 0x40 MLOAD DUP7 PUSH4 0xFFFFFFFF AND PUSH1 0xE0 SHL DUP2 MSTORE PUSH1 0x4 ADD PUSH2 0xE12 SWAP6 SWAP5 SWAP4 SWAP3 SWAP2 SWAP1 PUSH2 0x26E6 JUMP JUMPDEST PUSH1 0x20 PUSH1 0x40 MLOAD DUP1 DUP4 SUB DUP2 PUSH1 0x0 DUP8 GAS CALL ISZERO DUP1 ISZERO PUSH2 0xE31 JUMPI RETURNDATASIZE PUSH1 0x0 DUP1 RETURNDATACOPY RETURNDATASIZE PUSH1 0x0 REVERT JUMPDEST POP POP POP POP PUSH1 0x40 MLOAD RETURNDATASIZE PUSH1 0x1F NOT PUSH1 0x1F DUP3 ADD AND DUP3 ADD DUP1 PUSH1 0x40 MSTORE POP DUP2 ADD SWAP1 PUSH2 0xE55 SWAP2 SWAP1 PUSH2 0x274E JUMP JUMPDEST PUSH1 0x9 DUP2 SWAP1 SSTORE POP PUSH1 0x6 PUSH1 0xB PUSH1 0x0 PUSH1 0x9 SLOAD DUP2 MSTORE PUSH1 0x20 ADD SWAP1 DUP2 MSTORE PUSH1 0x20 ADD PUSH1 0x0 KECCAK256 PUSH1 0x0 DUP3 ADD PUSH1 0x0 SWAP1 SLOAD SWAP1 PUSH2 0x100 EXP SWAP1 DIV PUSH20 0xFFFFFFFFFFFFFFFFFFFFFFFFFFFFFFFFFFFFFFFF AND DUP2 PUSH1 0x0 ADD PUSH1 0x0 PUSH2 0x100 EXP DUP2 SLOAD DUP2 PUSH20 0xFFFFFFFFFFFFFFFFFFFFFFFFFFFFFFFFFFFFFFFF MUL NOT AND SWAP1 DUP4 PUSH20 0xFFFFFFFFFFFFFFFFFFFFFFFFFFFFFFFFFFFFFFFF AND MUL OR SWAP1 SSTORE POP PUSH1 0x1 DUP3 ADD SLOAD DUP2 PUSH1 0x1 ADD SSTORE PUSH1 0x2 DUP3 ADD PUSH1 0x0 SWAP1 SLOAD SWAP1 PUSH2 0x100 EXP SWAP1 DIV PUSH1 0xFF AND DUP2 PUSH1 0x2 ADD PUSH1 0x0 PUSH2 0x100 EXP DUP2 SLOAD DUP2 PUSH1 0xFF MUL NOT AND SWAP1 DUP4 PUSH1 0x5 DUP2 GT ISZERO PUSH2 0xF1B JUMPI PUSH2 0xF1A PUSH2 0x177A JUMP JUMPDEST JUMPDEST MUL OR SWAP1 SSTORE POP PUSH1 0x2 DUP3 ADD PUSH1 0x1 SWAP1 SLOAD SWAP1 PUSH2 0x100 EXP SWAP1 DIV PUSH1 0xFF AND DUP2 PUSH1 0x2 ADD PUSH1 0x1 PUSH2 0x100 EXP DUP2 SLOAD DUP2 PUSH1 0xFF MUL NOT AND SWAP1 DUP4 PUSH1 0xFF AND MUL OR SWAP1 SSTORE POP PUSH1 0x2 DUP3 ADD PUSH1 0x2 SWAP1 SLOAD SWAP1 PUSH2 0x100 EXP SWAP1 DIV PUSH1 0xFF AND DUP2 PUSH1 0x2 ADD PUSH1 0x2 PUSH2 0x100 EXP DUP2 SLOAD DUP2 PUSH1 0xFF MUL NOT AND SWAP1 DUP4 ISZERO ISZERO MUL OR SWAP1 SSTORE POP SWAP1 POP POP POP POP JUMP JUMPDEST PUSH1 0x0 PUSH1 0x6 PUSH1 0x0 ADD PUSH1 0x0 SWAP1 SLOAD SWAP1 PUSH2 0x100 EXP SWAP1 DIV PUSH20 0xFFFFFFFFFFFFFFFFFFFFFFFFFFFFFFFFFFFFFFFF AND SWAP1 POP PUSH1 0x0 PUSH1 0x6 PUSH1 0x1 ADD SLOAD SWAP1 POP PUSH1 0x0 PUSH1 0x6 PUSH1 0x2 ADD PUSH1 0x0 SWAP1 SLOAD SWAP1 PUSH2 0x100 EXP SWAP1 DIV PUSH1 0xFF AND SWAP1 POP PUSH1 0x0 PUSH1 0x6 PUSH1 0x2 ADD PUSH1 0x1 SWAP1 SLOAD SWAP1 PUSH2 0x100 EXP SWAP1 DIV PUSH1 0xFF AND SWAP1 POP PUSH1 0x0 PUSH1 0x5 DUP2 GT ISZERO PUSH2 0xFF8 JUMPI PUSH2 0xFF7 PUSH2 0x177A JUMP JUMPDEST JUMPDEST DUP3 PUSH1 0x5 DUP2 GT ISZERO PUSH2 0x100B JUMPI PUSH2 0x100A PUSH2 0x177A JUMP JUMPDEST JUMPDEST SUB PUSH2 0x10AE JUMPI DUP1 PUSH1 0xFF AND PUSH1 0x5 PUSH1 0x0 SWAP1 SLOAD SWAP1 PUSH2 0x100 EXP SWAP1 DIV PUSH1 0xFF AND PUSH1 0xFF AND SUB PUSH2 0x109C JUMPI DUP4 PUSH20 0xFFFFFFFFFFFFFFFFFFFFFFFFFFFFFFFFFFFFFFFF AND PUSH2 0x8FC PUSH1 0x23 DUP6 PUSH2 0x1053 SWAP2 SWAP1 PUSH2 0x277B JUMP JUMPDEST SWAP1 DUP2 ISZERO MUL SWAP1 PUSH1 0x40 MLOAD PUSH1 0x0 PUSH1 0x40 MLOAD DUP1 DUP4 SUB DUP2 DUP6 DUP9 DUP9 CALL SWAP4 POP POP POP POP ISZERO DUP1 ISZERO PUSH2 0x107E JUMPI RETURNDATASIZE PUSH1 0x0 DUP1 RETURNDATACOPY RETURNDATASIZE PUSH1 0x0 REVERT JUMPDEST POP PUSH2 0x1097 DUP5 PUSH1 0x1 PUSH1 0x23 DUP7 PUSH2 0x1092 SWAP2 SWAP1 PUSH2 0x277B JUMP JUMPDEST PUSH2 0x154C JUMP JUMPDEST PUSH2 0x10A9 JUMP JUMPDEST PUSH2 0x10A8 DUP5 PUSH1 0x0 DUP1 PUSH2 0x154C JUMP JUMPDEST JUMPDEST PUSH2 0x14EE JUMP JUMPDEST PUSH1 0x1 PUSH1 0x5 DUP2 GT ISZERO PUSH2 0x10C2 JUMPI PUSH2 0x10C1 PUSH2 0x177A JUMP JUMPDEST JUMPDEST DUP3 PUSH1 0x5 DUP2 GT ISZERO PUSH2 0x10D5 JUMPI PUSH2 0x10D4 PUSH2 0x177A JUMP JUMPDEST JUMPDEST SUB PUSH2 0x11BF JUMPI PUSH1 0xC PUSH1 0x1 DUP3 PUSH2 0x10E9 SWAP2 SWAP1 PUSH2 0x27BD JUMP JUMPDEST PUSH2 0x10F3 SWAP2 SWAP1 PUSH2 0x27F2 JUMP JUMPDEST PUSH1 0xFF AND PUSH1 0x5 PUSH1 0x0 SWAP1 SLOAD SWAP1 PUSH2 0x100 EXP SWAP1 DIV PUSH1 0xFF AND PUSH1 0xFF AND LT ISZERO DUP1 ISZERO PUSH2 0x1138 JUMPI POP PUSH1 0xC DUP2 PUSH2 0x111F SWAP2 SWAP1 PUSH2 0x27F2 JUMP JUMPDEST PUSH1 0xFF AND PUSH1 0x5 PUSH1 0x0 SWAP1 SLOAD SWAP1 PUSH2 0x100 EXP SWAP1 DIV PUSH1 0xFF AND PUSH1 0xFF AND GT ISZERO JUMPDEST ISZERO PUSH2 0x11AD JUMPI DUP4 PUSH20 0xFFFFFFFFFFFFFFFFFFFFFFFFFFFFFFFFFFFFFFFF AND PUSH2 0x8FC PUSH1 0x3 DUP6 PUSH2 0x1164 SWAP2 SWAP1 PUSH2 0x277B JUMP JUMPDEST SWAP1 DUP2 ISZERO MUL SWAP1 PUSH1 0x40 MLOAD PUSH1 0x0 PUSH1 0x40 MLOAD DUP1 DUP4 SUB DUP2 DUP6 DUP9 DUP9 CALL SWAP4 POP POP POP POP ISZERO DUP1 ISZERO PUSH2 0x118F JUMPI RETURNDATASIZE PUSH1 0x0 DUP1 RETURNDATACOPY RETURNDATASIZE PUSH1 0x0 REVERT JUMPDEST POP PUSH2 0x11A8 DUP5 PUSH1 0x1 PUSH1 0x3 DUP7 PUSH2 0x11A3 SWAP2 SWAP1 PUSH2 0x277B JUMP JUMPDEST PUSH2 0x154C JUMP JUMPDEST PUSH2 0x11BA JUMP JUMPDEST PUSH2 0x11B9 DUP5 PUSH1 0x0 DUP1 PUSH2 0x154C JUMP JUMPDEST JUMPDEST PUSH2 0x14ED JUMP JUMPDEST PUSH1 0x2 PUSH1 0x5 DUP2 GT ISZERO PUSH2 0x11D3 JUMPI PUSH2 0x11D2 PUSH2 0x177A JUMP JUMPDEST JUMPDEST DUP3 PUSH1 0x5 DUP2 GT ISZERO PUSH2 0x11E6 JUMPI PUSH2 0x11E5 PUSH2 0x177A JUMP JUMPDEST JUMPDEST SUB PUSH2 0x128A JUMPI PUSH2 0x1203 PUSH1 0x5 PUSH1 0x0 SWAP1 SLOAD SWAP1 PUSH2 0x100 EXP SWAP1 DIV PUSH1 0xFF AND PUSH2 0x1600 JUMP JUMPDEST ISZERO PUSH2 0x1278 JUMPI DUP4 PUSH20 0xFFFFFFFFFFFFFFFFFFFFFFFFFFFFFFFFFFFFFFFF AND PUSH2 0x8FC PUSH1 0x2 DUP6 PUSH2 0x122F SWAP2 SWAP1 PUSH2 0x277B JUMP JUMPDEST SWAP1 DUP2 ISZERO MUL SWAP1 PUSH1 0x40 MLOAD PUSH1 0x0 PUSH1 0x40 MLOAD DUP1 DUP4 SUB DUP2 DUP6 DUP9 DUP9 CALL SWAP4 POP POP POP POP ISZERO DUP1 ISZERO PUSH2 0x125A JUMPI RETURNDATASIZE PUSH1 0x0 DUP1 RETURNDATACOPY RETURNDATASIZE PUSH1 0x0 REVERT JUMPDEST POP PUSH2 0x1273 DUP5 PUSH1 0x1 PUSH1 0x2 DUP7 PUSH2 0x126E SWAP2 SWAP1 PUSH2 0x277B JUMP JUMPDEST PUSH2 0x154C JUMP JUMPDEST PUSH2 0x1285 JUMP JUMPDEST PUSH2 0x1284 DUP5 PUSH1 0x0 DUP1 PUSH2 0x154C JUMP JUMPDEST JUMPDEST PUSH2 0x14EC JUMP JUMPDEST PUSH1 0x3 PUSH1 0x5 DUP2 GT ISZERO PUSH2 0x129E JUMPI PUSH2 0x129D PUSH2 0x177A JUMP JUMPDEST JUMPDEST DUP3 PUSH1 0x5 DUP2 GT ISZERO PUSH2 0x12B1 JUMPI PUSH2 0x12B0 PUSH2 0x177A JUMP JUMPDEST JUMPDEST SUB PUSH2 0x1354 JUMPI PUSH2 0x12CE PUSH1 0x5 PUSH1 0x0 SWAP1 SLOAD SWAP1 PUSH2 0x100 EXP SWAP1 DIV PUSH1 0xFF AND PUSH2 0x1600 JUMP JUMPDEST PUSH2 0x1342 JUMPI DUP4 PUSH20 0xFFFFFFFFFFFFFFFFFFFFFFFFFFFFFFFFFFFFFFFF AND PUSH2 0x8FC PUSH1 0x2 DUP6 PUSH2 0x12F9 SWAP2 SWAP1 PUSH2 0x277B JUMP JUMPDEST SWAP1 DUP2 ISZERO MUL SWAP1 PUSH1 0x40 MLOAD PUSH1 0x0 PUSH1 0x40 MLOAD DUP1 DUP4 SUB DUP2 DUP6 DUP9 DUP9 CALL SWAP4 POP POP POP POP ISZERO DUP1 ISZERO PUSH2 0x1324 JUMPI RETURNDATASIZE PUSH1 0x0 DUP1 RETURNDATACOPY RETURNDATASIZE PUSH1 0x0 REVERT JUMPDEST POP PUSH2 0x133D DUP5 PUSH1 0x1 PUSH1 0x2 DUP7 PUSH2 0x1338 SWAP2 SWAP1 PUSH2 0x277B JUMP JUMPDEST PUSH2 0x154C JUMP JUMPDEST PUSH2 0x134F JUMP JUMPDEST PUSH2 0x134E DUP5 PUSH1 0x0 DUP1 PUSH2 0x154C JUMP JUMPDEST JUMPDEST PUSH2 0x14EB JUMP JUMPDEST PUSH1 0x4 PUSH1 0x5 DUP2 GT ISZERO PUSH2 0x1368 JUMPI PUSH2 0x1367 PUSH2 0x177A JUMP JUMPDEST JUMPDEST DUP3 PUSH1 0x5 DUP2 GT ISZERO PUSH2 0x137B JUMPI PUSH2 0x137A PUSH2 0x177A JUMP JUMPDEST JUMPDEST SUB PUSH2 0x141F JUMPI PUSH2 0x1398 PUSH1 0x5 PUSH1 0x0 SWAP1 SLOAD SWAP1 PUSH2 0x100 EXP SWAP1 DIV PUSH1 0xFF AND PUSH2 0x16A1 JUMP JUMPDEST ISZERO PUSH2 0x140D JUMPI DUP4 PUSH20 0xFFFFFFFFFFFFFFFFFFFFFFFFFFFFFFFFFFFFFFFF AND PUSH2 0x8FC PUSH1 0x2 DUP6 PUSH2 0x13C4 SWAP2 SWAP1 PUSH2 0x277B JUMP JUMPDEST SWAP1 DUP2 ISZERO MUL SWAP1 PUSH1 0x40 MLOAD PUSH1 0x0 PUSH1 0x40 MLOAD DUP1 DUP4 SUB DUP2 DUP6 DUP9 DUP9 CALL SWAP4 POP POP POP POP ISZERO DUP1 ISZERO PUSH2 0x13EF JUMPI RETURNDATASIZE PUSH1 0x0 DUP1 RETURNDATACOPY RETURNDATASIZE PUSH1 0x0 REVERT JUMPDEST POP PUSH2 0x1408 DUP5 PUSH1 0x1 PUSH1 0x2 DUP7 PUSH2 0x1403 SWAP2 SWAP1 PUSH2 0x277B JUMP JUMPDEST PUSH2 0x154C JUMP JUMPDEST PUSH2 0x141A JUMP JUMPDEST PUSH2 0x1419 DUP5 PUSH1 0x0 DUP1 PUSH2 0x154C JUMP JUMPDEST JUMPDEST PUSH2 0x14EA JUMP JUMPDEST PUSH1 0x5 DUP1 DUP2 GT ISZERO PUSH2 0x1432 JUMPI PUSH2 0x1431 PUSH2 0x177A JUMP JUMPDEST JUMPDEST DUP3 PUSH1 0x5 DUP2 GT ISZERO PUSH2 0x1445 JUMPI PUSH2 0x1444 PUSH2 0x177A JUMP JUMPDEST JUMPDEST SUB PUSH2 0x14E8 JUMPI PUSH2 0x1462 PUSH1 0x5 PUSH1 0x0 SWAP1 SLOAD SWAP1 PUSH2 0x100 EXP SWAP1 DIV PUSH1 0xFF AND PUSH2 0x16A1 JUMP JUMPDEST PUSH2 0x14D6 JUMPI DUP4 PUSH20 0xFFFFFFFFFFFFFFFFFFFFFFFFFFFFFFFFFFFFFFFF AND PUSH2 0x8FC PUSH1 0x2 DUP6 PUSH2 0x148D SWAP2 SWAP1 PUSH2 0x277B JUMP JUMPDEST SWAP1 DUP2 ISZERO MUL SWAP1 PUSH1 0x40 MLOAD PUSH1 0x0 PUSH1 0x40 MLOAD DUP1 DUP4 SUB DUP2 DUP6 DUP9 DUP9 CALL SWAP4 POP POP POP POP ISZERO DUP1 ISZERO PUSH2 0x14B8 JUMPI RETURNDATASIZE PUSH1 0x0 DUP1 RETURNDATACOPY RETURNDATASIZE PUSH1 0x0 REVERT JUMPDEST POP PUSH2 0x14D1 DUP5 PUSH1 0x1 PUSH1 0x2 DUP7 PUSH2 0x14CC SWAP2 SWAP1 PUSH2 0x277B JUMP JUMPDEST PUSH2 0x154C JUMP JUMPDEST PUSH2 0x14E3 JUMP JUMPDEST PUSH2 0x14E2 DUP5 PUSH1 0x0 DUP1 PUSH2 0x154C JUMP JUMPDEST JUMPDEST PUSH2 0x14E9 JUMP JUMPDEST JUMPDEST JUMPDEST JUMPDEST JUMPDEST JUMPDEST JUMPDEST PUSH2 0x14F6 PUSH2 0xBB8 JUMP JUMPDEST PUSH1 0x0 PUSH1 0xA PUSH1 0x0 PUSH2 0x100 EXP DUP2 SLOAD DUP2 PUSH1 0xFF MUL NOT AND SWAP1 DUP4 ISZERO ISZERO MUL OR SWAP1 SSTORE POP PUSH32 0x9E32D9879388C92FA8390C5A92317126522AE46EAC27FDDFEDAC4DDC795B8F3 PUSH1 0x40 MLOAD PUSH2 0x153E SWAP1 PUSH2 0x287B JUMP JUMPDEST PUSH1 0x40 MLOAD DUP1 SWAP2 SUB SWAP1 LOG1 POP POP POP POP JUMP JUMPDEST DUP2 ISZERO PUSH2 0x15C1 JUMPI PUSH32 0xC32342DC8906E5E3A410389D8EA8527ACA5F746CCD18F74703CC4A2A32C99F46 DUP4 DUP3 PUSH1 0x40 MLOAD PUSH2 0x1583 SWAP3 SWAP2 SWAP1 PUSH2 0x28E7 JUMP JUMPDEST PUSH1 0x40 MLOAD DUP1 SWAP2 SUB SWAP1 LOG1 PUSH1 0x1 PUSH1 0xB PUSH1 0x0 PUSH1 0x9 SLOAD DUP2 MSTORE PUSH1 0x20 ADD SWAP1 DUP2 MSTORE PUSH1 0x20 ADD PUSH1 0x0 KECCAK256 PUSH1 0x2 ADD PUSH1 0x2 PUSH2 0x100 EXP DUP2 SLOAD DUP2 PUSH1 0xFF MUL NOT AND SWAP1 DUP4 ISZERO ISZERO MUL OR SWAP1 SSTORE POP PUSH2 0x15FB JUMP JUMPDEST PUSH32 0xC32342DC8906E5E3A410389D8EA8527ACA5F746CCD18F74703CC4A2A32C99F46 DUP4 DUP3 PUSH1 0x40 MLOAD PUSH2 0x15F2 SWAP3 SWAP2 SWAP1 PUSH2 0x296F JUMP JUMPDEST PUSH1 0x40 MLOAD DUP1 SWAP2 SUB SWAP1 LOG1 JUMPDEST POP POP POP JUMP JUMPDEST PUSH1 0x0 PUSH1 0x1 DUP3 PUSH1 0xFF AND LT ISZERO DUP1 ISZERO PUSH2 0x161A JUMPI POP PUSH1 0xA DUP3 PUSH1 0xFF AND GT ISZERO JUMPDEST DUP1 PUSH2 0x1639 JUMPI POP PUSH1 0x13 DUP3 PUSH1 0xFF AND LT ISZERO DUP1 ISZERO PUSH2 0x1638 JUMPI POP PUSH1 0x1C DUP3 PUSH1 0xFF AND GT ISZERO JUMPDEST JUMPDEST DUP1 ISZERO PUSH2 0x164A JUMPI POP PUSH2 0x1649 DUP3 PUSH2 0x16A1 JUMP JUMPDEST JUMPDEST DUP1 PUSH2 0x169A JUMPI POP PUSH1 0xB DUP3 PUSH1 0xFF AND LT ISZERO DUP1 ISZERO PUSH2 0x1668 JUMPI POP PUSH1 0x12 DUP3 PUSH1 0xFF AND GT ISZERO JUMPDEST DUP1 PUSH2 0x1687 JUMPI POP PUSH1 0x1D DUP3 PUSH1 0xFF AND LT ISZERO DUP1 ISZERO PUSH2 0x1686 JUMPI POP PUSH1 0x24 DUP3 PUSH1 0xFF AND GT ISZERO JUMPDEST JUMPDEST DUP1 ISZERO PUSH2 0x1699 JUMPI POP PUSH2 0x1697 DUP3 PUSH2 0x16A1 JUMP JUMPDEST ISZERO JUMPDEST JUMPDEST SWAP1 POP SWAP2 SWAP1 POP JUMP JUMPDEST PUSH1 0x0 PUSH1 0x1 DUP1 DUP4 AND PUSH1 0xFF AND EQ SWAP1 POP SWAP2 SWAP1 POP JUMP JUMPDEST PUSH1 0x0 PUSH1 0x40 MLOAD SWAP1 POP SWAP1 JUMP JUMPDEST PUSH1 0x0 DUP1 REVERT JUMPDEST PUSH1 0x0 DUP1 REVERT JUMPDEST PUSH1 0x0 DUP2 SWAP1 POP SWAP2 SWAP1 POP JUMP JUMPDEST PUSH2 0x16DA DUP2 PUSH2 0x16C7 JUMP JUMPDEST DUP2 EQ PUSH2 0x16E5 JUMPI PUSH1 0x0 DUP1 REVERT JUMPDEST POP JUMP JUMPDEST PUSH1 0x0 DUP2 CALLDATALOAD SWAP1 POP PUSH2 0x16F7 DUP2 PUSH2 0x16D1 JUMP JUMPDEST SWAP3 SWAP2 POP POP JUMP JUMPDEST PUSH1 0x0 PUSH1 0x20 DUP3 DUP5 SUB SLT ISZERO PUSH2 0x1713 JUMPI PUSH2 0x1712 PUSH2 0x16BD JUMP JUMPDEST JUMPDEST PUSH1 0x0 PUSH2 0x1721 DUP5 DUP3 DUP6 ADD PUSH2 0x16E8 JUMP JUMPDEST SWAP2 POP POP SWAP3 SWAP2 POP POP JUMP JUMPDEST PUSH1 0x0 PUSH20 0xFFFFFFFFFFFFFFFFFFFFFFFFFFFFFFFFFFFFFFFF DUP3 AND SWAP1 POP SWAP2 SWAP1 POP JUMP JUMPDEST PUSH1 0x0 PUSH2 0x1755 DUP3 PUSH2 0x172A JUMP JUMPDEST SWAP1 POP SWAP2 SWAP1 POP JUMP JUMPDEST PUSH2 0x1765 DUP2 PUSH2 0x174A JUMP JUMPDEST DUP3 MSTORE POP POP JUMP JUMPDEST PUSH2 0x1774 DUP2 PUSH2 0x16C7 JUMP JUMPDEST DUP3 MSTORE POP POP JUMP JUMPDEST PUSH32 0x4E487B7100000000000000000000000000000000000000000000000000000000 PUSH1 0x0 MSTORE PUSH1 0x21 PUSH1 0x4 MSTORE PUSH1 0x24 PUSH1 0x0 REVERT JUMPDEST PUSH1 0x6 DUP2 LT PUSH2 0x17BA JUMPI PUSH2 0x17B9 PUSH2 0x177A JUMP JUMPDEST JUMPDEST POP JUMP JUMPDEST PUSH1 0x0 DUP2 SWAP1 POP PUSH2 0x17CB DUP3 PUSH2 0x17A9 JUMP JUMPDEST SWAP2 SWAP1 POP JUMP JUMPDEST PUSH1 0x0 PUSH2 0x17DB DUP3 PUSH2 0x17BD JUMP JUMPDEST SWAP1 POP SWAP2 SWAP1 POP JUMP JUMPDEST PUSH2 0x17EB DUP2 PUSH2 0x17D0 JUMP JUMPDEST DUP3 MSTORE POP POP JUMP JUMPDEST PUSH1 0x0 PUSH1 0xFF DUP3 AND SWAP1 POP SWAP2 SWAP1 POP JUMP JUMPDEST PUSH2 0x1807 DUP2 PUSH2 0x17F1 JUMP JUMPDEST DUP3 MSTORE POP POP JUMP JUMPDEST PUSH1 0x0 DUP2 ISZERO ISZERO SWAP1 POP SWAP2 SWAP1 POP JUMP JUMPDEST PUSH2 0x1822 DUP2 PUSH2 0x180D JUMP JUMPDEST DUP3 MSTORE POP POP JUMP JUMPDEST PUSH1 0x0 PUSH1 0xA0 DUP3 ADD SWAP1 POP PUSH2 0x183D PUSH1 0x0 DUP4 ADD DUP9 PUSH2 0x175C JUMP JUMPDEST PUSH2 0x184A PUSH1 0x20 DUP4 ADD DUP8 PUSH2 0x176B JUMP JUMPDEST PUSH2 0x1857 PUSH1 0x40 DUP4 ADD DUP7 PUSH2 0x17E2 JUMP JUMPDEST PUSH2 0x1864 PUSH1 0x60 DUP4 ADD DUP6 PUSH2 0x17FE JUMP JUMPDEST PUSH2 0x1871 PUSH1 0x80 DUP4 ADD DUP5 PUSH2 0x1819 JUMP JUMPDEST SWAP7 SWAP6 POP POP POP POP POP POP JUMP JUMPDEST PUSH1 0x0 DUP1 REVERT JUMPDEST PUSH1 0x0 PUSH1 0x1F NOT PUSH1 0x1F DUP4 ADD AND SWAP1 POP SWAP2 SWAP1 POP JUMP JUMPDEST PUSH32 0x4E487B7100000000000000000000000000000000000000000000000000000000 PUSH1 0x0 MSTORE PUSH1 0x41 PUSH1 0x4 MSTORE PUSH1 0x24 PUSH1 0x0 REVERT JUMPDEST PUSH2 0x18C9 DUP3 PUSH2 0x1880 JUMP JUMPDEST DUP2 ADD DUP2 DUP2 LT PUSH8 0xFFFFFFFFFFFFFFFF DUP3 GT OR ISZERO PUSH2 0x18E8 JUMPI PUSH2 0x18E7 PUSH2 0x1891 JUMP JUMPDEST JUMPDEST DUP1 PUSH1 0x40 MSTORE POP POP POP JUMP JUMPDEST PUSH1 0x0 PUSH2 0x18FB PUSH2 0x16B3 JUMP JUMPDEST SWAP1 POP PUSH2 0x1907 DUP3 DUP3 PUSH2 0x18C0 JUMP JUMPDEST SWAP2 SWAP1 POP JUMP JUMPDEST PUSH1 0x0 PUSH8 0xFFFFFFFFFFFFFFFF DUP3 GT ISZERO PUSH2 0x1927 JUMPI PUSH2 0x1926 PUSH2 0x1891 JUMP JUMPDEST JUMPDEST PUSH1 0x20 DUP3 MUL SWAP1 POP PUSH1 0x20 DUP2 ADD SWAP1 POP SWAP2 SWAP1 POP JUMP JUMPDEST PUSH1 0x0 DUP1 REVERT JUMPDEST PUSH1 0x0 PUSH2 0x1950 PUSH2 0x194B DUP5 PUSH2 0x190C JUMP JUMPDEST PUSH2 0x18F1 JUMP JUMPDEST SWAP1 POP DUP1 DUP4 DUP3 MSTORE PUSH1 0x20 DUP3 ADD SWAP1 POP PUSH1 0x20 DUP5 MUL DUP4 ADD DUP6 DUP2 GT ISZERO PUSH2 0x1973 JUMPI PUSH2 0x1972 PUSH2 0x1938 JUMP JUMPDEST JUMPDEST DUP4 JUMPDEST DUP2 DUP2 LT ISZERO PUSH2 0x199C JUMPI DUP1 PUSH2 0x1988 DUP9 DUP3 PUSH2 0x16E8 JUMP JUMPDEST DUP5 MSTORE PUSH1 0x20 DUP5 ADD SWAP4 POP POP PUSH1 0x20 DUP2 ADD SWAP1 POP PUSH2 0x1975 JUMP JUMPDEST POP POP POP SWAP4 SWAP3 POP POP POP JUMP JUMPDEST PUSH1 0x0 DUP3 PUSH1 0x1F DUP4 ADD SLT PUSH2 0x19BB JUMPI PUSH2 0x19BA PUSH2 0x187B JUMP JUMPDEST JUMPDEST DUP2 CALLDATALOAD PUSH2 0x19CB DUP5 DUP3 PUSH1 0x20 DUP7 ADD PUSH2 0x193D JUMP JUMPDEST SWAP2 POP POP SWAP3 SWAP2 POP POP JUMP JUMPDEST PUSH1 0x0 DUP1 PUSH1 0x40 DUP4 DUP6 SUB SLT ISZERO PUSH2 0x19EB JUMPI PUSH2 0x19EA PUSH2 0x16BD JUMP JUMPDEST JUMPDEST PUSH1 0x0 PUSH2 0x19F9 DUP6 DUP3 DUP7 ADD PUSH2 0x16E8 JUMP JUMPDEST SWAP3 POP POP PUSH1 0x20 DUP4 ADD CALLDATALOAD PUSH8 0xFFFFFFFFFFFFFFFF DUP2 GT ISZERO PUSH2 0x1A1A JUMPI PUSH2 0x1A19 PUSH2 0x16C2 JUMP JUMPDEST JUMPDEST PUSH2 0x1A26 DUP6 DUP3 DUP7 ADD PUSH2 0x19A6 JUMP JUMPDEST SWAP2 POP POP SWAP3 POP SWAP3 SWAP1 POP JUMP JUMPDEST PUSH1 0x0 PUSH1 0x20 DUP3 ADD SWAP1 POP PUSH2 0x1A45 PUSH1 0x0 DUP4 ADD DUP5 PUSH2 0x176B JUMP JUMPDEST SWAP3 SWAP2 POP POP JUMP JUMPDEST PUSH1 0x0 PUSH1 0x20 DUP3 ADD SWAP1 POP PUSH2 0x1A60 PUSH1 0x0 DUP4 ADD DUP5 PUSH2 0x1819 JUMP JUMPDEST SWAP3 SWAP2 POP POP JUMP JUMPDEST PUSH1 0x0 PUSH1 0x20 DUP3 ADD SWAP1 POP PUSH2 0x1A7B PUSH1 0x0 DUP4 ADD DUP5 PUSH2 0x17FE JUMP JUMPDEST SWAP3 SWAP2 POP POP JUMP JUMPDEST PUSH2 0x1A8A DUP2 PUSH2 0x17F1 JUMP JUMPDEST DUP2 EQ PUSH2 0x1A95 JUMPI PUSH1 0x0 DUP1 REVERT JUMPDEST POP JUMP JUMPDEST PUSH1 0x0 DUP2 CALLDATALOAD SWAP1 POP PUSH2 0x1AA7 DUP2 PUSH2 0x1A81 JUMP JUMPDEST SWAP3 SWAP2 POP POP JUMP JUMPDEST PUSH1 0x6 DUP2 LT PUSH2 0x1ABA JUMPI PUSH1 0x0 DUP1 REVERT JUMPDEST POP JUMP JUMPDEST PUSH1 0x0 DUP2 CALLDATALOAD SWAP1 POP PUSH2 0x1ACC DUP2 PUSH2 0x1AAD JUMP JUMPDEST SWAP3 SWAP2 POP POP JUMP JUMPDEST PUSH1 0x0 DUP1 PUSH1 0x40 DUP4 DUP6 SUB SLT ISZERO PUSH2 0x1AE9 JUMPI PUSH2 0x1AE8 PUSH2 0x16BD JUMP JUMPDEST JUMPDEST PUSH1 0x0 PUSH2 0x1AF7 DUP6 DUP3 DUP7 ADD PUSH2 0x1A98 JUMP JUMPDEST SWAP3 POP POP PUSH1 0x20 PUSH2 0x1B08 DUP6 DUP3 DUP7 ADD PUSH2 0x1ABD JUMP JUMPDEST SWAP2 POP POP SWAP3 POP SWAP3 SWAP1 POP JUMP JUMPDEST PUSH1 0x0 PUSH1 0x20 DUP3 ADD SWAP1 POP PUSH2 0x1B27 PUSH1 0x0 DUP4 ADD DUP5 PUSH2 0x175C JUMP JUMPDEST SWAP3 SWAP2 POP POP JUMP JUMPDEST PUSH1 0x0 DUP3 DUP3 MSTORE PUSH1 0x20 DUP3 ADD SWAP1 POP SWAP3 SWAP2 POP POP JUMP JUMPDEST PUSH32 0x4E6F2072652D656E7472616E6379000000000000000000000000000000000000 PUSH1 0x0 DUP3 ADD MSTORE POP JUMP JUMPDEST PUSH1 0x0 PUSH2 0x1B74 PUSH1 0xE DUP4 PUSH2 0x1B2D JUMP JUMPDEST SWAP2 POP PUSH2 0x1B7F DUP3 PUSH2 0x1B3E JUMP JUMPDEST PUSH1 0x20 DUP3 ADD SWAP1 POP SWAP2 SWAP1 POP JUMP JUMPDEST PUSH1 0x0 PUSH1 0x20 DUP3 ADD SWAP1 POP DUP2 DUP2 SUB PUSH1 0x0 DUP4 ADD MSTORE PUSH2 0x1BA3 DUP2 PUSH2 0x1B67 JUMP JUMPDEST SWAP1 POP SWAP2 SWAP1 POP JUMP JUMPDEST PUSH32 0x4F6E6C792074686520636F6E7472616374206F776E65722063616E2077697468 PUSH1 0x0 DUP3 ADD MSTORE PUSH32 0x64726177206D6F6E657921000000000000000000000000000000000000000000 PUSH1 0x20 DUP3 ADD MSTORE POP JUMP JUMPDEST PUSH1 0x0 PUSH2 0x1C06 PUSH1 0x2B DUP4 PUSH2 0x1B2D JUMP JUMPDEST SWAP2 POP PUSH2 0x1C11 DUP3 PUSH2 0x1BAA JUMP JUMPDEST PUSH1 0x40 DUP3 ADD SWAP1 POP SWAP2 SWAP1 POP JUMP JUMPDEST PUSH1 0x0 PUSH1 0x20 DUP3 ADD SWAP1 POP DUP2 DUP2 SUB PUSH1 0x0 DUP4 ADD MSTORE PUSH2 0x1C35 DUP2 PUSH2 0x1BF9 JUMP JUMPDEST SWAP1 POP SWAP2 SWAP1 POP JUMP JUMPDEST PUSH32 0x446F206E6F7420617474656D707420746F207769746864726177207768696C65 PUSH1 0x0 DUP3 ADD MSTORE PUSH32 0x20612067616D6520697320696E2070726F67726573732E000000000000000000 PUSH1 0x20 DUP3 ADD MSTORE POP JUMP JUMPDEST PUSH1 0x0 PUSH2 0x1C98 PUSH1 0x37 DUP4 PUSH2 0x1B2D JUMP JUMPDEST SWAP2 POP PUSH2 0x1CA3 DUP3 PUSH2 0x1C3C JUMP JUMPDEST PUSH1 0x40 DUP3 ADD SWAP1 POP SWAP2 SWAP1 POP JUMP JUMPDEST PUSH1 0x0 PUSH1 0x20 DUP3 ADD SWAP1 POP DUP2 DUP2 SUB PUSH1 0x0 DUP4 ADD MSTORE PUSH2 0x1CC7 DUP2 PUSH2 0x1C8B JUMP JUMPDEST SWAP1 POP SWAP2 SWAP1 POP JUMP JUMPDEST PUSH32 0x4E487B7100000000000000000000000000000000000000000000000000000000 PUSH1 0x0 MSTORE PUSH1 0x11 PUSH1 0x4 MSTORE PUSH1 0x24 PUSH1 0x0 REVERT JUMPDEST PUSH1 0x0 PUSH2 0x1D08 DUP3 PUSH2 0x16C7 JUMP JUMPDEST SWAP2 POP PUSH2 0x1D13 DUP4 PUSH2 0x16C7 JUMP JUMPDEST SWAP3 POP DUP3 DUP3 SUB SWAP1 POP DUP2 DUP2 GT ISZERO PUSH2 0x1D2B JUMPI PUSH2 0x1D2A PUSH2 0x1CCE JUMP JUMPDEST JUMPDEST SWAP3 SWAP2 POP POP JUMP JUMPDEST PUSH32 0x4E487B7100000000000000000000000000000000000000000000000000000000 PUSH1 0x0 MSTORE PUSH1 0x1 PUSH1 0x4 MSTORE PUSH1 0x24 PUSH1 0x0 REVERT JUMPDEST PUSH1 0x0 PUSH2 0x1D6B DUP3 PUSH2 0x172A JUMP JUMPDEST SWAP1 POP SWAP2 SWAP1 POP JUMP JUMPDEST PUSH2 0x1D7B DUP2 PUSH2 0x1D60 JUMP JUMPDEST DUP3 MSTORE POP POP JUMP JUMPDEST PUSH1 0x0 PUSH1 0x40 DUP3 ADD SWAP1 POP PUSH2 0x1D96 PUSH1 0x0 DUP4 ADD DUP6 PUSH2 0x1D72 JUMP JUMPDEST PUSH2 0x1DA3 PUSH1 0x20 DUP4 ADD DUP5 PUSH2 0x1D72 JUMP JUMPDEST SWAP4 SWAP3 POP POP POP JUMP JUMPDEST PUSH32 0x412067616D6520697320616C726561647920696E2070726F67726573732C2070 PUSH1 0x0 DUP3 ADD MSTORE PUSH32 0x6C6561736520686176652061206D6F6D656E74206F662070617469656E63652E PUSH1 0x20 DUP3 ADD MSTORE POP JUMP JUMPDEST PUSH1 0x0 PUSH2 0x1E06 PUSH1 0x40 DUP4 PUSH2 0x1B2D JUMP JUMPDEST SWAP2 POP PUSH2 0x1E11 DUP3 PUSH2 0x1DAA JUMP JUMPDEST PUSH1 0x40 DUP3 ADD SWAP1 POP SWAP2 SWAP1 POP JUMP JUMPDEST PUSH1 0x0 PUSH1 0x20 DUP3 ADD SWAP1 POP DUP2 DUP2 SUB PUSH1 0x0 DUP4 ADD MSTORE PUSH2 0x1E35 DUP2 PUSH2 0x1DF9 JUMP JUMPDEST SWAP1 POP SWAP2 SWAP1 POP JUMP JUMPDEST PUSH32 0x54686520616D6F756E74206F66206D6F6E657920696E2074686520626574206D PUSH1 0x0 DUP3 ADD MSTORE PUSH32 0x7573742065786365656420746865206D696E696D756D206265742E0000000000 PUSH1 0x20 DUP3 ADD MSTORE POP JUMP JUMPDEST PUSH1 0x0 PUSH2 0x1E98 PUSH1 0x3B DUP4 PUSH2 0x1B2D JUMP JUMPDEST SWAP2 POP PUSH2 0x1EA3 DUP3 PUSH2 0x1E3C JUMP JUMPDEST PUSH1 0x40 DUP3 ADD SWAP1 POP SWAP2 SWAP1 POP JUMP JUMPDEST PUSH1 0x0 PUSH1 0x20 DUP3 ADD SWAP1 POP DUP2 DUP2 SUB PUSH1 0x0 DUP4 ADD MSTORE PUSH2 0x1EC7 DUP2 PUSH2 0x1E8B JUMP JUMPDEST SWAP1 POP SWAP2 SWAP1 POP JUMP JUMPDEST PUSH32 0x54686520616D6F756E74206F66206D6F6E657920696E2074686520626574206D PUSH1 0x0 DUP3 ADD MSTORE PUSH32 0x7573742062652062656C6F7720746865206D6178696D756D206265742E000000 PUSH1 0x20 DUP3 ADD MSTORE POP JUMP JUMPDEST PUSH1 0x0 PUSH2 0x1F2A PUSH1 0x3D DUP4 PUSH2 0x1B2D JUMP JUMPDEST SWAP2 POP PUSH2 0x1F35 DUP3 PUSH2 0x1ECE JUMP JUMPDEST PUSH1 0x40 DUP3 ADD SWAP1 POP SWAP2 SWAP1 POP JUMP JUMPDEST PUSH1 0x0 PUSH1 0x20 DUP3 ADD SWAP1 POP DUP2 DUP2 SUB PUSH1 0x0 DUP4 ADD MSTORE PUSH2 0x1F59 DUP2 PUSH2 0x1F1D JUMP JUMPDEST SWAP1 POP SWAP2 SWAP1 POP JUMP JUMPDEST PUSH32 0x496E76616C6964206265742E2053696E676C6520626574206D75737420626520 PUSH1 0x0 DUP3 ADD MSTORE PUSH32 0x6265747765656E203020616E6420333620696E636C75736976652E0000000000 PUSH1 0x20 DUP3 ADD MSTORE POP JUMP JUMPDEST PUSH1 0x0 PUSH2 0x1FBC PUSH1 0x3B DUP4 PUSH2 0x1B2D JUMP JUMPDEST SWAP2 POP PUSH2 0x1FC7 DUP3 PUSH2 0x1F60 JUMP JUMPDEST PUSH1 0x40 DUP3 ADD SWAP1 POP SWAP2 SWAP1 POP JUMP JUMPDEST PUSH1 0x0 PUSH1 0x20 DUP3 ADD SWAP1 POP DUP2 DUP2 SUB PUSH1 0x0 DUP4 ADD MSTORE PUSH2 0x1FEB DUP2 PUSH2 0x1FAF JUMP JUMPDEST SWAP1 POP SWAP2 SWAP1 POP JUMP JUMPDEST PUSH32 0x496E76616C6964206265742E20546869726420626574206D7573742062652062 PUSH1 0x0 DUP3 ADD MSTORE PUSH32 0x65747765656E203120616E64203320696E636C75736976652E00000000000000 PUSH1 0x20 DUP3 ADD MSTORE POP JUMP JUMPDEST PUSH1 0x0 PUSH2 0x204E PUSH1 0x39 DUP4 PUSH2 0x1B2D JUMP JUMPDEST SWAP2 POP PUSH2 0x2059 DUP3 PUSH2 0x1FF2 JUMP JUMPDEST PUSH1 0x40 DUP3 ADD SWAP1 POP SWAP2 SWAP1 POP JUMP JUMPDEST PUSH1 0x0 PUSH1 0x20 DUP3 ADD SWAP1 POP DUP2 DUP2 SUB PUSH1 0x0 DUP4 ADD MSTORE PUSH2 0x207D DUP2 PUSH2 0x2041 JUMP JUMPDEST SWAP1 POP SWAP2 SWAP1 POP JUMP JUMPDEST PUSH32 0x496E76616C6964206265742E205265642F626C61636B2F6F64642F6576656E20 PUSH1 0x0 DUP3 ADD MSTORE PUSH32 0x62657473206D75737420626520706C616365642077697468206120626574206F PUSH1 0x20 DUP3 ADD MSTORE PUSH32 0x6620312E00000000000000000000000000000000000000000000000000000000 PUSH1 0x40 DUP3 ADD MSTORE POP JUMP JUMPDEST PUSH1 0x0 PUSH2 0x2106 PUSH1 0x44 DUP4 PUSH2 0x1B2D JUMP JUMPDEST SWAP2 POP PUSH2 0x2111 DUP3 PUSH2 0x2084 JUMP JUMPDEST PUSH1 0x60 DUP3 ADD SWAP1 POP SWAP2 SWAP1 POP JUMP JUMPDEST PUSH1 0x0 PUSH1 0x20 DUP3 ADD SWAP1 POP DUP2 DUP2 SUB PUSH1 0x0 DUP4 ADD MSTORE PUSH2 0x2135 DUP2 PUSH2 0x20F9 JUMP JUMPDEST SWAP1 POP SWAP2 SWAP1 POP JUMP JUMPDEST PUSH32 0x496E76616C69642062657420747970652E20506C656173652063686F6F736520 PUSH1 0x0 DUP3 ADD MSTORE PUSH32 0x2773696E676C65272C20277468697264272C2027726564272C2027626C61636B PUSH1 0x20 DUP3 ADD MSTORE PUSH32 0x272C20276F6464272C206F7220276576656E272E000000000000000000000000 PUSH1 0x40 DUP3 ADD MSTORE POP JUMP JUMPDEST PUSH1 0x0 PUSH2 0x21BE PUSH1 0x54 DUP4 PUSH2 0x1B2D JUMP JUMPDEST SWAP2 POP PUSH2 0x21C9 DUP3 PUSH2 0x213C JUMP JUMPDEST PUSH1 0x60 DUP3 ADD SWAP1 POP SWAP2 SWAP1 POP JUMP JUMPDEST PUSH1 0x0 PUSH1 0x20 DUP3 ADD SWAP1 POP DUP2 DUP2 SUB PUSH1 0x0 DUP4 ADD MSTORE PUSH2 0x21ED DUP2 PUSH2 0x21B1 JUMP JUMPDEST SWAP1 POP SWAP2 SWAP1 POP JUMP JUMPDEST PUSH1 0x0 DUP2 PUSH1 0x0 SHR SWAP1 POP SWAP2 SWAP1 POP JUMP JUMPDEST PUSH1 0x0 PUSH20 0xFFFFFFFFFFFFFFFFFFFFFFFFFFFFFFFFFFFFFFFF DUP3 AND SWAP1 POP SWAP2 SWAP1 POP JUMP JUMPDEST PUSH1 0x0 PUSH2 0x2234 PUSH2 0x222F DUP4 PUSH2 0x21F4 JUMP JUMPDEST PUSH2 0x2201 JUMP JUMPDEST SWAP1 POP SWAP2 SWAP1 POP JUMP JUMPDEST PUSH2 0x2244 DUP2 PUSH2 0x174A JUMP JUMPDEST DUP3 MSTORE POP POP JUMP JUMPDEST PUSH1 0x0 DUP2 SWAP1 POP SWAP2 SWAP1 POP JUMP JUMPDEST PUSH1 0x0 PUSH2 0x2267 PUSH2 0x2262 DUP4 PUSH2 0x21F4 JUMP JUMPDEST PUSH2 0x224A JUMP JUMPDEST SWAP1 POP SWAP2 SWAP1 POP JUMP JUMPDEST PUSH2 0x2277 DUP2 PUSH2 0x16C7 JUMP JUMPDEST DUP3 MSTORE POP POP JUMP JUMPDEST PUSH1 0x0 PUSH1 0xFF DUP3 AND SWAP1 POP SWAP2 SWAP1 POP JUMP JUMPDEST PUSH1 0x0 PUSH2 0x229D PUSH2 0x2298 DUP4 PUSH2 0x21F4 JUMP JUMPDEST PUSH2 0x227D JUMP JUMPDEST SWAP1 POP SWAP2 SWAP1 POP JUMP JUMPDEST PUSH2 0x22AD DUP2 PUSH2 0x17D0 JUMP JUMPDEST DUP3 MSTORE POP POP JUMP JUMPDEST PUSH1 0x0 DUP2 PUSH1 0x8 SHR SWAP1 POP SWAP2 SWAP1 POP JUMP JUMPDEST PUSH1 0x0 PUSH1 0xFF DUP3 AND SWAP1 POP SWAP2 SWAP1 POP JUMP JUMPDEST PUSH1 0x0 PUSH2 0x22E0 PUSH2 0x22DB DUP4 PUSH2 0x22B3 JUMP JUMPDEST PUSH2 0x22C0 JUMP JUMPDEST SWAP1 POP SWAP2 SWAP1 POP JUMP JUMPDEST PUSH2 0x22F0 DUP2 PUSH2 0x17F1 JUMP JUMPDEST DUP3 MSTORE POP POP JUMP JUMPDEST PUSH1 0x0 DUP2 PUSH1 0x10 SHR SWAP1 POP SWAP2 SWAP1 POP JUMP JUMPDEST PUSH1 0x0 PUSH1 0xFF DUP3 AND SWAP1 POP SWAP2 SWAP1 POP JUMP JUMPDEST PUSH1 0x0 PUSH2 0x2323 PUSH2 0x231E DUP4 PUSH2 0x22F6 JUMP JUMPDEST PUSH2 0x2303 JUMP JUMPDEST SWAP1 POP SWAP2 SWAP1 POP JUMP JUMPDEST PUSH2 0x2333 DUP2 PUSH2 0x180D JUMP JUMPDEST DUP3 MSTORE POP POP JUMP JUMPDEST PUSH1 0xA0 DUP3 ADD PUSH1 0x0 DUP1 DUP4 ADD SLOAD SWAP1 POP PUSH2 0x234E DUP2 PUSH2 0x2221 JUMP JUMPDEST PUSH2 0x235B PUSH1 0x0 DUP7 ADD DUP3 PUSH2 0x223B JUMP JUMPDEST POP PUSH1 0x1 DUP4 ADD SLOAD SWAP1 POP PUSH2 0x236C DUP2 PUSH2 0x2254 JUMP JUMPDEST PUSH2 0x2379 PUSH1 0x20 DUP7 ADD DUP3 PUSH2 0x226E JUMP JUMPDEST POP PUSH1 0x2 DUP4 ADD SLOAD SWAP1 POP PUSH2 0x238A DUP2 PUSH2 0x228A JUMP JUMPDEST PUSH2 0x2397 PUSH1 0x40 DUP7 ADD DUP3 PUSH2 0x22A4 JUMP JUMPDEST POP PUSH2 0x23A1 DUP2 PUSH2 0x22CD JUMP JUMPDEST PUSH2 0x23AE PUSH1 0x60 DUP7 ADD DUP3 PUSH2 0x22E7 JUMP JUMPDEST POP PUSH2 0x23B8 DUP2 PUSH2 0x2310 JUMP JUMPDEST PUSH2 0x23C5 PUSH1 0x80 DUP7 ADD DUP3 PUSH2 0x232A JUMP JUMPDEST POP POP POP POP POP JUMP JUMPDEST PUSH1 0x0 PUSH1 0xA0 DUP3 ADD SWAP1 POP PUSH2 0x23E1 PUSH1 0x0 DUP4 ADD DUP5 PUSH2 0x2339 JUMP JUMPDEST SWAP3 SWAP2 POP POP JUMP JUMPDEST PUSH1 0x0 PUSH2 0x23F2 DUP3 PUSH2 0x16C7 JUMP JUMPDEST SWAP2 POP PUSH2 0x23FD DUP4 PUSH2 0x16C7 JUMP JUMPDEST SWAP3 POP DUP3 DUP3 ADD SWAP1 POP DUP1 DUP3 GT ISZERO PUSH2 0x2415 JUMPI PUSH2 0x2414 PUSH2 0x1CCE JUMP JUMPDEST JUMPDEST SWAP3 SWAP2 POP POP JUMP JUMPDEST PUSH32 0x4E487B7100000000000000000000000000000000000000000000000000000000 PUSH1 0x0 MSTORE PUSH1 0x12 PUSH1 0x4 MSTORE PUSH1 0x24 PUSH1 0x0 REVERT JUMPDEST PUSH1 0x0 PUSH2 0x2455 DUP3 PUSH2 0x16C7 JUMP JUMPDEST SWAP2 POP PUSH2 0x2460 DUP4 PUSH2 0x16C7 JUMP JUMPDEST SWAP3 POP DUP3 PUSH2 0x2470 JUMPI PUSH2 0x246F PUSH2 0x241B JUMP JUMPDEST JUMPDEST DUP3 DUP3 DIV SWAP1 POP SWAP3 SWAP2 POP POP JUMP JUMPDEST PUSH32 0x5468652066756E647320696E207468697320636F6E7472616374206172652074 PUSH1 0x0 DUP3 ADD MSTORE PUSH32 0x6F6F206C6F7720616E64206E65656420746F206265206869676865722E000000 PUSH1 0x20 DUP3 ADD MSTORE POP JUMP JUMPDEST PUSH1 0x0 PUSH2 0x24D7 PUSH1 0x3D DUP4 PUSH2 0x1B2D JUMP JUMPDEST SWAP2 POP PUSH2 0x24E2 DUP3 PUSH2 0x247B JUMP JUMPDEST PUSH1 0x40 DUP3 ADD SWAP1 POP SWAP2 SWAP1 POP JUMP JUMPDEST PUSH1 0x0 PUSH1 0x20 DUP3 ADD SWAP1 POP DUP2 DUP2 SUB PUSH1 0x0 DUP4 ADD MSTORE PUSH2 0x2506 DUP2 PUSH2 0x24CA JUMP JUMPDEST SWAP1 POP SWAP2 SWAP1 POP JUMP JUMPDEST PUSH1 0x0 PUSH1 0x40 DUP3 ADD SWAP1 POP PUSH2 0x2522 PUSH1 0x0 DUP4 ADD DUP6 PUSH2 0x176B JUMP JUMPDEST PUSH2 0x252F PUSH1 0x20 DUP4 ADD DUP5 PUSH2 0x176B JUMP JUMPDEST SWAP4 SWAP3 POP POP POP JUMP JUMPDEST PUSH32 0x54686520726571756573742049447320646F206E6F74206D6174636800000000 PUSH1 0x0 DUP3 ADD MSTORE POP JUMP JUMPDEST PUSH1 0x0 PUSH2 0x256C PUSH1 0x1C DUP4 PUSH2 0x1B2D JUMP JUMPDEST SWAP2 POP PUSH2 0x2577 DUP3 PUSH2 0x2536 JUMP JUMPDEST PUSH1 0x20 DUP3 ADD SWAP1 POP SWAP2 SWAP1 POP JUMP JUMPDEST PUSH1 0x0 PUSH1 0x20 DUP3 ADD SWAP1 POP DUP2 DUP2 SUB PUSH1 0x0 DUP4 ADD MSTORE PUSH2 0x259B DUP2 PUSH2 0x255F JUMP JUMPDEST SWAP1 POP SWAP2 SWAP1 POP JUMP JUMPDEST PUSH32 0x4E487B7100000000000000000000000000000000000000000000000000000000 PUSH1 0x0 MSTORE PUSH1 0x32 PUSH1 0x4 MSTORE PUSH1 0x24 PUSH1 0x0 REVERT JUMPDEST PUSH1 0x0 PUSH2 0x25DC DUP3 PUSH2 0x16C7 JUMP JUMPDEST SWAP2 POP PUSH2 0x25E7 DUP4 PUSH2 0x16C7 JUMP JUMPDEST SWAP3 POP DUP3 PUSH2 0x25F7 JUMPI PUSH2 0x25F6 PUSH2 0x241B JUMP JUMPDEST JUMPDEST DUP3 DUP3 MOD SWAP1 POP SWAP3 SWAP2 POP POP JUMP JUMPDEST PUSH32 0x41207061796F757420686173206265656E2063616C6C65642E00000000000000 PUSH1 0x0 DUP3 ADD MSTORE POP JUMP JUMPDEST PUSH1 0x0 PUSH2 0x2638 PUSH1 0x19 DUP4 PUSH2 0x1B2D JUMP JUMPDEST SWAP2 POP PUSH2 0x2643 DUP3 PUSH2 0x2602 JUMP JUMPDEST PUSH1 0x20 DUP3 ADD SWAP1 POP SWAP2 SWAP1 POP JUMP JUMPDEST PUSH1 0x0 PUSH1 0x20 DUP3 ADD SWAP1 POP DUP2 DUP2 SUB PUSH1 0x0 DUP4 ADD MSTORE PUSH2 0x2667 DUP2 PUSH2 0x262B JUMP JUMPDEST SWAP1 POP SWAP2 SWAP1 POP JUMP JUMPDEST PUSH1 0x0 DUP2 SWAP1 POP SWAP2 SWAP1 POP JUMP JUMPDEST PUSH2 0x2681 DUP2 PUSH2 0x266E JUMP JUMPDEST DUP3 MSTORE POP POP JUMP JUMPDEST PUSH1 0x0 PUSH8 0xFFFFFFFFFFFFFFFF DUP3 AND SWAP1 POP SWAP2 SWAP1 POP JUMP JUMPDEST PUSH2 0x26A4 DUP2 PUSH2 0x2687 JUMP JUMPDEST DUP3 MSTORE POP POP JUMP JUMPDEST PUSH1 0x0 PUSH2 0xFFFF DUP3 AND SWAP1 POP SWAP2 SWAP1 POP JUMP JUMPDEST PUSH2 0x26C1 DUP2 PUSH2 0x26AA JUMP JUMPDEST DUP3 MSTORE POP POP JUMP JUMPDEST PUSH1 0x0 PUSH4 0xFFFFFFFF DUP3 AND SWAP1 POP SWAP2 SWAP1 POP JUMP JUMPDEST PUSH2 0x26E0 DUP2 PUSH2 0x26C7 JUMP JUMPDEST DUP3 MSTORE POP POP JUMP JUMPDEST PUSH1 0x0 PUSH1 0xA0 DUP3 ADD SWAP1 POP PUSH2 0x26FB PUSH1 0x0 DUP4 ADD DUP9 PUSH2 0x2678 JUMP JUMPDEST PUSH2 0x2708 PUSH1 0x20 DUP4 ADD DUP8 PUSH2 0x269B JUMP JUMPDEST PUSH2 0x2715 PUSH1 0x40 DUP4 ADD DUP7 PUSH2 0x26B8 JUMP JUMPDEST PUSH2 0x2722 PUSH1 0x60 DUP4 ADD DUP6 PUSH2 0x26D7 JUMP JUMPDEST PUSH2 0x272F PUSH1 0x80 DUP4 ADD DUP5 PUSH2 0x26D7 JUMP JUMPDEST SWAP7 SWAP6 POP POP POP POP POP POP JUMP JUMPDEST PUSH1 0x0 DUP2 MLOAD SWAP1 POP PUSH2 0x2748 DUP2 PUSH2 0x16D1 JUMP JUMPDEST SWAP3 SWAP2 POP POP JUMP JUMPDEST PUSH1 0x0 PUSH1 0x20 DUP3 DUP5 SUB SLT ISZERO PUSH2 0x2764 JUMPI PUSH2 0x2763 PUSH2 0x16BD JUMP JUMPDEST JUMPDEST PUSH1 0x0 PUSH2 0x2772 DUP5 DUP3 DUP6 ADD PUSH2 0x2739 JUMP JUMPDEST SWAP2 POP POP SWAP3 SWAP2 POP POP JUMP JUMPDEST PUSH1 0x0 PUSH2 0x2786 DUP3 PUSH2 0x16C7 JUMP JUMPDEST SWAP2 POP PUSH2 0x2791 DUP4 PUSH2 0x16C7 JUMP JUMPDEST SWAP3 POP DUP3 DUP3 MUL PUSH2 0x279F DUP2 PUSH2 0x16C7 JUMP JUMPDEST SWAP2 POP DUP3 DUP3 DIV DUP5 EQ DUP4 ISZERO OR PUSH2 0x27B6 JUMPI PUSH2 0x27B5 PUSH2 0x1CCE JUMP JUMPDEST JUMPDEST POP SWAP3 SWAP2 POP POP JUMP JUMPDEST PUSH1 0x0 PUSH2 0x27C8 DUP3 PUSH2 0x17F1 JUMP JUMPDEST SWAP2 POP PUSH2 0x27D3 DUP4 PUSH2 0x17F1 JUMP JUMPDEST SWAP3 POP DUP3 DUP3 SUB SWAP1 POP PUSH1 0xFF DUP2 GT ISZERO PUSH2 0x27EC JUMPI PUSH2 0x27EB PUSH2 0x1CCE JUMP JUMPDEST JUMPDEST SWAP3 SWAP2 POP POP JUMP JUMPDEST PUSH1 0x0 PUSH2 0x27FD DUP3 PUSH2 0x17F1 JUMP JUMPDEST SWAP2 POP PUSH2 0x2808 DUP4 PUSH2 0x17F1 JUMP JUMPDEST SWAP3 POP DUP3 DUP3 MUL PUSH2 0x2816 DUP2 PUSH2 0x17F1 JUMP JUMPDEST SWAP2 POP DUP1 DUP3 EQ PUSH2 0x2828 JUMPI PUSH2 0x2827 PUSH2 0x1CCE JUMP JUMPDEST JUMPDEST POP SWAP3 SWAP2 POP POP JUMP JUMPDEST PUSH32 0x5468652067616D652068617320656E6465640000000000000000000000000000 PUSH1 0x0 DUP3 ADD MSTORE POP JUMP JUMPDEST PUSH1 0x0 PUSH2 0x2865 PUSH1 0x12 DUP4 PUSH2 0x1B2D JUMP JUMPDEST SWAP2 POP PUSH2 0x2870 DUP3 PUSH2 0x282F JUMP JUMPDEST PUSH1 0x20 DUP3 ADD SWAP1 POP SWAP2 SWAP1 POP JUMP JUMPDEST PUSH1 0x0 PUSH1 0x20 DUP3 ADD SWAP1 POP DUP2 DUP2 SUB PUSH1 0x0 DUP4 ADD MSTORE PUSH2 0x2894 DUP2 PUSH2 0x2858 JUMP JUMPDEST SWAP1 POP SWAP2 SWAP1 POP JUMP JUMPDEST PUSH32 0x506C617965722068617320776F6E2E0000000000000000000000000000000000 PUSH1 0x0 DUP3 ADD MSTORE POP JUMP JUMPDEST PUSH1 0x0 PUSH2 0x28D1 PUSH1 0xF DUP4 PUSH2 0x1B2D JUMP JUMPDEST SWAP2 POP PUSH2 0x28DC DUP3 PUSH2 0x289B JUMP JUMPDEST PUSH1 0x20 DUP3 ADD SWAP1 POP SWAP2 SWAP1 POP JUMP JUMPDEST PUSH1 0x0 PUSH1 0x60 DUP3 ADD SWAP1 POP PUSH2 0x28FC PUSH1 0x0 DUP4 ADD DUP6 PUSH2 0x1D72 JUMP JUMPDEST DUP2 DUP2 SUB PUSH1 0x20 DUP4 ADD MSTORE PUSH2 0x290D DUP2 PUSH2 0x28C4 JUMP JUMPDEST SWAP1 POP PUSH2 0x291C PUSH1 0x40 DUP4 ADD DUP5 PUSH2 0x176B JUMP JUMPDEST SWAP4 SWAP3 POP POP POP JUMP JUMPDEST PUSH32 0x506C6179657220686173206C6F73742E00000000000000000000000000000000 PUSH1 0x0 DUP3 ADD MSTORE POP JUMP JUMPDEST PUSH1 0x0 PUSH2 0x2959 PUSH1 0x10 DUP4 PUSH2 0x1B2D JUMP JUMPDEST SWAP2 POP PUSH2 0x2964 DUP3 PUSH2 0x2923 JUMP JUMPDEST PUSH1 0x20 DUP3 ADD SWAP1 POP SWAP2 SWAP1 POP JUMP JUMPDEST PUSH1 0x0 PUSH1 0x60 DUP3 ADD SWAP1 POP PUSH2 0x2984 PUSH1 0x0 DUP4 ADD DUP6 PUSH2 0x1D72 JUMP JUMPDEST DUP2 DUP2 SUB PUSH1 0x20 DUP4 ADD MSTORE PUSH2 0x2995 DUP2 PUSH2 0x294C JUMP JUMPDEST SWAP1 POP PUSH2 0x29A4 PUSH1 0x40 DUP4 ADD DUP5 PUSH2 0x176B JUMP JUMPDEST SWAP4 SWAP3 POP POP POP JUMP INVALID LOG2 PUSH5 0x6970667358 0x22 SLT KECCAK256 0x4B CREATE 0xED 0x5C REVERT 0xD4 MUL PUSH23 0x516EE95959BF0642E44834685CD92EAC6410AE6BA4E95F ISZERO PUSH5 0x736F6C6343 STOP ADDMOD GT STOP CALLER "
		},
		"gasEstimates": {
			"creation": {
				"codeDepositCost": "2144200",
				"executionCost": "infinite",
				"totalCost": "infinite"
			},
			"external": {
				"addBalance()": "infinite",
				"book(uint256)": "infinite",
				"currentBet()": "11779",
				"currentRequestId()": "2429",
				"currentWinningNumber()": "2582",
				"gameInProgress()": "2560",
				"house()": "2674",
				"maxBet()": "2496",
				"minBet()": "2451",
				"placeBet(uint8,uint8)": "infinite",
				"rawFulfillRandomWords(uint256,uint256[])": "infinite",
				"withdrawWei(uint256)": "infinite"
			},
			"internal": {
				"fulfillRandomWords(uint256,uint256[] memory)": "infinite",
				"isOdd(uint8)": "46",
				"isRed(uint8)": "infinite",
				"logWinningNumber(address,bool,uint256)": "infinite",
				"payoutWinner()": "infinite",
				"setMinMaxBets()": "infinite",
				"spinWheel()": "infinite"
			}
		},
		"methodIdentifiers": {
			"addBalance()": "b163cc38",
			"book(uint256)": "1116fd04",
			"currentBet()": "d504cb65",
			"currentRequestId()": "5ae2bfdb",
			"currentWinningNumber()": "453a7097",
			"gameInProgress()": "3fb64e75",
			"house()": "ff9b3acf",
			"maxBet()": "2e5b2168",
			"minBet()": "9619367d",
			"placeBet(uint8,uint8)": "a648567b",
			"rawFulfillRandomWords(uint256,uint256[])": "1fe543e3",
			"withdrawWei(uint256)": "0d6f8563"
		}
	},
	"abi": [
		{
			"inputs": [
				{
					"internalType": "uint64",
					"name": "subscriptionId",
					"type": "uint64"
				}
			],
			"stateMutability": "nonpayable",
			"type": "constructor"
		},
		{
			"inputs": [
				{
					"internalType": "address",
					"name": "have",
					"type": "address"
				},
				{
					"internalType": "address",
					"name": "want",
					"type": "address"
				}
			],
			"name": "OnlyCoordinatorCanFulfill",
			"type": "error"
		},
		{
			"anonymous": false,
			"inputs": [
				{
					"components": [
						{
							"internalType": "address payable",
							"name": "player",
							"type": "address"
						},
						{
							"internalType": "uint256",
							"name": "betAmount",
							"type": "uint256"
						},
						{
							"internalType": "enum Roulette.BetTypeEnum",
							"name": "betType",
							"type": "uint8"
						},
						{
							"internalType": "uint8",
							"name": "betNumber",
							"type": "uint8"
						},
						{
							"internalType": "bool",
							"name": "winner",
							"type": "bool"
						}
					],
					"indexed": false,
					"internalType": "struct Roulette.Bet",
					"name": "bet",
					"type": "tuple"
				}
			],
			"name": "LogCurrentBet",
			"type": "event"
		},
		{
			"anonymous": false,
			"inputs": [
				{
					"indexed": false,
					"internalType": "string",
					"name": "message",
					"type": "string"
				}
			],
			"name": "LogGameEnded",
			"type": "event"
		},
		{
			"anonymous": false,
			"inputs": [
				{
					"indexed": false,
					"internalType": "uint256",
					"name": "max",
					"type": "uint256"
				},
				{
					"indexed": false,
					"internalType": "uint256",
					"name": "min",
					"type": "uint256"
				}
			],
			"name": "LogMinMax",
			"type": "event"
		},
		{
			"anonymous": false,
			"inputs": [
				{
					"indexed": false,
					"internalType": "string",
					"name": "message",
					"type": "string"
				}
			],
			"name": "LogPayout",
			"type": "event"
		},
		{
			"anonymous": false,
			"inputs": [
				{
					"indexed": false,
					"internalType": "address",
					"name": "player",
					"type": "address"
				},
				{
					"indexed": false,
					"internalType": "string",
					"name": "message",
					"type": "string"
				},
				{
					"indexed": false,
					"internalType": "uint256",
					"name": "amount",
					"type": "uint256"
				}
			],
			"name": "LogResult",
			"type": "event"
		},
		{
			"inputs": [],
			"name": "addBalance",
			"outputs": [],
			"stateMutability": "payable",
			"type": "function"
		},
		{
			"inputs": [
				{
					"internalType": "uint256",
					"name": "",
					"type": "uint256"
				}
			],
			"name": "book",
			"outputs": [
				{
					"internalType": "address payable",
					"name": "player",
					"type": "address"
				},
				{
					"internalType": "uint256",
					"name": "betAmount",
					"type": "uint256"
				},
				{
					"internalType": "enum Roulette.BetTypeEnum",
					"name": "betType",
					"type": "uint8"
				},
				{
					"internalType": "uint8",
					"name": "betNumber",
					"type": "uint8"
				},
				{
					"internalType": "bool",
					"name": "winner",
					"type": "bool"
				}
			],
			"stateMutability": "view",
			"type": "function"
		},
		{
			"inputs": [],
			"name": "currentBet",
			"outputs": [
				{
					"internalType": "address payable",
					"name": "player",
					"type": "address"
				},
				{
					"internalType": "uint256",
					"name": "betAmount",
					"type": "uint256"
				},
				{
					"internalType": "enum Roulette.BetTypeEnum",
					"name": "betType",
					"type": "uint8"
				},
				{
					"internalType": "uint8",
					"name": "betNumber",
					"type": "uint8"
				},
				{
					"internalType": "bool",
					"name": "winner",
					"type": "bool"
				}
			],
			"stateMutability": "view",
			"type": "function"
		},
		{
			"inputs": [],
			"name": "currentRequestId",
			"outputs": [
				{
					"internalType": "uint256",
					"name": "",
					"type": "uint256"
				}
			],
			"stateMutability": "view",
			"type": "function"
		},
		{
			"inputs": [],
			"name": "currentWinningNumber",
			"outputs": [
				{
					"internalType": "uint8",
					"name": "",
					"type": "uint8"
				}
			],
			"stateMutability": "view",
			"type": "function"
		},
		{
			"inputs": [],
			"name": "gameInProgress",
			"outputs": [
				{
					"internalType": "bool",
					"name": "",
					"type": "bool"
				}
			],
			"stateMutability": "view",
			"type": "function"
		},
		{
			"inputs": [],
			"name": "house",
			"outputs": [
				{
					"internalType": "address payable",
					"name": "",
					"type": "address"
				}
			],
			"stateMutability": "view",
			"type": "function"
		},
		{
			"inputs": [],
			"name": "maxBet",
			"outputs": [
				{
					"internalType": "uint256",
					"name": "",
					"type": "uint256"
				}
			],
			"stateMutability": "view",
			"type": "function"
		},
		{
			"inputs": [],
			"name": "minBet",
			"outputs": [
				{
					"internalType": "uint256",
					"name": "",
					"type": "uint256"
				}
			],
			"stateMutability": "view",
			"type": "function"
		},
		{
			"inputs": [
				{
					"internalType": "uint8",
					"name": "_bet",
					"type": "uint8"
				},
				{
					"internalType": "enum Roulette.BetTypeEnum",
					"name": "_type",
					"type": "uint8"
				}
			],
			"name": "placeBet",
			"outputs": [],
			"stateMutability": "payable",
			"type": "function"
		},
		{
			"inputs": [
				{
					"internalType": "uint256",
					"name": "requestId",
					"type": "uint256"
				},
				{
					"internalType": "uint256[]",
					"name": "randomWords",
					"type": "uint256[]"
				}
			],
			"name": "rawFulfillRandomWords",
			"outputs": [],
			"stateMutability": "nonpayable",
			"type": "function"
		},
		{
			"inputs": [
				{
					"internalType": "uint256",
					"name": "wei_amount",
					"type": "uint256"
				}
			],
			"name": "withdrawWei",
			"outputs": [],
			"stateMutability": "nonpayable",
			"type": "function"
		}
	]
}