{
	"contract/roulette.sol": {
		"Roulette": {
			"abi": [
				{
					"inputs": [
						{
							"internalType": "uint64",
							"name": "subscriptionId",
							"type": "uint64"
						}
					],
					"stateMutability": "nonpayable",
					"type": "constructor"
				},
				{
					"inputs": [
						{
							"internalType": "address",
							"name": "have",
							"type": "address"
						},
						{
							"internalType": "address",
							"name": "want",
							"type": "address"
						}
					],
					"name": "OnlyCoordinatorCanFulfill",
					"type": "error"
				},
				{
					"anonymous": false,
					"inputs": [
						{
							"components": [
								{
									"internalType": "address payable",
									"name": "player",
									"type": "address"
								},
								{
									"internalType": "uint256",
									"name": "betAmount",
									"type": "uint256"
								},
								{
									"internalType": "enum Roulette.BetTypeEnum",
									"name": "betType",
									"type": "uint8"
								},
								{
									"internalType": "uint8",
									"name": "betNumber",
									"type": "uint8"
								},
								{
									"internalType": "bool",
									"name": "winner",
									"type": "bool"
								}
							],
							"indexed": false,
							"internalType": "struct Roulette.Bet",
							"name": "bet",
							"type": "tuple"
						}
					],
					"name": "LogCurrentBet",
					"type": "event"
				},
				{
					"anonymous": false,
					"inputs": [
						{
							"indexed": false,
							"internalType": "string",
							"name": "message",
							"type": "string"
						}
					],
					"name": "LogGameEnded",
					"type": "event"
				},
				{
					"anonymous": false,
					"inputs": [
						{
							"indexed": false,
							"internalType": "uint256",
							"name": "max",
							"type": "uint256"
						},
						{
							"indexed": false,
							"internalType": "uint256",
							"name": "min",
							"type": "uint256"
						}
					],
					"name": "LogMinMax",
					"type": "event"
				},
				{
					"anonymous": false,
					"inputs": [
						{
							"indexed": false,
							"internalType": "string",
							"name": "message",
							"type": "string"
						}
					],
					"name": "LogPayout",
					"type": "event"
				},
				{
					"anonymous": false,
					"inputs": [
						{
							"indexed": false,
							"internalType": "address",
							"name": "player",
							"type": "address"
						},
						{
							"indexed": false,
							"internalType": "string",
							"name": "message",
							"type": "string"
						},
						{
							"indexed": false,
							"internalType": "uint256",
							"name": "amount",
							"type": "uint256"
						}
					],
					"name": "LogResult",
					"type": "event"
				},
				{
					"inputs": [],
					"name": "addBalance",
					"outputs": [],
					"stateMutability": "payable",
					"type": "function"
				},
				{
					"inputs": [
						{
							"internalType": "uint256",
							"name": "",
							"type": "uint256"
						}
					],
					"name": "book",
					"outputs": [
						{
							"internalType": "address payable",
							"name": "player",
							"type": "address"
						},
						{
							"internalType": "uint256",
							"name": "betAmount",
							"type": "uint256"
						},
						{
							"internalType": "enum Roulette.BetTypeEnum",
							"name": "betType",
							"type": "uint8"
						},
						{
							"internalType": "uint8",
							"name": "betNumber",
							"type": "uint8"
						},
						{
							"internalType": "bool",
							"name": "winner",
							"type": "bool"
						}
					],
					"stateMutability": "view",
					"type": "function"
				},
				{
					"inputs": [],
					"name": "currentBet",
					"outputs": [
						{
							"internalType": "address payable",
							"name": "player",
							"type": "address"
						},
						{
							"internalType": "uint256",
							"name": "betAmount",
							"type": "uint256"
						},
						{
							"internalType": "enum Roulette.BetTypeEnum",
							"name": "betType",
							"type": "uint8"
						},
						{
							"internalType": "uint8",
							"name": "betNumber",
							"type": "uint8"
						},
						{
							"internalType": "bool",
							"name": "winner",
							"type": "bool"
						}
					],
					"stateMutability": "view",
					"type": "function"
				},
				{
					"inputs": [],
					"name": "currentRequestId",
					"outputs": [
						{
							"internalType": "uint256",
							"name": "",
							"type": "uint256"
						}
					],
					"stateMutability": "view",
					"type": "function"
				},
				{
					"inputs": [],
					"name": "currentWinningNumber",
					"outputs": [
						{
							"internalType": "uint8",
							"name": "",
							"type": "uint8"
						}
					],
					"stateMutability": "view",
					"type": "function"
				},
				{
					"inputs": [],
					"name": "gameInProgress",
					"outputs": [
						{
							"internalType": "bool",
							"name": "",
							"type": "bool"
						}
					],
					"stateMutability": "view",
					"type": "function"
				},
				{
					"inputs": [],
					"name": "house",
					"outputs": [
						{
							"internalType": "address payable",
							"name": "",
							"type": "address"
						}
					],
					"stateMutability": "view",
					"type": "function"
				},
				{
					"inputs": [],
					"name": "maxBet",
					"outputs": [
						{
							"internalType": "uint256",
							"name": "",
							"type": "uint256"
						}
					],
					"stateMutability": "view",
					"type": "function"
				},
				{
					"inputs": [],
					"name": "minBet",
					"outputs": [
						{
							"internalType": "uint256",
							"name": "",
							"type": "uint256"
						}
					],
					"stateMutability": "view",
					"type": "function"
				},
				{
					"inputs": [
						{
							"internalType": "uint8",
							"name": "_bet",
							"type": "uint8"
						},
						{
							"internalType": "enum Roulette.BetTypeEnum",
							"name": "_type",
							"type": "uint8"
						}
					],
					"name": "placeBet",
					"outputs": [],
					"stateMutability": "payable",
					"type": "function"
				},
				{
					"inputs": [
						{
							"internalType": "uint256",
							"name": "requestId",
							"type": "uint256"
						},
						{
							"internalType": "uint256[]",
							"name": "randomWords",
							"type": "uint256[]"
						}
					],
					"name": "rawFulfillRandomWords",
					"outputs": [],
					"stateMutability": "nonpayable",
					"type": "function"
				},
				{
					"inputs": [
						{
							"internalType": "uint256",
							"name": "wei_amount",
							"type": "uint256"
						}
					],
					"name": "withdrawWei",
					"outputs": [],
					"stateMutability": "nonpayable",
					"type": "function"
				}
			],
			"devdoc": {
				"kind": "dev",
				"methods": {
					"constructor": {
						"params": {
							"subscriptionId": "- Set this to be the ID of your Chainlink subscription.  Also, do not forget to add this contract as a consumer to that same subscription once deployed."
						}
					}
				},
				"version": 1
			},
			"evm": {
				"assembly": "    /* \"contract/roulette.sol\":203:11372  contract Roulette is ... */\n  mstore(0x40, 0xa0)\n    /* \"contract/roulette.sol\":672:738  0x79d3d8832d904592c0bf9818b621522c988bb8b0c05cdc3b15aea1b6e8db0c15 */\n  0x79d3d8832d904592c0bf9818b621522c988bb8b0c05cdc3b15aea1b6e8db0c15\n    /* \"contract/roulette.sol\":647:738  bytes32 keyHash = ... */\n  0x00\n  shl\n  0x01\n  sstore\n    /* \"contract/roulette.sol\":849:855  150000 */\n  0x0249f0\n    /* \"contract/roulette.sol\":822:855  uint32 _callbackGasLimit = 150000 */\n  0x02\n  exp(0x0100, 0x00)\n  dup2\n  sload\n  dup2\n  0xffffffff\n  mul\n  not\n  and\n  swap1\n  dup4\n  0xffffffff\n  and\n  mul\n  or\n  swap1\n  sstore\n  pop\n    /* \"contract/roulette.sol\":2331:2611  constructor(uint64 subscriptionId)... */\n  callvalue\n  dup1\n  iszero\n  tag_1\n  jumpi\n  0x00\n  dup1\n  revert\ntag_1:\n  pop\n  mload(0x40)\n  sub(codesize, bytecodeSize)\n  dup1\n  bytecodeSize\n  dup4\n  codecopy\n  dup2\n  dup2\n  add\n  0x40\n  mstore\n  dup2\n  add\n  swap1\n  tag_2\n  swap2\n  swap1\n  tag_3\n  jump\t// in\ntag_2:\n    /* \"contract/roulette.sol\":2390:2432  0x2Ca8E0C643bDe4C2E08ab1fA0da3401AdAD7734D */\n  0x2ca8e0c643bde4c2e08ab1fa0da3401adad7734d\n    /* \"@chainlink/contracts/src/v0.8/VRFConsumerBaseV2.sol\":5616:5631  _vrfCoordinator */\n  dup1\n    /* \"@chainlink/contracts/src/v0.8/VRFConsumerBaseV2.sol\":5599:5631  vrfCoordinator = _vrfCoordinator */\n  0xffffffffffffffffffffffffffffffffffffffff\n  and\n  0x80\n  dup2\n  0xffffffffffffffffffffffffffffffffffffffff\n  and\n  dup2\n  mstore\n  pop\n  pop\n    /* \"@chainlink/contracts/src/v0.8/VRFConsumerBaseV2.sol\":5556:5636  constructor(address _vrfCoordinator) {... */\n  pop\n    /* \"contract/roulette.sol\":2491:2533  0x2Ca8E0C643bDe4C2E08ab1fA0da3401AdAD7734D */\n  0x2ca8e0c643bde4c2e08ab1fa0da3401adad7734d\n    /* \"contract/roulette.sol\":2442:2453  COORDINATOR */\n  0x00\n  dup1\n    /* \"contract/roulette.sol\":2442:2534  COORDINATOR = ... */\n  0x0100\n  exp\n  dup2\n  sload\n  dup2\n  0xffffffffffffffffffffffffffffffffffffffff\n  mul\n  not\n  and\n  swap1\n  dup4\n  0xffffffffffffffffffffffffffffffffffffffff\n  and\n  mul\n  or\n  swap1\n  sstore\n  pop\n    /* \"contract/roulette.sol\":2559:2573  subscriptionId */\n  dup1\n    /* \"contract/roulette.sol\":2540:2556  s_subscriptionId */\n  0x00\n  0x14\n    /* \"contract/roulette.sol\":2540:2573  s_subscriptionId = subscriptionId */\n  0x0100\n  exp\n  dup2\n  sload\n  dup2\n  0xffffffffffffffff\n  mul\n  not\n  and\n  swap1\n  dup4\n  0xffffffffffffffff\n  and\n  mul\n  or\n  swap1\n  sstore\n  pop\n    /* \"contract/roulette.sol\":2595:2605  msg.sender */\n  caller\n    /* \"contract/roulette.sol\":2579:2584  house */\n  0x02\n  0x04\n    /* \"contract/roulette.sol\":2579:2606  house = payable(msg.sender) */\n  0x0100\n  exp\n  dup2\n  sload\n  dup2\n  0xffffffffffffffffffffffffffffffffffffffff\n  mul\n  not\n  and\n  swap1\n  dup4\n  0xffffffffffffffffffffffffffffffffffffffff\n  and\n  mul\n  or\n  swap1\n  sstore\n  pop\n    /* \"contract/roulette.sol\":2331:2611  constructor(uint64 subscriptionId)... */\n  pop\n    /* \"contract/roulette.sol\":203:11372  contract Roulette is ... */\n  jump(tag_8)\n    /* \"#utility.yul\":88:205   */\ntag_10:\n    /* \"#utility.yul\":197:198   */\n  0x00\n    /* \"#utility.yul\":194:195   */\n  dup1\n    /* \"#utility.yul\":187:199   */\n  revert\n    /* \"#utility.yul\":334:435   */\ntag_12:\n    /* \"#utility.yul\":370:377   */\n  0x00\n    /* \"#utility.yul\":410:428   */\n  0xffffffffffffffff\n    /* \"#utility.yul\":403:408   */\n  dup3\n    /* \"#utility.yul\":399:429   */\n  and\n    /* \"#utility.yul\":388:429   */\n  swap1\n  pop\n    /* \"#utility.yul\":334:435   */\n  swap2\n  swap1\n  pop\n  jump\t// out\n    /* \"#utility.yul\":441:561   */\ntag_13:\n    /* \"#utility.yul\":513:536   */\n  tag_21\n    /* \"#utility.yul\":530:535   */\n  dup2\n    /* \"#utility.yul\":513:536   */\n  tag_12\n  jump\t// in\ntag_21:\n    /* \"#utility.yul\":506:511   */\n  dup2\n    /* \"#utility.yul\":503:537   */\n  eq\n    /* \"#utility.yul\":493:555   */\n  tag_22\n  jumpi\n    /* \"#utility.yul\":551:552   */\n  0x00\n    /* \"#utility.yul\":548:549   */\n  dup1\n    /* \"#utility.yul\":541:553   */\n  revert\n    /* \"#utility.yul\":493:555   */\ntag_22:\n    /* \"#utility.yul\":441:561   */\n  pop\n  jump\t// out\n    /* \"#utility.yul\":567:708   */\ntag_14:\n    /* \"#utility.yul\":623:628   */\n  0x00\n    /* \"#utility.yul\":654:660   */\n  dup2\n    /* \"#utility.yul\":648:661   */\n  mload\n    /* \"#utility.yul\":639:661   */\n  swap1\n  pop\n    /* \"#utility.yul\":670:702   */\n  tag_24\n    /* \"#utility.yul\":696:701   */\n  dup2\n    /* \"#utility.yul\":670:702   */\n  tag_13\n  jump\t// in\ntag_24:\n    /* \"#utility.yul\":567:708   */\n  swap3\n  swap2\n  pop\n  pop\n  jump\t// out\n    /* \"#utility.yul\":714:1063   */\ntag_3:\n    /* \"#utility.yul\":783:789   */\n  0x00\n    /* \"#utility.yul\":832:834   */\n  0x20\n    /* \"#utility.yul\":820:829   */\n  dup3\n    /* \"#utility.yul\":811:818   */\n  dup5\n    /* \"#utility.yul\":807:830   */\n  sub\n    /* \"#utility.yul\":803:835   */\n  slt\n    /* \"#utility.yul\":800:919   */\n  iszero\n  tag_26\n  jumpi\n    /* \"#utility.yul\":838:917   */\n  tag_27\n  tag_10\n  jump\t// in\ntag_27:\n    /* \"#utility.yul\":800:919   */\ntag_26:\n    /* \"#utility.yul\":958:959   */\n  0x00\n    /* \"#utility.yul\":983:1046   */\n  tag_28\n    /* \"#utility.yul\":1038:1045   */\n  dup5\n    /* \"#utility.yul\":1029:1035   */\n  dup3\n    /* \"#utility.yul\":1018:1027   */\n  dup6\n    /* \"#utility.yul\":1014:1036   */\n  add\n    /* \"#utility.yul\":983:1046   */\n  tag_14\n  jump\t// in\ntag_28:\n    /* \"#utility.yul\":973:1046   */\n  swap2\n  pop\n    /* \"#utility.yul\":929:1056   */\n  pop\n    /* \"#utility.yul\":714:1063   */\n  swap3\n  swap2\n  pop\n  pop\n  jump\t// out\n    /* \"contract/roulette.sol\":203:11372  contract Roulette is ... */\ntag_8:\n  mload(0x80)\n  codecopy(0x00, dataOffset(sub_0), dataSize(sub_0))\n  0x00\n  assignImmutable(\"0x1a192fabce13988b84994d4296e6cdc418d55e2f1d7f942188d4040b94fc57ac\")\n  return(0x00, dataSize(sub_0))\nstop\n\nsub_0: assembly {\n        /* \"contract/roulette.sol\":203:11372  contract Roulette is ... */\n      mstore(0x40, 0x80)\n      jumpi(tag_1, lt(calldatasize, 0x04))\n      shr(0xe0, calldataload(0x00))\n      dup1\n      0x5ae2bfdb\n      gt\n      tag_14\n      jumpi\n      dup1\n      0x5ae2bfdb\n      eq\n      tag_8\n      jumpi\n      dup1\n      0x9619367d\n      eq\n      tag_9\n      jumpi\n      dup1\n      0xa648567b\n      eq\n      tag_10\n      jumpi\n      dup1\n      0xb163cc38\n      eq\n      tag_11\n      jumpi\n      dup1\n      0xd504cb65\n      eq\n      tag_12\n      jumpi\n      dup1\n      0xff9b3acf\n      eq\n      tag_13\n      jumpi\n      jump(tag_1)\n    tag_14:\n      dup1\n      0x0d6f8563\n      eq\n      tag_2\n      jumpi\n      dup1\n      0x1116fd04\n      eq\n      tag_3\n      jumpi\n      dup1\n      0x1fe543e3\n      eq\n      tag_4\n      jumpi\n      dup1\n      0x2e5b2168\n      eq\n      tag_5\n      jumpi\n      dup1\n      0x3fb64e75\n      eq\n      tag_6\n      jumpi\n      dup1\n      0x453a7097\n      eq\n      tag_7\n      jumpi\n    tag_1:\n      0x00\n      dup1\n      revert\n        /* \"contract/roulette.sol\":10683:11201  function withdrawWei(uint wei_amount) nonReentrant() public {... */\n    tag_2:\n      callvalue\n      dup1\n      iszero\n      tag_15\n      jumpi\n      0x00\n      dup1\n      revert\n    tag_15:\n      pop\n      tag_16\n      0x04\n      dup1\n      calldatasize\n      sub\n      dup2\n      add\n      swap1\n      tag_17\n      swap2\n      swap1\n      tag_18\n      jump\t// in\n    tag_17:\n      tag_19\n      jump\t// in\n    tag_16:\n      stop\n        /* \"contract/roulette.sol\":1651:1686  mapping(uint256 => Bet) public book */\n    tag_3:\n      callvalue\n      dup1\n      iszero\n      tag_20\n      jumpi\n      0x00\n      dup1\n      revert\n    tag_20:\n      pop\n      tag_21\n      0x04\n      dup1\n      calldatasize\n      sub\n      dup2\n      add\n      swap1\n      tag_22\n      swap2\n      swap1\n      tag_18\n      jump\t// in\n    tag_22:\n      tag_23\n      jump\t// in\n    tag_21:\n      mload(0x40)\n      tag_24\n      swap6\n      swap5\n      swap4\n      swap3\n      swap2\n      swap1\n      tag_25\n      jump\t// in\n    tag_24:\n      mload(0x40)\n      dup1\n      swap2\n      sub\n      swap1\n      return\n        /* \"@chainlink/contracts/src/v0.8/VRFConsumerBaseV2.sol\":6618:6874  function rawFulfillRandomWords(uint256 requestId, uint256[] memory randomWords) external {... */\n    tag_4:\n      callvalue\n      dup1\n      iszero\n      tag_26\n      jumpi\n      0x00\n      dup1\n      revert\n    tag_26:\n      pop\n      tag_27\n      0x04\n      dup1\n      calldatasize\n      sub\n      dup2\n      add\n      swap1\n      tag_28\n      swap2\n      swap1\n      tag_29\n      jump\t// in\n    tag_28:\n      tag_30\n      jump\t// in\n    tag_27:\n      stop\n        /* \"contract/roulette.sol\":965:986  uint256 public maxBet */\n    tag_5:\n      callvalue\n      dup1\n      iszero\n      tag_31\n      jumpi\n      0x00\n      dup1\n      revert\n    tag_31:\n      pop\n      tag_32\n      tag_33\n      jump\t// in\n    tag_32:\n      mload(0x40)\n      tag_34\n      swap2\n      swap1\n      tag_35\n      jump\t// in\n    tag_34:\n      mload(0x40)\n      dup1\n      swap2\n      sub\n      swap1\n      return\n        /* \"contract/roulette.sol\":1568:1594  bool public gameInProgress */\n    tag_6:\n      callvalue\n      dup1\n      iszero\n      tag_36\n      jumpi\n      0x00\n      dup1\n      revert\n    tag_36:\n      pop\n      tag_37\n      tag_38\n      jump\t// in\n    tag_37:\n      mload(0x40)\n      tag_39\n      swap2\n      swap1\n      tag_40\n      jump\t// in\n    tag_39:\n      mload(0x40)\n      dup1\n      swap2\n      sub\n      swap1\n      return\n        /* \"contract/roulette.sol\":1364:1397  uint8 public currentWinningNumber */\n    tag_7:\n      callvalue\n      dup1\n      iszero\n      tag_41\n      jumpi\n      0x00\n      dup1\n      revert\n    tag_41:\n      pop\n      tag_42\n      tag_43\n      jump\t// in\n    tag_42:\n      mload(0x40)\n      tag_44\n      swap2\n      swap1\n      tag_45\n      jump\t// in\n    tag_44:\n      mload(0x40)\n      dup1\n      swap2\n      sub\n      swap1\n      return\n        /* \"contract/roulette.sol\":1426:1457  uint256 public currentRequestId */\n    tag_8:\n      callvalue\n      dup1\n      iszero\n      tag_46\n      jumpi\n      0x00\n      dup1\n      revert\n    tag_46:\n      pop\n      tag_47\n      tag_48\n      jump\t// in\n    tag_47:\n      mload(0x40)\n      tag_49\n      swap2\n      swap1\n      tag_35\n      jump\t// in\n    tag_49:\n      mload(0x40)\n      dup1\n      swap2\n      sub\n      swap1\n      return\n        /* \"contract/roulette.sol\":990:1011  uint256 public minBet */\n    tag_9:\n      callvalue\n      dup1\n      iszero\n      tag_50\n      jumpi\n      0x00\n      dup1\n      revert\n    tag_50:\n      pop\n      tag_51\n      tag_52\n      jump\t// in\n    tag_51:\n      mload(0x40)\n      tag_53\n      swap2\n      swap1\n      tag_35\n      jump\t// in\n    tag_53:\n      mload(0x40)\n      dup1\n      swap2\n      sub\n      swap1\n      return\n        /* \"contract/roulette.sol\":4665:5846  function placeBet(uint8 _bet, BetTypeEnum _type) nonReentrant() external payable {... */\n    tag_10:\n      tag_54\n      0x04\n      dup1\n      calldatasize\n      sub\n      dup2\n      add\n      swap1\n      tag_55\n      swap2\n      swap1\n      tag_56\n      jump\t// in\n    tag_55:\n      tag_57\n      jump\t// in\n    tag_54:\n      stop\n        /* \"contract/roulette.sol\":11247:11370  function addBalance() external payable {... */\n    tag_11:\n      tag_58\n      tag_59\n      jump\t// in\n    tag_58:\n      stop\n        /* \"contract/roulette.sol\":1401:1422  Bet public currentBet */\n    tag_12:\n      callvalue\n      dup1\n      iszero\n      tag_60\n      jumpi\n      0x00\n      dup1\n      revert\n    tag_60:\n      pop\n      tag_61\n      tag_62\n      jump\t// in\n    tag_61:\n      mload(0x40)\n      tag_63\n      swap6\n      swap5\n      swap4\n      swap3\n      swap2\n      swap1\n      tag_25\n      jump\t// in\n    tag_63:\n      mload(0x40)\n      dup1\n      swap2\n      sub\n      swap1\n      return\n        /* \"contract/roulette.sol\":887:915  address payable public house */\n    tag_13:\n      callvalue\n      dup1\n      iszero\n      tag_64\n      jumpi\n      0x00\n      dup1\n      revert\n    tag_64:\n      pop\n      tag_65\n      tag_66\n      jump\t// in\n    tag_65:\n      mload(0x40)\n      tag_67\n      swap2\n      swap1\n      tag_68\n      jump\t// in\n    tag_67:\n      mload(0x40)\n      dup1\n      swap2\n      sub\n      swap1\n      return\n        /* \"contract/roulette.sol\":10683:11201  function withdrawWei(uint wei_amount) nonReentrant() public {... */\n    tag_19:\n        /* \"contract/roulette.sol\":2738:2754  lockedPlacingBet */\n      0x0c\n      0x00\n      swap1\n      sload\n      swap1\n      0x0100\n      exp\n      swap1\n      div\n      0xff\n      and\n        /* \"contract/roulette.sol\":2737:2754  !lockedPlacingBet */\n      iszero\n        /* \"contract/roulette.sol\":2729:2773  require(!lockedPlacingBet, \"No re-entrancy\") */\n      tag_70\n      jumpi\n      mload(0x40)\n      0x08c379a000000000000000000000000000000000000000000000000000000000\n      dup2\n      mstore\n      0x04\n      add\n      tag_71\n      swap1\n      tag_72\n      jump\t// in\n    tag_71:\n      mload(0x40)\n      dup1\n      swap2\n      sub\n      swap1\n      revert\n    tag_70:\n        /* \"contract/roulette.sol\":2798:2802  true */\n      0x01\n        /* \"contract/roulette.sol\":2779:2795  lockedPlacingBet */\n      0x0c\n      0x00\n        /* \"contract/roulette.sol\":2779:2802  lockedPlacingBet = true */\n      0x0100\n      exp\n      dup2\n      sload\n      dup2\n      0xff\n      mul\n      not\n      and\n      swap1\n      dup4\n      iszero\n      iszero\n      mul\n      or\n      swap1\n      sstore\n      pop\n        /* \"contract/roulette.sol\":10771:10776  house */\n      0x02\n      0x04\n      swap1\n      sload\n      swap1\n      0x0100\n      exp\n      swap1\n      div\n      0xffffffffffffffffffffffffffffffffffffffff\n      and\n        /* \"contract/roulette.sol\":10757:10776  msg.sender == house */\n      0xffffffffffffffffffffffffffffffffffffffff\n      and\n        /* \"contract/roulette.sol\":10757:10767  msg.sender */\n      caller\n        /* \"contract/roulette.sol\":10757:10776  msg.sender == house */\n      0xffffffffffffffffffffffffffffffffffffffff\n      and\n      eq\n        /* \"contract/roulette.sol\":10749:10824  require(msg.sender == house, \"Only the contract owner can withdraw money!\") */\n      tag_74\n      jumpi\n      mload(0x40)\n      0x08c379a000000000000000000000000000000000000000000000000000000000\n      dup2\n      mstore\n      0x04\n      add\n      tag_75\n      swap1\n      tag_76\n      jump\t// in\n    tag_75:\n      mload(0x40)\n      dup1\n      swap2\n      sub\n      swap1\n      revert\n    tag_74:\n        /* \"contract/roulette.sol\":10839:10853  gameInProgress */\n      0x0a\n      0x00\n      swap1\n      sload\n      swap1\n      0x0100\n      exp\n      swap1\n      div\n      0xff\n      and\n        /* \"contract/roulette.sol\":10838:10853  !gameInProgress */\n      iszero\n        /* \"contract/roulette.sol\":10830:10913  require(!gameInProgress, \"Do not attempt to withdraw while a game is in progress.\") */\n      tag_77\n      jumpi\n      mload(0x40)\n      0x08c379a000000000000000000000000000000000000000000000000000000000\n      dup2\n      mstore\n      0x04\n      add\n      tag_78\n      swap1\n      tag_79\n      jump\t// in\n    tag_78:\n      mload(0x40)\n      dup1\n      swap2\n      sub\n      swap1\n      revert\n    tag_77:\n        /* \"contract/roulette.sol\":10920:10940  uint256 _initBalance */\n      0x00\n        /* \"contract/roulette.sol\":10943:10964  address(this).balance */\n      selfbalance\n        /* \"contract/roulette.sol\":10920:10964  uint256 _initBalance = address(this).balance */\n      swap1\n      pop\n        /* \"contract/roulette.sol\":10978:10988  msg.sender */\n      caller\n        /* \"contract/roulette.sol\":10970:10998  payable(msg.sender).transfer */\n      0xffffffffffffffffffffffffffffffffffffffff\n      and\n        /* \"contract/roulette.sol\":10970:11010  payable(msg.sender).transfer(wei_amount) */\n      0x08fc\n        /* \"contract/roulette.sol\":10999:11009  wei_amount */\n      dup4\n        /* \"contract/roulette.sol\":10970:11010  payable(msg.sender).transfer(wei_amount) */\n      swap1\n      dup2\n      iszero\n      mul\n      swap1\n      mload(0x40)\n      0x00\n      mload(0x40)\n      dup1\n      dup4\n      sub\n      dup2\n      dup6\n      dup9\n      dup9\n      call\n      swap4\n      pop\n      pop\n      pop\n      pop\n      iszero\n      dup1\n      iszero\n      tag_81\n      jumpi\n      returndatasize\n      0x00\n      dup1\n      returndatacopy\n      revert(0x00, returndatasize)\n    tag_81:\n      pop\n        /* \"contract/roulette.sol\":11017:11037  uint256 curr_balance */\n      0x00\n        /* \"contract/roulette.sol\":11040:11061  address(this).balance */\n      selfbalance\n        /* \"contract/roulette.sol\":11017:11061  uint256 curr_balance = address(this).balance */\n      swap1\n      pop\n        /* \"contract/roulette.sol\":11104:11116  curr_balance */\n      dup1\n        /* \"contract/roulette.sol\":11090:11100  wei_amount */\n      dup4\n        /* \"contract/roulette.sol\":11075:11087  _initBalance */\n      dup4\n        /* \"contract/roulette.sol\":11075:11100  _initBalance - wei_amount */\n      tag_82\n      swap2\n      swap1\n      tag_83\n      jump\t// in\n    tag_82:\n        /* \"contract/roulette.sol\":11075:11116  _initBalance - wei_amount == curr_balance */\n      eq\n        /* \"contract/roulette.sol\":11067:11117  assert( _initBalance - wei_amount == curr_balance) */\n      tag_84\n      jumpi\n      tag_85\n      tag_86\n      jump\t// in\n    tag_85:\n    tag_84:\n        /* \"contract/roulette.sol\":11181:11196  setMinMaxBets() */\n      tag_87\n        /* \"contract/roulette.sol\":11181:11194  setMinMaxBets */\n      tag_88\n        /* \"contract/roulette.sol\":11181:11196  setMinMaxBets() */\n      jump\t// in\n    tag_87:\n        /* \"contract/roulette.sol\":10743:11201  {... */\n      pop\n      pop\n        /* \"contract/roulette.sol\":2834:2839  false */\n      0x00\n        /* \"contract/roulette.sol\":2815:2831  lockedPlacingBet */\n      0x0c\n      0x00\n        /* \"contract/roulette.sol\":2815:2839  lockedPlacingBet = false */\n      0x0100\n      exp\n      dup2\n      sload\n      dup2\n      0xff\n      mul\n      not\n      and\n      swap1\n      dup4\n      iszero\n      iszero\n      mul\n      or\n      swap1\n      sstore\n      pop\n        /* \"contract/roulette.sol\":10683:11201  function withdrawWei(uint wei_amount) nonReentrant() public {... */\n      pop\n      jump\t// out\n        /* \"contract/roulette.sol\":1651:1686  mapping(uint256 => Bet) public book */\n    tag_23:\n      mstore(0x20, 0x0b)\n      dup1\n      0x00\n      mstore\n      keccak256(0x00, 0x40)\n      0x00\n      swap2\n      pop\n      swap1\n      pop\n      dup1\n      0x00\n      add\n      0x00\n      swap1\n      sload\n      swap1\n      0x0100\n      exp\n      swap1\n      div\n      0xffffffffffffffffffffffffffffffffffffffff\n      and\n      swap1\n      dup1\n      0x01\n      add\n      sload\n      swap1\n      dup1\n      0x02\n      add\n      0x00\n      swap1\n      sload\n      swap1\n      0x0100\n      exp\n      swap1\n      div\n      0xff\n      and\n      swap1\n      dup1\n      0x02\n      add\n      0x01\n      swap1\n      sload\n      swap1\n      0x0100\n      exp\n      swap1\n      div\n      0xff\n      and\n      swap1\n      dup1\n      0x02\n      add\n      0x02\n      swap1\n      sload\n      swap1\n      0x0100\n      exp\n      swap1\n      div\n      0xff\n      and\n      swap1\n      pop\n      dup6\n      jump\t// out\n        /* \"@chainlink/contracts/src/v0.8/VRFConsumerBaseV2.sol\":6618:6874  function rawFulfillRandomWords(uint256 requestId, uint256[] memory randomWords) external {... */\n    tag_30:\n        /* \"@chainlink/contracts/src/v0.8/VRFConsumerBaseV2.sol\":6731:6745  vrfCoordinator */\n      immutable(\"0x1a192fabce13988b84994d4296e6cdc418d55e2f1d7f942188d4040b94fc57ac\")\n        /* \"@chainlink/contracts/src/v0.8/VRFConsumerBaseV2.sol\":6717:6745  msg.sender != vrfCoordinator */\n      0xffffffffffffffffffffffffffffffffffffffff\n      and\n        /* \"@chainlink/contracts/src/v0.8/VRFConsumerBaseV2.sol\":6717:6727  msg.sender */\n      caller\n        /* \"@chainlink/contracts/src/v0.8/VRFConsumerBaseV2.sol\":6717:6745  msg.sender != vrfCoordinator */\n      0xffffffffffffffffffffffffffffffffffffffff\n      and\n      eq\n        /* \"@chainlink/contracts/src/v0.8/VRFConsumerBaseV2.sol\":6713:6822  if (msg.sender != vrfCoordinator) {... */\n      tag_90\n      jumpi\n        /* \"@chainlink/contracts/src/v0.8/VRFConsumerBaseV2.sol\":6788:6798  msg.sender */\n      caller\n        /* \"@chainlink/contracts/src/v0.8/VRFConsumerBaseV2.sol\":6800:6814  vrfCoordinator */\n      immutable(\"0x1a192fabce13988b84994d4296e6cdc418d55e2f1d7f942188d4040b94fc57ac\")\n        /* \"@chainlink/contracts/src/v0.8/VRFConsumerBaseV2.sol\":6762:6815  OnlyCoordinatorCanFulfill(msg.sender, vrfCoordinator) */\n      mload(0x40)\n      0x1cf993f400000000000000000000000000000000000000000000000000000000\n      dup2\n      mstore\n      0x04\n      add\n      tag_91\n      swap3\n      swap2\n      swap1\n      tag_92\n      jump\t// in\n    tag_91:\n      mload(0x40)\n      dup1\n      swap2\n      sub\n      swap1\n      revert\n        /* \"@chainlink/contracts/src/v0.8/VRFConsumerBaseV2.sol\":6713:6822  if (msg.sender != vrfCoordinator) {... */\n    tag_90:\n        /* \"@chainlink/contracts/src/v0.8/VRFConsumerBaseV2.sol\":6827:6869  fulfillRandomWords(requestId, randomWords) */\n      tag_93\n        /* \"@chainlink/contracts/src/v0.8/VRFConsumerBaseV2.sol\":6846:6855  requestId */\n      dup3\n        /* \"@chainlink/contracts/src/v0.8/VRFConsumerBaseV2.sol\":6857:6868  randomWords */\n      dup3\n        /* \"@chainlink/contracts/src/v0.8/VRFConsumerBaseV2.sol\":6827:6845  fulfillRandomWords */\n      tag_94\n        /* \"@chainlink/contracts/src/v0.8/VRFConsumerBaseV2.sol\":6827:6869  fulfillRandomWords(requestId, randomWords) */\n      jump\t// in\n    tag_93:\n        /* \"@chainlink/contracts/src/v0.8/VRFConsumerBaseV2.sol\":6618:6874  function rawFulfillRandomWords(uint256 requestId, uint256[] memory randomWords) external {... */\n      pop\n      pop\n      jump\t// out\n        /* \"contract/roulette.sol\":965:986  uint256 public maxBet */\n    tag_33:\n      sload(0x03)\n      dup2\n      jump\t// out\n        /* \"contract/roulette.sol\":1568:1594  bool public gameInProgress */\n    tag_38:\n      0x0a\n      0x00\n      swap1\n      sload\n      swap1\n      0x0100\n      exp\n      swap1\n      div\n      0xff\n      and\n      dup2\n      jump\t// out\n        /* \"contract/roulette.sol\":1364:1397  uint8 public currentWinningNumber */\n    tag_43:\n      0x05\n      0x00\n      swap1\n      sload\n      swap1\n      0x0100\n      exp\n      swap1\n      div\n      0xff\n      and\n      dup2\n      jump\t// out\n        /* \"contract/roulette.sol\":1426:1457  uint256 public currentRequestId */\n    tag_48:\n      sload(0x09)\n      dup2\n      jump\t// out\n        /* \"contract/roulette.sol\":990:1011  uint256 public minBet */\n    tag_52:\n      sload(0x04)\n      dup2\n      jump\t// out\n        /* \"contract/roulette.sol\":4665:5846  function placeBet(uint8 _bet, BetTypeEnum _type) nonReentrant() external payable {... */\n    tag_57:\n        /* \"contract/roulette.sol\":2738:2754  lockedPlacingBet */\n      0x0c\n      0x00\n      swap1\n      sload\n      swap1\n      0x0100\n      exp\n      swap1\n      div\n      0xff\n      and\n        /* \"contract/roulette.sol\":2737:2754  !lockedPlacingBet */\n      iszero\n        /* \"contract/roulette.sol\":2729:2773  require(!lockedPlacingBet, \"No re-entrancy\") */\n      tag_96\n      jumpi\n      mload(0x40)\n      0x08c379a000000000000000000000000000000000000000000000000000000000\n      dup2\n      mstore\n      0x04\n      add\n      tag_97\n      swap1\n      tag_72\n      jump\t// in\n    tag_97:\n      mload(0x40)\n      dup1\n      swap2\n      sub\n      swap1\n      revert\n    tag_96:\n        /* \"contract/roulette.sol\":2798:2802  true */\n      0x01\n        /* \"contract/roulette.sol\":2779:2795  lockedPlacingBet */\n      0x0c\n      0x00\n        /* \"contract/roulette.sol\":2779:2802  lockedPlacingBet = true */\n      0x0100\n      exp\n      dup2\n      sload\n      dup2\n      0xff\n      mul\n      not\n      and\n      swap1\n      dup4\n      iszero\n      iszero\n      mul\n      or\n      swap1\n      sstore\n      pop\n        /* \"contract/roulette.sol\":4761:4775  gameInProgress */\n      0x0a\n      0x00\n      swap1\n      sload\n      swap1\n      0x0100\n      exp\n      swap1\n      div\n      0xff\n      and\n        /* \"contract/roulette.sol\":4760:4775  !gameInProgress */\n      iszero\n        /* \"contract/roulette.sol\":4752:4844  require(!gameInProgress, \"A game is already in progress, please have a moment of patience.\") */\n      tag_99\n      jumpi\n      mload(0x40)\n      0x08c379a000000000000000000000000000000000000000000000000000000000\n      dup2\n      mstore\n      0x04\n      add\n      tag_100\n      swap1\n      tag_101\n      jump\t// in\n    tag_100:\n      mload(0x40)\n      dup1\n      swap2\n      sub\n      swap1\n      revert\n    tag_99:\n        /* \"contract/roulette.sol\":4871:4877  minBet */\n      sload(0x04)\n        /* \"contract/roulette.sol\":4858:4867  msg.value */\n      callvalue\n        /* \"contract/roulette.sol\":4858:4877  msg.value >= minBet */\n      lt\n      iszero\n        /* \"contract/roulette.sol\":4850:4941  require(msg.value >= minBet, \"The amount of money in the bet must exceed the minimum bet.\") */\n      tag_102\n      jumpi\n      mload(0x40)\n      0x08c379a000000000000000000000000000000000000000000000000000000000\n      dup2\n      mstore\n      0x04\n      add\n      tag_103\n      swap1\n      tag_104\n      jump\t// in\n    tag_103:\n      mload(0x40)\n      dup1\n      swap2\n      sub\n      swap1\n      revert\n    tag_102:\n        /* \"contract/roulette.sol\":4968:4974  maxBet */\n      sload(0x03)\n        /* \"contract/roulette.sol\":4955:4964  msg.value */\n      callvalue\n        /* \"contract/roulette.sol\":4955:4974  msg.value <= maxBet */\n      gt\n      iszero\n        /* \"contract/roulette.sol\":4947:5040  require(msg.value <= maxBet, \"The amount of money in the bet must be below the maximum bet.\") */\n      tag_105\n      jumpi\n      mload(0x40)\n      0x08c379a000000000000000000000000000000000000000000000000000000000\n      dup2\n      mstore\n      0x04\n      add\n      tag_106\n      swap1\n      tag_107\n      jump\t// in\n    tag_106:\n      mload(0x40)\n      dup1\n      swap2\n      sub\n      swap1\n      revert\n    tag_105:\n        /* \"contract/roulette.sol\":5060:5078  BetTypeEnum.SINGLE */\n      0x00\n        /* \"contract/roulette.sol\":5051:5078  _type == BetTypeEnum.SINGLE */\n      0x05\n      dup2\n      gt\n      iszero\n      tag_108\n      jumpi\n      tag_109\n      tag_110\n      jump\t// in\n    tag_109:\n    tag_108:\n        /* \"contract/roulette.sol\":5051:5056  _type */\n      dup2\n        /* \"contract/roulette.sol\":5051:5078  _type == BetTypeEnum.SINGLE */\n      0x05\n      dup2\n      gt\n      iszero\n      tag_111\n      jumpi\n      tag_112\n      tag_110\n      jump\t// in\n    tag_112:\n    tag_111:\n      sub\n        /* \"contract/roulette.sol\":5047:5686  if (_type == BetTypeEnum.SINGLE) {... */\n      tag_113\n      jumpi\n        /* \"contract/roulette.sol\":5104:5105  0 */\n      0x00\n        /* \"contract/roulette.sol\":5096:5100  _bet */\n      dup3\n        /* \"contract/roulette.sol\":5096:5105  _bet >= 0 */\n      0xff\n      and\n      lt\n      iszero\n        /* \"contract/roulette.sol\":5096:5119  _bet >= 0 && _bet <= 36 */\n      dup1\n      iszero\n      tag_114\n      jumpi\n      pop\n        /* \"contract/roulette.sol\":5117:5119  36 */\n      0x24\n        /* \"contract/roulette.sol\":5109:5113  _bet */\n      dup3\n        /* \"contract/roulette.sol\":5109:5119  _bet <= 36 */\n      0xff\n      and\n      gt\n      iszero\n        /* \"contract/roulette.sol\":5096:5119  _bet >= 0 && _bet <= 36 */\n    tag_114:\n        /* \"contract/roulette.sol\":5088:5183  require(_bet >= 0 && _bet <= 36, \"Invalid bet. Single bet must be between 0 and 36 inclusive.\") */\n      tag_115\n      jumpi\n      mload(0x40)\n      0x08c379a000000000000000000000000000000000000000000000000000000000\n      dup2\n      mstore\n      0x04\n      add\n      tag_116\n      swap1\n      tag_117\n      jump\t// in\n    tag_116:\n      mload(0x40)\n      dup1\n      swap2\n      sub\n      swap1\n      revert\n    tag_115:\n        /* \"contract/roulette.sol\":5047:5686  if (_type == BetTypeEnum.SINGLE) {... */\n      jump(tag_118)\n    tag_113:\n        /* \"contract/roulette.sol\":5209:5226  BetTypeEnum.THIRD */\n      0x01\n        /* \"contract/roulette.sol\":5200:5226  _type == BetTypeEnum.THIRD */\n      0x05\n      dup2\n      gt\n      iszero\n      tag_119\n      jumpi\n      tag_120\n      tag_110\n      jump\t// in\n    tag_120:\n    tag_119:\n        /* \"contract/roulette.sol\":5200:5205  _type */\n      dup2\n        /* \"contract/roulette.sol\":5200:5226  _type == BetTypeEnum.THIRD */\n      0x05\n      dup2\n      gt\n      iszero\n      tag_121\n      jumpi\n      tag_122\n      tag_110\n      jump\t// in\n    tag_122:\n    tag_121:\n      sub\n        /* \"contract/roulette.sol\":5196:5686  if (_type == BetTypeEnum.THIRD) {... */\n      tag_123\n      jumpi\n        /* \"contract/roulette.sol\":5252:5253  1 */\n      0x01\n        /* \"contract/roulette.sol\":5244:5248  _bet */\n      dup3\n        /* \"contract/roulette.sol\":5244:5253  _bet >= 1 */\n      0xff\n      and\n      lt\n      iszero\n        /* \"contract/roulette.sol\":5244:5266  _bet >= 1 && _bet <= 3 */\n      dup1\n      iszero\n      tag_124\n      jumpi\n      pop\n        /* \"contract/roulette.sol\":5265:5266  3 */\n      0x03\n        /* \"contract/roulette.sol\":5257:5261  _bet */\n      dup3\n        /* \"contract/roulette.sol\":5257:5266  _bet <= 3 */\n      0xff\n      and\n      gt\n      iszero\n        /* \"contract/roulette.sol\":5244:5266  _bet >= 1 && _bet <= 3 */\n    tag_124:\n        /* \"contract/roulette.sol\":5236:5328  require(_bet >= 1 && _bet <= 3, \"Invalid bet. Third bet must be between 1 and 3 inclusive.\") */\n      tag_125\n      jumpi\n      mload(0x40)\n      0x08c379a000000000000000000000000000000000000000000000000000000000\n      dup2\n      mstore\n      0x04\n      add\n      tag_126\n      swap1\n      tag_127\n      jump\t// in\n    tag_126:\n      mload(0x40)\n      dup1\n      swap2\n      sub\n      swap1\n      revert\n    tag_125:\n        /* \"contract/roulette.sol\":5196:5686  if (_type == BetTypeEnum.THIRD) {... */\n      jump(tag_128)\n    tag_123:\n        /* \"contract/roulette.sol\":5354:5369  BetTypeEnum.RED */\n      0x02\n        /* \"contract/roulette.sol\":5345:5369  _type == BetTypeEnum.RED */\n      0x05\n      dup2\n      gt\n      iszero\n      tag_129\n      jumpi\n      tag_130\n      tag_110\n      jump\t// in\n    tag_130:\n    tag_129:\n        /* \"contract/roulette.sol\":5345:5350  _type */\n      dup2\n        /* \"contract/roulette.sol\":5345:5369  _type == BetTypeEnum.RED */\n      0x05\n      dup2\n      gt\n      iszero\n      tag_131\n      jumpi\n      tag_132\n      tag_110\n      jump\t// in\n    tag_132:\n    tag_131:\n      eq\n        /* \"contract/roulette.sol\":5345:5399  _type == BetTypeEnum.RED || _type == BetTypeEnum.BLACK */\n      dup1\n      tag_133\n      jumpi\n      pop\n        /* \"contract/roulette.sol\":5382:5399  BetTypeEnum.BLACK */\n      0x03\n        /* \"contract/roulette.sol\":5373:5399  _type == BetTypeEnum.BLACK */\n      0x05\n      dup2\n      gt\n      iszero\n      tag_134\n      jumpi\n      tag_135\n      tag_110\n      jump\t// in\n    tag_135:\n    tag_134:\n        /* \"contract/roulette.sol\":5373:5378  _type */\n      dup2\n        /* \"contract/roulette.sol\":5373:5399  _type == BetTypeEnum.BLACK */\n      0x05\n      dup2\n      gt\n      iszero\n      tag_136\n      jumpi\n      tag_137\n      tag_110\n      jump\t// in\n    tag_137:\n    tag_136:\n      eq\n        /* \"contract/roulette.sol\":5345:5399  _type == BetTypeEnum.RED || _type == BetTypeEnum.BLACK */\n    tag_133:\n        /* \"contract/roulette.sol\":5345:5427  _type == BetTypeEnum.RED || _type == BetTypeEnum.BLACK || _type == BetTypeEnum.ODD */\n      dup1\n      tag_138\n      jumpi\n      pop\n        /* \"contract/roulette.sol\":5412:5427  BetTypeEnum.ODD */\n      0x04\n        /* \"contract/roulette.sol\":5403:5427  _type == BetTypeEnum.ODD */\n      0x05\n      dup2\n      gt\n      iszero\n      tag_139\n      jumpi\n      tag_140\n      tag_110\n      jump\t// in\n    tag_140:\n    tag_139:\n        /* \"contract/roulette.sol\":5403:5408  _type */\n      dup2\n        /* \"contract/roulette.sol\":5403:5427  _type == BetTypeEnum.ODD */\n      0x05\n      dup2\n      gt\n      iszero\n      tag_141\n      jumpi\n      tag_142\n      tag_110\n      jump\t// in\n    tag_142:\n    tag_141:\n      eq\n        /* \"contract/roulette.sol\":5345:5427  _type == BetTypeEnum.RED || _type == BetTypeEnum.BLACK || _type == BetTypeEnum.ODD */\n    tag_138:\n        /* \"contract/roulette.sol\":5345:5456  _type == BetTypeEnum.RED || _type == BetTypeEnum.BLACK || _type == BetTypeEnum.ODD || _type == BetTypeEnum.EVEN */\n      dup1\n      tag_143\n      jumpi\n      pop\n        /* \"contract/roulette.sol\":5440:5456  BetTypeEnum.EVEN */\n      0x05\n        /* \"contract/roulette.sol\":5431:5456  _type == BetTypeEnum.EVEN */\n      dup1\n      dup2\n      gt\n      iszero\n      tag_144\n      jumpi\n      tag_145\n      tag_110\n      jump\t// in\n    tag_145:\n    tag_144:\n        /* \"contract/roulette.sol\":5431:5436  _type */\n      dup2\n        /* \"contract/roulette.sol\":5431:5456  _type == BetTypeEnum.EVEN */\n      0x05\n      dup2\n      gt\n      iszero\n      tag_146\n      jumpi\n      tag_147\n      tag_110\n      jump\t// in\n    tag_147:\n    tag_146:\n      eq\n        /* \"contract/roulette.sol\":5345:5456  _type == BetTypeEnum.RED || _type == BetTypeEnum.BLACK || _type == BetTypeEnum.ODD || _type == BetTypeEnum.EVEN */\n    tag_143:\n        /* \"contract/roulette.sol\":5341:5686  if (_type == BetTypeEnum.RED || _type == BetTypeEnum.BLACK || _type == BetTypeEnum.ODD || _type == BetTypeEnum.EVEN) {... */\n      iszero\n      tag_148\n      jumpi\n        /* \"contract/roulette.sol\":5482:5483  1 */\n      0x01\n        /* \"contract/roulette.sol\":5474:5478  _bet */\n      dup3\n        /* \"contract/roulette.sol\":5474:5483  _bet == 1 */\n      0xff\n      and\n      eq\n        /* \"contract/roulette.sol\":5466:5556  require(_bet == 1, \"Invalid bet. Red/black/odd/even bets must be placed with a bet of 1.\") */\n      tag_149\n      jumpi\n      mload(0x40)\n      0x08c379a000000000000000000000000000000000000000000000000000000000\n      dup2\n      mstore\n      0x04\n      add\n      tag_150\n      swap1\n      tag_151\n      jump\t// in\n    tag_150:\n      mload(0x40)\n      dup1\n      swap2\n      sub\n      swap1\n      revert\n    tag_149:\n        /* \"contract/roulette.sol\":5341:5686  if (_type == BetTypeEnum.RED || _type == BetTypeEnum.BLACK || _type == BetTypeEnum.ODD || _type == BetTypeEnum.EVEN) {... */\n      jump(tag_152)\n    tag_148:\n        /* \"contract/roulette.sol\":5585:5590  false */\n      0x00\n        /* \"contract/roulette.sol\":5577:5679  require(false, \"Invalid bet type. Please choose 'single', 'third', 'red', 'black', 'odd', or 'even'.\") */\n      tag_153\n      jumpi\n      mload(0x40)\n      0x08c379a000000000000000000000000000000000000000000000000000000000\n      dup2\n      mstore\n      0x04\n      add\n      tag_154\n      swap1\n      tag_155\n      jump\t// in\n    tag_154:\n      mload(0x40)\n      dup1\n      swap2\n      sub\n      swap1\n      revert\n    tag_153:\n        /* \"contract/roulette.sol\":5341:5686  if (_type == BetTypeEnum.RED || _type == BetTypeEnum.BLACK || _type == BetTypeEnum.ODD || _type == BetTypeEnum.EVEN) {... */\n    tag_152:\n        /* \"contract/roulette.sol\":5196:5686  if (_type == BetTypeEnum.THIRD) {... */\n    tag_128:\n        /* \"contract/roulette.sol\":5047:5686  if (_type == BetTypeEnum.SINGLE) {... */\n    tag_118:\n        /* \"contract/roulette.sol\":5709:5713  true */\n      0x01\n        /* \"contract/roulette.sol\":5692:5706  gameInProgress */\n      0x0a\n      0x00\n        /* \"contract/roulette.sol\":5692:5713  gameInProgress = true */\n      0x0100\n      exp\n      dup2\n      sload\n      dup2\n      0xff\n      mul\n      not\n      and\n      swap1\n      dup4\n      iszero\n      iszero\n      mul\n      or\n      swap1\n      sstore\n      pop\n        /* \"contract/roulette.sol\":5732:5787  Bet(payable(msg.sender), msg.value, _type, _bet, false) */\n      mload(0x40)\n      dup1\n      0xa0\n      add\n      0x40\n      mstore\n      dup1\n        /* \"contract/roulette.sol\":5744:5754  msg.sender */\n      caller\n        /* \"contract/roulette.sol\":5732:5787  Bet(payable(msg.sender), msg.value, _type, _bet, false) */\n      0xffffffffffffffffffffffffffffffffffffffff\n      and\n      dup2\n      mstore\n      0x20\n      add\n        /* \"contract/roulette.sol\":5757:5766  msg.value */\n      callvalue\n        /* \"contract/roulette.sol\":5732:5787  Bet(payable(msg.sender), msg.value, _type, _bet, false) */\n      dup2\n      mstore\n      0x20\n      add\n        /* \"contract/roulette.sol\":5768:5773  _type */\n      dup3\n        /* \"contract/roulette.sol\":5732:5787  Bet(payable(msg.sender), msg.value, _type, _bet, false) */\n      0x05\n      dup2\n      gt\n      iszero\n      tag_156\n      jumpi\n      tag_157\n      tag_110\n      jump\t// in\n    tag_157:\n    tag_156:\n      dup2\n      mstore\n      0x20\n      add\n        /* \"contract/roulette.sol\":5775:5779  _bet */\n      dup4\n        /* \"contract/roulette.sol\":5732:5787  Bet(payable(msg.sender), msg.value, _type, _bet, false) */\n      0xff\n      and\n      dup2\n      mstore\n      0x20\n      add\n        /* \"contract/roulette.sol\":5781:5786  false */\n      0x00\n        /* \"contract/roulette.sol\":5732:5787  Bet(payable(msg.sender), msg.value, _type, _bet, false) */\n      iszero\n      iszero\n      dup2\n      mstore\n      pop\n        /* \"contract/roulette.sol\":5719:5729  currentBet */\n      0x06\n        /* \"contract/roulette.sol\":5719:5787  currentBet = Bet(payable(msg.sender), msg.value, _type, _bet, false) */\n      0x00\n      dup3\n      add\n      mload\n      dup2\n      0x00\n      add\n      exp(0x0100, 0x00)\n      dup2\n      sload\n      dup2\n      0xffffffffffffffffffffffffffffffffffffffff\n      mul\n      not\n      and\n      swap1\n      dup4\n      0xffffffffffffffffffffffffffffffffffffffff\n      and\n      mul\n      or\n      swap1\n      sstore\n      pop\n      0x20\n      dup3\n      add\n      mload\n      dup2\n      0x01\n      add\n      sstore\n      0x40\n      dup3\n      add\n      mload\n      dup2\n      0x02\n      add\n      exp(0x0100, 0x00)\n      dup2\n      sload\n      dup2\n      0xff\n      mul\n      not\n      and\n      swap1\n      dup4\n      0x05\n      dup2\n      gt\n      iszero\n      tag_158\n      jumpi\n      tag_159\n      tag_110\n      jump\t// in\n    tag_159:\n    tag_158:\n      mul\n      or\n      swap1\n      sstore\n      pop\n      0x60\n      dup3\n      add\n      mload\n      dup2\n      0x02\n      add\n      exp(0x0100, 0x01)\n      dup2\n      sload\n      dup2\n      0xff\n      mul\n      not\n      and\n      swap1\n      dup4\n      0xff\n      and\n      mul\n      or\n      swap1\n      sstore\n      pop\n      0x80\n      dup3\n      add\n      mload\n      dup2\n      0x02\n      add\n      exp(0x0100, 0x02)\n      dup2\n      sload\n      dup2\n      0xff\n      mul\n      not\n      and\n      swap1\n      dup4\n      iszero\n      iszero\n      mul\n      or\n      swap1\n      sstore\n      pop\n      swap1\n      pop\n      pop\n        /* \"contract/roulette.sol\":5799:5824  LogCurrentBet(currentBet) */\n      0x17765110fdca5f4ba1cf2df414d1cf822fa07c70797d184d4c43e9fde1846eb5\n        /* \"contract/roulette.sol\":5813:5823  currentBet */\n      0x06\n        /* \"contract/roulette.sol\":5799:5824  LogCurrentBet(currentBet) */\n      mload(0x40)\n      tag_160\n      swap2\n      swap1\n      tag_161\n      jump\t// in\n    tag_160:\n      mload(0x40)\n      dup1\n      swap2\n      sub\n      swap1\n      log1\n        /* \"contract/roulette.sol\":5830:5841  spinWheel() */\n      tag_162\n        /* \"contract/roulette.sol\":5830:5839  spinWheel */\n      tag_163\n        /* \"contract/roulette.sol\":5830:5841  spinWheel() */\n      jump\t// in\n    tag_162:\n        /* \"contract/roulette.sol\":2834:2839  false */\n      0x00\n        /* \"contract/roulette.sol\":2815:2831  lockedPlacingBet */\n      0x0c\n      0x00\n        /* \"contract/roulette.sol\":2815:2839  lockedPlacingBet = false */\n      0x0100\n      exp\n      dup2\n      sload\n      dup2\n      0xff\n      mul\n      not\n      and\n      swap1\n      dup4\n      iszero\n      iszero\n      mul\n      or\n      swap1\n      sstore\n      pop\n        /* \"contract/roulette.sol\":4665:5846  function placeBet(uint8 _bet, BetTypeEnum _type) nonReentrant() external payable {... */\n      pop\n      pop\n      jump\t// out\n        /* \"contract/roulette.sol\":11247:11370  function addBalance() external payable {... */\n    tag_59:\n        /* \"contract/roulette.sol\":11350:11365  setMinMaxBets() */\n      tag_165\n        /* \"contract/roulette.sol\":11350:11363  setMinMaxBets */\n      tag_88\n        /* \"contract/roulette.sol\":11350:11365  setMinMaxBets() */\n      jump\t// in\n    tag_165:\n        /* \"contract/roulette.sol\":11247:11370  function addBalance() external payable {... */\n      jump\t// out\n        /* \"contract/roulette.sol\":1401:1422  Bet public currentBet */\n    tag_62:\n      0x06\n      dup1\n      0x00\n      add\n      0x00\n      swap1\n      sload\n      swap1\n      0x0100\n      exp\n      swap1\n      div\n      0xffffffffffffffffffffffffffffffffffffffff\n      and\n      swap1\n      dup1\n      0x01\n      add\n      sload\n      swap1\n      dup1\n      0x02\n      add\n      0x00\n      swap1\n      sload\n      swap1\n      0x0100\n      exp\n      swap1\n      div\n      0xff\n      and\n      swap1\n      dup1\n      0x02\n      add\n      0x01\n      swap1\n      sload\n      swap1\n      0x0100\n      exp\n      swap1\n      div\n      0xff\n      and\n      swap1\n      dup1\n      0x02\n      add\n      0x02\n      swap1\n      sload\n      swap1\n      0x0100\n      exp\n      swap1\n      div\n      0xff\n      and\n      swap1\n      pop\n      dup6\n      jump\t// out\n        /* \"contract/roulette.sol\":887:915  address payable public house */\n    tag_66:\n      0x02\n      0x04\n      swap1\n      sload\n      swap1\n      0x0100\n      exp\n      swap1\n      div\n      0xffffffffffffffffffffffffffffffffffffffff\n      and\n      dup2\n      jump\t// out\n        /* \"contract/roulette.sol\":2948:3618  function setMinMaxBets() private {... */\n    tag_88:\n        /* \"contract/roulette.sol\":2992:3008  uint256 _balance */\n      0x00\n        /* \"contract/roulette.sol\":3011:3032  address(this).balance */\n      selfbalance\n        /* \"contract/roulette.sol\":2992:3032  uint256 _balance = address(this).balance */\n      swap1\n      pop\n        /* \"contract/roulette.sol\":3172:3194  uint256 _wei_threshold */\n      0x00\n        /* \"contract/roulette.sol\":3197:3202  30000 */\n      0x7530\n        /* \"contract/roulette.sol\":3172:3202  uint256 _wei_threshold = 30000 */\n      swap1\n      pop\n        /* \"contract/roulette.sol\":3237:3251  _wei_threshold */\n      dup1\n        /* \"contract/roulette.sol\":3217:3234  _callbackGasLimit */\n      0x02\n      0x00\n      swap1\n      sload\n      swap1\n      0x0100\n      exp\n      swap1\n      div\n      0xffffffff\n      and\n        /* \"contract/roulette.sol\":3217:3251  _callbackGasLimit + _wei_threshold */\n      0xffffffff\n      and\n      tag_167\n      swap2\n      swap1\n      tag_168\n      jump\t// in\n    tag_167:\n        /* \"contract/roulette.sol\":3208:3214  minBet */\n      0x04\n        /* \"contract/roulette.sol\":3208:3251  minBet = _callbackGasLimit + _wei_threshold */\n      dup2\n      swap1\n      sstore\n      pop\n        /* \"contract/roulette.sol\":3435:3441  minBet */\n      sload(0x04)\n        /* \"contract/roulette.sol\":3429:3431  35 */\n      0x23\n        /* \"contract/roulette.sol\":3418:3426  _balance */\n      dup4\n        /* \"contract/roulette.sol\":3418:3431  _balance / 35 */\n      tag_169\n      swap2\n      swap1\n      tag_170\n      jump\t// in\n    tag_169:\n        /* \"contract/roulette.sol\":3417:3441  (_balance / 35) > minBet */\n      gt\n        /* \"contract/roulette.sol\":3409:3507  require((_balance / 35) > minBet, \"The funds in this contract are too low and need to be higher.\") */\n      tag_171\n      jumpi\n      mload(0x40)\n      0x08c379a000000000000000000000000000000000000000000000000000000000\n      dup2\n      mstore\n      0x04\n      add\n      tag_172\n      swap1\n      tag_173\n      jump\t// in\n    tag_172:\n      mload(0x40)\n      dup1\n      swap2\n      sub\n      swap1\n      revert\n    tag_171:\n        /* \"contract/roulette.sol\":3540:3546  minBet */\n      sload(0x04)\n        /* \"contract/roulette.sol\":3534:3536  35 */\n      0x23\n        /* \"contract/roulette.sol\":3523:3531  _balance */\n      dup4\n        /* \"contract/roulette.sol\":3523:3536  _balance / 35 */\n      tag_174\n      swap2\n      swap1\n      tag_170\n      jump\t// in\n    tag_174:\n        /* \"contract/roulette.sol\":3522:3546  (_balance / 35) - minBet */\n      tag_175\n      swap2\n      swap1\n      tag_83\n      jump\t// in\n    tag_175:\n        /* \"contract/roulette.sol\":3513:3519  maxBet */\n      0x03\n        /* \"contract/roulette.sol\":3513:3546  maxBet = (_balance / 35) - minBet */\n      dup2\n      swap1\n      sstore\n      pop\n        /* \"contract/roulette.sol\":3557:3582  LogMinMax(maxBet, minBet) */\n      0xd6c35f99cd113b65660d600ed2917da92e279b96836a62bd211b0445e6afa0cf\n        /* \"contract/roulette.sol\":3567:3573  maxBet */\n      sload(0x03)\n        /* \"contract/roulette.sol\":3575:3581  minBet */\n      sload(0x04)\n        /* \"contract/roulette.sol\":3557:3582  LogMinMax(maxBet, minBet) */\n      mload(0x40)\n      tag_176\n      swap3\n      swap2\n      swap1\n      tag_177\n      jump\t// in\n    tag_176:\n      mload(0x40)\n      dup1\n      swap2\n      sub\n      swap1\n      log1\n        /* \"contract/roulette.sol\":3606:3612  minBet */\n      sload(0x04)\n        /* \"contract/roulette.sol\":3596:3602  maxBet */\n      sload(0x03)\n        /* \"contract/roulette.sol\":3596:3612  maxBet >= minBet */\n      lt\n      iszero\n        /* \"contract/roulette.sol\":3589:3613  assert(maxBet >= minBet) */\n      tag_178\n      jumpi\n      tag_179\n      tag_86\n      jump\t// in\n    tag_179:\n    tag_178:\n        /* \"contract/roulette.sol\":2981:3618  {... */\n      pop\n      pop\n        /* \"contract/roulette.sol\":2948:3618  function setMinMaxBets() private {... */\n      jump\t// out\n        /* \"contract/roulette.sol\":6597:6935  function fulfillRandomWords(... */\n    tag_94:\n        /* \"contract/roulette.sol\":6739:6749  _requestId */\n      dup2\n        /* \"contract/roulette.sol\":6719:6735  currentRequestId */\n      sload(0x09)\n        /* \"contract/roulette.sol\":6719:6749  currentRequestId == _requestId */\n      eq\n        /* \"contract/roulette.sol\":6711:6782  require(currentRequestId == _requestId, \"The request IDs do not match\") */\n      tag_181\n      jumpi\n      mload(0x40)\n      0x08c379a000000000000000000000000000000000000000000000000000000000\n      dup2\n      mstore\n      0x04\n      add\n      tag_182\n      swap1\n      tag_183\n      jump\t// in\n    tag_182:\n      mload(0x40)\n      dup1\n      swap2\n      sub\n      swap1\n      revert\n    tag_181:\n        /* \"contract/roulette.sol\":6836:6838  37 */\n      0x25\n        /* \"contract/roulette.sol\":6818:6830  _randomWords */\n      dup2\n        /* \"contract/roulette.sol\":6831:6832  0 */\n      0x00\n        /* \"contract/roulette.sol\":6818:6833  _randomWords[0] */\n      dup2\n      mload\n      dup2\n      lt\n      tag_184\n      jumpi\n      tag_185\n      tag_186\n      jump\t// in\n    tag_185:\n    tag_184:\n      0x20\n      mul\n      0x20\n      add\n      add\n      mload\n        /* \"contract/roulette.sol\":6818:6838  _randomWords[0] % 37 */\n      tag_187\n      swap2\n      swap1\n      tag_188\n      jump\t// in\n    tag_187:\n        /* \"contract/roulette.sol\":6789:6809  currentWinningNumber */\n      0x05\n      0x00\n        /* \"contract/roulette.sol\":6789:6839  currentWinningNumber = uint8(_randomWords[0] % 37) */\n      0x0100\n      exp\n      dup2\n      sload\n      dup2\n      0xff\n      mul\n      not\n      and\n      swap1\n      dup4\n      0xff\n      and\n      mul\n      or\n      swap1\n      sstore\n      pop\n        /* \"contract/roulette.sol\":6872:6910  LogPayout(\"A payout has been called.\") */\n      0xd26a1ef5c184c4e0eb2179564cc0202c6ee2f00c1b3514d54ded3d5bc598e516\n      mload(0x40)\n      tag_189\n      swap1\n      tag_190\n      jump\t// in\n    tag_189:\n      mload(0x40)\n      dup1\n      swap2\n      sub\n      swap1\n      log1\n        /* \"contract/roulette.sol\":6916:6930  payoutWinner() */\n      tag_191\n        /* \"contract/roulette.sol\":6916:6928  payoutWinner */\n      tag_192\n        /* \"contract/roulette.sol\":6916:6930  payoutWinner() */\n      jump\t// in\n    tag_191:\n        /* \"contract/roulette.sol\":6597:6935  function fulfillRandomWords(... */\n      pop\n      pop\n      jump\t// out\n        /* \"contract/roulette.sol\":5924:6388  function spinWheel() private {... */\n    tag_163:\n        /* \"contract/roulette.sol\":5994:6022  uint16 _requestConfirmations */\n      0x00\n        /* \"contract/roulette.sol\":6025:6026  3 */\n      0x03\n        /* \"contract/roulette.sol\":5994:6026  uint16 _requestConfirmations = 3 */\n      swap1\n      pop\n        /* \"contract/roulette.sol\":6090:6106  uint32 _numWords */\n      0x00\n        /* \"contract/roulette.sol\":6109:6110  1 */\n      0x01\n        /* \"contract/roulette.sol\":6090:6110  uint32 _numWords = 1 */\n      swap1\n      pop\n        /* \"contract/roulette.sol\":6195:6206  COORDINATOR */\n      0x00\n      dup1\n      sload\n      swap1\n      0x0100\n      exp\n      swap1\n      div\n      0xffffffffffffffffffffffffffffffffffffffff\n      and\n        /* \"contract/roulette.sol\":6195:6225  COORDINATOR.requestRandomWords */\n      0xffffffffffffffffffffffffffffffffffffffff\n      and\n      0x5d3b1d30\n        /* \"contract/roulette.sol\":6233:6240  keyHash */\n      sload(0x01)\n        /* \"contract/roulette.sol\":6248:6264  s_subscriptionId */\n      0x00\n      0x14\n      swap1\n      sload\n      swap1\n      0x0100\n      exp\n      swap1\n      div\n      0xffffffffffffffff\n      and\n        /* \"contract/roulette.sol\":6272:6293  _requestConfirmations */\n      dup6\n        /* \"contract/roulette.sol\":6301:6318  _callbackGasLimit */\n      0x02\n      0x00\n      swap1\n      sload\n      swap1\n      0x0100\n      exp\n      swap1\n      div\n      0xffffffff\n      and\n        /* \"contract/roulette.sol\":6326:6335  _numWords */\n      dup7\n        /* \"contract/roulette.sol\":6195:6341  COORDINATOR.requestRandomWords(... */\n      mload(0x40)\n      dup7\n      0xffffffff\n      and\n      0xe0\n      shl\n      dup2\n      mstore\n      0x04\n      add\n      tag_194\n      swap6\n      swap5\n      swap4\n      swap3\n      swap2\n      swap1\n      tag_195\n      jump\t// in\n    tag_194:\n      0x20\n      mload(0x40)\n      dup1\n      dup4\n      sub\n      dup2\n      0x00\n      dup8\n      gas\n      call\n      iszero\n      dup1\n      iszero\n      tag_197\n      jumpi\n      returndatasize\n      0x00\n      dup1\n      returndatacopy\n      revert(0x00, returndatasize)\n    tag_197:\n      pop\n      pop\n      pop\n      pop\n      mload(0x40)\n      returndatasize\n      not(0x1f)\n      0x1f\n      dup3\n      add\n      and\n      dup3\n      add\n      dup1\n      0x40\n      mstore\n      pop\n      dup2\n      add\n      swap1\n      tag_198\n      swap2\n      swap1\n      tag_199\n      jump\t// in\n    tag_198:\n        /* \"contract/roulette.sol\":6176:6192  currentRequestId */\n      0x09\n        /* \"contract/roulette.sol\":6176:6341  currentRequestId = COORDINATOR.requestRandomWords(... */\n      dup2\n      swap1\n      sstore\n      pop\n        /* \"contract/roulette.sol\":6373:6383  currentBet */\n      0x06\n        /* \"contract/roulette.sol\":6348:6352  book */\n      0x0b\n        /* \"contract/roulette.sol\":6348:6370  book[currentRequestId] */\n      0x00\n        /* \"contract/roulette.sol\":6353:6369  currentRequestId */\n      sload(0x09)\n        /* \"contract/roulette.sol\":6348:6370  book[currentRequestId] */\n      dup2\n      mstore\n      0x20\n      add\n      swap1\n      dup2\n      mstore\n      0x20\n      add\n      0x00\n      keccak256\n        /* \"contract/roulette.sol\":6348:6383  book[currentRequestId] = currentBet */\n      0x00\n      dup3\n      add\n      0x00\n      swap1\n      sload\n      swap1\n      0x0100\n      exp\n      swap1\n      div\n      0xffffffffffffffffffffffffffffffffffffffff\n      and\n      dup2\n      0x00\n      add\n      exp(0x0100, 0x00)\n      dup2\n      sload\n      dup2\n      0xffffffffffffffffffffffffffffffffffffffff\n      mul\n      not\n      and\n      swap1\n      dup4\n      0xffffffffffffffffffffffffffffffffffffffff\n      and\n      mul\n      or\n      swap1\n      sstore\n      pop\n      0x01\n      dup3\n      add\n      sload\n      dup2\n      0x01\n      add\n      sstore\n      0x02\n      dup3\n      add\n      0x00\n      swap1\n      sload\n      swap1\n      0x0100\n      exp\n      swap1\n      div\n      0xff\n      and\n      dup2\n      0x02\n      add\n      exp(0x0100, 0x00)\n      dup2\n      sload\n      dup2\n      0xff\n      mul\n      not\n      and\n      swap1\n      dup4\n      0x05\n      dup2\n      gt\n      iszero\n      tag_200\n      jumpi\n      tag_201\n      tag_110\n      jump\t// in\n    tag_201:\n    tag_200:\n      mul\n      or\n      swap1\n      sstore\n      pop\n      0x02\n      dup3\n      add\n      0x01\n      swap1\n      sload\n      swap1\n      0x0100\n      exp\n      swap1\n      div\n      0xff\n      and\n      dup2\n      0x02\n      add\n      exp(0x0100, 0x01)\n      dup2\n      sload\n      dup2\n      0xff\n      mul\n      not\n      and\n      swap1\n      dup4\n      0xff\n      and\n      mul\n      or\n      swap1\n      sstore\n      pop\n      0x02\n      dup3\n      add\n      0x02\n      swap1\n      sload\n      swap1\n      0x0100\n      exp\n      swap1\n      div\n      0xff\n      and\n      dup2\n      0x02\n      add\n      exp(0x0100, 0x02)\n      dup2\n      sload\n      dup2\n      0xff\n      mul\n      not\n      and\n      swap1\n      dup4\n      iszero\n      iszero\n      mul\n      or\n      swap1\n      sstore\n      pop\n      swap1\n      pop\n      pop\n        /* \"contract/roulette.sol\":5953:6388  {... */\n      pop\n      pop\n        /* \"contract/roulette.sol\":5924:6388  function spinWheel() private {... */\n      jump\t// out\n        /* \"contract/roulette.sol\":7503:9580  function payoutWinner() private {... */\n    tag_192:\n        /* \"contract/roulette.sol\":7541:7563  address payable player */\n      0x00\n        /* \"contract/roulette.sol\":7566:7576  currentBet */\n      0x06\n        /* \"contract/roulette.sol\":7566:7583  currentBet.player */\n      0x00\n      add\n      0x00\n      swap1\n      sload\n      swap1\n      0x0100\n      exp\n      swap1\n      div\n      0xffffffffffffffffffffffffffffffffffffffff\n      and\n        /* \"contract/roulette.sol\":7541:7583  address payable player = currentBet.player */\n      swap1\n      pop\n        /* \"contract/roulette.sol\":7592:7610  uint256  betAmount */\n      0x00\n        /* \"contract/roulette.sol\":7613:7623  currentBet */\n      0x06\n        /* \"contract/roulette.sol\":7613:7633  currentBet.betAmount */\n      0x01\n      add\n      sload\n        /* \"contract/roulette.sol\":7592:7633  uint256  betAmount = currentBet.betAmount */\n      swap1\n      pop\n        /* \"contract/roulette.sol\":7639:7658  BetTypeEnum betType */\n      0x00\n        /* \"contract/roulette.sol\":7661:7671  currentBet */\n      0x06\n        /* \"contract/roulette.sol\":7661:7679  currentBet.betType */\n      0x02\n      add\n      0x00\n      swap1\n      sload\n      swap1\n      0x0100\n      exp\n      swap1\n      div\n      0xff\n      and\n        /* \"contract/roulette.sol\":7639:7679  BetTypeEnum betType = currentBet.betType */\n      swap1\n      pop\n        /* \"contract/roulette.sol\":7685:7700  uint8 betNumber */\n      0x00\n        /* \"contract/roulette.sol\":7703:7713  currentBet */\n      0x06\n        /* \"contract/roulette.sol\":7703:7723  currentBet.betNumber */\n      0x02\n      add\n      0x01\n      swap1\n      sload\n      swap1\n      0x0100\n      exp\n      swap1\n      div\n      0xff\n      and\n        /* \"contract/roulette.sol\":7685:7723  uint8 betNumber = currentBet.betNumber */\n      swap1\n      pop\n        /* \"contract/roulette.sol\":7808:7826  BetTypeEnum.SINGLE */\n      0x00\n        /* \"contract/roulette.sol\":7797:7826  betType == BetTypeEnum.SINGLE */\n      0x05\n      dup2\n      gt\n      iszero\n      tag_203\n      jumpi\n      tag_204\n      tag_110\n      jump\t// in\n    tag_204:\n    tag_203:\n        /* \"contract/roulette.sol\":7797:7804  betType */\n      dup3\n        /* \"contract/roulette.sol\":7797:7826  betType == BetTypeEnum.SINGLE */\n      0x05\n      dup2\n      gt\n      iszero\n      tag_205\n      jumpi\n      tag_206\n      tag_110\n      jump\t// in\n    tag_206:\n    tag_205:\n      sub\n        /* \"contract/roulette.sol\":7793:9442  if (betType == BetTypeEnum.SINGLE) {... */\n      tag_207\n      jumpi\n        /* \"contract/roulette.sol\":7864:7873  betNumber */\n      dup1\n        /* \"contract/roulette.sol\":7840:7873  currentWinningNumber == betNumber */\n      0xff\n      and\n        /* \"contract/roulette.sol\":7840:7860  currentWinningNumber */\n      0x05\n      0x00\n      swap1\n      sload\n      swap1\n      0x0100\n      exp\n      swap1\n      div\n      0xff\n      and\n        /* \"contract/roulette.sol\":7840:7873  currentWinningNumber == betNumber */\n      0xff\n      and\n      sub\n        /* \"contract/roulette.sol\":7836:8038  if (currentWinningNumber == betNumber) {... */\n      tag_208\n      jumpi\n        /* \"contract/roulette.sol\":7885:7891  player */\n      dup4\n        /* \"contract/roulette.sol\":7885:7900  player.transfer */\n      0xffffffffffffffffffffffffffffffffffffffff\n      and\n        /* \"contract/roulette.sol\":7885:7916  player.transfer(betAmount * 35) */\n      0x08fc\n        /* \"contract/roulette.sol\":7913:7915  35 */\n      0x23\n        /* \"contract/roulette.sol\":7901:7910  betAmount */\n      dup6\n        /* \"contract/roulette.sol\":7901:7915  betAmount * 35 */\n      tag_209\n      swap2\n      swap1\n      tag_210\n      jump\t// in\n    tag_209:\n        /* \"contract/roulette.sol\":7885:7916  player.transfer(betAmount * 35) */\n      swap1\n      dup2\n      iszero\n      mul\n      swap1\n      mload(0x40)\n      0x00\n      mload(0x40)\n      dup1\n      dup4\n      sub\n      dup2\n      dup6\n      dup9\n      dup9\n      call\n      swap4\n      pop\n      pop\n      pop\n      pop\n      iszero\n      dup1\n      iszero\n      tag_212\n      jumpi\n      returndatasize\n      0x00\n      dup1\n      returndatacopy\n      revert(0x00, returndatasize)\n    tag_212:\n      pop\n        /* \"contract/roulette.sol\":7926:7972  logWinningNumber(player, true, betAmount * 35) */\n      tag_213\n        /* \"contract/roulette.sol\":7943:7949  player */\n      dup5\n        /* \"contract/roulette.sol\":7951:7955  true */\n      0x01\n        /* \"contract/roulette.sol\":7969:7971  35 */\n      0x23\n        /* \"contract/roulette.sol\":7957:7966  betAmount */\n      dup7\n        /* \"contract/roulette.sol\":7957:7971  betAmount * 35 */\n      tag_214\n      swap2\n      swap1\n      tag_210\n      jump\t// in\n    tag_214:\n        /* \"contract/roulette.sol\":7926:7942  logWinningNumber */\n      tag_215\n        /* \"contract/roulette.sol\":7926:7972  logWinningNumber(player, true, betAmount * 35) */\n      jump\t// in\n    tag_213:\n        /* \"contract/roulette.sol\":7836:8038  if (currentWinningNumber == betNumber) {... */\n      jump(tag_216)\n    tag_208:\n        /* \"contract/roulette.sol\":7995:8029  logWinningNumber(player, false, 0) */\n      tag_217\n        /* \"contract/roulette.sol\":8012:8018  player */\n      dup5\n        /* \"contract/roulette.sol\":8020:8025  false */\n      0x00\n        /* \"contract/roulette.sol\":8027:8028  0 */\n      dup1\n        /* \"contract/roulette.sol\":7995:8011  logWinningNumber */\n      tag_215\n        /* \"contract/roulette.sol\":7995:8029  logWinningNumber(player, false, 0) */\n      jump\t// in\n    tag_217:\n        /* \"contract/roulette.sol\":7836:8038  if (currentWinningNumber == betNumber) {... */\n    tag_216:\n        /* \"contract/roulette.sol\":7793:9442  if (betType == BetTypeEnum.SINGLE) {... */\n      jump(tag_218)\n    tag_207:\n        /* \"contract/roulette.sol\":8065:8082  BetTypeEnum.THIRD */\n      0x01\n        /* \"contract/roulette.sol\":8054:8082  betType == BetTypeEnum.THIRD */\n      0x05\n      dup2\n      gt\n      iszero\n      tag_219\n      jumpi\n      tag_220\n      tag_110\n      jump\t// in\n    tag_220:\n    tag_219:\n        /* \"contract/roulette.sol\":8054:8061  betType */\n      dup3\n        /* \"contract/roulette.sol\":8054:8082  betType == BetTypeEnum.THIRD */\n      0x05\n      dup2\n      gt\n      iszero\n      tag_221\n      jumpi\n      tag_222\n      tag_110\n      jump\t// in\n    tag_222:\n    tag_221:\n      sub\n        /* \"contract/roulette.sol\":8050:9442  if (betType == BetTypeEnum.THIRD) {... */\n      tag_223\n      jumpi\n        /* \"contract/roulette.sol\":8138:8140  12 */\n      0x0c\n        /* \"contract/roulette.sol\":8133:8134  1 */\n      0x01\n        /* \"contract/roulette.sol\":8121:8130  betNumber */\n      dup3\n        /* \"contract/roulette.sol\":8121:8134  betNumber - 1 */\n      tag_224\n      swap2\n      swap1\n      tag_225\n      jump\t// in\n    tag_224:\n        /* \"contract/roulette.sol\":8120:8140  (betNumber - 1) * 12 */\n      tag_226\n      swap2\n      swap1\n      tag_227\n      jump\t// in\n    tag_226:\n        /* \"contract/roulette.sol\":8096:8140  currentWinningNumber >= (betNumber - 1) * 12 */\n      0xff\n      and\n        /* \"contract/roulette.sol\":8096:8116  currentWinningNumber */\n      0x05\n      0x00\n      swap1\n      sload\n      swap1\n      0x0100\n      exp\n      swap1\n      div\n      0xff\n      and\n        /* \"contract/roulette.sol\":8096:8140  currentWinningNumber >= (betNumber - 1) * 12 */\n      0xff\n      and\n      lt\n      iszero\n        /* \"contract/roulette.sol\":8096:8182  currentWinningNumber >= (betNumber - 1) * 12 && currentWinningNumber <= betNumber * 12 */\n      dup1\n      iszero\n      tag_228\n      jumpi\n      pop\n        /* \"contract/roulette.sol\":8180:8182  12 */\n      0x0c\n        /* \"contract/roulette.sol\":8168:8177  betNumber */\n      dup2\n        /* \"contract/roulette.sol\":8168:8182  betNumber * 12 */\n      tag_229\n      swap2\n      swap1\n      tag_227\n      jump\t// in\n    tag_229:\n        /* \"contract/roulette.sol\":8144:8182  currentWinningNumber <= betNumber * 12 */\n      0xff\n      and\n        /* \"contract/roulette.sol\":8144:8164  currentWinningNumber */\n      0x05\n      0x00\n      swap1\n      sload\n      swap1\n      0x0100\n      exp\n      swap1\n      div\n      0xff\n      and\n        /* \"contract/roulette.sol\":8144:8182  currentWinningNumber <= betNumber * 12 */\n      0xff\n      and\n      gt\n      iszero\n        /* \"contract/roulette.sol\":8096:8182  currentWinningNumber >= (betNumber - 1) * 12 && currentWinningNumber <= betNumber * 12 */\n    tag_228:\n        /* \"contract/roulette.sol\":8092:8346  if (currentWinningNumber >= (betNumber - 1) * 12 && currentWinningNumber <= betNumber * 12) {... */\n      iszero\n      tag_230\n      jumpi\n        /* \"contract/roulette.sol\":8194:8200  player */\n      dup4\n        /* \"contract/roulette.sol\":8194:8209  player.transfer */\n      0xffffffffffffffffffffffffffffffffffffffff\n      and\n        /* \"contract/roulette.sol\":8194:8224  player.transfer(betAmount * 3) */\n      0x08fc\n        /* \"contract/roulette.sol\":8222:8223  3 */\n      0x03\n        /* \"contract/roulette.sol\":8210:8219  betAmount */\n      dup6\n        /* \"contract/roulette.sol\":8210:8223  betAmount * 3 */\n      tag_231\n      swap2\n      swap1\n      tag_210\n      jump\t// in\n    tag_231:\n        /* \"contract/roulette.sol\":8194:8224  player.transfer(betAmount * 3) */\n      swap1\n      dup2\n      iszero\n      mul\n      swap1\n      mload(0x40)\n      0x00\n      mload(0x40)\n      dup1\n      dup4\n      sub\n      dup2\n      dup6\n      dup9\n      dup9\n      call\n      swap4\n      pop\n      pop\n      pop\n      pop\n      iszero\n      dup1\n      iszero\n      tag_233\n      jumpi\n      returndatasize\n      0x00\n      dup1\n      returndatacopy\n      revert(0x00, returndatasize)\n    tag_233:\n      pop\n        /* \"contract/roulette.sol\":8234:8279  logWinningNumber(player, true, betAmount * 3) */\n      tag_234\n        /* \"contract/roulette.sol\":8251:8257  player */\n      dup5\n        /* \"contract/roulette.sol\":8259:8263  true */\n      0x01\n        /* \"contract/roulette.sol\":8277:8278  3 */\n      0x03\n        /* \"contract/roulette.sol\":8265:8274  betAmount */\n      dup7\n        /* \"contract/roulette.sol\":8265:8278  betAmount * 3 */\n      tag_235\n      swap2\n      swap1\n      tag_210\n      jump\t// in\n    tag_235:\n        /* \"contract/roulette.sol\":8234:8250  logWinningNumber */\n      tag_215\n        /* \"contract/roulette.sol\":8234:8279  logWinningNumber(player, true, betAmount * 3) */\n      jump\t// in\n    tag_234:\n        /* \"contract/roulette.sol\":8092:8346  if (currentWinningNumber >= (betNumber - 1) * 12 && currentWinningNumber <= betNumber * 12) {... */\n      jump(tag_236)\n    tag_230:\n        /* \"contract/roulette.sol\":8303:8337  logWinningNumber(player, false, 0) */\n      tag_237\n        /* \"contract/roulette.sol\":8320:8326  player */\n      dup5\n        /* \"contract/roulette.sol\":8328:8333  false */\n      0x00\n        /* \"contract/roulette.sol\":8335:8336  0 */\n      dup1\n        /* \"contract/roulette.sol\":8303:8319  logWinningNumber */\n      tag_215\n        /* \"contract/roulette.sol\":8303:8337  logWinningNumber(player, false, 0) */\n      jump\t// in\n    tag_237:\n        /* \"contract/roulette.sol\":8092:8346  if (currentWinningNumber >= (betNumber - 1) * 12 && currentWinningNumber <= betNumber * 12) {... */\n    tag_236:\n        /* \"contract/roulette.sol\":8050:9442  if (betType == BetTypeEnum.THIRD) {... */\n      jump(tag_238)\n    tag_223:\n        /* \"contract/roulette.sol\":8373:8388  BetTypeEnum.RED */\n      0x02\n        /* \"contract/roulette.sol\":8362:8388  betType == BetTypeEnum.RED */\n      0x05\n      dup2\n      gt\n      iszero\n      tag_239\n      jumpi\n      tag_240\n      tag_110\n      jump\t// in\n    tag_240:\n    tag_239:\n        /* \"contract/roulette.sol\":8362:8369  betType */\n      dup3\n        /* \"contract/roulette.sol\":8362:8388  betType == BetTypeEnum.RED */\n      0x05\n      dup2\n      gt\n      iszero\n      tag_241\n      jumpi\n      tag_242\n      tag_110\n      jump\t// in\n    tag_242:\n    tag_241:\n      sub\n        /* \"contract/roulette.sol\":8358:9442  if (betType == BetTypeEnum.RED) {... */\n      tag_243\n      jumpi\n        /* \"contract/roulette.sol\":8402:8429  isRed(currentWinningNumber) */\n      tag_244\n        /* \"contract/roulette.sol\":8408:8428  currentWinningNumber */\n      0x05\n      0x00\n      swap1\n      sload\n      swap1\n      0x0100\n      exp\n      swap1\n      div\n      0xff\n      and\n        /* \"contract/roulette.sol\":8402:8407  isRed */\n      tag_245\n        /* \"contract/roulette.sol\":8402:8429  isRed(currentWinningNumber) */\n      jump\t// in\n    tag_244:\n        /* \"contract/roulette.sol\":8398:8594  if (isRed(currentWinningNumber)) {... */\n      iszero\n      tag_246\n      jumpi\n        /* \"contract/roulette.sol\":8441:8447  player */\n      dup4\n        /* \"contract/roulette.sol\":8441:8456  player.transfer */\n      0xffffffffffffffffffffffffffffffffffffffff\n      and\n        /* \"contract/roulette.sol\":8441:8471  player.transfer(betAmount * 2) */\n      0x08fc\n        /* \"contract/roulette.sol\":8469:8470  2 */\n      0x02\n        /* \"contract/roulette.sol\":8457:8466  betAmount */\n      dup6\n        /* \"contract/roulette.sol\":8457:8470  betAmount * 2 */\n      tag_247\n      swap2\n      swap1\n      tag_210\n      jump\t// in\n    tag_247:\n        /* \"contract/roulette.sol\":8441:8471  player.transfer(betAmount * 2) */\n      swap1\n      dup2\n      iszero\n      mul\n      swap1\n      mload(0x40)\n      0x00\n      mload(0x40)\n      dup1\n      dup4\n      sub\n      dup2\n      dup6\n      dup9\n      dup9\n      call\n      swap4\n      pop\n      pop\n      pop\n      pop\n      iszero\n      dup1\n      iszero\n      tag_249\n      jumpi\n      returndatasize\n      0x00\n      dup1\n      returndatacopy\n      revert(0x00, returndatasize)\n    tag_249:\n      pop\n        /* \"contract/roulette.sol\":8481:8526  logWinningNumber(player, true, betAmount * 2) */\n      tag_250\n        /* \"contract/roulette.sol\":8498:8504  player */\n      dup5\n        /* \"contract/roulette.sol\":8506:8510  true */\n      0x01\n        /* \"contract/roulette.sol\":8524:8525  2 */\n      0x02\n        /* \"contract/roulette.sol\":8512:8521  betAmount */\n      dup7\n        /* \"contract/roulette.sol\":8512:8525  betAmount * 2 */\n      tag_251\n      swap2\n      swap1\n      tag_210\n      jump\t// in\n    tag_251:\n        /* \"contract/roulette.sol\":8481:8497  logWinningNumber */\n      tag_215\n        /* \"contract/roulette.sol\":8481:8526  logWinningNumber(player, true, betAmount * 2) */\n      jump\t// in\n    tag_250:\n        /* \"contract/roulette.sol\":8398:8594  if (isRed(currentWinningNumber)) {... */\n      jump(tag_252)\n    tag_246:\n        /* \"contract/roulette.sol\":8551:8585  logWinningNumber(player, false, 0) */\n      tag_253\n        /* \"contract/roulette.sol\":8568:8574  player */\n      dup5\n        /* \"contract/roulette.sol\":8576:8581  false */\n      0x00\n        /* \"contract/roulette.sol\":8583:8584  0 */\n      dup1\n        /* \"contract/roulette.sol\":8551:8567  logWinningNumber */\n      tag_215\n        /* \"contract/roulette.sol\":8551:8585  logWinningNumber(player, false, 0) */\n      jump\t// in\n    tag_253:\n        /* \"contract/roulette.sol\":8398:8594  if (isRed(currentWinningNumber)) {... */\n    tag_252:\n        /* \"contract/roulette.sol\":8358:9442  if (betType == BetTypeEnum.RED) {... */\n      jump(tag_254)\n    tag_243:\n        /* \"contract/roulette.sol\":8621:8638  BetTypeEnum.BLACK */\n      0x03\n        /* \"contract/roulette.sol\":8610:8638  betType == BetTypeEnum.BLACK */\n      0x05\n      dup2\n      gt\n      iszero\n      tag_255\n      jumpi\n      tag_256\n      tag_110\n      jump\t// in\n    tag_256:\n    tag_255:\n        /* \"contract/roulette.sol\":8610:8617  betType */\n      dup3\n        /* \"contract/roulette.sol\":8610:8638  betType == BetTypeEnum.BLACK */\n      0x05\n      dup2\n      gt\n      iszero\n      tag_257\n      jumpi\n      tag_258\n      tag_110\n      jump\t// in\n    tag_258:\n    tag_257:\n      sub\n        /* \"contract/roulette.sol\":8606:9442  if (betType == BetTypeEnum.BLACK) {... */\n      tag_259\n      jumpi\n        /* \"contract/roulette.sol\":8653:8680  isRed(currentWinningNumber) */\n      tag_260\n        /* \"contract/roulette.sol\":8659:8679  currentWinningNumber */\n      0x05\n      0x00\n      swap1\n      sload\n      swap1\n      0x0100\n      exp\n      swap1\n      div\n      0xff\n      and\n        /* \"contract/roulette.sol\":8653:8658  isRed */\n      tag_245\n        /* \"contract/roulette.sol\":8653:8680  isRed(currentWinningNumber) */\n      jump\t// in\n    tag_260:\n        /* \"contract/roulette.sol\":8648:8845  if (!isRed(currentWinningNumber)) {... */\n      tag_261\n      jumpi\n        /* \"contract/roulette.sol\":8692:8698  player */\n      dup4\n        /* \"contract/roulette.sol\":8692:8707  player.transfer */\n      0xffffffffffffffffffffffffffffffffffffffff\n      and\n        /* \"contract/roulette.sol\":8692:8722  player.transfer(betAmount * 2) */\n      0x08fc\n        /* \"contract/roulette.sol\":8720:8721  2 */\n      0x02\n        /* \"contract/roulette.sol\":8708:8717  betAmount */\n      dup6\n        /* \"contract/roulette.sol\":8708:8721  betAmount * 2 */\n      tag_262\n      swap2\n      swap1\n      tag_210\n      jump\t// in\n    tag_262:\n        /* \"contract/roulette.sol\":8692:8722  player.transfer(betAmount * 2) */\n      swap1\n      dup2\n      iszero\n      mul\n      swap1\n      mload(0x40)\n      0x00\n      mload(0x40)\n      dup1\n      dup4\n      sub\n      dup2\n      dup6\n      dup9\n      dup9\n      call\n      swap4\n      pop\n      pop\n      pop\n      pop\n      iszero\n      dup1\n      iszero\n      tag_264\n      jumpi\n      returndatasize\n      0x00\n      dup1\n      returndatacopy\n      revert(0x00, returndatasize)\n    tag_264:\n      pop\n        /* \"contract/roulette.sol\":8732:8777  logWinningNumber(player, true, betAmount * 2) */\n      tag_265\n        /* \"contract/roulette.sol\":8749:8755  player */\n      dup5\n        /* \"contract/roulette.sol\":8757:8761  true */\n      0x01\n        /* \"contract/roulette.sol\":8775:8776  2 */\n      0x02\n        /* \"contract/roulette.sol\":8763:8772  betAmount */\n      dup7\n        /* \"contract/roulette.sol\":8763:8776  betAmount * 2 */\n      tag_266\n      swap2\n      swap1\n      tag_210\n      jump\t// in\n    tag_266:\n        /* \"contract/roulette.sol\":8732:8748  logWinningNumber */\n      tag_215\n        /* \"contract/roulette.sol\":8732:8777  logWinningNumber(player, true, betAmount * 2) */\n      jump\t// in\n    tag_265:\n        /* \"contract/roulette.sol\":8648:8845  if (!isRed(currentWinningNumber)) {... */\n      jump(tag_267)\n    tag_261:\n        /* \"contract/roulette.sol\":8802:8836  logWinningNumber(player, false, 0) */\n      tag_268\n        /* \"contract/roulette.sol\":8819:8825  player */\n      dup5\n        /* \"contract/roulette.sol\":8827:8832  false */\n      0x00\n        /* \"contract/roulette.sol\":8834:8835  0 */\n      dup1\n        /* \"contract/roulette.sol\":8802:8818  logWinningNumber */\n      tag_215\n        /* \"contract/roulette.sol\":8802:8836  logWinningNumber(player, false, 0) */\n      jump\t// in\n    tag_268:\n        /* \"contract/roulette.sol\":8648:8845  if (!isRed(currentWinningNumber)) {... */\n    tag_267:\n        /* \"contract/roulette.sol\":8606:9442  if (betType == BetTypeEnum.BLACK) {... */\n      jump(tag_269)\n    tag_259:\n        /* \"contract/roulette.sol\":8872:8887  BetTypeEnum.ODD */\n      0x04\n        /* \"contract/roulette.sol\":8861:8887  betType == BetTypeEnum.ODD */\n      0x05\n      dup2\n      gt\n      iszero\n      tag_270\n      jumpi\n      tag_271\n      tag_110\n      jump\t// in\n    tag_271:\n    tag_270:\n        /* \"contract/roulette.sol\":8861:8868  betType */\n      dup3\n        /* \"contract/roulette.sol\":8861:8887  betType == BetTypeEnum.ODD */\n      0x05\n      dup2\n      gt\n      iszero\n      tag_272\n      jumpi\n      tag_273\n      tag_110\n      jump\t// in\n    tag_273:\n    tag_272:\n      sub\n        /* \"contract/roulette.sol\":8857:9442  if (betType == BetTypeEnum.ODD) {... */\n      tag_274\n      jumpi\n        /* \"contract/roulette.sol\":8901:8928  isOdd(currentWinningNumber) */\n      tag_275\n        /* \"contract/roulette.sol\":8907:8927  currentWinningNumber */\n      0x05\n      0x00\n      swap1\n      sload\n      swap1\n      0x0100\n      exp\n      swap1\n      div\n      0xff\n      and\n        /* \"contract/roulette.sol\":8901:8906  isOdd */\n      tag_276\n        /* \"contract/roulette.sol\":8901:8928  isOdd(currentWinningNumber) */\n      jump\t// in\n    tag_275:\n        /* \"contract/roulette.sol\":8897:9093  if (isOdd(currentWinningNumber)) {... */\n      iszero\n      tag_277\n      jumpi\n        /* \"contract/roulette.sol\":8940:8946  player */\n      dup4\n        /* \"contract/roulette.sol\":8940:8955  player.transfer */\n      0xffffffffffffffffffffffffffffffffffffffff\n      and\n        /* \"contract/roulette.sol\":8940:8970  player.transfer(betAmount * 2) */\n      0x08fc\n        /* \"contract/roulette.sol\":8968:8969  2 */\n      0x02\n        /* \"contract/roulette.sol\":8956:8965  betAmount */\n      dup6\n        /* \"contract/roulette.sol\":8956:8969  betAmount * 2 */\n      tag_278\n      swap2\n      swap1\n      tag_210\n      jump\t// in\n    tag_278:\n        /* \"contract/roulette.sol\":8940:8970  player.transfer(betAmount * 2) */\n      swap1\n      dup2\n      iszero\n      mul\n      swap1\n      mload(0x40)\n      0x00\n      mload(0x40)\n      dup1\n      dup4\n      sub\n      dup2\n      dup6\n      dup9\n      dup9\n      call\n      swap4\n      pop\n      pop\n      pop\n      pop\n      iszero\n      dup1\n      iszero\n      tag_280\n      jumpi\n      returndatasize\n      0x00\n      dup1\n      returndatacopy\n      revert(0x00, returndatasize)\n    tag_280:\n      pop\n        /* \"contract/roulette.sol\":8980:9025  logWinningNumber(player, true, betAmount * 2) */\n      tag_281\n        /* \"contract/roulette.sol\":8997:9003  player */\n      dup5\n        /* \"contract/roulette.sol\":9005:9009  true */\n      0x01\n        /* \"contract/roulette.sol\":9023:9024  2 */\n      0x02\n        /* \"contract/roulette.sol\":9011:9020  betAmount */\n      dup7\n        /* \"contract/roulette.sol\":9011:9024  betAmount * 2 */\n      tag_282\n      swap2\n      swap1\n      tag_210\n      jump\t// in\n    tag_282:\n        /* \"contract/roulette.sol\":8980:8996  logWinningNumber */\n      tag_215\n        /* \"contract/roulette.sol\":8980:9025  logWinningNumber(player, true, betAmount * 2) */\n      jump\t// in\n    tag_281:\n        /* \"contract/roulette.sol\":8897:9093  if (isOdd(currentWinningNumber)) {... */\n      jump(tag_283)\n    tag_277:\n        /* \"contract/roulette.sol\":9050:9084  logWinningNumber(player, false, 0) */\n      tag_284\n        /* \"contract/roulette.sol\":9067:9073  player */\n      dup5\n        /* \"contract/roulette.sol\":9075:9080  false */\n      0x00\n        /* \"contract/roulette.sol\":9082:9083  0 */\n      dup1\n        /* \"contract/roulette.sol\":9050:9066  logWinningNumber */\n      tag_215\n        /* \"contract/roulette.sol\":9050:9084  logWinningNumber(player, false, 0) */\n      jump\t// in\n    tag_284:\n        /* \"contract/roulette.sol\":8897:9093  if (isOdd(currentWinningNumber)) {... */\n    tag_283:\n        /* \"contract/roulette.sol\":8857:9442  if (betType == BetTypeEnum.ODD) {... */\n      jump(tag_285)\n    tag_274:\n        /* \"contract/roulette.sol\":9120:9136  BetTypeEnum.EVEN */\n      0x05\n        /* \"contract/roulette.sol\":9109:9136  betType == BetTypeEnum.EVEN */\n      dup1\n      dup2\n      gt\n      iszero\n      tag_286\n      jumpi\n      tag_287\n      tag_110\n      jump\t// in\n    tag_287:\n    tag_286:\n        /* \"contract/roulette.sol\":9109:9116  betType */\n      dup3\n        /* \"contract/roulette.sol\":9109:9136  betType == BetTypeEnum.EVEN */\n      0x05\n      dup2\n      gt\n      iszero\n      tag_288\n      jumpi\n      tag_289\n      tag_110\n      jump\t// in\n    tag_289:\n    tag_288:\n      sub\n        /* \"contract/roulette.sol\":9105:9442  if (betType == BetTypeEnum.EVEN) {... */\n      tag_290\n      jumpi\n        /* \"contract/roulette.sol\":9151:9178  isOdd(currentWinningNumber) */\n      tag_291\n        /* \"contract/roulette.sol\":9157:9177  currentWinningNumber */\n      0x05\n      0x00\n      swap1\n      sload\n      swap1\n      0x0100\n      exp\n      swap1\n      div\n      0xff\n      and\n        /* \"contract/roulette.sol\":9151:9156  isOdd */\n      tag_276\n        /* \"contract/roulette.sol\":9151:9178  isOdd(currentWinningNumber) */\n      jump\t// in\n    tag_291:\n        /* \"contract/roulette.sol\":9146:9343  if (!isOdd(currentWinningNumber)) {... */\n      tag_292\n      jumpi\n        /* \"contract/roulette.sol\":9190:9196  player */\n      dup4\n        /* \"contract/roulette.sol\":9190:9205  player.transfer */\n      0xffffffffffffffffffffffffffffffffffffffff\n      and\n        /* \"contract/roulette.sol\":9190:9220  player.transfer(betAmount * 2) */\n      0x08fc\n        /* \"contract/roulette.sol\":9218:9219  2 */\n      0x02\n        /* \"contract/roulette.sol\":9206:9215  betAmount */\n      dup6\n        /* \"contract/roulette.sol\":9206:9219  betAmount * 2 */\n      tag_293\n      swap2\n      swap1\n      tag_210\n      jump\t// in\n    tag_293:\n        /* \"contract/roulette.sol\":9190:9220  player.transfer(betAmount * 2) */\n      swap1\n      dup2\n      iszero\n      mul\n      swap1\n      mload(0x40)\n      0x00\n      mload(0x40)\n      dup1\n      dup4\n      sub\n      dup2\n      dup6\n      dup9\n      dup9\n      call\n      swap4\n      pop\n      pop\n      pop\n      pop\n      iszero\n      dup1\n      iszero\n      tag_295\n      jumpi\n      returndatasize\n      0x00\n      dup1\n      returndatacopy\n      revert(0x00, returndatasize)\n    tag_295:\n      pop\n        /* \"contract/roulette.sol\":9230:9275  logWinningNumber(player, true, betAmount * 2) */\n      tag_296\n        /* \"contract/roulette.sol\":9247:9253  player */\n      dup5\n        /* \"contract/roulette.sol\":9255:9259  true */\n      0x01\n        /* \"contract/roulette.sol\":9273:9274  2 */\n      0x02\n        /* \"contract/roulette.sol\":9261:9270  betAmount */\n      dup7\n        /* \"contract/roulette.sol\":9261:9274  betAmount * 2 */\n      tag_297\n      swap2\n      swap1\n      tag_210\n      jump\t// in\n    tag_297:\n        /* \"contract/roulette.sol\":9230:9246  logWinningNumber */\n      tag_215\n        /* \"contract/roulette.sol\":9230:9275  logWinningNumber(player, true, betAmount * 2) */\n      jump\t// in\n    tag_296:\n        /* \"contract/roulette.sol\":9146:9343  if (!isOdd(currentWinningNumber)) {... */\n      jump(tag_298)\n    tag_292:\n        /* \"contract/roulette.sol\":9300:9334  logWinningNumber(player, false, 0) */\n      tag_299\n        /* \"contract/roulette.sol\":9317:9323  player */\n      dup5\n        /* \"contract/roulette.sol\":9325:9330  false */\n      0x00\n        /* \"contract/roulette.sol\":9332:9333  0 */\n      dup1\n        /* \"contract/roulette.sol\":9300:9316  logWinningNumber */\n      tag_215\n        /* \"contract/roulette.sol\":9300:9334  logWinningNumber(player, false, 0) */\n      jump\t// in\n    tag_299:\n        /* \"contract/roulette.sol\":9146:9343  if (!isOdd(currentWinningNumber)) {... */\n    tag_298:\n        /* \"contract/roulette.sol\":9105:9442  if (betType == BetTypeEnum.EVEN) {... */\n      jump(tag_300)\n    tag_290:\n    tag_300:\n        /* \"contract/roulette.sol\":8857:9442  if (betType == BetTypeEnum.ODD) {... */\n    tag_285:\n        /* \"contract/roulette.sol\":8606:9442  if (betType == BetTypeEnum.BLACK) {... */\n    tag_269:\n        /* \"contract/roulette.sol\":8358:9442  if (betType == BetTypeEnum.RED) {... */\n    tag_254:\n        /* \"contract/roulette.sol\":8050:9442  if (betType == BetTypeEnum.THIRD) {... */\n    tag_238:\n        /* \"contract/roulette.sol\":7793:9442  if (betType == BetTypeEnum.SINGLE) {... */\n    tag_218:\n        /* \"contract/roulette.sol\":9487:9502  setMinMaxBets() */\n      tag_301\n        /* \"contract/roulette.sol\":9487:9500  setMinMaxBets */\n      tag_88\n        /* \"contract/roulette.sol\":9487:9502  setMinMaxBets() */\n      jump\t// in\n    tag_301:\n        /* \"contract/roulette.sol\":9525:9530  false */\n      0x00\n        /* \"contract/roulette.sol\":9508:9522  gameInProgress */\n      0x0a\n      0x00\n        /* \"contract/roulette.sol\":9508:9530  gameInProgress = false */\n      0x0100\n      exp\n      dup2\n      sload\n      dup2\n      0xff\n      mul\n      not\n      and\n      swap1\n      dup4\n      iszero\n      iszero\n      mul\n      or\n      swap1\n      sstore\n      pop\n        /* \"contract/roulette.sol\":9541:9575  LogGameEnded(\"The game has ended\") */\n      0x09e32d9879388c92fa8390c5a92317126522ae46eac27fddfedac4ddc795b8f3\n      mload(0x40)\n      tag_302\n      swap1\n      tag_303\n      jump\t// in\n    tag_302:\n      mload(0x40)\n      dup1\n      swap2\n      sub\n      swap1\n      log1\n        /* \"contract/roulette.sol\":7535:9580  {... */\n      pop\n      pop\n      pop\n      pop\n        /* \"contract/roulette.sol\":7503:9580  function payoutWinner() private {... */\n      jump\t// out\n        /* \"contract/roulette.sol\":7140:7432  function logWinningNumber(address player, bool hasWon, uint256 amount) private {... */\n    tag_215:\n        /* \"contract/roulette.sol\":7232:7238  hasWon */\n      dup2\n        /* \"contract/roulette.sol\":7228:7428  if (hasWon) {... */\n      iszero\n      tag_305\n      jumpi\n        /* \"contract/roulette.sol\":7255:7299  LogResult(player, \"Player has won.\", amount) */\n      0xc32342dc8906e5e3a410389d8ea8527aca5f746ccd18f74703cc4a2a32c99f46\n        /* \"contract/roulette.sol\":7265:7271  player */\n      dup4\n        /* \"contract/roulette.sol\":7292:7298  amount */\n      dup3\n        /* \"contract/roulette.sol\":7255:7299  LogResult(player, \"Player has won.\", amount) */\n      mload(0x40)\n      tag_306\n      swap3\n      swap2\n      swap1\n      tag_307\n      jump\t// in\n    tag_306:\n      mload(0x40)\n      dup1\n      swap2\n      sub\n      swap1\n      log1\n        /* \"contract/roulette.sol\":7341:7345  true */\n      0x01\n        /* \"contract/roulette.sol\":7309:7313  book */\n      0x0b\n        /* \"contract/roulette.sol\":7309:7331  book[currentRequestId] */\n      0x00\n        /* \"contract/roulette.sol\":7314:7330  currentRequestId */\n      sload(0x09)\n        /* \"contract/roulette.sol\":7309:7331  book[currentRequestId] */\n      dup2\n      mstore\n      0x20\n      add\n      swap1\n      dup2\n      mstore\n      0x20\n      add\n      0x00\n      keccak256\n        /* \"contract/roulette.sol\":7309:7338  book[currentRequestId].winner */\n      0x02\n      add\n      0x02\n        /* \"contract/roulette.sol\":7309:7345  book[currentRequestId].winner = true */\n      0x0100\n      exp\n      dup2\n      sload\n      dup2\n      0xff\n      mul\n      not\n      and\n      swap1\n      dup4\n      iszero\n      iszero\n      mul\n      or\n      swap1\n      sstore\n      pop\n        /* \"contract/roulette.sol\":7228:7428  if (hasWon) {... */\n      jump(tag_308)\n    tag_305:\n        /* \"contract/roulette.sol\":7375:7419  LogResult(player, \"Player has lost.\",amount) */\n      0xc32342dc8906e5e3a410389d8ea8527aca5f746ccd18f74703cc4a2a32c99f46\n        /* \"contract/roulette.sol\":7385:7391  player */\n      dup4\n        /* \"contract/roulette.sol\":7412:7418  amount */\n      dup3\n        /* \"contract/roulette.sol\":7375:7419  LogResult(player, \"Player has lost.\",amount) */\n      mload(0x40)\n      tag_309\n      swap3\n      swap2\n      swap1\n      tag_310\n      jump\t// in\n    tag_309:\n      mload(0x40)\n      dup1\n      swap2\n      sub\n      swap1\n      log1\n        /* \"contract/roulette.sol\":7228:7428  if (hasWon) {... */\n    tag_308:\n        /* \"contract/roulette.sol\":7140:7432  function logWinningNumber(address player, bool hasWon, uint256 amount) private {... */\n      pop\n      pop\n      pop\n      jump\t// out\n        /* \"contract/roulette.sol\":10341:10605  function isRed(uint8 _number) private pure returns (bool) {... */\n    tag_245:\n        /* \"contract/roulette.sol\":10393:10397  bool */\n      0x00\n        /* \"contract/roulette.sol\":10426:10427  1 */\n      0x01\n        /* \"contract/roulette.sol\":10415:10422  _number */\n      dup3\n        /* \"contract/roulette.sol\":10415:10427  _number >= 1 */\n      0xff\n      and\n      lt\n      iszero\n        /* \"contract/roulette.sol\":10415:10444  _number >= 1 && _number <= 10 */\n      dup1\n      iszero\n      tag_312\n      jumpi\n      pop\n        /* \"contract/roulette.sol\":10442:10444  10 */\n      0x0a\n        /* \"contract/roulette.sol\":10431:10438  _number */\n      dup3\n        /* \"contract/roulette.sol\":10431:10444  _number <= 10 */\n      0xff\n      and\n      gt\n      iszero\n        /* \"contract/roulette.sol\":10415:10444  _number >= 1 && _number <= 10 */\n    tag_312:\n        /* \"contract/roulette.sol\":10414:10481  (_number >= 1 && _number <= 10) || (_number >= 19 && _number <= 28) */\n      dup1\n      tag_313\n      jumpi\n      pop\n        /* \"contract/roulette.sol\":10461:10463  19 */\n      0x13\n        /* \"contract/roulette.sol\":10450:10457  _number */\n      dup3\n        /* \"contract/roulette.sol\":10450:10463  _number >= 19 */\n      0xff\n      and\n      lt\n      iszero\n        /* \"contract/roulette.sol\":10450:10480  _number >= 19 && _number <= 28 */\n      dup1\n      iszero\n      tag_314\n      jumpi\n      pop\n        /* \"contract/roulette.sol\":10478:10480  28 */\n      0x1c\n        /* \"contract/roulette.sol\":10467:10474  _number */\n      dup3\n        /* \"contract/roulette.sol\":10467:10480  _number <= 28 */\n      0xff\n      and\n      gt\n      iszero\n        /* \"contract/roulette.sol\":10450:10480  _number >= 19 && _number <= 28 */\n    tag_314:\n        /* \"contract/roulette.sol\":10414:10481  (_number >= 1 && _number <= 10) || (_number >= 19 && _number <= 28) */\n    tag_313:\n        /* \"contract/roulette.sol\":10413:10500  ((_number >= 1 && _number <= 10) || (_number >= 19 && _number <= 28)) && isOdd(_number) */\n      dup1\n      iszero\n      tag_315\n      jumpi\n      pop\n        /* \"contract/roulette.sol\":10486:10500  isOdd(_number) */\n      tag_316\n        /* \"contract/roulette.sol\":10492:10499  _number */\n      dup3\n        /* \"contract/roulette.sol\":10486:10491  isOdd */\n      tag_276\n        /* \"contract/roulette.sol\":10486:10500  isOdd(_number) */\n      jump\t// in\n    tag_316:\n        /* \"contract/roulette.sol\":10413:10500  ((_number >= 1 && _number <= 10) || (_number >= 19 && _number <= 28)) && isOdd(_number) */\n    tag_315:\n        /* \"contract/roulette.sol\":10412:10600  (((_number >= 1 && _number <= 10) || (_number >= 19 && _number <= 28)) && isOdd(_number))... */\n      dup1\n      tag_317\n      jumpi\n      pop\n        /* \"contract/roulette.sol\":10523:10525  11 */\n      0x0b\n        /* \"contract/roulette.sol\":10512:10519  _number */\n      dup3\n        /* \"contract/roulette.sol\":10512:10525  _number >= 11 */\n      0xff\n      and\n      lt\n      iszero\n        /* \"contract/roulette.sol\":10512:10542  _number >= 11 && _number <= 18 */\n      dup1\n      iszero\n      tag_318\n      jumpi\n      pop\n        /* \"contract/roulette.sol\":10540:10542  18 */\n      0x12\n        /* \"contract/roulette.sol\":10529:10536  _number */\n      dup3\n        /* \"contract/roulette.sol\":10529:10542  _number <= 18 */\n      0xff\n      and\n      gt\n      iszero\n        /* \"contract/roulette.sol\":10512:10542  _number >= 11 && _number <= 18 */\n    tag_318:\n        /* \"contract/roulette.sol\":10511:10579  (_number >= 11 && _number <= 18) || (_number >= 29 && _number <= 36) */\n      dup1\n      tag_319\n      jumpi\n      pop\n        /* \"contract/roulette.sol\":10559:10561  29 */\n      0x1d\n        /* \"contract/roulette.sol\":10548:10555  _number */\n      dup3\n        /* \"contract/roulette.sol\":10548:10561  _number >= 29 */\n      0xff\n      and\n      lt\n      iszero\n        /* \"contract/roulette.sol\":10548:10578  _number >= 29 && _number <= 36 */\n      dup1\n      iszero\n      tag_320\n      jumpi\n      pop\n        /* \"contract/roulette.sol\":10576:10578  36 */\n      0x24\n        /* \"contract/roulette.sol\":10565:10572  _number */\n      dup3\n        /* \"contract/roulette.sol\":10565:10578  _number <= 36 */\n      0xff\n      and\n      gt\n      iszero\n        /* \"contract/roulette.sol\":10548:10578  _number >= 29 && _number <= 36 */\n    tag_320:\n        /* \"contract/roulette.sol\":10511:10579  (_number >= 11 && _number <= 18) || (_number >= 29 && _number <= 36) */\n    tag_319:\n        /* \"contract/roulette.sol\":10510:10599  ((_number >= 11 && _number <= 18) || (_number >= 29 && _number <= 36)) && !isOdd(_number) */\n      dup1\n      iszero\n      tag_321\n      jumpi\n      pop\n        /* \"contract/roulette.sol\":10585:10599  isOdd(_number) */\n      tag_322\n        /* \"contract/roulette.sol\":10591:10598  _number */\n      dup3\n        /* \"contract/roulette.sol\":10585:10590  isOdd */\n      tag_276\n        /* \"contract/roulette.sol\":10585:10599  isOdd(_number) */\n      jump\t// in\n    tag_322:\n        /* \"contract/roulette.sol\":10584:10599  !isOdd(_number) */\n      iszero\n        /* \"contract/roulette.sol\":10510:10599  ((_number >= 11 && _number <= 18) || (_number >= 29 && _number <= 36)) && !isOdd(_number) */\n    tag_321:\n        /* \"contract/roulette.sol\":10412:10600  (((_number >= 1 && _number <= 10) || (_number >= 19 && _number <= 28)) && isOdd(_number))... */\n    tag_317:\n        /* \"contract/roulette.sol\":10405:10600  return (((_number >= 1 && _number <= 10) || (_number >= 19 && _number <= 28)) && isOdd(_number))... */\n      swap1\n      pop\n        /* \"contract/roulette.sol\":10341:10605  function isRed(uint8 _number) private pure returns (bool) {... */\n      swap2\n      swap1\n      pop\n      jump\t// out\n        /* \"contract/roulette.sol\":9743:9837  function isOdd(uint8 _number) private pure returns (bool) {... */\n    tag_276:\n        /* \"contract/roulette.sol\":9795:9799  bool */\n      0x00\n        /* \"contract/roulette.sol\":9831:9832  1 */\n      0x01\n        /* \"contract/roulette.sol\":9825:9826  1 */\n      dup1\n        /* \"contract/roulette.sol\":9815:9822  _number */\n      dup4\n        /* \"contract/roulette.sol\":9815:9826  _number & 1 */\n      and\n        /* \"contract/roulette.sol\":9814:9832  (_number & 1) == 1 */\n      0xff\n      and\n      eq\n        /* \"contract/roulette.sol\":9807:9832  return (_number & 1) == 1 */\n      swap1\n      pop\n        /* \"contract/roulette.sol\":9743:9837  function isOdd(uint8 _number) private pure returns (bool) {... */\n      swap2\n      swap1\n      pop\n      jump\t// out\n        /* \"#utility.yul\":7:82   */\n    tag_324:\n        /* \"#utility.yul\":40:46   */\n      0x00\n        /* \"#utility.yul\":73:75   */\n      0x40\n        /* \"#utility.yul\":67:76   */\n      mload\n        /* \"#utility.yul\":57:76   */\n      swap1\n      pop\n        /* \"#utility.yul\":7:82   */\n      swap1\n      jump\t// out\n        /* \"#utility.yul\":88:205   */\n    tag_325:\n        /* \"#utility.yul\":197:198   */\n      0x00\n        /* \"#utility.yul\":194:195   */\n      dup1\n        /* \"#utility.yul\":187:199   */\n      revert\n        /* \"#utility.yul\":211:328   */\n    tag_326:\n        /* \"#utility.yul\":320:321   */\n      0x00\n        /* \"#utility.yul\":317:318   */\n      dup1\n        /* \"#utility.yul\":310:322   */\n      revert\n        /* \"#utility.yul\":334:411   */\n    tag_327:\n        /* \"#utility.yul\":371:378   */\n      0x00\n        /* \"#utility.yul\":400:405   */\n      dup2\n        /* \"#utility.yul\":389:405   */\n      swap1\n      pop\n        /* \"#utility.yul\":334:411   */\n      swap2\n      swap1\n      pop\n      jump\t// out\n        /* \"#utility.yul\":417:539   */\n    tag_328:\n        /* \"#utility.yul\":490:514   */\n      tag_426\n        /* \"#utility.yul\":508:513   */\n      dup2\n        /* \"#utility.yul\":490:514   */\n      tag_327\n      jump\t// in\n    tag_426:\n        /* \"#utility.yul\":483:488   */\n      dup2\n        /* \"#utility.yul\":480:515   */\n      eq\n        /* \"#utility.yul\":470:533   */\n      tag_427\n      jumpi\n        /* \"#utility.yul\":529:530   */\n      0x00\n        /* \"#utility.yul\":526:527   */\n      dup1\n        /* \"#utility.yul\":519:531   */\n      revert\n        /* \"#utility.yul\":470:533   */\n    tag_427:\n        /* \"#utility.yul\":417:539   */\n      pop\n      jump\t// out\n        /* \"#utility.yul\":545:684   */\n    tag_329:\n        /* \"#utility.yul\":591:596   */\n      0x00\n        /* \"#utility.yul\":629:635   */\n      dup2\n        /* \"#utility.yul\":616:636   */\n      calldataload\n        /* \"#utility.yul\":607:636   */\n      swap1\n      pop\n        /* \"#utility.yul\":645:678   */\n      tag_429\n        /* \"#utility.yul\":672:677   */\n      dup2\n        /* \"#utility.yul\":645:678   */\n      tag_328\n      jump\t// in\n    tag_429:\n        /* \"#utility.yul\":545:684   */\n      swap3\n      swap2\n      pop\n      pop\n      jump\t// out\n        /* \"#utility.yul\":690:1019   */\n    tag_18:\n        /* \"#utility.yul\":749:755   */\n      0x00\n        /* \"#utility.yul\":798:800   */\n      0x20\n        /* \"#utility.yul\":786:795   */\n      dup3\n        /* \"#utility.yul\":777:784   */\n      dup5\n        /* \"#utility.yul\":773:796   */\n      sub\n        /* \"#utility.yul\":769:801   */\n      slt\n        /* \"#utility.yul\":766:885   */\n      iszero\n      tag_431\n      jumpi\n        /* \"#utility.yul\":804:883   */\n      tag_432\n      tag_325\n      jump\t// in\n    tag_432:\n        /* \"#utility.yul\":766:885   */\n    tag_431:\n        /* \"#utility.yul\":924:925   */\n      0x00\n        /* \"#utility.yul\":949:1002   */\n      tag_433\n        /* \"#utility.yul\":994:1001   */\n      dup5\n        /* \"#utility.yul\":985:991   */\n      dup3\n        /* \"#utility.yul\":974:983   */\n      dup6\n        /* \"#utility.yul\":970:992   */\n      add\n        /* \"#utility.yul\":949:1002   */\n      tag_329\n      jump\t// in\n    tag_433:\n        /* \"#utility.yul\":939:1002   */\n      swap2\n      pop\n        /* \"#utility.yul\":895:1012   */\n      pop\n        /* \"#utility.yul\":690:1019   */\n      swap3\n      swap2\n      pop\n      pop\n      jump\t// out\n        /* \"#utility.yul\":1025:1151   */\n    tag_330:\n        /* \"#utility.yul\":1062:1069   */\n      0x00\n        /* \"#utility.yul\":1102:1144   */\n      0xffffffffffffffffffffffffffffffffffffffff\n        /* \"#utility.yul\":1095:1100   */\n      dup3\n        /* \"#utility.yul\":1091:1145   */\n      and\n        /* \"#utility.yul\":1080:1145   */\n      swap1\n      pop\n        /* \"#utility.yul\":1025:1151   */\n      swap2\n      swap1\n      pop\n      jump\t// out\n        /* \"#utility.yul\":1157:1261   */\n    tag_331:\n        /* \"#utility.yul\":1202:1209   */\n      0x00\n        /* \"#utility.yul\":1231:1255   */\n      tag_436\n        /* \"#utility.yul\":1249:1254   */\n      dup3\n        /* \"#utility.yul\":1231:1255   */\n      tag_330\n      jump\t// in\n    tag_436:\n        /* \"#utility.yul\":1220:1255   */\n      swap1\n      pop\n        /* \"#utility.yul\":1157:1261   */\n      swap2\n      swap1\n      pop\n      jump\t// out\n        /* \"#utility.yul\":1267:1409   */\n    tag_332:\n        /* \"#utility.yul\":1370:1402   */\n      tag_438\n        /* \"#utility.yul\":1396:1401   */\n      dup2\n        /* \"#utility.yul\":1370:1402   */\n      tag_331\n      jump\t// in\n    tag_438:\n        /* \"#utility.yul\":1365:1368   */\n      dup3\n        /* \"#utility.yul\":1358:1403   */\n      mstore\n        /* \"#utility.yul\":1267:1409   */\n      pop\n      pop\n      jump\t// out\n        /* \"#utility.yul\":1415:1533   */\n    tag_333:\n        /* \"#utility.yul\":1502:1526   */\n      tag_440\n        /* \"#utility.yul\":1520:1525   */\n      dup2\n        /* \"#utility.yul\":1502:1526   */\n      tag_327\n      jump\t// in\n    tag_440:\n        /* \"#utility.yul\":1497:1500   */\n      dup3\n        /* \"#utility.yul\":1490:1527   */\n      mstore\n        /* \"#utility.yul\":1415:1533   */\n      pop\n      pop\n      jump\t// out\n        /* \"#utility.yul\":1539:1719   */\n    tag_110:\n        /* \"#utility.yul\":1587:1664   */\n      0x4e487b7100000000000000000000000000000000000000000000000000000000\n        /* \"#utility.yul\":1584:1585   */\n      0x00\n        /* \"#utility.yul\":1577:1665   */\n      mstore\n        /* \"#utility.yul\":1684:1688   */\n      0x21\n        /* \"#utility.yul\":1681:1682   */\n      0x04\n        /* \"#utility.yul\":1674:1689   */\n      mstore\n        /* \"#utility.yul\":1708:1712   */\n      0x24\n        /* \"#utility.yul\":1705:1706   */\n      0x00\n        /* \"#utility.yul\":1698:1713   */\n      revert\n        /* \"#utility.yul\":1725:1845   */\n    tag_334:\n        /* \"#utility.yul\":1813:1814   */\n      0x06\n        /* \"#utility.yul\":1806:1811   */\n      dup2\n        /* \"#utility.yul\":1803:1815   */\n      lt\n        /* \"#utility.yul\":1793:1839   */\n      tag_443\n      jumpi\n        /* \"#utility.yul\":1819:1837   */\n      tag_444\n      tag_110\n      jump\t// in\n    tag_444:\n        /* \"#utility.yul\":1793:1839   */\n    tag_443:\n        /* \"#utility.yul\":1725:1845   */\n      pop\n      jump\t// out\n        /* \"#utility.yul\":1851:1992   */\n    tag_335:\n        /* \"#utility.yul\":1903:1910   */\n      0x00\n        /* \"#utility.yul\":1932:1937   */\n      dup2\n        /* \"#utility.yul\":1921:1937   */\n      swap1\n      pop\n        /* \"#utility.yul\":1938:1986   */\n      tag_446\n        /* \"#utility.yul\":1980:1985   */\n      dup3\n        /* \"#utility.yul\":1938:1986   */\n      tag_334\n      jump\t// in\n    tag_446:\n        /* \"#utility.yul\":1851:1992   */\n      swap2\n      swap1\n      pop\n      jump\t// out\n        /* \"#utility.yul\":1998:2139   */\n    tag_336:\n        /* \"#utility.yul\":2061:2070   */\n      0x00\n        /* \"#utility.yul\":2094:2133   */\n      tag_448\n        /* \"#utility.yul\":2127:2132   */\n      dup3\n        /* \"#utility.yul\":2094:2133   */\n      tag_335\n      jump\t// in\n    tag_448:\n        /* \"#utility.yul\":2081:2133   */\n      swap1\n      pop\n        /* \"#utility.yul\":1998:2139   */\n      swap2\n      swap1\n      pop\n      jump\t// out\n        /* \"#utility.yul\":2145:2302   */\n    tag_337:\n        /* \"#utility.yul\":2245:2295   */\n      tag_450\n        /* \"#utility.yul\":2289:2294   */\n      dup2\n        /* \"#utility.yul\":2245:2295   */\n      tag_336\n      jump\t// in\n    tag_450:\n        /* \"#utility.yul\":2240:2243   */\n      dup3\n        /* \"#utility.yul\":2233:2296   */\n      mstore\n        /* \"#utility.yul\":2145:2302   */\n      pop\n      pop\n      jump\t// out\n        /* \"#utility.yul\":2308:2394   */\n    tag_338:\n        /* \"#utility.yul\":2343:2350   */\n      0x00\n        /* \"#utility.yul\":2383:2387   */\n      0xff\n        /* \"#utility.yul\":2376:2381   */\n      dup3\n        /* \"#utility.yul\":2372:2388   */\n      and\n        /* \"#utility.yul\":2361:2388   */\n      swap1\n      pop\n        /* \"#utility.yul\":2308:2394   */\n      swap2\n      swap1\n      pop\n      jump\t// out\n        /* \"#utility.yul\":2400:2512   */\n    tag_339:\n        /* \"#utility.yul\":2483:2505   */\n      tag_453\n        /* \"#utility.yul\":2499:2504   */\n      dup2\n        /* \"#utility.yul\":2483:2505   */\n      tag_338\n      jump\t// in\n    tag_453:\n        /* \"#utility.yul\":2478:2481   */\n      dup3\n        /* \"#utility.yul\":2471:2506   */\n      mstore\n        /* \"#utility.yul\":2400:2512   */\n      pop\n      pop\n      jump\t// out\n        /* \"#utility.yul\":2518:2608   */\n    tag_340:\n        /* \"#utility.yul\":2552:2559   */\n      0x00\n        /* \"#utility.yul\":2595:2600   */\n      dup2\n        /* \"#utility.yul\":2588:2601   */\n      iszero\n        /* \"#utility.yul\":2581:2602   */\n      iszero\n        /* \"#utility.yul\":2570:2602   */\n      swap1\n      pop\n        /* \"#utility.yul\":2518:2608   */\n      swap2\n      swap1\n      pop\n      jump\t// out\n        /* \"#utility.yul\":2614:2723   */\n    tag_341:\n        /* \"#utility.yul\":2695:2716   */\n      tag_456\n        /* \"#utility.yul\":2710:2715   */\n      dup2\n        /* \"#utility.yul\":2695:2716   */\n      tag_340\n      jump\t// in\n    tag_456:\n        /* \"#utility.yul\":2690:2693   */\n      dup3\n        /* \"#utility.yul\":2683:2717   */\n      mstore\n        /* \"#utility.yul\":2614:2723   */\n      pop\n      pop\n      jump\t// out\n        /* \"#utility.yul\":2729:3431   */\n    tag_25:\n        /* \"#utility.yul\":2953:2957   */\n      0x00\n        /* \"#utility.yul\":2991:2994   */\n      0xa0\n        /* \"#utility.yul\":2980:2989   */\n      dup3\n        /* \"#utility.yul\":2976:2995   */\n      add\n        /* \"#utility.yul\":2968:2995   */\n      swap1\n      pop\n        /* \"#utility.yul\":3005:3092   */\n      tag_458\n        /* \"#utility.yul\":3089:3090   */\n      0x00\n        /* \"#utility.yul\":3078:3087   */\n      dup4\n        /* \"#utility.yul\":3074:3091   */\n      add\n        /* \"#utility.yul\":3065:3071   */\n      dup9\n        /* \"#utility.yul\":3005:3092   */\n      tag_332\n      jump\t// in\n    tag_458:\n        /* \"#utility.yul\":3102:3174   */\n      tag_459\n        /* \"#utility.yul\":3170:3172   */\n      0x20\n        /* \"#utility.yul\":3159:3168   */\n      dup4\n        /* \"#utility.yul\":3155:3173   */\n      add\n        /* \"#utility.yul\":3146:3152   */\n      dup8\n        /* \"#utility.yul\":3102:3174   */\n      tag_333\n      jump\t// in\n    tag_459:\n        /* \"#utility.yul\":3184:3269   */\n      tag_460\n        /* \"#utility.yul\":3265:3267   */\n      0x40\n        /* \"#utility.yul\":3254:3263   */\n      dup4\n        /* \"#utility.yul\":3250:3268   */\n      add\n        /* \"#utility.yul\":3241:3247   */\n      dup7\n        /* \"#utility.yul\":3184:3269   */\n      tag_337\n      jump\t// in\n    tag_460:\n        /* \"#utility.yul\":3279:3347   */\n      tag_461\n        /* \"#utility.yul\":3343:3345   */\n      0x60\n        /* \"#utility.yul\":3332:3341   */\n      dup4\n        /* \"#utility.yul\":3328:3346   */\n      add\n        /* \"#utility.yul\":3319:3325   */\n      dup6\n        /* \"#utility.yul\":3279:3347   */\n      tag_339\n      jump\t// in\n    tag_461:\n        /* \"#utility.yul\":3357:3424   */\n      tag_462\n        /* \"#utility.yul\":3419:3422   */\n      0x80\n        /* \"#utility.yul\":3408:3417   */\n      dup4\n        /* \"#utility.yul\":3404:3423   */\n      add\n        /* \"#utility.yul\":3395:3401   */\n      dup5\n        /* \"#utility.yul\":3357:3424   */\n      tag_341\n      jump\t// in\n    tag_462:\n        /* \"#utility.yul\":2729:3431   */\n      swap7\n      swap6\n      pop\n      pop\n      pop\n      pop\n      pop\n      pop\n      jump\t// out\n        /* \"#utility.yul\":3437:3554   */\n    tag_342:\n        /* \"#utility.yul\":3546:3547   */\n      0x00\n        /* \"#utility.yul\":3543:3544   */\n      dup1\n        /* \"#utility.yul\":3536:3548   */\n      revert\n        /* \"#utility.yul\":3560:3662   */\n    tag_343:\n        /* \"#utility.yul\":3601:3607   */\n      0x00\n        /* \"#utility.yul\":3652:3654   */\n      0x1f\n        /* \"#utility.yul\":3648:3655   */\n      not\n        /* \"#utility.yul\":3643:3645   */\n      0x1f\n        /* \"#utility.yul\":3636:3641   */\n      dup4\n        /* \"#utility.yul\":3632:3646   */\n      add\n        /* \"#utility.yul\":3628:3656   */\n      and\n        /* \"#utility.yul\":3618:3656   */\n      swap1\n      pop\n        /* \"#utility.yul\":3560:3662   */\n      swap2\n      swap1\n      pop\n      jump\t// out\n        /* \"#utility.yul\":3668:3848   */\n    tag_344:\n        /* \"#utility.yul\":3716:3793   */\n      0x4e487b7100000000000000000000000000000000000000000000000000000000\n        /* \"#utility.yul\":3713:3714   */\n      0x00\n        /* \"#utility.yul\":3706:3794   */\n      mstore\n        /* \"#utility.yul\":3813:3817   */\n      0x41\n        /* \"#utility.yul\":3810:3811   */\n      0x04\n        /* \"#utility.yul\":3803:3818   */\n      mstore\n        /* \"#utility.yul\":3837:3841   */\n      0x24\n        /* \"#utility.yul\":3834:3835   */\n      0x00\n        /* \"#utility.yul\":3827:3842   */\n      revert\n        /* \"#utility.yul\":3854:4135   */\n    tag_345:\n        /* \"#utility.yul\":3937:3964   */\n      tag_467\n        /* \"#utility.yul\":3959:3963   */\n      dup3\n        /* \"#utility.yul\":3937:3964   */\n      tag_343\n      jump\t// in\n    tag_467:\n        /* \"#utility.yul\":3929:3935   */\n      dup2\n        /* \"#utility.yul\":3925:3965   */\n      add\n        /* \"#utility.yul\":4067:4073   */\n      dup2\n        /* \"#utility.yul\":4055:4065   */\n      dup2\n        /* \"#utility.yul\":4052:4074   */\n      lt\n        /* \"#utility.yul\":4031:4049   */\n      0xffffffffffffffff\n        /* \"#utility.yul\":4019:4029   */\n      dup3\n        /* \"#utility.yul\":4016:4050   */\n      gt\n        /* \"#utility.yul\":4013:4075   */\n      or\n        /* \"#utility.yul\":4010:4098   */\n      iszero\n      tag_468\n      jumpi\n        /* \"#utility.yul\":4078:4096   */\n      tag_469\n      tag_344\n      jump\t// in\n    tag_469:\n        /* \"#utility.yul\":4010:4098   */\n    tag_468:\n        /* \"#utility.yul\":4118:4128   */\n      dup1\n        /* \"#utility.yul\":4114:4116   */\n      0x40\n        /* \"#utility.yul\":4107:4129   */\n      mstore\n        /* \"#utility.yul\":3897:4135   */\n      pop\n        /* \"#utility.yul\":3854:4135   */\n      pop\n      pop\n      jump\t// out\n        /* \"#utility.yul\":4141:4270   */\n    tag_346:\n        /* \"#utility.yul\":4175:4181   */\n      0x00\n        /* \"#utility.yul\":4202:4222   */\n      tag_471\n      tag_324\n      jump\t// in\n    tag_471:\n        /* \"#utility.yul\":4192:4222   */\n      swap1\n      pop\n        /* \"#utility.yul\":4231:4264   */\n      tag_472\n        /* \"#utility.yul\":4259:4263   */\n      dup3\n        /* \"#utility.yul\":4251:4257   */\n      dup3\n        /* \"#utility.yul\":4231:4264   */\n      tag_345\n      jump\t// in\n    tag_472:\n        /* \"#utility.yul\":4141:4270   */\n      swap2\n      swap1\n      pop\n      jump\t// out\n        /* \"#utility.yul\":4276:4587   */\n    tag_347:\n        /* \"#utility.yul\":4353:4357   */\n      0x00\n        /* \"#utility.yul\":4443:4461   */\n      0xffffffffffffffff\n        /* \"#utility.yul\":4435:4441   */\n      dup3\n        /* \"#utility.yul\":4432:4462   */\n      gt\n        /* \"#utility.yul\":4429:4485   */\n      iszero\n      tag_474\n      jumpi\n        /* \"#utility.yul\":4465:4483   */\n      tag_475\n      tag_344\n      jump\t// in\n    tag_475:\n        /* \"#utility.yul\":4429:4485   */\n    tag_474:\n        /* \"#utility.yul\":4515:4519   */\n      0x20\n        /* \"#utility.yul\":4507:4513   */\n      dup3\n        /* \"#utility.yul\":4503:4520   */\n      mul\n        /* \"#utility.yul\":4495:4520   */\n      swap1\n      pop\n        /* \"#utility.yul\":4575:4579   */\n      0x20\n        /* \"#utility.yul\":4569:4573   */\n      dup2\n        /* \"#utility.yul\":4565:4580   */\n      add\n        /* \"#utility.yul\":4557:4580   */\n      swap1\n      pop\n        /* \"#utility.yul\":4276:4587   */\n      swap2\n      swap1\n      pop\n      jump\t// out\n        /* \"#utility.yul\":4593:4710   */\n    tag_348:\n        /* \"#utility.yul\":4702:4703   */\n      0x00\n        /* \"#utility.yul\":4699:4700   */\n      dup1\n        /* \"#utility.yul\":4692:4704   */\n      revert\n        /* \"#utility.yul\":4733:5443   */\n    tag_349:\n        /* \"#utility.yul\":4829:4834   */\n      0x00\n        /* \"#utility.yul\":4854:4935   */\n      tag_478\n        /* \"#utility.yul\":4870:4934   */\n      tag_479\n        /* \"#utility.yul\":4927:4933   */\n      dup5\n        /* \"#utility.yul\":4870:4934   */\n      tag_347\n      jump\t// in\n    tag_479:\n        /* \"#utility.yul\":4854:4935   */\n      tag_346\n      jump\t// in\n    tag_478:\n        /* \"#utility.yul\":4845:4935   */\n      swap1\n      pop\n        /* \"#utility.yul\":4955:4960   */\n      dup1\n        /* \"#utility.yul\":4984:4990   */\n      dup4\n        /* \"#utility.yul\":4977:4982   */\n      dup3\n        /* \"#utility.yul\":4970:4991   */\n      mstore\n        /* \"#utility.yul\":5018:5022   */\n      0x20\n        /* \"#utility.yul\":5011:5016   */\n      dup3\n        /* \"#utility.yul\":5007:5023   */\n      add\n        /* \"#utility.yul\":5000:5023   */\n      swap1\n      pop\n        /* \"#utility.yul\":5071:5075   */\n      0x20\n        /* \"#utility.yul\":5063:5069   */\n      dup5\n        /* \"#utility.yul\":5059:5076   */\n      mul\n        /* \"#utility.yul\":5051:5057   */\n      dup4\n        /* \"#utility.yul\":5047:5077   */\n      add\n        /* \"#utility.yul\":5100:5103   */\n      dup6\n        /* \"#utility.yul\":5092:5098   */\n      dup2\n        /* \"#utility.yul\":5089:5104   */\n      gt\n        /* \"#utility.yul\":5086:5208   */\n      iszero\n      tag_480\n      jumpi\n        /* \"#utility.yul\":5119:5198   */\n      tag_481\n      tag_348\n      jump\t// in\n    tag_481:\n        /* \"#utility.yul\":5086:5208   */\n    tag_480:\n        /* \"#utility.yul\":5234:5240   */\n      dup4\n        /* \"#utility.yul\":5217:5437   */\n    tag_482:\n        /* \"#utility.yul\":5251:5257   */\n      dup2\n        /* \"#utility.yul\":5246:5249   */\n      dup2\n        /* \"#utility.yul\":5243:5258   */\n      lt\n        /* \"#utility.yul\":5217:5437   */\n      iszero\n      tag_484\n      jumpi\n        /* \"#utility.yul\":5326:5329   */\n      dup1\n        /* \"#utility.yul\":5355:5392   */\n      tag_485\n        /* \"#utility.yul\":5388:5391   */\n      dup9\n        /* \"#utility.yul\":5376:5386   */\n      dup3\n        /* \"#utility.yul\":5355:5392   */\n      tag_329\n      jump\t// in\n    tag_485:\n        /* \"#utility.yul\":5350:5353   */\n      dup5\n        /* \"#utility.yul\":5343:5393   */\n      mstore\n        /* \"#utility.yul\":5422:5426   */\n      0x20\n        /* \"#utility.yul\":5417:5420   */\n      dup5\n        /* \"#utility.yul\":5413:5427   */\n      add\n        /* \"#utility.yul\":5406:5427   */\n      swap4\n      pop\n        /* \"#utility.yul\":5293:5437   */\n      pop\n        /* \"#utility.yul\":5277:5281   */\n      0x20\n        /* \"#utility.yul\":5272:5275   */\n      dup2\n        /* \"#utility.yul\":5268:5282   */\n      add\n        /* \"#utility.yul\":5261:5282   */\n      swap1\n      pop\n        /* \"#utility.yul\":5217:5437   */\n      jump(tag_482)\n    tag_484:\n        /* \"#utility.yul\":5221:5242   */\n      pop\n        /* \"#utility.yul\":4835:5443   */\n      pop\n      pop\n        /* \"#utility.yul\":4733:5443   */\n      swap4\n      swap3\n      pop\n      pop\n      pop\n      jump\t// out\n        /* \"#utility.yul\":5466:5836   */\n    tag_350:\n        /* \"#utility.yul\":5537:5542   */\n      0x00\n        /* \"#utility.yul\":5586:5589   */\n      dup3\n        /* \"#utility.yul\":5579:5583   */\n      0x1f\n        /* \"#utility.yul\":5571:5577   */\n      dup4\n        /* \"#utility.yul\":5567:5584   */\n      add\n        /* \"#utility.yul\":5563:5590   */\n      slt\n        /* \"#utility.yul\":5553:5675   */\n      tag_487\n      jumpi\n        /* \"#utility.yul\":5594:5673   */\n      tag_488\n      tag_342\n      jump\t// in\n    tag_488:\n        /* \"#utility.yul\":5553:5675   */\n    tag_487:\n        /* \"#utility.yul\":5711:5717   */\n      dup2\n        /* \"#utility.yul\":5698:5718   */\n      calldataload\n        /* \"#utility.yul\":5736:5830   */\n      tag_489\n        /* \"#utility.yul\":5826:5829   */\n      dup5\n        /* \"#utility.yul\":5818:5824   */\n      dup3\n        /* \"#utility.yul\":5811:5815   */\n      0x20\n        /* \"#utility.yul\":5803:5809   */\n      dup7\n        /* \"#utility.yul\":5799:5816   */\n      add\n        /* \"#utility.yul\":5736:5830   */\n      tag_349\n      jump\t// in\n    tag_489:\n        /* \"#utility.yul\":5727:5830   */\n      swap2\n      pop\n        /* \"#utility.yul\":5543:5836   */\n      pop\n        /* \"#utility.yul\":5466:5836   */\n      swap3\n      swap2\n      pop\n      pop\n      jump\t// out\n        /* \"#utility.yul\":5842:6526   */\n    tag_29:\n        /* \"#utility.yul\":5935:5941   */\n      0x00\n        /* \"#utility.yul\":5943:5949   */\n      dup1\n        /* \"#utility.yul\":5992:5994   */\n      0x40\n        /* \"#utility.yul\":5980:5989   */\n      dup4\n        /* \"#utility.yul\":5971:5978   */\n      dup6\n        /* \"#utility.yul\":5967:5990   */\n      sub\n        /* \"#utility.yul\":5963:5995   */\n      slt\n        /* \"#utility.yul\":5960:6079   */\n      iszero\n      tag_491\n      jumpi\n        /* \"#utility.yul\":5998:6077   */\n      tag_492\n      tag_325\n      jump\t// in\n    tag_492:\n        /* \"#utility.yul\":5960:6079   */\n    tag_491:\n        /* \"#utility.yul\":6118:6119   */\n      0x00\n        /* \"#utility.yul\":6143:6196   */\n      tag_493\n        /* \"#utility.yul\":6188:6195   */\n      dup6\n        /* \"#utility.yul\":6179:6185   */\n      dup3\n        /* \"#utility.yul\":6168:6177   */\n      dup7\n        /* \"#utility.yul\":6164:6186   */\n      add\n        /* \"#utility.yul\":6143:6196   */\n      tag_329\n      jump\t// in\n    tag_493:\n        /* \"#utility.yul\":6133:6196   */\n      swap3\n      pop\n        /* \"#utility.yul\":6089:6206   */\n      pop\n        /* \"#utility.yul\":6273:6275   */\n      0x20\n        /* \"#utility.yul\":6262:6271   */\n      dup4\n        /* \"#utility.yul\":6258:6276   */\n      add\n        /* \"#utility.yul\":6245:6277   */\n      calldataload\n        /* \"#utility.yul\":6304:6322   */\n      0xffffffffffffffff\n        /* \"#utility.yul\":6296:6302   */\n      dup2\n        /* \"#utility.yul\":6293:6323   */\n      gt\n        /* \"#utility.yul\":6290:6407   */\n      iszero\n      tag_494\n      jumpi\n        /* \"#utility.yul\":6326:6405   */\n      tag_495\n      tag_326\n      jump\t// in\n    tag_495:\n        /* \"#utility.yul\":6290:6407   */\n    tag_494:\n        /* \"#utility.yul\":6431:6509   */\n      tag_496\n        /* \"#utility.yul\":6501:6508   */\n      dup6\n        /* \"#utility.yul\":6492:6498   */\n      dup3\n        /* \"#utility.yul\":6481:6490   */\n      dup7\n        /* \"#utility.yul\":6477:6499   */\n      add\n        /* \"#utility.yul\":6431:6509   */\n      tag_350\n      jump\t// in\n    tag_496:\n        /* \"#utility.yul\":6421:6509   */\n      swap2\n      pop\n        /* \"#utility.yul\":6216:6519   */\n      pop\n        /* \"#utility.yul\":5842:6526   */\n      swap3\n      pop\n      swap3\n      swap1\n      pop\n      jump\t// out\n        /* \"#utility.yul\":6532:6754   */\n    tag_35:\n        /* \"#utility.yul\":6625:6629   */\n      0x00\n        /* \"#utility.yul\":6663:6665   */\n      0x20\n        /* \"#utility.yul\":6652:6661   */\n      dup3\n        /* \"#utility.yul\":6648:6666   */\n      add\n        /* \"#utility.yul\":6640:6666   */\n      swap1\n      pop\n        /* \"#utility.yul\":6676:6747   */\n      tag_498\n        /* \"#utility.yul\":6744:6745   */\n      0x00\n        /* \"#utility.yul\":6733:6742   */\n      dup4\n        /* \"#utility.yul\":6729:6746   */\n      add\n        /* \"#utility.yul\":6720:6726   */\n      dup5\n        /* \"#utility.yul\":6676:6747   */\n      tag_333\n      jump\t// in\n    tag_498:\n        /* \"#utility.yul\":6532:6754   */\n      swap3\n      swap2\n      pop\n      pop\n      jump\t// out\n        /* \"#utility.yul\":6760:6970   */\n    tag_40:\n        /* \"#utility.yul\":6847:6851   */\n      0x00\n        /* \"#utility.yul\":6885:6887   */\n      0x20\n        /* \"#utility.yul\":6874:6883   */\n      dup3\n        /* \"#utility.yul\":6870:6888   */\n      add\n        /* \"#utility.yul\":6862:6888   */\n      swap1\n      pop\n        /* \"#utility.yul\":6898:6963   */\n      tag_500\n        /* \"#utility.yul\":6960:6961   */\n      0x00\n        /* \"#utility.yul\":6949:6958   */\n      dup4\n        /* \"#utility.yul\":6945:6962   */\n      add\n        /* \"#utility.yul\":6936:6942   */\n      dup5\n        /* \"#utility.yul\":6898:6963   */\n      tag_341\n      jump\t// in\n    tag_500:\n        /* \"#utility.yul\":6760:6970   */\n      swap3\n      swap2\n      pop\n      pop\n      jump\t// out\n        /* \"#utility.yul\":6976:7190   */\n    tag_45:\n        /* \"#utility.yul\":7065:7069   */\n      0x00\n        /* \"#utility.yul\":7103:7105   */\n      0x20\n        /* \"#utility.yul\":7092:7101   */\n      dup3\n        /* \"#utility.yul\":7088:7106   */\n      add\n        /* \"#utility.yul\":7080:7106   */\n      swap1\n      pop\n        /* \"#utility.yul\":7116:7183   */\n      tag_502\n        /* \"#utility.yul\":7180:7181   */\n      0x00\n        /* \"#utility.yul\":7169:7178   */\n      dup4\n        /* \"#utility.yul\":7165:7182   */\n      add\n        /* \"#utility.yul\":7156:7162   */\n      dup5\n        /* \"#utility.yul\":7116:7183   */\n      tag_339\n      jump\t// in\n    tag_502:\n        /* \"#utility.yul\":6976:7190   */\n      swap3\n      swap2\n      pop\n      pop\n      jump\t// out\n        /* \"#utility.yul\":7196:7314   */\n    tag_351:\n        /* \"#utility.yul\":7267:7289   */\n      tag_504\n        /* \"#utility.yul\":7283:7288   */\n      dup2\n        /* \"#utility.yul\":7267:7289   */\n      tag_338\n      jump\t// in\n    tag_504:\n        /* \"#utility.yul\":7260:7265   */\n      dup2\n        /* \"#utility.yul\":7257:7290   */\n      eq\n        /* \"#utility.yul\":7247:7308   */\n      tag_505\n      jumpi\n        /* \"#utility.yul\":7304:7305   */\n      0x00\n        /* \"#utility.yul\":7301:7302   */\n      dup1\n        /* \"#utility.yul\":7294:7306   */\n      revert\n        /* \"#utility.yul\":7247:7308   */\n    tag_505:\n        /* \"#utility.yul\":7196:7314   */\n      pop\n      jump\t// out\n        /* \"#utility.yul\":7320:7455   */\n    tag_352:\n        /* \"#utility.yul\":7364:7369   */\n      0x00\n        /* \"#utility.yul\":7402:7408   */\n      dup2\n        /* \"#utility.yul\":7389:7409   */\n      calldataload\n        /* \"#utility.yul\":7380:7409   */\n      swap1\n      pop\n        /* \"#utility.yul\":7418:7449   */\n      tag_507\n        /* \"#utility.yul\":7443:7448   */\n      dup2\n        /* \"#utility.yul\":7418:7449   */\n      tag_351\n      jump\t// in\n    tag_507:\n        /* \"#utility.yul\":7320:7455   */\n      swap3\n      swap2\n      pop\n      pop\n      jump\t// out\n        /* \"#utility.yul\":7461:7575   */\n    tag_353:\n        /* \"#utility.yul\":7549:7550   */\n      0x06\n        /* \"#utility.yul\":7542:7547   */\n      dup2\n        /* \"#utility.yul\":7539:7551   */\n      lt\n        /* \"#utility.yul\":7529:7569   */\n      tag_509\n      jumpi\n        /* \"#utility.yul\":7565:7566   */\n      0x00\n        /* \"#utility.yul\":7562:7563   */\n      dup1\n        /* \"#utility.yul\":7555:7567   */\n      revert\n        /* \"#utility.yul\":7529:7569   */\n    tag_509:\n        /* \"#utility.yul\":7461:7575   */\n      pop\n      jump\t// out\n        /* \"#utility.yul\":7581:7750   */\n    tag_354:\n        /* \"#utility.yul\":7642:7647   */\n      0x00\n        /* \"#utility.yul\":7680:7686   */\n      dup2\n        /* \"#utility.yul\":7667:7687   */\n      calldataload\n        /* \"#utility.yul\":7658:7687   */\n      swap1\n      pop\n        /* \"#utility.yul\":7696:7744   */\n      tag_511\n        /* \"#utility.yul\":7738:7743   */\n      dup2\n        /* \"#utility.yul\":7696:7744   */\n      tag_353\n      jump\t// in\n    tag_511:\n        /* \"#utility.yul\":7581:7750   */\n      swap3\n      swap2\n      pop\n      pop\n      jump\t// out\n        /* \"#utility.yul\":7756:8256   */\n    tag_56:\n        /* \"#utility.yul\":7837:7843   */\n      0x00\n        /* \"#utility.yul\":7845:7851   */\n      dup1\n        /* \"#utility.yul\":7894:7896   */\n      0x40\n        /* \"#utility.yul\":7882:7891   */\n      dup4\n        /* \"#utility.yul\":7873:7880   */\n      dup6\n        /* \"#utility.yul\":7869:7892   */\n      sub\n        /* \"#utility.yul\":7865:7897   */\n      slt\n        /* \"#utility.yul\":7862:7981   */\n      iszero\n      tag_513\n      jumpi\n        /* \"#utility.yul\":7900:7979   */\n      tag_514\n      tag_325\n      jump\t// in\n    tag_514:\n        /* \"#utility.yul\":7862:7981   */\n    tag_513:\n        /* \"#utility.yul\":8020:8021   */\n      0x00\n        /* \"#utility.yul\":8045:8096   */\n      tag_515\n        /* \"#utility.yul\":8088:8095   */\n      dup6\n        /* \"#utility.yul\":8079:8085   */\n      dup3\n        /* \"#utility.yul\":8068:8077   */\n      dup7\n        /* \"#utility.yul\":8064:8086   */\n      add\n        /* \"#utility.yul\":8045:8096   */\n      tag_352\n      jump\t// in\n    tag_515:\n        /* \"#utility.yul\":8035:8096   */\n      swap3\n      pop\n        /* \"#utility.yul\":7991:8106   */\n      pop\n        /* \"#utility.yul\":8145:8147   */\n      0x20\n        /* \"#utility.yul\":8171:8239   */\n      tag_516\n        /* \"#utility.yul\":8231:8238   */\n      dup6\n        /* \"#utility.yul\":8222:8228   */\n      dup3\n        /* \"#utility.yul\":8211:8220   */\n      dup7\n        /* \"#utility.yul\":8207:8229   */\n      add\n        /* \"#utility.yul\":8171:8239   */\n      tag_354\n      jump\t// in\n    tag_516:\n        /* \"#utility.yul\":8161:8239   */\n      swap2\n      pop\n        /* \"#utility.yul\":8116:8249   */\n      pop\n        /* \"#utility.yul\":7756:8256   */\n      swap3\n      pop\n      swap3\n      swap1\n      pop\n      jump\t// out\n        /* \"#utility.yul\":8262:8516   */\n    tag_68:\n        /* \"#utility.yul\":8371:8375   */\n      0x00\n        /* \"#utility.yul\":8409:8411   */\n      0x20\n        /* \"#utility.yul\":8398:8407   */\n      dup3\n        /* \"#utility.yul\":8394:8412   */\n      add\n        /* \"#utility.yul\":8386:8412   */\n      swap1\n      pop\n        /* \"#utility.yul\":8422:8509   */\n      tag_518\n        /* \"#utility.yul\":8506:8507   */\n      0x00\n        /* \"#utility.yul\":8495:8504   */\n      dup4\n        /* \"#utility.yul\":8491:8508   */\n      add\n        /* \"#utility.yul\":8482:8488   */\n      dup5\n        /* \"#utility.yul\":8422:8509   */\n      tag_332\n      jump\t// in\n    tag_518:\n        /* \"#utility.yul\":8262:8516   */\n      swap3\n      swap2\n      pop\n      pop\n      jump\t// out\n        /* \"#utility.yul\":8522:8691   */\n    tag_355:\n        /* \"#utility.yul\":8606:8617   */\n      0x00\n        /* \"#utility.yul\":8640:8646   */\n      dup3\n        /* \"#utility.yul\":8635:8638   */\n      dup3\n        /* \"#utility.yul\":8628:8647   */\n      mstore\n        /* \"#utility.yul\":8680:8684   */\n      0x20\n        /* \"#utility.yul\":8675:8678   */\n      dup3\n        /* \"#utility.yul\":8671:8685   */\n      add\n        /* \"#utility.yul\":8656:8685   */\n      swap1\n      pop\n        /* \"#utility.yul\":8522:8691   */\n      swap3\n      swap2\n      pop\n      pop\n      jump\t// out\n        /* \"#utility.yul\":8697:8861   */\n    tag_356:\n        /* \"#utility.yul\":8837:8853   */\n      0x4e6f2072652d656e7472616e6379000000000000000000000000000000000000\n        /* \"#utility.yul\":8833:8834   */\n      0x00\n        /* \"#utility.yul\":8825:8831   */\n      dup3\n        /* \"#utility.yul\":8821:8835   */\n      add\n        /* \"#utility.yul\":8814:8854   */\n      mstore\n        /* \"#utility.yul\":8697:8861   */\n      pop\n      jump\t// out\n        /* \"#utility.yul\":8867:9233   */\n    tag_357:\n        /* \"#utility.yul\":9009:9012   */\n      0x00\n        /* \"#utility.yul\":9030:9097   */\n      tag_522\n        /* \"#utility.yul\":9094:9096   */\n      0x0e\n        /* \"#utility.yul\":9089:9092   */\n      dup4\n        /* \"#utility.yul\":9030:9097   */\n      tag_355\n      jump\t// in\n    tag_522:\n        /* \"#utility.yul\":9023:9097   */\n      swap2\n      pop\n        /* \"#utility.yul\":9106:9199   */\n      tag_523\n        /* \"#utility.yul\":9195:9198   */\n      dup3\n        /* \"#utility.yul\":9106:9199   */\n      tag_356\n      jump\t// in\n    tag_523:\n        /* \"#utility.yul\":9224:9226   */\n      0x20\n        /* \"#utility.yul\":9219:9222   */\n      dup3\n        /* \"#utility.yul\":9215:9227   */\n      add\n        /* \"#utility.yul\":9208:9227   */\n      swap1\n      pop\n        /* \"#utility.yul\":8867:9233   */\n      swap2\n      swap1\n      pop\n      jump\t// out\n        /* \"#utility.yul\":9239:9658   */\n    tag_72:\n        /* \"#utility.yul\":9405:9409   */\n      0x00\n        /* \"#utility.yul\":9443:9445   */\n      0x20\n        /* \"#utility.yul\":9432:9441   */\n      dup3\n        /* \"#utility.yul\":9428:9446   */\n      add\n        /* \"#utility.yul\":9420:9446   */\n      swap1\n      pop\n        /* \"#utility.yul\":9492:9501   */\n      dup2\n        /* \"#utility.yul\":9486:9490   */\n      dup2\n        /* \"#utility.yul\":9482:9502   */\n      sub\n        /* \"#utility.yul\":9478:9479   */\n      0x00\n        /* \"#utility.yul\":9467:9476   */\n      dup4\n        /* \"#utility.yul\":9463:9480   */\n      add\n        /* \"#utility.yul\":9456:9503   */\n      mstore\n        /* \"#utility.yul\":9520:9651   */\n      tag_525\n        /* \"#utility.yul\":9646:9650   */\n      dup2\n        /* \"#utility.yul\":9520:9651   */\n      tag_357\n      jump\t// in\n    tag_525:\n        /* \"#utility.yul\":9512:9651   */\n      swap1\n      pop\n        /* \"#utility.yul\":9239:9658   */\n      swap2\n      swap1\n      pop\n      jump\t// out\n        /* \"#utility.yul\":9664:9894   */\n    tag_358:\n        /* \"#utility.yul\":9804:9838   */\n      0x4f6e6c792074686520636f6e7472616374206f776e65722063616e2077697468\n        /* \"#utility.yul\":9800:9801   */\n      0x00\n        /* \"#utility.yul\":9792:9798   */\n      dup3\n        /* \"#utility.yul\":9788:9802   */\n      add\n        /* \"#utility.yul\":9781:9839   */\n      mstore\n        /* \"#utility.yul\":9873:9886   */\n      0x64726177206d6f6e657921000000000000000000000000000000000000000000\n        /* \"#utility.yul\":9868:9870   */\n      0x20\n        /* \"#utility.yul\":9860:9866   */\n      dup3\n        /* \"#utility.yul\":9856:9871   */\n      add\n        /* \"#utility.yul\":9849:9887   */\n      mstore\n        /* \"#utility.yul\":9664:9894   */\n      pop\n      jump\t// out\n        /* \"#utility.yul\":9900:10266   */\n    tag_359:\n        /* \"#utility.yul\":10042:10045   */\n      0x00\n        /* \"#utility.yul\":10063:10130   */\n      tag_528\n        /* \"#utility.yul\":10127:10129   */\n      0x2b\n        /* \"#utility.yul\":10122:10125   */\n      dup4\n        /* \"#utility.yul\":10063:10130   */\n      tag_355\n      jump\t// in\n    tag_528:\n        /* \"#utility.yul\":10056:10130   */\n      swap2\n      pop\n        /* \"#utility.yul\":10139:10232   */\n      tag_529\n        /* \"#utility.yul\":10228:10231   */\n      dup3\n        /* \"#utility.yul\":10139:10232   */\n      tag_358\n      jump\t// in\n    tag_529:\n        /* \"#utility.yul\":10257:10259   */\n      0x40\n        /* \"#utility.yul\":10252:10255   */\n      dup3\n        /* \"#utility.yul\":10248:10260   */\n      add\n        /* \"#utility.yul\":10241:10260   */\n      swap1\n      pop\n        /* \"#utility.yul\":9900:10266   */\n      swap2\n      swap1\n      pop\n      jump\t// out\n        /* \"#utility.yul\":10272:10691   */\n    tag_76:\n        /* \"#utility.yul\":10438:10442   */\n      0x00\n        /* \"#utility.yul\":10476:10478   */\n      0x20\n        /* \"#utility.yul\":10465:10474   */\n      dup3\n        /* \"#utility.yul\":10461:10479   */\n      add\n        /* \"#utility.yul\":10453:10479   */\n      swap1\n      pop\n        /* \"#utility.yul\":10525:10534   */\n      dup2\n        /* \"#utility.yul\":10519:10523   */\n      dup2\n        /* \"#utility.yul\":10515:10535   */\n      sub\n        /* \"#utility.yul\":10511:10512   */\n      0x00\n        /* \"#utility.yul\":10500:10509   */\n      dup4\n        /* \"#utility.yul\":10496:10513   */\n      add\n        /* \"#utility.yul\":10489:10536   */\n      mstore\n        /* \"#utility.yul\":10553:10684   */\n      tag_531\n        /* \"#utility.yul\":10679:10683   */\n      dup2\n        /* \"#utility.yul\":10553:10684   */\n      tag_359\n      jump\t// in\n    tag_531:\n        /* \"#utility.yul\":10545:10684   */\n      swap1\n      pop\n        /* \"#utility.yul\":10272:10691   */\n      swap2\n      swap1\n      pop\n      jump\t// out\n        /* \"#utility.yul\":10697:10939   */\n    tag_360:\n        /* \"#utility.yul\":10837:10871   */\n      0x446f206e6f7420617474656d707420746f207769746864726177207768696c65\n        /* \"#utility.yul\":10833:10834   */\n      0x00\n        /* \"#utility.yul\":10825:10831   */\n      dup3\n        /* \"#utility.yul\":10821:10835   */\n      add\n        /* \"#utility.yul\":10814:10872   */\n      mstore\n        /* \"#utility.yul\":10906:10931   */\n      0x20612067616d6520697320696e2070726f67726573732e000000000000000000\n        /* \"#utility.yul\":10901:10903   */\n      0x20\n        /* \"#utility.yul\":10893:10899   */\n      dup3\n        /* \"#utility.yul\":10889:10904   */\n      add\n        /* \"#utility.yul\":10882:10932   */\n      mstore\n        /* \"#utility.yul\":10697:10939   */\n      pop\n      jump\t// out\n        /* \"#utility.yul\":10945:11311   */\n    tag_361:\n        /* \"#utility.yul\":11087:11090   */\n      0x00\n        /* \"#utility.yul\":11108:11175   */\n      tag_534\n        /* \"#utility.yul\":11172:11174   */\n      0x37\n        /* \"#utility.yul\":11167:11170   */\n      dup4\n        /* \"#utility.yul\":11108:11175   */\n      tag_355\n      jump\t// in\n    tag_534:\n        /* \"#utility.yul\":11101:11175   */\n      swap2\n      pop\n        /* \"#utility.yul\":11184:11277   */\n      tag_535\n        /* \"#utility.yul\":11273:11276   */\n      dup3\n        /* \"#utility.yul\":11184:11277   */\n      tag_360\n      jump\t// in\n    tag_535:\n        /* \"#utility.yul\":11302:11304   */\n      0x40\n        /* \"#utility.yul\":11297:11300   */\n      dup3\n        /* \"#utility.yul\":11293:11305   */\n      add\n        /* \"#utility.yul\":11286:11305   */\n      swap1\n      pop\n        /* \"#utility.yul\":10945:11311   */\n      swap2\n      swap1\n      pop\n      jump\t// out\n        /* \"#utility.yul\":11317:11736   */\n    tag_79:\n        /* \"#utility.yul\":11483:11487   */\n      0x00\n        /* \"#utility.yul\":11521:11523   */\n      0x20\n        /* \"#utility.yul\":11510:11519   */\n      dup3\n        /* \"#utility.yul\":11506:11524   */\n      add\n        /* \"#utility.yul\":11498:11524   */\n      swap1\n      pop\n        /* \"#utility.yul\":11570:11579   */\n      dup2\n        /* \"#utility.yul\":11564:11568   */\n      dup2\n        /* \"#utility.yul\":11560:11580   */\n      sub\n        /* \"#utility.yul\":11556:11557   */\n      0x00\n        /* \"#utility.yul\":11545:11554   */\n      dup4\n        /* \"#utility.yul\":11541:11558   */\n      add\n        /* \"#utility.yul\":11534:11581   */\n      mstore\n        /* \"#utility.yul\":11598:11729   */\n      tag_537\n        /* \"#utility.yul\":11724:11728   */\n      dup2\n        /* \"#utility.yul\":11598:11729   */\n      tag_361\n      jump\t// in\n    tag_537:\n        /* \"#utility.yul\":11590:11729   */\n      swap1\n      pop\n        /* \"#utility.yul\":11317:11736   */\n      swap2\n      swap1\n      pop\n      jump\t// out\n        /* \"#utility.yul\":11742:11922   */\n    tag_362:\n        /* \"#utility.yul\":11790:11867   */\n      0x4e487b7100000000000000000000000000000000000000000000000000000000\n        /* \"#utility.yul\":11787:11788   */\n      0x00\n        /* \"#utility.yul\":11780:11868   */\n      mstore\n        /* \"#utility.yul\":11887:11891   */\n      0x11\n        /* \"#utility.yul\":11884:11885   */\n      0x04\n        /* \"#utility.yul\":11877:11892   */\n      mstore\n        /* \"#utility.yul\":11911:11915   */\n      0x24\n        /* \"#utility.yul\":11908:11909   */\n      0x00\n        /* \"#utility.yul\":11901:11916   */\n      revert\n        /* \"#utility.yul\":11928:12122   */\n    tag_83:\n        /* \"#utility.yul\":11968:11972   */\n      0x00\n        /* \"#utility.yul\":11988:12008   */\n      tag_540\n        /* \"#utility.yul\":12006:12007   */\n      dup3\n        /* \"#utility.yul\":11988:12008   */\n      tag_327\n      jump\t// in\n    tag_540:\n        /* \"#utility.yul\":11983:12008   */\n      swap2\n      pop\n        /* \"#utility.yul\":12022:12042   */\n      tag_541\n        /* \"#utility.yul\":12040:12041   */\n      dup4\n        /* \"#utility.yul\":12022:12042   */\n      tag_327\n      jump\t// in\n    tag_541:\n        /* \"#utility.yul\":12017:12042   */\n      swap3\n      pop\n        /* \"#utility.yul\":12066:12067   */\n      dup3\n        /* \"#utility.yul\":12063:12064   */\n      dup3\n        /* \"#utility.yul\":12059:12068   */\n      sub\n        /* \"#utility.yul\":12051:12068   */\n      swap1\n      pop\n        /* \"#utility.yul\":12090:12091   */\n      dup2\n        /* \"#utility.yul\":12084:12088   */\n      dup2\n        /* \"#utility.yul\":12081:12092   */\n      gt\n        /* \"#utility.yul\":12078:12115   */\n      iszero\n      tag_542\n      jumpi\n        /* \"#utility.yul\":12095:12113   */\n      tag_543\n      tag_362\n      jump\t// in\n    tag_543:\n        /* \"#utility.yul\":12078:12115   */\n    tag_542:\n        /* \"#utility.yul\":11928:12122   */\n      swap3\n      swap2\n      pop\n      pop\n      jump\t// out\n        /* \"#utility.yul\":12128:12308   */\n    tag_86:\n        /* \"#utility.yul\":12176:12253   */\n      0x4e487b7100000000000000000000000000000000000000000000000000000000\n        /* \"#utility.yul\":12173:12174   */\n      0x00\n        /* \"#utility.yul\":12166:12254   */\n      mstore\n        /* \"#utility.yul\":12273:12277   */\n      0x01\n        /* \"#utility.yul\":12270:12271   */\n      0x04\n        /* \"#utility.yul\":12263:12278   */\n      mstore\n        /* \"#utility.yul\":12297:12301   */\n      0x24\n        /* \"#utility.yul\":12294:12295   */\n      0x00\n        /* \"#utility.yul\":12287:12302   */\n      revert\n        /* \"#utility.yul\":12314:12410   */\n    tag_363:\n        /* \"#utility.yul\":12351:12358   */\n      0x00\n        /* \"#utility.yul\":12380:12404   */\n      tag_546\n        /* \"#utility.yul\":12398:12403   */\n      dup3\n        /* \"#utility.yul\":12380:12404   */\n      tag_330\n      jump\t// in\n    tag_546:\n        /* \"#utility.yul\":12369:12404   */\n      swap1\n      pop\n        /* \"#utility.yul\":12314:12410   */\n      swap2\n      swap1\n      pop\n      jump\t// out\n        /* \"#utility.yul\":12416:12534   */\n    tag_364:\n        /* \"#utility.yul\":12503:12527   */\n      tag_548\n        /* \"#utility.yul\":12521:12526   */\n      dup2\n        /* \"#utility.yul\":12503:12527   */\n      tag_363\n      jump\t// in\n    tag_548:\n        /* \"#utility.yul\":12498:12501   */\n      dup3\n        /* \"#utility.yul\":12491:12528   */\n      mstore\n        /* \"#utility.yul\":12416:12534   */\n      pop\n      pop\n      jump\t// out\n        /* \"#utility.yul\":12540:12872   */\n    tag_92:\n        /* \"#utility.yul\":12661:12665   */\n      0x00\n        /* \"#utility.yul\":12699:12701   */\n      0x40\n        /* \"#utility.yul\":12688:12697   */\n      dup3\n        /* \"#utility.yul\":12684:12702   */\n      add\n        /* \"#utility.yul\":12676:12702   */\n      swap1\n      pop\n        /* \"#utility.yul\":12712:12783   */\n      tag_550\n        /* \"#utility.yul\":12780:12781   */\n      0x00\n        /* \"#utility.yul\":12769:12778   */\n      dup4\n        /* \"#utility.yul\":12765:12782   */\n      add\n        /* \"#utility.yul\":12756:12762   */\n      dup6\n        /* \"#utility.yul\":12712:12783   */\n      tag_364\n      jump\t// in\n    tag_550:\n        /* \"#utility.yul\":12793:12865   */\n      tag_551\n        /* \"#utility.yul\":12861:12863   */\n      0x20\n        /* \"#utility.yul\":12850:12859   */\n      dup4\n        /* \"#utility.yul\":12846:12864   */\n      add\n        /* \"#utility.yul\":12837:12843   */\n      dup5\n        /* \"#utility.yul\":12793:12865   */\n      tag_364\n      jump\t// in\n    tag_551:\n        /* \"#utility.yul\":12540:12872   */\n      swap4\n      swap3\n      pop\n      pop\n      pop\n      jump\t// out\n        /* \"#utility.yul\":12878:13129   */\n    tag_365:\n        /* \"#utility.yul\":13018:13052   */\n      0x412067616d6520697320616c726561647920696e2070726f67726573732c2070\n        /* \"#utility.yul\":13014:13015   */\n      0x00\n        /* \"#utility.yul\":13006:13012   */\n      dup3\n        /* \"#utility.yul\":13002:13016   */\n      add\n        /* \"#utility.yul\":12995:13053   */\n      mstore\n        /* \"#utility.yul\":13087:13121   */\n      0x6c6561736520686176652061206d6f6d656e74206f662070617469656e63652e\n        /* \"#utility.yul\":13082:13084   */\n      0x20\n        /* \"#utility.yul\":13074:13080   */\n      dup3\n        /* \"#utility.yul\":13070:13085   */\n      add\n        /* \"#utility.yul\":13063:13122   */\n      mstore\n        /* \"#utility.yul\":12878:13129   */\n      pop\n      jump\t// out\n        /* \"#utility.yul\":13135:13501   */\n    tag_366:\n        /* \"#utility.yul\":13277:13280   */\n      0x00\n        /* \"#utility.yul\":13298:13365   */\n      tag_554\n        /* \"#utility.yul\":13362:13364   */\n      0x40\n        /* \"#utility.yul\":13357:13360   */\n      dup4\n        /* \"#utility.yul\":13298:13365   */\n      tag_355\n      jump\t// in\n    tag_554:\n        /* \"#utility.yul\":13291:13365   */\n      swap2\n      pop\n        /* \"#utility.yul\":13374:13467   */\n      tag_555\n        /* \"#utility.yul\":13463:13466   */\n      dup3\n        /* \"#utility.yul\":13374:13467   */\n      tag_365\n      jump\t// in\n    tag_555:\n        /* \"#utility.yul\":13492:13494   */\n      0x40\n        /* \"#utility.yul\":13487:13490   */\n      dup3\n        /* \"#utility.yul\":13483:13495   */\n      add\n        /* \"#utility.yul\":13476:13495   */\n      swap1\n      pop\n        /* \"#utility.yul\":13135:13501   */\n      swap2\n      swap1\n      pop\n      jump\t// out\n        /* \"#utility.yul\":13507:13926   */\n    tag_101:\n        /* \"#utility.yul\":13673:13677   */\n      0x00\n        /* \"#utility.yul\":13711:13713   */\n      0x20\n        /* \"#utility.yul\":13700:13709   */\n      dup3\n        /* \"#utility.yul\":13696:13714   */\n      add\n        /* \"#utility.yul\":13688:13714   */\n      swap1\n      pop\n        /* \"#utility.yul\":13760:13769   */\n      dup2\n        /* \"#utility.yul\":13754:13758   */\n      dup2\n        /* \"#utility.yul\":13750:13770   */\n      sub\n        /* \"#utility.yul\":13746:13747   */\n      0x00\n        /* \"#utility.yul\":13735:13744   */\n      dup4\n        /* \"#utility.yul\":13731:13748   */\n      add\n        /* \"#utility.yul\":13724:13771   */\n      mstore\n        /* \"#utility.yul\":13788:13919   */\n      tag_557\n        /* \"#utility.yul\":13914:13918   */\n      dup2\n        /* \"#utility.yul\":13788:13919   */\n      tag_366\n      jump\t// in\n    tag_557:\n        /* \"#utility.yul\":13780:13919   */\n      swap1\n      pop\n        /* \"#utility.yul\":13507:13926   */\n      swap2\n      swap1\n      pop\n      jump\t// out\n        /* \"#utility.yul\":13932:14178   */\n    tag_367:\n        /* \"#utility.yul\":14072:14106   */\n      0x54686520616d6f756e74206f66206d6f6e657920696e2074686520626574206d\n        /* \"#utility.yul\":14068:14069   */\n      0x00\n        /* \"#utility.yul\":14060:14066   */\n      dup3\n        /* \"#utility.yul\":14056:14070   */\n      add\n        /* \"#utility.yul\":14049:14107   */\n      mstore\n        /* \"#utility.yul\":14141:14170   */\n      0x7573742065786365656420746865206d696e696d756d206265742e0000000000\n        /* \"#utility.yul\":14136:14138   */\n      0x20\n        /* \"#utility.yul\":14128:14134   */\n      dup3\n        /* \"#utility.yul\":14124:14139   */\n      add\n        /* \"#utility.yul\":14117:14171   */\n      mstore\n        /* \"#utility.yul\":13932:14178   */\n      pop\n      jump\t// out\n        /* \"#utility.yul\":14184:14550   */\n    tag_368:\n        /* \"#utility.yul\":14326:14329   */\n      0x00\n        /* \"#utility.yul\":14347:14414   */\n      tag_560\n        /* \"#utility.yul\":14411:14413   */\n      0x3b\n        /* \"#utility.yul\":14406:14409   */\n      dup4\n        /* \"#utility.yul\":14347:14414   */\n      tag_355\n      jump\t// in\n    tag_560:\n        /* \"#utility.yul\":14340:14414   */\n      swap2\n      pop\n        /* \"#utility.yul\":14423:14516   */\n      tag_561\n        /* \"#utility.yul\":14512:14515   */\n      dup3\n        /* \"#utility.yul\":14423:14516   */\n      tag_367\n      jump\t// in\n    tag_561:\n        /* \"#utility.yul\":14541:14543   */\n      0x40\n        /* \"#utility.yul\":14536:14539   */\n      dup3\n        /* \"#utility.yul\":14532:14544   */\n      add\n        /* \"#utility.yul\":14525:14544   */\n      swap1\n      pop\n        /* \"#utility.yul\":14184:14550   */\n      swap2\n      swap1\n      pop\n      jump\t// out\n        /* \"#utility.yul\":14556:14975   */\n    tag_104:\n        /* \"#utility.yul\":14722:14726   */\n      0x00\n        /* \"#utility.yul\":14760:14762   */\n      0x20\n        /* \"#utility.yul\":14749:14758   */\n      dup3\n        /* \"#utility.yul\":14745:14763   */\n      add\n        /* \"#utility.yul\":14737:14763   */\n      swap1\n      pop\n        /* \"#utility.yul\":14809:14818   */\n      dup2\n        /* \"#utility.yul\":14803:14807   */\n      dup2\n        /* \"#utility.yul\":14799:14819   */\n      sub\n        /* \"#utility.yul\":14795:14796   */\n      0x00\n        /* \"#utility.yul\":14784:14793   */\n      dup4\n        /* \"#utility.yul\":14780:14797   */\n      add\n        /* \"#utility.yul\":14773:14820   */\n      mstore\n        /* \"#utility.yul\":14837:14968   */\n      tag_563\n        /* \"#utility.yul\":14963:14967   */\n      dup2\n        /* \"#utility.yul\":14837:14968   */\n      tag_368\n      jump\t// in\n    tag_563:\n        /* \"#utility.yul\":14829:14968   */\n      swap1\n      pop\n        /* \"#utility.yul\":14556:14975   */\n      swap2\n      swap1\n      pop\n      jump\t// out\n        /* \"#utility.yul\":14981:15229   */\n    tag_369:\n        /* \"#utility.yul\":15121:15155   */\n      0x54686520616d6f756e74206f66206d6f6e657920696e2074686520626574206d\n        /* \"#utility.yul\":15117:15118   */\n      0x00\n        /* \"#utility.yul\":15109:15115   */\n      dup3\n        /* \"#utility.yul\":15105:15119   */\n      add\n        /* \"#utility.yul\":15098:15156   */\n      mstore\n        /* \"#utility.yul\":15190:15221   */\n      0x7573742062652062656c6f7720746865206d6178696d756d206265742e000000\n        /* \"#utility.yul\":15185:15187   */\n      0x20\n        /* \"#utility.yul\":15177:15183   */\n      dup3\n        /* \"#utility.yul\":15173:15188   */\n      add\n        /* \"#utility.yul\":15166:15222   */\n      mstore\n        /* \"#utility.yul\":14981:15229   */\n      pop\n      jump\t// out\n        /* \"#utility.yul\":15235:15601   */\n    tag_370:\n        /* \"#utility.yul\":15377:15380   */\n      0x00\n        /* \"#utility.yul\":15398:15465   */\n      tag_566\n        /* \"#utility.yul\":15462:15464   */\n      0x3d\n        /* \"#utility.yul\":15457:15460   */\n      dup4\n        /* \"#utility.yul\":15398:15465   */\n      tag_355\n      jump\t// in\n    tag_566:\n        /* \"#utility.yul\":15391:15465   */\n      swap2\n      pop\n        /* \"#utility.yul\":15474:15567   */\n      tag_567\n        /* \"#utility.yul\":15563:15566   */\n      dup3\n        /* \"#utility.yul\":15474:15567   */\n      tag_369\n      jump\t// in\n    tag_567:\n        /* \"#utility.yul\":15592:15594   */\n      0x40\n        /* \"#utility.yul\":15587:15590   */\n      dup3\n        /* \"#utility.yul\":15583:15595   */\n      add\n        /* \"#utility.yul\":15576:15595   */\n      swap1\n      pop\n        /* \"#utility.yul\":15235:15601   */\n      swap2\n      swap1\n      pop\n      jump\t// out\n        /* \"#utility.yul\":15607:16026   */\n    tag_107:\n        /* \"#utility.yul\":15773:15777   */\n      0x00\n        /* \"#utility.yul\":15811:15813   */\n      0x20\n        /* \"#utility.yul\":15800:15809   */\n      dup3\n        /* \"#utility.yul\":15796:15814   */\n      add\n        /* \"#utility.yul\":15788:15814   */\n      swap1\n      pop\n        /* \"#utility.yul\":15860:15869   */\n      dup2\n        /* \"#utility.yul\":15854:15858   */\n      dup2\n        /* \"#utility.yul\":15850:15870   */\n      sub\n        /* \"#utility.yul\":15846:15847   */\n      0x00\n        /* \"#utility.yul\":15835:15844   */\n      dup4\n        /* \"#utility.yul\":15831:15848   */\n      add\n        /* \"#utility.yul\":15824:15871   */\n      mstore\n        /* \"#utility.yul\":15888:16019   */\n      tag_569\n        /* \"#utility.yul\":16014:16018   */\n      dup2\n        /* \"#utility.yul\":15888:16019   */\n      tag_370\n      jump\t// in\n    tag_569:\n        /* \"#utility.yul\":15880:16019   */\n      swap1\n      pop\n        /* \"#utility.yul\":15607:16026   */\n      swap2\n      swap1\n      pop\n      jump\t// out\n        /* \"#utility.yul\":16032:16278   */\n    tag_371:\n        /* \"#utility.yul\":16172:16206   */\n      0x496e76616c6964206265742e2053696e676c6520626574206d75737420626520\n        /* \"#utility.yul\":16168:16169   */\n      0x00\n        /* \"#utility.yul\":16160:16166   */\n      dup3\n        /* \"#utility.yul\":16156:16170   */\n      add\n        /* \"#utility.yul\":16149:16207   */\n      mstore\n        /* \"#utility.yul\":16241:16270   */\n      0x6265747765656e203020616e6420333620696e636c75736976652e0000000000\n        /* \"#utility.yul\":16236:16238   */\n      0x20\n        /* \"#utility.yul\":16228:16234   */\n      dup3\n        /* \"#utility.yul\":16224:16239   */\n      add\n        /* \"#utility.yul\":16217:16271   */\n      mstore\n        /* \"#utility.yul\":16032:16278   */\n      pop\n      jump\t// out\n        /* \"#utility.yul\":16284:16650   */\n    tag_372:\n        /* \"#utility.yul\":16426:16429   */\n      0x00\n        /* \"#utility.yul\":16447:16514   */\n      tag_572\n        /* \"#utility.yul\":16511:16513   */\n      0x3b\n        /* \"#utility.yul\":16506:16509   */\n      dup4\n        /* \"#utility.yul\":16447:16514   */\n      tag_355\n      jump\t// in\n    tag_572:\n        /* \"#utility.yul\":16440:16514   */\n      swap2\n      pop\n        /* \"#utility.yul\":16523:16616   */\n      tag_573\n        /* \"#utility.yul\":16612:16615   */\n      dup3\n        /* \"#utility.yul\":16523:16616   */\n      tag_371\n      jump\t// in\n    tag_573:\n        /* \"#utility.yul\":16641:16643   */\n      0x40\n        /* \"#utility.yul\":16636:16639   */\n      dup3\n        /* \"#utility.yul\":16632:16644   */\n      add\n        /* \"#utility.yul\":16625:16644   */\n      swap1\n      pop\n        /* \"#utility.yul\":16284:16650   */\n      swap2\n      swap1\n      pop\n      jump\t// out\n        /* \"#utility.yul\":16656:17075   */\n    tag_117:\n        /* \"#utility.yul\":16822:16826   */\n      0x00\n        /* \"#utility.yul\":16860:16862   */\n      0x20\n        /* \"#utility.yul\":16849:16858   */\n      dup3\n        /* \"#utility.yul\":16845:16863   */\n      add\n        /* \"#utility.yul\":16837:16863   */\n      swap1\n      pop\n        /* \"#utility.yul\":16909:16918   */\n      dup2\n        /* \"#utility.yul\":16903:16907   */\n      dup2\n        /* \"#utility.yul\":16899:16919   */\n      sub\n        /* \"#utility.yul\":16895:16896   */\n      0x00\n        /* \"#utility.yul\":16884:16893   */\n      dup4\n        /* \"#utility.yul\":16880:16897   */\n      add\n        /* \"#utility.yul\":16873:16920   */\n      mstore\n        /* \"#utility.yul\":16937:17068   */\n      tag_575\n        /* \"#utility.yul\":17063:17067   */\n      dup2\n        /* \"#utility.yul\":16937:17068   */\n      tag_372\n      jump\t// in\n    tag_575:\n        /* \"#utility.yul\":16929:17068   */\n      swap1\n      pop\n        /* \"#utility.yul\":16656:17075   */\n      swap2\n      swap1\n      pop\n      jump\t// out\n        /* \"#utility.yul\":17081:17325   */\n    tag_373:\n        /* \"#utility.yul\":17221:17255   */\n      0x496e76616c6964206265742e20546869726420626574206d7573742062652062\n        /* \"#utility.yul\":17217:17218   */\n      0x00\n        /* \"#utility.yul\":17209:17215   */\n      dup3\n        /* \"#utility.yul\":17205:17219   */\n      add\n        /* \"#utility.yul\":17198:17256   */\n      mstore\n        /* \"#utility.yul\":17290:17317   */\n      0x65747765656e203120616e64203320696e636c75736976652e00000000000000\n        /* \"#utility.yul\":17285:17287   */\n      0x20\n        /* \"#utility.yul\":17277:17283   */\n      dup3\n        /* \"#utility.yul\":17273:17288   */\n      add\n        /* \"#utility.yul\":17266:17318   */\n      mstore\n        /* \"#utility.yul\":17081:17325   */\n      pop\n      jump\t// out\n        /* \"#utility.yul\":17331:17697   */\n    tag_374:\n        /* \"#utility.yul\":17473:17476   */\n      0x00\n        /* \"#utility.yul\":17494:17561   */\n      tag_578\n        /* \"#utility.yul\":17558:17560   */\n      0x39\n        /* \"#utility.yul\":17553:17556   */\n      dup4\n        /* \"#utility.yul\":17494:17561   */\n      tag_355\n      jump\t// in\n    tag_578:\n        /* \"#utility.yul\":17487:17561   */\n      swap2\n      pop\n        /* \"#utility.yul\":17570:17663   */\n      tag_579\n        /* \"#utility.yul\":17659:17662   */\n      dup3\n        /* \"#utility.yul\":17570:17663   */\n      tag_373\n      jump\t// in\n    tag_579:\n        /* \"#utility.yul\":17688:17690   */\n      0x40\n        /* \"#utility.yul\":17683:17686   */\n      dup3\n        /* \"#utility.yul\":17679:17691   */\n      add\n        /* \"#utility.yul\":17672:17691   */\n      swap1\n      pop\n        /* \"#utility.yul\":17331:17697   */\n      swap2\n      swap1\n      pop\n      jump\t// out\n        /* \"#utility.yul\":17703:18122   */\n    tag_127:\n        /* \"#utility.yul\":17869:17873   */\n      0x00\n        /* \"#utility.yul\":17907:17909   */\n      0x20\n        /* \"#utility.yul\":17896:17905   */\n      dup3\n        /* \"#utility.yul\":17892:17910   */\n      add\n        /* \"#utility.yul\":17884:17910   */\n      swap1\n      pop\n        /* \"#utility.yul\":17956:17965   */\n      dup2\n        /* \"#utility.yul\":17950:17954   */\n      dup2\n        /* \"#utility.yul\":17946:17966   */\n      sub\n        /* \"#utility.yul\":17942:17943   */\n      0x00\n        /* \"#utility.yul\":17931:17940   */\n      dup4\n        /* \"#utility.yul\":17927:17944   */\n      add\n        /* \"#utility.yul\":17920:17967   */\n      mstore\n        /* \"#utility.yul\":17984:18115   */\n      tag_581\n        /* \"#utility.yul\":18110:18114   */\n      dup2\n        /* \"#utility.yul\":17984:18115   */\n      tag_374\n      jump\t// in\n    tag_581:\n        /* \"#utility.yul\":17976:18115   */\n      swap1\n      pop\n        /* \"#utility.yul\":17703:18122   */\n      swap2\n      swap1\n      pop\n      jump\t// out\n        /* \"#utility.yul\":18128:18420   */\n    tag_375:\n        /* \"#utility.yul\":18268:18302   */\n      0x496e76616c6964206265742e205265642f626c61636b2f6f64642f6576656e20\n        /* \"#utility.yul\":18264:18265   */\n      0x00\n        /* \"#utility.yul\":18256:18262   */\n      dup3\n        /* \"#utility.yul\":18252:18266   */\n      add\n        /* \"#utility.yul\":18245:18303   */\n      mstore\n        /* \"#utility.yul\":18337:18371   */\n      0x62657473206d75737420626520706c616365642077697468206120626574206f\n        /* \"#utility.yul\":18332:18334   */\n      0x20\n        /* \"#utility.yul\":18324:18330   */\n      dup3\n        /* \"#utility.yul\":18320:18335   */\n      add\n        /* \"#utility.yul\":18313:18372   */\n      mstore\n        /* \"#utility.yul\":18406:18412   */\n      0x6620312e00000000000000000000000000000000000000000000000000000000\n        /* \"#utility.yul\":18401:18403   */\n      0x40\n        /* \"#utility.yul\":18393:18399   */\n      dup3\n        /* \"#utility.yul\":18389:18404   */\n      add\n        /* \"#utility.yul\":18382:18413   */\n      mstore\n        /* \"#utility.yul\":18128:18420   */\n      pop\n      jump\t// out\n        /* \"#utility.yul\":18426:18792   */\n    tag_376:\n        /* \"#utility.yul\":18568:18571   */\n      0x00\n        /* \"#utility.yul\":18589:18656   */\n      tag_584\n        /* \"#utility.yul\":18653:18655   */\n      0x44\n        /* \"#utility.yul\":18648:18651   */\n      dup4\n        /* \"#utility.yul\":18589:18656   */\n      tag_355\n      jump\t// in\n    tag_584:\n        /* \"#utility.yul\":18582:18656   */\n      swap2\n      pop\n        /* \"#utility.yul\":18665:18758   */\n      tag_585\n        /* \"#utility.yul\":18754:18757   */\n      dup3\n        /* \"#utility.yul\":18665:18758   */\n      tag_375\n      jump\t// in\n    tag_585:\n        /* \"#utility.yul\":18783:18785   */\n      0x60\n        /* \"#utility.yul\":18778:18781   */\n      dup3\n        /* \"#utility.yul\":18774:18786   */\n      add\n        /* \"#utility.yul\":18767:18786   */\n      swap1\n      pop\n        /* \"#utility.yul\":18426:18792   */\n      swap2\n      swap1\n      pop\n      jump\t// out\n        /* \"#utility.yul\":18798:19217   */\n    tag_151:\n        /* \"#utility.yul\":18964:18968   */\n      0x00\n        /* \"#utility.yul\":19002:19004   */\n      0x20\n        /* \"#utility.yul\":18991:19000   */\n      dup3\n        /* \"#utility.yul\":18987:19005   */\n      add\n        /* \"#utility.yul\":18979:19005   */\n      swap1\n      pop\n        /* \"#utility.yul\":19051:19060   */\n      dup2\n        /* \"#utility.yul\":19045:19049   */\n      dup2\n        /* \"#utility.yul\":19041:19061   */\n      sub\n        /* \"#utility.yul\":19037:19038   */\n      0x00\n        /* \"#utility.yul\":19026:19035   */\n      dup4\n        /* \"#utility.yul\":19022:19039   */\n      add\n        /* \"#utility.yul\":19015:19062   */\n      mstore\n        /* \"#utility.yul\":19079:19210   */\n      tag_587\n        /* \"#utility.yul\":19205:19209   */\n      dup2\n        /* \"#utility.yul\":19079:19210   */\n      tag_376\n      jump\t// in\n    tag_587:\n        /* \"#utility.yul\":19071:19210   */\n      swap1\n      pop\n        /* \"#utility.yul\":18798:19217   */\n      swap2\n      swap1\n      pop\n      jump\t// out\n        /* \"#utility.yul\":19223:19531   */\n    tag_377:\n        /* \"#utility.yul\":19363:19397   */\n      0x496e76616c69642062657420747970652e20506c656173652063686f6f736520\n        /* \"#utility.yul\":19359:19360   */\n      0x00\n        /* \"#utility.yul\":19351:19357   */\n      dup3\n        /* \"#utility.yul\":19347:19361   */\n      add\n        /* \"#utility.yul\":19340:19398   */\n      mstore\n        /* \"#utility.yul\":19432:19466   */\n      0x2773696e676c65272c20277468697264272c2027726564272c2027626c61636b\n        /* \"#utility.yul\":19427:19429   */\n      0x20\n        /* \"#utility.yul\":19419:19425   */\n      dup3\n        /* \"#utility.yul\":19415:19430   */\n      add\n        /* \"#utility.yul\":19408:19467   */\n      mstore\n        /* \"#utility.yul\":19501:19523   */\n      0x272c20276f6464272c206f7220276576656e272e000000000000000000000000\n        /* \"#utility.yul\":19496:19498   */\n      0x40\n        /* \"#utility.yul\":19488:19494   */\n      dup3\n        /* \"#utility.yul\":19484:19499   */\n      add\n        /* \"#utility.yul\":19477:19524   */\n      mstore\n        /* \"#utility.yul\":19223:19531   */\n      pop\n      jump\t// out\n        /* \"#utility.yul\":19537:19903   */\n    tag_378:\n        /* \"#utility.yul\":19679:19682   */\n      0x00\n        /* \"#utility.yul\":19700:19767   */\n      tag_590\n        /* \"#utility.yul\":19764:19766   */\n      0x54\n        /* \"#utility.yul\":19759:19762   */\n      dup4\n        /* \"#utility.yul\":19700:19767   */\n      tag_355\n      jump\t// in\n    tag_590:\n        /* \"#utility.yul\":19693:19767   */\n      swap2\n      pop\n        /* \"#utility.yul\":19776:19869   */\n      tag_591\n        /* \"#utility.yul\":19865:19868   */\n      dup3\n        /* \"#utility.yul\":19776:19869   */\n      tag_377\n      jump\t// in\n    tag_591:\n        /* \"#utility.yul\":19894:19896   */\n      0x60\n        /* \"#utility.yul\":19889:19892   */\n      dup3\n        /* \"#utility.yul\":19885:19897   */\n      add\n        /* \"#utility.yul\":19878:19897   */\n      swap1\n      pop\n        /* \"#utility.yul\":19537:19903   */\n      swap2\n      swap1\n      pop\n      jump\t// out\n        /* \"#utility.yul\":19909:20328   */\n    tag_155:\n        /* \"#utility.yul\":20075:20079   */\n      0x00\n        /* \"#utility.yul\":20113:20115   */\n      0x20\n        /* \"#utility.yul\":20102:20111   */\n      dup3\n        /* \"#utility.yul\":20098:20116   */\n      add\n        /* \"#utility.yul\":20090:20116   */\n      swap1\n      pop\n        /* \"#utility.yul\":20162:20171   */\n      dup2\n        /* \"#utility.yul\":20156:20160   */\n      dup2\n        /* \"#utility.yul\":20152:20172   */\n      sub\n        /* \"#utility.yul\":20148:20149   */\n      0x00\n        /* \"#utility.yul\":20137:20146   */\n      dup4\n        /* \"#utility.yul\":20133:20150   */\n      add\n        /* \"#utility.yul\":20126:20173   */\n      mstore\n        /* \"#utility.yul\":20190:20321   */\n      tag_593\n        /* \"#utility.yul\":20316:20320   */\n      dup2\n        /* \"#utility.yul\":20190:20321   */\n      tag_378\n      jump\t// in\n    tag_593:\n        /* \"#utility.yul\":20182:20321   */\n      swap1\n      pop\n        /* \"#utility.yul\":19909:20328   */\n      swap2\n      swap1\n      pop\n      jump\t// out\n        /* \"#utility.yul\":20334:20436   */\n    tag_379:\n        /* \"#utility.yul\":20376:20384   */\n      0x00\n        /* \"#utility.yul\":20423:20428   */\n      dup2\n        /* \"#utility.yul\":20420:20421   */\n      0x00\n        /* \"#utility.yul\":20416:20429   */\n      shr\n        /* \"#utility.yul\":20395:20429   */\n      swap1\n      pop\n        /* \"#utility.yul\":20334:20436   */\n      swap2\n      swap1\n      pop\n      jump\t// out\n        /* \"#utility.yul\":20442:20589   */\n    tag_380:\n        /* \"#utility.yul\":20500:20507   */\n      0x00\n        /* \"#utility.yul\":20540:20582   */\n      0xffffffffffffffffffffffffffffffffffffffff\n        /* \"#utility.yul\":20533:20538   */\n      dup3\n        /* \"#utility.yul\":20529:20583   */\n      and\n        /* \"#utility.yul\":20518:20583   */\n      swap1\n      pop\n        /* \"#utility.yul\":20442:20589   */\n      swap2\n      swap1\n      pop\n      jump\t// out\n        /* \"#utility.yul\":20595:20777   */\n    tag_381:\n        /* \"#utility.yul\":20672:20677   */\n      0x00\n        /* \"#utility.yul\":20697:20771   */\n      tag_597\n        /* \"#utility.yul\":20736:20770   */\n      tag_598\n        /* \"#utility.yul\":20759:20769   */\n      dup4\n        /* \"#utility.yul\":20736:20770   */\n      tag_379\n      jump\t// in\n    tag_598:\n        /* \"#utility.yul\":20697:20771   */\n      tag_380\n      jump\t// in\n    tag_597:\n        /* \"#utility.yul\":20688:20771   */\n      swap1\n      pop\n        /* \"#utility.yul\":20595:20777   */\n      swap2\n      swap1\n      pop\n      jump\t// out\n        /* \"#utility.yul\":20783:20915   */\n    tag_382:\n        /* \"#utility.yul\":20876:20908   */\n      tag_600\n        /* \"#utility.yul\":20902:20907   */\n      dup2\n        /* \"#utility.yul\":20876:20908   */\n      tag_331\n      jump\t// in\n    tag_600:\n        /* \"#utility.yul\":20871:20874   */\n      dup3\n        /* \"#utility.yul\":20864:20909   */\n      mstore\n        /* \"#utility.yul\":20783:20915   */\n      pop\n      pop\n      jump\t// out\n        /* \"#utility.yul\":20921:21011   */\n    tag_383:\n        /* \"#utility.yul\":20971:20978   */\n      0x00\n        /* \"#utility.yul\":21000:21005   */\n      dup2\n        /* \"#utility.yul\":20989:21005   */\n      swap1\n      pop\n        /* \"#utility.yul\":20921:21011   */\n      swap2\n      swap1\n      pop\n      jump\t// out\n        /* \"#utility.yul\":21017:21183   */\n    tag_384:\n        /* \"#utility.yul\":21086:21091   */\n      0x00\n        /* \"#utility.yul\":21111:21177   */\n      tag_603\n        /* \"#utility.yul\":21142:21176   */\n      tag_604\n        /* \"#utility.yul\":21165:21175   */\n      dup4\n        /* \"#utility.yul\":21142:21176   */\n      tag_379\n      jump\t// in\n    tag_604:\n        /* \"#utility.yul\":21111:21177   */\n      tag_383\n      jump\t// in\n    tag_603:\n        /* \"#utility.yul\":21102:21177   */\n      swap1\n      pop\n        /* \"#utility.yul\":21017:21183   */\n      swap2\n      swap1\n      pop\n      jump\t// out\n        /* \"#utility.yul\":21189:21297   */\n    tag_385:\n        /* \"#utility.yul\":21266:21290   */\n      tag_606\n        /* \"#utility.yul\":21284:21289   */\n      dup2\n        /* \"#utility.yul\":21266:21290   */\n      tag_327\n      jump\t// in\n    tag_606:\n        /* \"#utility.yul\":21261:21264   */\n      dup3\n        /* \"#utility.yul\":21254:21291   */\n      mstore\n        /* \"#utility.yul\":21189:21297   */\n      pop\n      pop\n      jump\t// out\n        /* \"#utility.yul\":21303:21419   */\n    tag_386:\n        /* \"#utility.yul\":21368:21375   */\n      0x00\n        /* \"#utility.yul\":21408:21412   */\n      0xff\n        /* \"#utility.yul\":21401:21406   */\n      dup3\n        /* \"#utility.yul\":21397:21413   */\n      and\n        /* \"#utility.yul\":21386:21413   */\n      swap1\n      pop\n        /* \"#utility.yul\":21303:21419   */\n      swap2\n      swap1\n      pop\n      jump\t// out\n        /* \"#utility.yul\":21425:21621   */\n    tag_387:\n        /* \"#utility.yul\":21509:21514   */\n      0x00\n        /* \"#utility.yul\":21534:21615   */\n      tag_609\n        /* \"#utility.yul\":21580:21614   */\n      tag_610\n        /* \"#utility.yul\":21603:21613   */\n      dup4\n        /* \"#utility.yul\":21580:21614   */\n      tag_379\n      jump\t// in\n    tag_610:\n        /* \"#utility.yul\":21534:21615   */\n      tag_386\n      jump\t// in\n    tag_609:\n        /* \"#utility.yul\":21525:21615   */\n      swap1\n      pop\n        /* \"#utility.yul\":21425:21621   */\n      swap2\n      swap1\n      pop\n      jump\t// out\n        /* \"#utility.yul\":21627:21774   */\n    tag_388:\n        /* \"#utility.yul\":21717:21767   */\n      tag_612\n        /* \"#utility.yul\":21761:21766   */\n      dup2\n        /* \"#utility.yul\":21717:21767   */\n      tag_336\n      jump\t// in\n    tag_612:\n        /* \"#utility.yul\":21712:21715   */\n      dup3\n        /* \"#utility.yul\":21705:21768   */\n      mstore\n        /* \"#utility.yul\":21627:21774   */\n      pop\n      pop\n      jump\t// out\n        /* \"#utility.yul\":21780:21882   */\n    tag_389:\n        /* \"#utility.yul\":21822:21830   */\n      0x00\n        /* \"#utility.yul\":21869:21874   */\n      dup2\n        /* \"#utility.yul\":21866:21867   */\n      0x08\n        /* \"#utility.yul\":21862:21875   */\n      shr\n        /* \"#utility.yul\":21841:21875   */\n      swap1\n      pop\n        /* \"#utility.yul\":21780:21882   */\n      swap2\n      swap1\n      pop\n      jump\t// out\n        /* \"#utility.yul\":21888:21987   */\n    tag_390:\n        /* \"#utility.yul\":21936:21943   */\n      0x00\n        /* \"#utility.yul\":21976:21980   */\n      0xff\n        /* \"#utility.yul\":21969:21974   */\n      dup3\n        /* \"#utility.yul\":21965:21981   */\n      and\n        /* \"#utility.yul\":21954:21981   */\n      swap1\n      pop\n        /* \"#utility.yul\":21888:21987   */\n      swap2\n      swap1\n      pop\n      jump\t// out\n        /* \"#utility.yul\":21993:22155   */\n    tag_391:\n        /* \"#utility.yul\":22060:22065   */\n      0x00\n        /* \"#utility.yul\":22085:22149   */\n      tag_616\n        /* \"#utility.yul\":22114:22148   */\n      tag_617\n        /* \"#utility.yul\":22137:22147   */\n      dup4\n        /* \"#utility.yul\":22114:22148   */\n      tag_389\n      jump\t// in\n    tag_617:\n        /* \"#utility.yul\":22085:22149   */\n      tag_390\n      jump\t// in\n    tag_616:\n        /* \"#utility.yul\":22076:22149   */\n      swap1\n      pop\n        /* \"#utility.yul\":21993:22155   */\n      swap2\n      swap1\n      pop\n      jump\t// out\n        /* \"#utility.yul\":22161:22263   */\n    tag_392:\n        /* \"#utility.yul\":22234:22256   */\n      tag_619\n        /* \"#utility.yul\":22250:22255   */\n      dup2\n        /* \"#utility.yul\":22234:22256   */\n      tag_338\n      jump\t// in\n    tag_619:\n        /* \"#utility.yul\":22229:22232   */\n      dup3\n        /* \"#utility.yul\":22222:22257   */\n      mstore\n        /* \"#utility.yul\":22161:22263   */\n      pop\n      pop\n      jump\t// out\n        /* \"#utility.yul\":22269:22373   */\n    tag_393:\n        /* \"#utility.yul\":22312:22320   */\n      0x00\n        /* \"#utility.yul\":22360:22365   */\n      dup2\n        /* \"#utility.yul\":22356:22358   */\n      0x10\n        /* \"#utility.yul\":22352:22366   */\n      shr\n        /* \"#utility.yul\":22331:22366   */\n      swap1\n      pop\n        /* \"#utility.yul\":22269:22373   */\n      swap2\n      swap1\n      pop\n      jump\t// out\n        /* \"#utility.yul\":22379:22477   */\n    tag_394:\n        /* \"#utility.yul\":22426:22433   */\n      0x00\n        /* \"#utility.yul\":22466:22470   */\n      0xff\n        /* \"#utility.yul\":22459:22464   */\n      dup3\n        /* \"#utility.yul\":22455:22471   */\n      and\n        /* \"#utility.yul\":22444:22471   */\n      swap1\n      pop\n        /* \"#utility.yul\":22379:22477   */\n      swap2\n      swap1\n      pop\n      jump\t// out\n        /* \"#utility.yul\":22483:22644   */\n    tag_395:\n        /* \"#utility.yul\":22549:22554   */\n      0x00\n        /* \"#utility.yul\":22574:22638   */\n      tag_623\n        /* \"#utility.yul\":22602:22637   */\n      tag_624\n        /* \"#utility.yul\":22626:22636   */\n      dup4\n        /* \"#utility.yul\":22602:22637   */\n      tag_393\n      jump\t// in\n    tag_624:\n        /* \"#utility.yul\":22574:22638   */\n      tag_394\n      jump\t// in\n    tag_623:\n        /* \"#utility.yul\":22565:22638   */\n      swap1\n      pop\n        /* \"#utility.yul\":22483:22644   */\n      swap2\n      swap1\n      pop\n      jump\t// out\n        /* \"#utility.yul\":22650:22749   */\n    tag_396:\n        /* \"#utility.yul\":22721:22742   */\n      tag_626\n        /* \"#utility.yul\":22736:22741   */\n      dup2\n        /* \"#utility.yul\":22721:22742   */\n      tag_340\n      jump\t// in\n    tag_626:\n        /* \"#utility.yul\":22716:22719   */\n      dup3\n        /* \"#utility.yul\":22709:22743   */\n      mstore\n        /* \"#utility.yul\":22650:22749   */\n      pop\n      pop\n      jump\t// out\n        /* \"#utility.yul\":22805:24206   */\n    tag_397:\n        /* \"#utility.yul\":22939:22943   */\n      0xa0\n        /* \"#utility.yul\":22934:22937   */\n      dup3\n        /* \"#utility.yul\":22930:22944   */\n      add\n        /* \"#utility.yul\":22970:22971   */\n      0x00\n        /* \"#utility.yul\":23047:23051   */\n      dup1\n        /* \"#utility.yul\":23040:23045   */\n      dup4\n        /* \"#utility.yul\":23036:23052   */\n      add\n        /* \"#utility.yul\":23030:23053   */\n      sload\n        /* \"#utility.yul\":23017:23053   */\n      swap1\n      pop\n        /* \"#utility.yul\":23086:23149   */\n      tag_628\n        /* \"#utility.yul\":23139:23148   */\n      dup2\n        /* \"#utility.yul\":23086:23149   */\n      tag_381\n      jump\t// in\n    tag_628:\n        /* \"#utility.yul\":23162:23241   */\n      tag_629\n        /* \"#utility.yul\":23235:23239   */\n      0x00\n        /* \"#utility.yul\":23230:23233   */\n      dup7\n        /* \"#utility.yul\":23226:23240   */\n      add\n        /* \"#utility.yul\":23212:23224   */\n      dup3\n        /* \"#utility.yul\":23162:23241   */\n      tag_382\n      jump\t// in\n    tag_629:\n        /* \"#utility.yul\":22981:23251   */\n      pop\n        /* \"#utility.yul\":23330:23334   */\n      0x01\n        /* \"#utility.yul\":23323:23328   */\n      dup4\n        /* \"#utility.yul\":23319:23335   */\n      add\n        /* \"#utility.yul\":23313:23336   */\n      sload\n        /* \"#utility.yul\":23300:23336   */\n      swap1\n      pop\n        /* \"#utility.yul\":23369:23424   */\n      tag_630\n        /* \"#utility.yul\":23414:23423   */\n      dup2\n        /* \"#utility.yul\":23369:23424   */\n      tag_384\n      jump\t// in\n    tag_630:\n        /* \"#utility.yul\":23437:23500   */\n      tag_631\n        /* \"#utility.yul\":23494:23498   */\n      0x20\n        /* \"#utility.yul\":23489:23492   */\n      dup7\n        /* \"#utility.yul\":23485:23499   */\n      add\n        /* \"#utility.yul\":23471:23483   */\n      dup3\n        /* \"#utility.yul\":23437:23500   */\n      tag_385\n      jump\t// in\n    tag_631:\n        /* \"#utility.yul\":23261:23510   */\n      pop\n        /* \"#utility.yul\":23587:23591   */\n      0x02\n        /* \"#utility.yul\":23580:23585   */\n      dup4\n        /* \"#utility.yul\":23576:23592   */\n      add\n        /* \"#utility.yul\":23570:23593   */\n      sload\n        /* \"#utility.yul\":23557:23593   */\n      swap1\n      pop\n        /* \"#utility.yul\":23626:23696   */\n      tag_632\n        /* \"#utility.yul\":23686:23695   */\n      dup2\n        /* \"#utility.yul\":23626:23696   */\n      tag_387\n      jump\t// in\n    tag_632:\n        /* \"#utility.yul\":23709:23785   */\n      tag_633\n        /* \"#utility.yul\":23779:23783   */\n      0x40\n        /* \"#utility.yul\":23774:23777   */\n      dup7\n        /* \"#utility.yul\":23770:23784   */\n      add\n        /* \"#utility.yul\":23756:23768   */\n      dup3\n        /* \"#utility.yul\":23709:23785   */\n      tag_388\n      jump\t// in\n    tag_633:\n        /* \"#utility.yul\":23520:23795   */\n      pop\n        /* \"#utility.yul\":23865:23918   */\n      tag_634\n        /* \"#utility.yul\":23908:23917   */\n      dup2\n        /* \"#utility.yul\":23865:23918   */\n      tag_391\n      jump\t// in\n    tag_634:\n        /* \"#utility.yul\":23931:23990   */\n      tag_635\n        /* \"#utility.yul\":23984:23988   */\n      0x60\n        /* \"#utility.yul\":23979:23982   */\n      dup7\n        /* \"#utility.yul\":23975:23989   */\n      add\n        /* \"#utility.yul\":23961:23973   */\n      dup3\n        /* \"#utility.yul\":23931:23990   */\n      tag_392\n      jump\t// in\n    tag_635:\n        /* \"#utility.yul\":23805:24000   */\n      pop\n        /* \"#utility.yul\":24067:24119   */\n      tag_636\n        /* \"#utility.yul\":24109:24118   */\n      dup2\n        /* \"#utility.yul\":24067:24119   */\n      tag_395\n      jump\t// in\n    tag_636:\n        /* \"#utility.yul\":24132:24189   */\n      tag_637\n        /* \"#utility.yul\":24183:24187   */\n      0x80\n        /* \"#utility.yul\":24178:24181   */\n      dup7\n        /* \"#utility.yul\":24174:24188   */\n      add\n        /* \"#utility.yul\":24160:24172   */\n      dup3\n        /* \"#utility.yul\":24132:24189   */\n      tag_396\n      jump\t// in\n    tag_637:\n        /* \"#utility.yul\":24010:24199   */\n      pop\n        /* \"#utility.yul\":22908:24206   */\n      pop\n      pop\n        /* \"#utility.yul\":22805:24206   */\n      pop\n      pop\n      jump\t// out\n        /* \"#utility.yul\":24212:24509   */\n    tag_161:\n        /* \"#utility.yul\":24342:24346   */\n      0x00\n        /* \"#utility.yul\":24380:24383   */\n      0xa0\n        /* \"#utility.yul\":24369:24378   */\n      dup3\n        /* \"#utility.yul\":24365:24384   */\n      add\n        /* \"#utility.yul\":24357:24384   */\n      swap1\n      pop\n        /* \"#utility.yul\":24394:24502   */\n      tag_639\n        /* \"#utility.yul\":24499:24500   */\n      0x00\n        /* \"#utility.yul\":24488:24497   */\n      dup4\n        /* \"#utility.yul\":24484:24501   */\n      add\n        /* \"#utility.yul\":24475:24481   */\n      dup5\n        /* \"#utility.yul\":24394:24502   */\n      tag_397\n      jump\t// in\n    tag_639:\n        /* \"#utility.yul\":24212:24509   */\n      swap3\n      swap2\n      pop\n      pop\n      jump\t// out\n        /* \"#utility.yul\":24515:24706   */\n    tag_168:\n        /* \"#utility.yul\":24555:24558   */\n      0x00\n        /* \"#utility.yul\":24574:24594   */\n      tag_641\n        /* \"#utility.yul\":24592:24593   */\n      dup3\n        /* \"#utility.yul\":24574:24594   */\n      tag_327\n      jump\t// in\n    tag_641:\n        /* \"#utility.yul\":24569:24594   */\n      swap2\n      pop\n        /* \"#utility.yul\":24608:24628   */\n      tag_642\n        /* \"#utility.yul\":24626:24627   */\n      dup4\n        /* \"#utility.yul\":24608:24628   */\n      tag_327\n      jump\t// in\n    tag_642:\n        /* \"#utility.yul\":24603:24628   */\n      swap3\n      pop\n        /* \"#utility.yul\":24651:24652   */\n      dup3\n        /* \"#utility.yul\":24648:24649   */\n      dup3\n        /* \"#utility.yul\":24644:24653   */\n      add\n        /* \"#utility.yul\":24637:24653   */\n      swap1\n      pop\n        /* \"#utility.yul\":24672:24675   */\n      dup1\n        /* \"#utility.yul\":24669:24670   */\n      dup3\n        /* \"#utility.yul\":24666:24676   */\n      gt\n        /* \"#utility.yul\":24663:24699   */\n      iszero\n      tag_643\n      jumpi\n        /* \"#utility.yul\":24679:24697   */\n      tag_644\n      tag_362\n      jump\t// in\n    tag_644:\n        /* \"#utility.yul\":24663:24699   */\n    tag_643:\n        /* \"#utility.yul\":24515:24706   */\n      swap3\n      swap2\n      pop\n      pop\n      jump\t// out\n        /* \"#utility.yul\":24712:24892   */\n    tag_398:\n        /* \"#utility.yul\":24760:24837   */\n      0x4e487b7100000000000000000000000000000000000000000000000000000000\n        /* \"#utility.yul\":24757:24758   */\n      0x00\n        /* \"#utility.yul\":24750:24838   */\n      mstore\n        /* \"#utility.yul\":24857:24861   */\n      0x12\n        /* \"#utility.yul\":24854:24855   */\n      0x04\n        /* \"#utility.yul\":24847:24862   */\n      mstore\n        /* \"#utility.yul\":24881:24885   */\n      0x24\n        /* \"#utility.yul\":24878:24879   */\n      0x00\n        /* \"#utility.yul\":24871:24886   */\n      revert\n        /* \"#utility.yul\":24898:25083   */\n    tag_170:\n        /* \"#utility.yul\":24938:24939   */\n      0x00\n        /* \"#utility.yul\":24955:24975   */\n      tag_647\n        /* \"#utility.yul\":24973:24974   */\n      dup3\n        /* \"#utility.yul\":24955:24975   */\n      tag_327\n      jump\t// in\n    tag_647:\n        /* \"#utility.yul\":24950:24975   */\n      swap2\n      pop\n        /* \"#utility.yul\":24989:25009   */\n      tag_648\n        /* \"#utility.yul\":25007:25008   */\n      dup4\n        /* \"#utility.yul\":24989:25009   */\n      tag_327\n      jump\t// in\n    tag_648:\n        /* \"#utility.yul\":24984:25009   */\n      swap3\n      pop\n        /* \"#utility.yul\":25028:25029   */\n      dup3\n        /* \"#utility.yul\":25018:25053   */\n      tag_649\n      jumpi\n        /* \"#utility.yul\":25033:25051   */\n      tag_650\n      tag_398\n      jump\t// in\n    tag_650:\n        /* \"#utility.yul\":25018:25053   */\n    tag_649:\n        /* \"#utility.yul\":25075:25076   */\n      dup3\n        /* \"#utility.yul\":25072:25073   */\n      dup3\n        /* \"#utility.yul\":25068:25077   */\n      div\n        /* \"#utility.yul\":25063:25077   */\n      swap1\n      pop\n        /* \"#utility.yul\":24898:25083   */\n      swap3\n      swap2\n      pop\n      pop\n      jump\t// out\n        /* \"#utility.yul\":25089:25337   */\n    tag_399:\n        /* \"#utility.yul\":25229:25263   */\n      0x5468652066756e647320696e207468697320636f6e7472616374206172652074\n        /* \"#utility.yul\":25225:25226   */\n      0x00\n        /* \"#utility.yul\":25217:25223   */\n      dup3\n        /* \"#utility.yul\":25213:25227   */\n      add\n        /* \"#utility.yul\":25206:25264   */\n      mstore\n        /* \"#utility.yul\":25298:25329   */\n      0x6f6f206c6f7720616e64206e65656420746f206265206869676865722e000000\n        /* \"#utility.yul\":25293:25295   */\n      0x20\n        /* \"#utility.yul\":25285:25291   */\n      dup3\n        /* \"#utility.yul\":25281:25296   */\n      add\n        /* \"#utility.yul\":25274:25330   */\n      mstore\n        /* \"#utility.yul\":25089:25337   */\n      pop\n      jump\t// out\n        /* \"#utility.yul\":25343:25709   */\n    tag_400:\n        /* \"#utility.yul\":25485:25488   */\n      0x00\n        /* \"#utility.yul\":25506:25573   */\n      tag_653\n        /* \"#utility.yul\":25570:25572   */\n      0x3d\n        /* \"#utility.yul\":25565:25568   */\n      dup4\n        /* \"#utility.yul\":25506:25573   */\n      tag_355\n      jump\t// in\n    tag_653:\n        /* \"#utility.yul\":25499:25573   */\n      swap2\n      pop\n        /* \"#utility.yul\":25582:25675   */\n      tag_654\n        /* \"#utility.yul\":25671:25674   */\n      dup3\n        /* \"#utility.yul\":25582:25675   */\n      tag_399\n      jump\t// in\n    tag_654:\n        /* \"#utility.yul\":25700:25702   */\n      0x40\n        /* \"#utility.yul\":25695:25698   */\n      dup3\n        /* \"#utility.yul\":25691:25703   */\n      add\n        /* \"#utility.yul\":25684:25703   */\n      swap1\n      pop\n        /* \"#utility.yul\":25343:25709   */\n      swap2\n      swap1\n      pop\n      jump\t// out\n        /* \"#utility.yul\":25715:26134   */\n    tag_173:\n        /* \"#utility.yul\":25881:25885   */\n      0x00\n        /* \"#utility.yul\":25919:25921   */\n      0x20\n        /* \"#utility.yul\":25908:25917   */\n      dup3\n        /* \"#utility.yul\":25904:25922   */\n      add\n        /* \"#utility.yul\":25896:25922   */\n      swap1\n      pop\n        /* \"#utility.yul\":25968:25977   */\n      dup2\n        /* \"#utility.yul\":25962:25966   */\n      dup2\n        /* \"#utility.yul\":25958:25978   */\n      sub\n        /* \"#utility.yul\":25954:25955   */\n      0x00\n        /* \"#utility.yul\":25943:25952   */\n      dup4\n        /* \"#utility.yul\":25939:25956   */\n      add\n        /* \"#utility.yul\":25932:25979   */\n      mstore\n        /* \"#utility.yul\":25996:26127   */\n      tag_656\n        /* \"#utility.yul\":26122:26126   */\n      dup2\n        /* \"#utility.yul\":25996:26127   */\n      tag_400\n      jump\t// in\n    tag_656:\n        /* \"#utility.yul\":25988:26127   */\n      swap1\n      pop\n        /* \"#utility.yul\":25715:26134   */\n      swap2\n      swap1\n      pop\n      jump\t// out\n        /* \"#utility.yul\":26140:26472   */\n    tag_177:\n        /* \"#utility.yul\":26261:26265   */\n      0x00\n        /* \"#utility.yul\":26299:26301   */\n      0x40\n        /* \"#utility.yul\":26288:26297   */\n      dup3\n        /* \"#utility.yul\":26284:26302   */\n      add\n        /* \"#utility.yul\":26276:26302   */\n      swap1\n      pop\n        /* \"#utility.yul\":26312:26383   */\n      tag_658\n        /* \"#utility.yul\":26380:26381   */\n      0x00\n        /* \"#utility.yul\":26369:26378   */\n      dup4\n        /* \"#utility.yul\":26365:26382   */\n      add\n        /* \"#utility.yul\":26356:26362   */\n      dup6\n        /* \"#utility.yul\":26312:26383   */\n      tag_333\n      jump\t// in\n    tag_658:\n        /* \"#utility.yul\":26393:26465   */\n      tag_659\n        /* \"#utility.yul\":26461:26463   */\n      0x20\n        /* \"#utility.yul\":26450:26459   */\n      dup4\n        /* \"#utility.yul\":26446:26464   */\n      add\n        /* \"#utility.yul\":26437:26443   */\n      dup5\n        /* \"#utility.yul\":26393:26465   */\n      tag_333\n      jump\t// in\n    tag_659:\n        /* \"#utility.yul\":26140:26472   */\n      swap4\n      swap3\n      pop\n      pop\n      pop\n      jump\t// out\n        /* \"#utility.yul\":26478:26656   */\n    tag_401:\n        /* \"#utility.yul\":26618:26648   */\n      0x54686520726571756573742049447320646f206e6f74206d6174636800000000\n        /* \"#utility.yul\":26614:26615   */\n      0x00\n        /* \"#utility.yul\":26606:26612   */\n      dup3\n        /* \"#utility.yul\":26602:26616   */\n      add\n        /* \"#utility.yul\":26595:26649   */\n      mstore\n        /* \"#utility.yul\":26478:26656   */\n      pop\n      jump\t// out\n        /* \"#utility.yul\":26662:27028   */\n    tag_402:\n        /* \"#utility.yul\":26804:26807   */\n      0x00\n        /* \"#utility.yul\":26825:26892   */\n      tag_662\n        /* \"#utility.yul\":26889:26891   */\n      0x1c\n        /* \"#utility.yul\":26884:26887   */\n      dup4\n        /* \"#utility.yul\":26825:26892   */\n      tag_355\n      jump\t// in\n    tag_662:\n        /* \"#utility.yul\":26818:26892   */\n      swap2\n      pop\n        /* \"#utility.yul\":26901:26994   */\n      tag_663\n        /* \"#utility.yul\":26990:26993   */\n      dup3\n        /* \"#utility.yul\":26901:26994   */\n      tag_401\n      jump\t// in\n    tag_663:\n        /* \"#utility.yul\":27019:27021   */\n      0x20\n        /* \"#utility.yul\":27014:27017   */\n      dup3\n        /* \"#utility.yul\":27010:27022   */\n      add\n        /* \"#utility.yul\":27003:27022   */\n      swap1\n      pop\n        /* \"#utility.yul\":26662:27028   */\n      swap2\n      swap1\n      pop\n      jump\t// out\n        /* \"#utility.yul\":27034:27453   */\n    tag_183:\n        /* \"#utility.yul\":27200:27204   */\n      0x00\n        /* \"#utility.yul\":27238:27240   */\n      0x20\n        /* \"#utility.yul\":27227:27236   */\n      dup3\n        /* \"#utility.yul\":27223:27241   */\n      add\n        /* \"#utility.yul\":27215:27241   */\n      swap1\n      pop\n        /* \"#utility.yul\":27287:27296   */\n      dup2\n        /* \"#utility.yul\":27281:27285   */\n      dup2\n        /* \"#utility.yul\":27277:27297   */\n      sub\n        /* \"#utility.yul\":27273:27274   */\n      0x00\n        /* \"#utility.yul\":27262:27271   */\n      dup4\n        /* \"#utility.yul\":27258:27275   */\n      add\n        /* \"#utility.yul\":27251:27298   */\n      mstore\n        /* \"#utility.yul\":27315:27446   */\n      tag_665\n        /* \"#utility.yul\":27441:27445   */\n      dup2\n        /* \"#utility.yul\":27315:27446   */\n      tag_402\n      jump\t// in\n    tag_665:\n        /* \"#utility.yul\":27307:27446   */\n      swap1\n      pop\n        /* \"#utility.yul\":27034:27453   */\n      swap2\n      swap1\n      pop\n      jump\t// out\n        /* \"#utility.yul\":27459:27639   */\n    tag_186:\n        /* \"#utility.yul\":27507:27584   */\n      0x4e487b7100000000000000000000000000000000000000000000000000000000\n        /* \"#utility.yul\":27504:27505   */\n      0x00\n        /* \"#utility.yul\":27497:27585   */\n      mstore\n        /* \"#utility.yul\":27604:27608   */\n      0x32\n        /* \"#utility.yul\":27601:27602   */\n      0x04\n        /* \"#utility.yul\":27594:27609   */\n      mstore\n        /* \"#utility.yul\":27628:27632   */\n      0x24\n        /* \"#utility.yul\":27625:27626   */\n      0x00\n        /* \"#utility.yul\":27618:27633   */\n      revert\n        /* \"#utility.yul\":27645:27821   */\n    tag_188:\n        /* \"#utility.yul\":27677:27678   */\n      0x00\n        /* \"#utility.yul\":27694:27714   */\n      tag_668\n        /* \"#utility.yul\":27712:27713   */\n      dup3\n        /* \"#utility.yul\":27694:27714   */\n      tag_327\n      jump\t// in\n    tag_668:\n        /* \"#utility.yul\":27689:27714   */\n      swap2\n      pop\n        /* \"#utility.yul\":27728:27748   */\n      tag_669\n        /* \"#utility.yul\":27746:27747   */\n      dup4\n        /* \"#utility.yul\":27728:27748   */\n      tag_327\n      jump\t// in\n    tag_669:\n        /* \"#utility.yul\":27723:27748   */\n      swap3\n      pop\n        /* \"#utility.yul\":27767:27768   */\n      dup3\n        /* \"#utility.yul\":27757:27792   */\n      tag_670\n      jumpi\n        /* \"#utility.yul\":27772:27790   */\n      tag_671\n      tag_398\n      jump\t// in\n    tag_671:\n        /* \"#utility.yul\":27757:27792   */\n    tag_670:\n        /* \"#utility.yul\":27813:27814   */\n      dup3\n        /* \"#utility.yul\":27810:27811   */\n      dup3\n        /* \"#utility.yul\":27806:27815   */\n      mod\n        /* \"#utility.yul\":27801:27815   */\n      swap1\n      pop\n        /* \"#utility.yul\":27645:27821   */\n      swap3\n      swap2\n      pop\n      pop\n      jump\t// out\n        /* \"#utility.yul\":27827:28002   */\n    tag_403:\n        /* \"#utility.yul\":27967:27994   */\n      0x41207061796f757420686173206265656e2063616c6c65642e00000000000000\n        /* \"#utility.yul\":27963:27964   */\n      0x00\n        /* \"#utility.yul\":27955:27961   */\n      dup3\n        /* \"#utility.yul\":27951:27965   */\n      add\n        /* \"#utility.yul\":27944:27995   */\n      mstore\n        /* \"#utility.yul\":27827:28002   */\n      pop\n      jump\t// out\n        /* \"#utility.yul\":28008:28374   */\n    tag_404:\n        /* \"#utility.yul\":28150:28153   */\n      0x00\n        /* \"#utility.yul\":28171:28238   */\n      tag_674\n        /* \"#utility.yul\":28235:28237   */\n      0x19\n        /* \"#utility.yul\":28230:28233   */\n      dup4\n        /* \"#utility.yul\":28171:28238   */\n      tag_355\n      jump\t// in\n    tag_674:\n        /* \"#utility.yul\":28164:28238   */\n      swap2\n      pop\n        /* \"#utility.yul\":28247:28340   */\n      tag_675\n        /* \"#utility.yul\":28336:28339   */\n      dup3\n        /* \"#utility.yul\":28247:28340   */\n      tag_403\n      jump\t// in\n    tag_675:\n        /* \"#utility.yul\":28365:28367   */\n      0x20\n        /* \"#utility.yul\":28360:28363   */\n      dup3\n        /* \"#utility.yul\":28356:28368   */\n      add\n        /* \"#utility.yul\":28349:28368   */\n      swap1\n      pop\n        /* \"#utility.yul\":28008:28374   */\n      swap2\n      swap1\n      pop\n      jump\t// out\n        /* \"#utility.yul\":28380:28799   */\n    tag_190:\n        /* \"#utility.yul\":28546:28550   */\n      0x00\n        /* \"#utility.yul\":28584:28586   */\n      0x20\n        /* \"#utility.yul\":28573:28582   */\n      dup3\n        /* \"#utility.yul\":28569:28587   */\n      add\n        /* \"#utility.yul\":28561:28587   */\n      swap1\n      pop\n        /* \"#utility.yul\":28633:28642   */\n      dup2\n        /* \"#utility.yul\":28627:28631   */\n      dup2\n        /* \"#utility.yul\":28623:28643   */\n      sub\n        /* \"#utility.yul\":28619:28620   */\n      0x00\n        /* \"#utility.yul\":28608:28617   */\n      dup4\n        /* \"#utility.yul\":28604:28621   */\n      add\n        /* \"#utility.yul\":28597:28644   */\n      mstore\n        /* \"#utility.yul\":28661:28792   */\n      tag_677\n        /* \"#utility.yul\":28787:28791   */\n      dup2\n        /* \"#utility.yul\":28661:28792   */\n      tag_404\n      jump\t// in\n    tag_677:\n        /* \"#utility.yul\":28653:28792   */\n      swap1\n      pop\n        /* \"#utility.yul\":28380:28799   */\n      swap2\n      swap1\n      pop\n      jump\t// out\n        /* \"#utility.yul\":28805:28882   */\n    tag_405:\n        /* \"#utility.yul\":28842:28849   */\n      0x00\n        /* \"#utility.yul\":28871:28876   */\n      dup2\n        /* \"#utility.yul\":28860:28876   */\n      swap1\n      pop\n        /* \"#utility.yul\":28805:28882   */\n      swap2\n      swap1\n      pop\n      jump\t// out\n        /* \"#utility.yul\":28888:29006   */\n    tag_406:\n        /* \"#utility.yul\":28975:28999   */\n      tag_680\n        /* \"#utility.yul\":28993:28998   */\n      dup2\n        /* \"#utility.yul\":28975:28999   */\n      tag_405\n      jump\t// in\n    tag_680:\n        /* \"#utility.yul\":28970:28973   */\n      dup3\n        /* \"#utility.yul\":28963:29000   */\n      mstore\n        /* \"#utility.yul\":28888:29006   */\n      pop\n      pop\n      jump\t// out\n        /* \"#utility.yul\":29012:29113   */\n    tag_407:\n        /* \"#utility.yul\":29048:29055   */\n      0x00\n        /* \"#utility.yul\":29088:29106   */\n      0xffffffffffffffff\n        /* \"#utility.yul\":29081:29086   */\n      dup3\n        /* \"#utility.yul\":29077:29107   */\n      and\n        /* \"#utility.yul\":29066:29107   */\n      swap1\n      pop\n        /* \"#utility.yul\":29012:29113   */\n      swap2\n      swap1\n      pop\n      jump\t// out\n        /* \"#utility.yul\":29119:29234   */\n    tag_408:\n        /* \"#utility.yul\":29204:29227   */\n      tag_683\n        /* \"#utility.yul\":29221:29226   */\n      dup2\n        /* \"#utility.yul\":29204:29227   */\n      tag_407\n      jump\t// in\n    tag_683:\n        /* \"#utility.yul\":29199:29202   */\n      dup3\n        /* \"#utility.yul\":29192:29228   */\n      mstore\n        /* \"#utility.yul\":29119:29234   */\n      pop\n      pop\n      jump\t// out\n        /* \"#utility.yul\":29240:29329   */\n    tag_409:\n        /* \"#utility.yul\":29276:29283   */\n      0x00\n        /* \"#utility.yul\":29316:29322   */\n      0xffff\n        /* \"#utility.yul\":29309:29314   */\n      dup3\n        /* \"#utility.yul\":29305:29323   */\n      and\n        /* \"#utility.yul\":29294:29323   */\n      swap1\n      pop\n        /* \"#utility.yul\":29240:29329   */\n      swap2\n      swap1\n      pop\n      jump\t// out\n        /* \"#utility.yul\":29335:29450   */\n    tag_410:\n        /* \"#utility.yul\":29420:29443   */\n      tag_686\n        /* \"#utility.yul\":29437:29442   */\n      dup2\n        /* \"#utility.yul\":29420:29443   */\n      tag_409\n      jump\t// in\n    tag_686:\n        /* \"#utility.yul\":29415:29418   */\n      dup3\n        /* \"#utility.yul\":29408:29444   */\n      mstore\n        /* \"#utility.yul\":29335:29450   */\n      pop\n      pop\n      jump\t// out\n        /* \"#utility.yul\":29456:29549   */\n    tag_411:\n        /* \"#utility.yul\":29492:29499   */\n      0x00\n        /* \"#utility.yul\":29532:29542   */\n      0xffffffff\n        /* \"#utility.yul\":29525:29530   */\n      dup3\n        /* \"#utility.yul\":29521:29543   */\n      and\n        /* \"#utility.yul\":29510:29543   */\n      swap1\n      pop\n        /* \"#utility.yul\":29456:29549   */\n      swap2\n      swap1\n      pop\n      jump\t// out\n        /* \"#utility.yul\":29555:29670   */\n    tag_412:\n        /* \"#utility.yul\":29640:29663   */\n      tag_689\n        /* \"#utility.yul\":29657:29662   */\n      dup2\n        /* \"#utility.yul\":29640:29663   */\n      tag_411\n      jump\t// in\n    tag_689:\n        /* \"#utility.yul\":29635:29638   */\n      dup3\n        /* \"#utility.yul\":29628:29664   */\n      mstore\n        /* \"#utility.yul\":29555:29670   */\n      pop\n      pop\n      jump\t// out\n        /* \"#utility.yul\":29676:30324   */\n    tag_195:\n        /* \"#utility.yul\":29873:29877   */\n      0x00\n        /* \"#utility.yul\":29911:29914   */\n      0xa0\n        /* \"#utility.yul\":29900:29909   */\n      dup3\n        /* \"#utility.yul\":29896:29915   */\n      add\n        /* \"#utility.yul\":29888:29915   */\n      swap1\n      pop\n        /* \"#utility.yul\":29925:29996   */\n      tag_691\n        /* \"#utility.yul\":29993:29994   */\n      0x00\n        /* \"#utility.yul\":29982:29991   */\n      dup4\n        /* \"#utility.yul\":29978:29995   */\n      add\n        /* \"#utility.yul\":29969:29975   */\n      dup9\n        /* \"#utility.yul\":29925:29996   */\n      tag_406\n      jump\t// in\n    tag_691:\n        /* \"#utility.yul\":30006:30076   */\n      tag_692\n        /* \"#utility.yul\":30072:30074   */\n      0x20\n        /* \"#utility.yul\":30061:30070   */\n      dup4\n        /* \"#utility.yul\":30057:30075   */\n      add\n        /* \"#utility.yul\":30048:30054   */\n      dup8\n        /* \"#utility.yul\":30006:30076   */\n      tag_408\n      jump\t// in\n    tag_692:\n        /* \"#utility.yul\":30086:30156   */\n      tag_693\n        /* \"#utility.yul\":30152:30154   */\n      0x40\n        /* \"#utility.yul\":30141:30150   */\n      dup4\n        /* \"#utility.yul\":30137:30155   */\n      add\n        /* \"#utility.yul\":30128:30134   */\n      dup7\n        /* \"#utility.yul\":30086:30156   */\n      tag_410\n      jump\t// in\n    tag_693:\n        /* \"#utility.yul\":30166:30236   */\n      tag_694\n        /* \"#utility.yul\":30232:30234   */\n      0x60\n        /* \"#utility.yul\":30221:30230   */\n      dup4\n        /* \"#utility.yul\":30217:30235   */\n      add\n        /* \"#utility.yul\":30208:30214   */\n      dup6\n        /* \"#utility.yul\":30166:30236   */\n      tag_412\n      jump\t// in\n    tag_694:\n        /* \"#utility.yul\":30246:30317   */\n      tag_695\n        /* \"#utility.yul\":30312:30315   */\n      0x80\n        /* \"#utility.yul\":30301:30310   */\n      dup4\n        /* \"#utility.yul\":30297:30316   */\n      add\n        /* \"#utility.yul\":30288:30294   */\n      dup5\n        /* \"#utility.yul\":30246:30317   */\n      tag_412\n      jump\t// in\n    tag_695:\n        /* \"#utility.yul\":29676:30324   */\n      swap7\n      swap6\n      pop\n      pop\n      pop\n      pop\n      pop\n      pop\n      jump\t// out\n        /* \"#utility.yul\":30330:30473   */\n    tag_413:\n        /* \"#utility.yul\":30387:30392   */\n      0x00\n        /* \"#utility.yul\":30418:30424   */\n      dup2\n        /* \"#utility.yul\":30412:30425   */\n      mload\n        /* \"#utility.yul\":30403:30425   */\n      swap1\n      pop\n        /* \"#utility.yul\":30434:30467   */\n      tag_697\n        /* \"#utility.yul\":30461:30466   */\n      dup2\n        /* \"#utility.yul\":30434:30467   */\n      tag_328\n      jump\t// in\n    tag_697:\n        /* \"#utility.yul\":30330:30473   */\n      swap3\n      swap2\n      pop\n      pop\n      jump\t// out\n        /* \"#utility.yul\":30479:30830   */\n    tag_199:\n        /* \"#utility.yul\":30549:30555   */\n      0x00\n        /* \"#utility.yul\":30598:30600   */\n      0x20\n        /* \"#utility.yul\":30586:30595   */\n      dup3\n        /* \"#utility.yul\":30577:30584   */\n      dup5\n        /* \"#utility.yul\":30573:30596   */\n      sub\n        /* \"#utility.yul\":30569:30601   */\n      slt\n        /* \"#utility.yul\":30566:30685   */\n      iszero\n      tag_699\n      jumpi\n        /* \"#utility.yul\":30604:30683   */\n      tag_700\n      tag_325\n      jump\t// in\n    tag_700:\n        /* \"#utility.yul\":30566:30685   */\n    tag_699:\n        /* \"#utility.yul\":30724:30725   */\n      0x00\n        /* \"#utility.yul\":30749:30813   */\n      tag_701\n        /* \"#utility.yul\":30805:30812   */\n      dup5\n        /* \"#utility.yul\":30796:30802   */\n      dup3\n        /* \"#utility.yul\":30785:30794   */\n      dup6\n        /* \"#utility.yul\":30781:30803   */\n      add\n        /* \"#utility.yul\":30749:30813   */\n      tag_413\n      jump\t// in\n    tag_701:\n        /* \"#utility.yul\":30739:30813   */\n      swap2\n      pop\n        /* \"#utility.yul\":30695:30823   */\n      pop\n        /* \"#utility.yul\":30479:30830   */\n      swap3\n      swap2\n      pop\n      pop\n      jump\t// out\n        /* \"#utility.yul\":30836:31246   */\n    tag_210:\n        /* \"#utility.yul\":30876:30883   */\n      0x00\n        /* \"#utility.yul\":30899:30919   */\n      tag_703\n        /* \"#utility.yul\":30917:30918   */\n      dup3\n        /* \"#utility.yul\":30899:30919   */\n      tag_327\n      jump\t// in\n    tag_703:\n        /* \"#utility.yul\":30894:30919   */\n      swap2\n      pop\n        /* \"#utility.yul\":30933:30953   */\n      tag_704\n        /* \"#utility.yul\":30951:30952   */\n      dup4\n        /* \"#utility.yul\":30933:30953   */\n      tag_327\n      jump\t// in\n    tag_704:\n        /* \"#utility.yul\":30928:30953   */\n      swap3\n      pop\n        /* \"#utility.yul\":30988:30989   */\n      dup3\n        /* \"#utility.yul\":30985:30986   */\n      dup3\n        /* \"#utility.yul\":30981:30990   */\n      mul\n        /* \"#utility.yul\":31010:31040   */\n      tag_705\n        /* \"#utility.yul\":31028:31039   */\n      dup2\n        /* \"#utility.yul\":31010:31040   */\n      tag_327\n      jump\t// in\n    tag_705:\n        /* \"#utility.yul\":30999:31040   */\n      swap2\n      pop\n        /* \"#utility.yul\":31189:31190   */\n      dup3\n        /* \"#utility.yul\":31180:31187   */\n      dup3\n        /* \"#utility.yul\":31176:31191   */\n      div\n        /* \"#utility.yul\":31173:31174   */\n      dup5\n        /* \"#utility.yul\":31170:31192   */\n      eq\n        /* \"#utility.yul\":31150:31151   */\n      dup4\n        /* \"#utility.yul\":31143:31152   */\n      iszero\n        /* \"#utility.yul\":31123:31206   */\n      or\n        /* \"#utility.yul\":31100:31239   */\n      tag_706\n      jumpi\n        /* \"#utility.yul\":31219:31237   */\n      tag_707\n      tag_362\n      jump\t// in\n    tag_707:\n        /* \"#utility.yul\":31100:31239   */\n    tag_706:\n        /* \"#utility.yul\":30884:31246   */\n      pop\n        /* \"#utility.yul\":30836:31246   */\n      swap3\n      swap2\n      pop\n      pop\n      jump\t// out\n        /* \"#utility.yul\":31252:31443   */\n    tag_225:\n        /* \"#utility.yul\":31290:31294   */\n      0x00\n        /* \"#utility.yul\":31310:31328   */\n      tag_709\n        /* \"#utility.yul\":31326:31327   */\n      dup3\n        /* \"#utility.yul\":31310:31328   */\n      tag_338\n      jump\t// in\n    tag_709:\n        /* \"#utility.yul\":31305:31328   */\n      swap2\n      pop\n        /* \"#utility.yul\":31342:31360   */\n      tag_710\n        /* \"#utility.yul\":31358:31359   */\n      dup4\n        /* \"#utility.yul\":31342:31360   */\n      tag_338\n      jump\t// in\n    tag_710:\n        /* \"#utility.yul\":31337:31360   */\n      swap3\n      pop\n        /* \"#utility.yul\":31384:31385   */\n      dup3\n        /* \"#utility.yul\":31381:31382   */\n      dup3\n        /* \"#utility.yul\":31377:31386   */\n      sub\n        /* \"#utility.yul\":31369:31386   */\n      swap1\n      pop\n        /* \"#utility.yul\":31408:31412   */\n      0xff\n        /* \"#utility.yul\":31402:31406   */\n      dup2\n        /* \"#utility.yul\":31399:31413   */\n      gt\n        /* \"#utility.yul\":31396:31436   */\n      iszero\n      tag_711\n      jumpi\n        /* \"#utility.yul\":31416:31434   */\n      tag_712\n      tag_362\n      jump\t// in\n    tag_712:\n        /* \"#utility.yul\":31396:31436   */\n    tag_711:\n        /* \"#utility.yul\":31252:31443   */\n      swap3\n      swap2\n      pop\n      pop\n      jump\t// out\n        /* \"#utility.yul\":31449:31720   */\n    tag_227:\n        /* \"#utility.yul\":31487:31494   */\n      0x00\n        /* \"#utility.yul\":31510:31528   */\n      tag_714\n        /* \"#utility.yul\":31526:31527   */\n      dup3\n        /* \"#utility.yul\":31510:31528   */\n      tag_338\n      jump\t// in\n    tag_714:\n        /* \"#utility.yul\":31505:31528   */\n      swap2\n      pop\n        /* \"#utility.yul\":31542:31560   */\n      tag_715\n        /* \"#utility.yul\":31558:31559   */\n      dup4\n        /* \"#utility.yul\":31542:31560   */\n      tag_338\n      jump\t// in\n    tag_715:\n        /* \"#utility.yul\":31537:31560   */\n      swap3\n      pop\n        /* \"#utility.yul\":31595:31596   */\n      dup3\n        /* \"#utility.yul\":31592:31593   */\n      dup3\n        /* \"#utility.yul\":31588:31597   */\n      mul\n        /* \"#utility.yul\":31617:31645   */\n      tag_716\n        /* \"#utility.yul\":31633:31644   */\n      dup2\n        /* \"#utility.yul\":31617:31645   */\n      tag_338\n      jump\t// in\n    tag_716:\n        /* \"#utility.yul\":31606:31645   */\n      swap2\n      pop\n        /* \"#utility.yul\":31677:31688   */\n      dup1\n        /* \"#utility.yul\":31668:31675   */\n      dup3\n        /* \"#utility.yul\":31665:31689   */\n      eq\n        /* \"#utility.yul\":31655:31713   */\n      tag_717\n      jumpi\n        /* \"#utility.yul\":31693:31711   */\n      tag_718\n      tag_362\n      jump\t// in\n    tag_718:\n        /* \"#utility.yul\":31655:31713   */\n    tag_717:\n        /* \"#utility.yul\":31495:31720   */\n      pop\n        /* \"#utility.yul\":31449:31720   */\n      swap3\n      swap2\n      pop\n      pop\n      jump\t// out\n        /* \"#utility.yul\":31726:31894   */\n    tag_414:\n        /* \"#utility.yul\":31866:31886   */\n      0x5468652067616d652068617320656e6465640000000000000000000000000000\n        /* \"#utility.yul\":31862:31863   */\n      0x00\n        /* \"#utility.yul\":31854:31860   */\n      dup3\n        /* \"#utility.yul\":31850:31864   */\n      add\n        /* \"#utility.yul\":31843:31887   */\n      mstore\n        /* \"#utility.yul\":31726:31894   */\n      pop\n      jump\t// out\n        /* \"#utility.yul\":31900:32266   */\n    tag_415:\n        /* \"#utility.yul\":32042:32045   */\n      0x00\n        /* \"#utility.yul\":32063:32130   */\n      tag_721\n        /* \"#utility.yul\":32127:32129   */\n      0x12\n        /* \"#utility.yul\":32122:32125   */\n      dup4\n        /* \"#utility.yul\":32063:32130   */\n      tag_355\n      jump\t// in\n    tag_721:\n        /* \"#utility.yul\":32056:32130   */\n      swap2\n      pop\n        /* \"#utility.yul\":32139:32232   */\n      tag_722\n        /* \"#utility.yul\":32228:32231   */\n      dup3\n        /* \"#utility.yul\":32139:32232   */\n      tag_414\n      jump\t// in\n    tag_722:\n        /* \"#utility.yul\":32257:32259   */\n      0x20\n        /* \"#utility.yul\":32252:32255   */\n      dup3\n        /* \"#utility.yul\":32248:32260   */\n      add\n        /* \"#utility.yul\":32241:32260   */\n      swap1\n      pop\n        /* \"#utility.yul\":31900:32266   */\n      swap2\n      swap1\n      pop\n      jump\t// out\n        /* \"#utility.yul\":32272:32691   */\n    tag_303:\n        /* \"#utility.yul\":32438:32442   */\n      0x00\n        /* \"#utility.yul\":32476:32478   */\n      0x20\n        /* \"#utility.yul\":32465:32474   */\n      dup3\n        /* \"#utility.yul\":32461:32479   */\n      add\n        /* \"#utility.yul\":32453:32479   */\n      swap1\n      pop\n        /* \"#utility.yul\":32525:32534   */\n      dup2\n        /* \"#utility.yul\":32519:32523   */\n      dup2\n        /* \"#utility.yul\":32515:32535   */\n      sub\n        /* \"#utility.yul\":32511:32512   */\n      0x00\n        /* \"#utility.yul\":32500:32509   */\n      dup4\n        /* \"#utility.yul\":32496:32513   */\n      add\n        /* \"#utility.yul\":32489:32536   */\n      mstore\n        /* \"#utility.yul\":32553:32684   */\n      tag_724\n        /* \"#utility.yul\":32679:32683   */\n      dup2\n        /* \"#utility.yul\":32553:32684   */\n      tag_415\n      jump\t// in\n    tag_724:\n        /* \"#utility.yul\":32545:32684   */\n      swap1\n      pop\n        /* \"#utility.yul\":32272:32691   */\n      swap2\n      swap1\n      pop\n      jump\t// out\n        /* \"#utility.yul\":32697:32862   */\n    tag_416:\n        /* \"#utility.yul\":32837:32854   */\n      0x506c617965722068617320776f6e2e0000000000000000000000000000000000\n        /* \"#utility.yul\":32833:32834   */\n      0x00\n        /* \"#utility.yul\":32825:32831   */\n      dup3\n        /* \"#utility.yul\":32821:32835   */\n      add\n        /* \"#utility.yul\":32814:32855   */\n      mstore\n        /* \"#utility.yul\":32697:32862   */\n      pop\n      jump\t// out\n        /* \"#utility.yul\":32868:33234   */\n    tag_417:\n        /* \"#utility.yul\":33010:33013   */\n      0x00\n        /* \"#utility.yul\":33031:33098   */\n      tag_727\n        /* \"#utility.yul\":33095:33097   */\n      0x0f\n        /* \"#utility.yul\":33090:33093   */\n      dup4\n        /* \"#utility.yul\":33031:33098   */\n      tag_355\n      jump\t// in\n    tag_727:\n        /* \"#utility.yul\":33024:33098   */\n      swap2\n      pop\n        /* \"#utility.yul\":33107:33200   */\n      tag_728\n        /* \"#utility.yul\":33196:33199   */\n      dup3\n        /* \"#utility.yul\":33107:33200   */\n      tag_416\n      jump\t// in\n    tag_728:\n        /* \"#utility.yul\":33225:33227   */\n      0x20\n        /* \"#utility.yul\":33220:33223   */\n      dup3\n        /* \"#utility.yul\":33216:33228   */\n      add\n        /* \"#utility.yul\":33209:33228   */\n      swap1\n      pop\n        /* \"#utility.yul\":32868:33234   */\n      swap2\n      swap1\n      pop\n      jump\t// out\n        /* \"#utility.yul\":33240:33879   */\n    tag_307:\n        /* \"#utility.yul\":33462:33466   */\n      0x00\n        /* \"#utility.yul\":33500:33502   */\n      0x60\n        /* \"#utility.yul\":33489:33498   */\n      dup3\n        /* \"#utility.yul\":33485:33503   */\n      add\n        /* \"#utility.yul\":33477:33503   */\n      swap1\n      pop\n        /* \"#utility.yul\":33513:33584   */\n      tag_730\n        /* \"#utility.yul\":33581:33582   */\n      0x00\n        /* \"#utility.yul\":33570:33579   */\n      dup4\n        /* \"#utility.yul\":33566:33583   */\n      add\n        /* \"#utility.yul\":33557:33563   */\n      dup6\n        /* \"#utility.yul\":33513:33584   */\n      tag_364\n      jump\t// in\n    tag_730:\n        /* \"#utility.yul\":33631:33640   */\n      dup2\n        /* \"#utility.yul\":33625:33629   */\n      dup2\n        /* \"#utility.yul\":33621:33641   */\n      sub\n        /* \"#utility.yul\":33616:33618   */\n      0x20\n        /* \"#utility.yul\":33605:33614   */\n      dup4\n        /* \"#utility.yul\":33601:33619   */\n      add\n        /* \"#utility.yul\":33594:33642   */\n      mstore\n        /* \"#utility.yul\":33659:33790   */\n      tag_731\n        /* \"#utility.yul\":33785:33789   */\n      dup2\n        /* \"#utility.yul\":33659:33790   */\n      tag_417\n      jump\t// in\n    tag_731:\n        /* \"#utility.yul\":33651:33790   */\n      swap1\n      pop\n        /* \"#utility.yul\":33800:33872   */\n      tag_732\n        /* \"#utility.yul\":33868:33870   */\n      0x40\n        /* \"#utility.yul\":33857:33866   */\n      dup4\n        /* \"#utility.yul\":33853:33871   */\n      add\n        /* \"#utility.yul\":33844:33850   */\n      dup5\n        /* \"#utility.yul\":33800:33872   */\n      tag_333\n      jump\t// in\n    tag_732:\n        /* \"#utility.yul\":33240:33879   */\n      swap4\n      swap3\n      pop\n      pop\n      pop\n      jump\t// out\n        /* \"#utility.yul\":33885:34051   */\n    tag_418:\n        /* \"#utility.yul\":34025:34043   */\n      0x506c6179657220686173206c6f73742e00000000000000000000000000000000\n        /* \"#utility.yul\":34021:34022   */\n      0x00\n        /* \"#utility.yul\":34013:34019   */\n      dup3\n        /* \"#utility.yul\":34009:34023   */\n      add\n        /* \"#utility.yul\":34002:34044   */\n      mstore\n        /* \"#utility.yul\":33885:34051   */\n      pop\n      jump\t// out\n        /* \"#utility.yul\":34057:34423   */\n    tag_419:\n        /* \"#utility.yul\":34199:34202   */\n      0x00\n        /* \"#utility.yul\":34220:34287   */\n      tag_735\n        /* \"#utility.yul\":34284:34286   */\n      0x10\n        /* \"#utility.yul\":34279:34282   */\n      dup4\n        /* \"#utility.yul\":34220:34287   */\n      tag_355\n      jump\t// in\n    tag_735:\n        /* \"#utility.yul\":34213:34287   */\n      swap2\n      pop\n        /* \"#utility.yul\":34296:34389   */\n      tag_736\n        /* \"#utility.yul\":34385:34388   */\n      dup3\n        /* \"#utility.yul\":34296:34389   */\n      tag_418\n      jump\t// in\n    tag_736:\n        /* \"#utility.yul\":34414:34416   */\n      0x20\n        /* \"#utility.yul\":34409:34412   */\n      dup3\n        /* \"#utility.yul\":34405:34417   */\n      add\n        /* \"#utility.yul\":34398:34417   */\n      swap1\n      pop\n        /* \"#utility.yul\":34057:34423   */\n      swap2\n      swap1\n      pop\n      jump\t// out\n        /* \"#utility.yul\":34429:35068   */\n    tag_310:\n        /* \"#utility.yul\":34651:34655   */\n      0x00\n        /* \"#utility.yul\":34689:34691   */\n      0x60\n        /* \"#utility.yul\":34678:34687   */\n      dup3\n        /* \"#utility.yul\":34674:34692   */\n      add\n        /* \"#utility.yul\":34666:34692   */\n      swap1\n      pop\n        /* \"#utility.yul\":34702:34773   */\n      tag_738\n        /* \"#utility.yul\":34770:34771   */\n      0x00\n        /* \"#utility.yul\":34759:34768   */\n      dup4\n        /* \"#utility.yul\":34755:34772   */\n      add\n        /* \"#utility.yul\":34746:34752   */\n      dup6\n        /* \"#utility.yul\":34702:34773   */\n      tag_364\n      jump\t// in\n    tag_738:\n        /* \"#utility.yul\":34820:34829   */\n      dup2\n        /* \"#utility.yul\":34814:34818   */\n      dup2\n        /* \"#utility.yul\":34810:34830   */\n      sub\n        /* \"#utility.yul\":34805:34807   */\n      0x20\n        /* \"#utility.yul\":34794:34803   */\n      dup4\n        /* \"#utility.yul\":34790:34808   */\n      add\n        /* \"#utility.yul\":34783:34831   */\n      mstore\n        /* \"#utility.yul\":34848:34979   */\n      tag_739\n        /* \"#utility.yul\":34974:34978   */\n      dup2\n        /* \"#utility.yul\":34848:34979   */\n      tag_419\n      jump\t// in\n    tag_739:\n        /* \"#utility.yul\":34840:34979   */\n      swap1\n      pop\n        /* \"#utility.yul\":34989:35061   */\n      tag_740\n        /* \"#utility.yul\":35057:35059   */\n      0x40\n        /* \"#utility.yul\":35046:35055   */\n      dup4\n        /* \"#utility.yul\":35042:35060   */\n      add\n        /* \"#utility.yul\":35033:35039   */\n      dup5\n        /* \"#utility.yul\":34989:35061   */\n      tag_333\n      jump\t// in\n    tag_740:\n        /* \"#utility.yul\":34429:35068   */\n      swap4\n      swap3\n      pop\n      pop\n      pop\n      jump\t// out\n\n    auxdata: 0xa26469706673582212204bf0ed5cfdd40276516ee95959bf0642e44834685cd92eac6410ae6ba4e95f1564736f6c63430008110033\n}\n",
				"bytecode": {
					"linkReferences": {},
					"object": "60a06040527f79d3d8832d904592c0bf9818b621522c988bb8b0c05cdc3b15aea1b6e8db0c1560001b600155620249f0600260006101000a81548163ffffffff021916908363ffffffff1602179055503480156200005c57600080fd5b5060405162002c1138038062002c118339818101604052810190620000829190620001db565b732ca8e0c643bde4c2e08ab1fa0da3401adad7734d8073ffffffffffffffffffffffffffffffffffffffff1660808173ffffffffffffffffffffffffffffffffffffffff168152505050732ca8e0c643bde4c2e08ab1fa0da3401adad7734d6000806101000a81548173ffffffffffffffffffffffffffffffffffffffff021916908373ffffffffffffffffffffffffffffffffffffffff16021790555080600060146101000a81548167ffffffffffffffff021916908367ffffffffffffffff16021790555033600260046101000a81548173ffffffffffffffffffffffffffffffffffffffff021916908373ffffffffffffffffffffffffffffffffffffffff160217905550506200020d565b600080fd5b600067ffffffffffffffff82169050919050565b620001b58162000196565b8114620001c157600080fd5b50565b600081519050620001d581620001aa565b92915050565b600060208284031215620001f457620001f362000191565b5b60006200020484828501620001c4565b91505092915050565b6080516129e162000230600039600081816104f4015261054801526129e16000f3fe6080604052600436106100a75760003560e01c80635ae2bfdb116100645780635ae2bfdb146101c05780639619367d146101eb578063a648567b14610216578063b163cc3814610232578063d504cb651461023c578063ff9b3acf1461026b576100a7565b80630d6f8563146100ac5780631116fd04146100d55780631fe543e3146101165780632e5b21681461013f5780633fb64e751461016a578063453a709714610195575b600080fd5b3480156100b857600080fd5b506100d360048036038101906100ce91906116fd565b610296565b005b3480156100e157600080fd5b506100fc60048036038101906100f791906116fd565b610475565b60405161010d959493929190611828565b60405180910390f35b34801561012257600080fd5b5061013d600480360381019061013891906119d4565b6104f2565b005b34801561014b57600080fd5b506101546105b2565b6040516101619190611a30565b60405180910390f35b34801561017657600080fd5b5061017f6105b8565b60405161018c9190611a4b565b60405180910390f35b3480156101a157600080fd5b506101aa6105cb565b6040516101b79190611a66565b60405180910390f35b3480156101cc57600080fd5b506101d56105de565b6040516101e29190611a30565b60405180910390f35b3480156101f757600080fd5b506102006105e4565b60405161020d9190611a30565b60405180910390f35b610230600480360381019061022b9190611ad2565b6105ea565b005b61023a610b1d565b005b34801561024857600080fd5b50610251610b27565b604051610262959493929190611828565b60405180910390f35b34801561027757600080fd5b50610280610b92565b60405161028d9190611b12565b60405180910390f35b600c60009054906101000a900460ff16156102e6576040517f08c379a00000000000000000000000000000000000000000000000000000000081526004016102dd90611b8a565b60405180910390fd5b6001600c60006101000a81548160ff021916908315150217905550600260049054906101000a900473ffffffffffffffffffffffffffffffffffffffff1673ffffffffffffffffffffffffffffffffffffffff163373ffffffffffffffffffffffffffffffffffffffff1614610391576040517f08c379a000000000000000000000000000000000000000000000000000000000815260040161038890611c1c565b60405180910390fd5b600a60009054906101000a900460ff16156103e1576040517f08c379a00000000000000000000000000000000000000000000000000000000081526004016103d890611cae565b60405180910390fd5b60004790503373ffffffffffffffffffffffffffffffffffffffff166108fc839081150290604051600060405180830381858888f1935050505015801561042c573d6000803e3d6000fd5b50600047905080838361043f9190611cfd565b1461044d5761044c611d31565b5b610455610bb8565b50506000600c60006101000a81548160ff02191690831515021790555050565b600b6020528060005260406000206000915090508060000160009054906101000a900473ffffffffffffffffffffffffffffffffffffffff16908060010154908060020160009054906101000a900460ff16908060020160019054906101000a900460ff16908060020160029054906101000a900460ff16905085565b7f000000000000000000000000000000000000000000000000000000000000000073ffffffffffffffffffffffffffffffffffffffff163373ffffffffffffffffffffffffffffffffffffffff16146105a457337f00000000000000000000000000000000000000000000000000000000000000006040517f1cf993f400000000000000000000000000000000000000000000000000000000815260040161059b929190611d81565b60405180910390fd5b6105ae8282610cb4565b5050565b60035481565b600a60009054906101000a900460ff1681565b600560009054906101000a900460ff1681565b60095481565b60045481565b600c60009054906101000a900460ff161561063a576040517f08c379a000000000000000000000000000000000000000000000000000000000815260040161063190611b8a565b60405180910390fd5b6001600c60006101000a81548160ff021916908315150217905550600a60009054906101000a900460ff16156106a5576040517f08c379a000000000000000000000000000000000000000000000000000000000815260040161069c90611e1c565b60405180910390fd5b6004543410156106ea576040517f08c379a00000000000000000000000000000000000000000000000000000000081526004016106e190611eae565b60405180910390fd5b60035434111561072f576040517f08c379a000000000000000000000000000000000000000000000000000000000815260040161072690611f40565b60405180910390fd5b600060058111156107435761074261177a565b5b8160058111156107565761075561177a565b5b036107b75760008260ff1610158015610773575060248260ff1611155b6107b2576040517f08c379a00000000000000000000000000000000000000000000000000000000081526004016107a990611fd2565b60405180910390fd5b610987565b600160058111156107cb576107ca61177a565b5b8160058111156107de576107dd61177a565b5b0361083f5760018260ff16101580156107fb575060038260ff1611155b61083a576040517f08c379a000000000000000000000000000000000000000000000000000000000815260040161083190612064565b60405180910390fd5b610986565b600260058111156108535761085261177a565b5b8160058111156108665761086561177a565b5b14806108965750600360058111156108815761088061177a565b5b8160058111156108945761089361177a565b5b145b806108c55750600460058111156108b0576108af61177a565b5b8160058111156108c3576108c261177a565b5b145b806108f357506005808111156108de576108dd61177a565b5b8160058111156108f1576108f061177a565b5b145b156109435760018260ff161461093e576040517f08c379a00000000000000000000000000000000000000000000000000000000081526004016109359061211c565b60405180910390fd5b610985565b6000610984576040517f08c379a000000000000000000000000000000000000000000000000000000000815260040161097b906121d4565b60405180910390fd5b5b5b5b6001600a60006101000a81548160ff0219169083151502179055506040518060a001604052803373ffffffffffffffffffffffffffffffffffffffff1681526020013481526020018260058111156109e2576109e161177a565b5b81526020018360ff16815260200160001515815250600660008201518160000160006101000a81548173ffffffffffffffffffffffffffffffffffffffff021916908373ffffffffffffffffffffffffffffffffffffffff1602179055506020820151816001015560408201518160020160006101000a81548160ff02191690836005811115610a7557610a7461177a565b5b021790555060608201518160020160016101000a81548160ff021916908360ff16021790555060808201518160020160026101000a81548160ff0219169083151502179055509050507f17765110fdca5f4ba1cf2df414d1cf822fa07c70797d184d4c43e9fde1846eb56006604051610aee91906123cc565b60405180910390a1610afe610d7b565b6000600c60006101000a81548160ff0219169083151502179055505050565b610b25610bb8565b565b60068060000160009054906101000a900473ffffffffffffffffffffffffffffffffffffffff16908060010154908060020160009054906101000a900460ff16908060020160019054906101000a900460ff16908060020160029054906101000a900460ff16905085565b600260049054906101000a900473ffffffffffffffffffffffffffffffffffffffff1681565b60004790506000617530905080600260009054906101000a900463ffffffff1663ffffffff16610be891906123e7565b600481905550600454602383610bfe919061244a565b11610c3e576040517f08c379a0000000000000000000000000000000000000000000000000000000008152600401610c35906124ed565b60405180910390fd5b600454602383610c4e919061244a565b610c589190611cfd565b6003819055507fd6c35f99cd113b65660d600ed2917da92e279b96836a62bd211b0445e6afa0cf600354600454604051610c9392919061250d565b60405180910390a16004546003541015610cb057610caf611d31565b5b5050565b8160095414610cf8576040517f08c379a0000000000000000000000000000000000000000000000000000000008152600401610cef90612582565b60405180910390fd5b602581600081518110610d0e57610d0d6125a2565b5b6020026020010151610d2091906125d1565b600560006101000a81548160ff021916908360ff1602179055507fd26a1ef5c184c4e0eb2179564cc0202c6ee2f00c1b3514d54ded3d5bc598e516604051610d679061264e565b60405180910390a1610d77610f82565b5050565b60006003905060006001905060008054906101000a900473ffffffffffffffffffffffffffffffffffffffff1673ffffffffffffffffffffffffffffffffffffffff16635d3b1d30600154600060149054906101000a900467ffffffffffffffff1685600260009054906101000a900463ffffffff16866040518663ffffffff1660e01b8152600401610e129594939291906126e6565b6020604051808303816000875af1158015610e31573d6000803e3d6000fd5b505050506040513d601f19601f82011682018060405250810190610e55919061274e565b6009819055506006600b600060095481526020019081526020016000206000820160009054906101000a900473ffffffffffffffffffffffffffffffffffffffff168160000160006101000a81548173ffffffffffffffffffffffffffffffffffffffff021916908373ffffffffffffffffffffffffffffffffffffffff160217905550600182015481600101556002820160009054906101000a900460ff168160020160006101000a81548160ff02191690836005811115610f1b57610f1a61177a565b5b02179055506002820160019054906101000a900460ff168160020160016101000a81548160ff021916908360ff1602179055506002820160029054906101000a900460ff168160020160026101000a81548160ff0219169083151502179055509050505050565b6000600660000160009054906101000a900473ffffffffffffffffffffffffffffffffffffffff169050600060066001015490506000600660020160009054906101000a900460ff1690506000600660020160019054906101000a900460ff16905060006005811115610ff857610ff761177a565b5b82600581111561100b5761100a61177a565b5b036110ae578060ff16600560009054906101000a900460ff1660ff160361109c578373ffffffffffffffffffffffffffffffffffffffff166108fc602385611053919061277b565b9081150290604051600060405180830381858888f1935050505015801561107e573d6000803e3d6000fd5b50611097846001602386611092919061277b565b61154c565b6110a9565b6110a88460008061154c565b5b6114ee565b600160058111156110c2576110c161177a565b5b8260058111156110d5576110d461177a565b5b036111bf57600c6001826110e991906127bd565b6110f391906127f2565b60ff16600560009054906101000a900460ff1660ff16101580156111385750600c8161111f91906127f2565b60ff16600560009054906101000a900460ff1660ff1611155b156111ad578373ffffffffffffffffffffffffffffffffffffffff166108fc600385611164919061277b565b9081150290604051600060405180830381858888f1935050505015801561118f573d6000803e3d6000fd5b506111a88460016003866111a3919061277b565b61154c565b6111ba565b6111b98460008061154c565b5b6114ed565b600260058111156111d3576111d261177a565b5b8260058111156111e6576111e561177a565b5b0361128a57611203600560009054906101000a900460ff16611600565b15611278578373ffffffffffffffffffffffffffffffffffffffff166108fc60028561122f919061277b565b9081150290604051600060405180830381858888f1935050505015801561125a573d6000803e3d6000fd5b5061127384600160028661126e919061277b565b61154c565b611285565b6112848460008061154c565b5b6114ec565b6003600581111561129e5761129d61177a565b5b8260058111156112b1576112b061177a565b5b03611354576112ce600560009054906101000a900460ff16611600565b611342578373ffffffffffffffffffffffffffffffffffffffff166108fc6002856112f9919061277b565b9081150290604051600060405180830381858888f19350505050158015611324573d6000803e3d6000fd5b5061133d846001600286611338919061277b565b61154c565b61134f565b61134e8460008061154c565b5b6114eb565b600460058111156113685761136761177a565b5b82600581111561137b5761137a61177a565b5b0361141f57611398600560009054906101000a900460ff166116a1565b1561140d578373ffffffffffffffffffffffffffffffffffffffff166108fc6002856113c4919061277b565b9081150290604051600060405180830381858888f193505050501580156113ef573d6000803e3d6000fd5b50611408846001600286611403919061277b565b61154c565b61141a565b6114198460008061154c565b5b6114ea565b6005808111156114325761143161177a565b5b8260058111156114455761144461177a565b5b036114e857611462600560009054906101000a900460ff166116a1565b6114d6578373ffffffffffffffffffffffffffffffffffffffff166108fc60028561148d919061277b565b9081150290604051600060405180830381858888f193505050501580156114b8573d6000803e3d6000fd5b506114d18460016002866114cc919061277b565b61154c565b6114e3565b6114e28460008061154c565b5b6114e9565b5b5b5b5b5b5b6114f6610bb8565b6000600a60006101000a81548160ff0219169083151502179055507f09e32d9879388c92fa8390c5a92317126522ae46eac27fddfedac4ddc795b8f360405161153e9061287b565b60405180910390a150505050565b81156115c1577fc32342dc8906e5e3a410389d8ea8527aca5f746ccd18f74703cc4a2a32c99f4683826040516115839291906128e7565b60405180910390a16001600b6000600954815260200190815260200160002060020160026101000a81548160ff0219169083151502179055506115fb565b7fc32342dc8906e5e3a410389d8ea8527aca5f746ccd18f74703cc4a2a32c99f4683826040516115f292919061296f565b60405180910390a15b505050565b600060018260ff161015801561161a5750600a8260ff1611155b80611639575060138260ff16101580156116385750601c8260ff1611155b5b801561164a5750611649826116a1565b5b8061169a5750600b8260ff1610158015611668575060128260ff1611155b806116875750601d8260ff1610158015611686575060248260ff1611155b5b80156116995750611697826116a1565b155b5b9050919050565b6000600180831660ff16149050919050565b6000604051905090565b600080fd5b600080fd5b6000819050919050565b6116da816116c7565b81146116e557600080fd5b50565b6000813590506116f7816116d1565b92915050565b600060208284031215611713576117126116bd565b5b6000611721848285016116e8565b91505092915050565b600073ffffffffffffffffffffffffffffffffffffffff82169050919050565b60006117558261172a565b9050919050565b6117658161174a565b82525050565b611774816116c7565b82525050565b7f4e487b7100000000000000000000000000000000000000000000000000000000600052602160045260246000fd5b600681106117ba576117b961177a565b5b50565b60008190506117cb826117a9565b919050565b60006117db826117bd565b9050919050565b6117eb816117d0565b82525050565b600060ff82169050919050565b611807816117f1565b82525050565b60008115159050919050565b6118228161180d565b82525050565b600060a08201905061183d600083018861175c565b61184a602083018761176b565b61185760408301866117e2565b61186460608301856117fe565b6118716080830184611819565b9695505050505050565b600080fd5b6000601f19601f8301169050919050565b7f4e487b7100000000000000000000000000000000000000000000000000000000600052604160045260246000fd5b6118c982611880565b810181811067ffffffffffffffff821117156118e8576118e7611891565b5b80604052505050565b60006118fb6116b3565b905061190782826118c0565b919050565b600067ffffffffffffffff82111561192757611926611891565b5b602082029050602081019050919050565b600080fd5b600061195061194b8461190c565b6118f1565b9050808382526020820190506020840283018581111561197357611972611938565b5b835b8181101561199c578061198888826116e8565b845260208401935050602081019050611975565b5050509392505050565b600082601f8301126119bb576119ba61187b565b5b81356119cb84826020860161193d565b91505092915050565b600080604083850312156119eb576119ea6116bd565b5b60006119f9858286016116e8565b925050602083013567ffffffffffffffff811115611a1a57611a196116c2565b5b611a26858286016119a6565b9150509250929050565b6000602082019050611a45600083018461176b565b92915050565b6000602082019050611a606000830184611819565b92915050565b6000602082019050611a7b60008301846117fe565b92915050565b611a8a816117f1565b8114611a9557600080fd5b50565b600081359050611aa781611a81565b92915050565b60068110611aba57600080fd5b50565b600081359050611acc81611aad565b92915050565b60008060408385031215611ae957611ae86116bd565b5b6000611af785828601611a98565b9250506020611b0885828601611abd565b9150509250929050565b6000602082019050611b27600083018461175c565b92915050565b600082825260208201905092915050565b7f4e6f2072652d656e7472616e6379000000000000000000000000000000000000600082015250565b6000611b74600e83611b2d565b9150611b7f82611b3e565b602082019050919050565b60006020820190508181036000830152611ba381611b67565b9050919050565b7f4f6e6c792074686520636f6e7472616374206f776e65722063616e207769746860008201527f64726177206d6f6e657921000000000000000000000000000000000000000000602082015250565b6000611c06602b83611b2d565b9150611c1182611baa565b604082019050919050565b60006020820190508181036000830152611c3581611bf9565b9050919050565b7f446f206e6f7420617474656d707420746f207769746864726177207768696c6560008201527f20612067616d6520697320696e2070726f67726573732e000000000000000000602082015250565b6000611c98603783611b2d565b9150611ca382611c3c565b604082019050919050565b60006020820190508181036000830152611cc781611c8b565b9050919050565b7f4e487b7100000000000000000000000000000000000000000000000000000000600052601160045260246000fd5b6000611d08826116c7565b9150611d13836116c7565b9250828203905081811115611d2b57611d2a611cce565b5b92915050565b7f4e487b7100000000000000000000000000000000000000000000000000000000600052600160045260246000fd5b6000611d6b8261172a565b9050919050565b611d7b81611d60565b82525050565b6000604082019050611d966000830185611d72565b611da36020830184611d72565b9392505050565b7f412067616d6520697320616c726561647920696e2070726f67726573732c207060008201527f6c6561736520686176652061206d6f6d656e74206f662070617469656e63652e602082015250565b6000611e06604083611b2d565b9150611e1182611daa565b604082019050919050565b60006020820190508181036000830152611e3581611df9565b9050919050565b7f54686520616d6f756e74206f66206d6f6e657920696e2074686520626574206d60008201527f7573742065786365656420746865206d696e696d756d206265742e0000000000602082015250565b6000611e98603b83611b2d565b9150611ea382611e3c565b604082019050919050565b60006020820190508181036000830152611ec781611e8b565b9050919050565b7f54686520616d6f756e74206f66206d6f6e657920696e2074686520626574206d60008201527f7573742062652062656c6f7720746865206d6178696d756d206265742e000000602082015250565b6000611f2a603d83611b2d565b9150611f3582611ece565b604082019050919050565b60006020820190508181036000830152611f5981611f1d565b9050919050565b7f496e76616c6964206265742e2053696e676c6520626574206d7573742062652060008201527f6265747765656e203020616e6420333620696e636c75736976652e0000000000602082015250565b6000611fbc603b83611b2d565b9150611fc782611f60565b604082019050919050565b60006020820190508181036000830152611feb81611faf565b9050919050565b7f496e76616c6964206265742e20546869726420626574206d757374206265206260008201527f65747765656e203120616e64203320696e636c75736976652e00000000000000602082015250565b600061204e603983611b2d565b915061205982611ff2565b604082019050919050565b6000602082019050818103600083015261207d81612041565b9050919050565b7f496e76616c6964206265742e205265642f626c61636b2f6f64642f6576656e2060008201527f62657473206d75737420626520706c616365642077697468206120626574206f60208201527f6620312e00000000000000000000000000000000000000000000000000000000604082015250565b6000612106604483611b2d565b915061211182612084565b606082019050919050565b60006020820190508181036000830152612135816120f9565b9050919050565b7f496e76616c69642062657420747970652e20506c656173652063686f6f73652060008201527f2773696e676c65272c20277468697264272c2027726564272c2027626c61636b60208201527f272c20276f6464272c206f7220276576656e272e000000000000000000000000604082015250565b60006121be605483611b2d565b91506121c98261213c565b606082019050919050565b600060208201905081810360008301526121ed816121b1565b9050919050565b60008160001c9050919050565b600073ffffffffffffffffffffffffffffffffffffffff82169050919050565b600061223461222f836121f4565b612201565b9050919050565b6122448161174a565b82525050565b6000819050919050565b6000612267612262836121f4565b61224a565b9050919050565b612277816116c7565b82525050565b600060ff82169050919050565b600061229d612298836121f4565b61227d565b9050919050565b6122ad816117d0565b82525050565b60008160081c9050919050565b600060ff82169050919050565b60006122e06122db836122b3565b6122c0565b9050919050565b6122f0816117f1565b82525050565b60008160101c9050919050565b600060ff82169050919050565b600061232361231e836122f6565b612303565b9050919050565b6123338161180d565b82525050565b60a08201600080830154905061234e81612221565b61235b600086018261223b565b506001830154905061236c81612254565b612379602086018261226e565b506002830154905061238a8161228a565b61239760408601826122a4565b506123a1816122cd565b6123ae60608601826122e7565b506123b881612310565b6123c5608086018261232a565b5050505050565b600060a0820190506123e16000830184612339565b92915050565b60006123f2826116c7565b91506123fd836116c7565b925082820190508082111561241557612414611cce565b5b92915050565b7f4e487b7100000000000000000000000000000000000000000000000000000000600052601260045260246000fd5b6000612455826116c7565b9150612460836116c7565b9250826124705761246f61241b565b5b828204905092915050565b7f5468652066756e647320696e207468697320636f6e747261637420617265207460008201527f6f6f206c6f7720616e64206e65656420746f206265206869676865722e000000602082015250565b60006124d7603d83611b2d565b91506124e28261247b565b604082019050919050565b60006020820190508181036000830152612506816124ca565b9050919050565b6000604082019050612522600083018561176b565b61252f602083018461176b565b9392505050565b7f54686520726571756573742049447320646f206e6f74206d6174636800000000600082015250565b600061256c601c83611b2d565b915061257782612536565b602082019050919050565b6000602082019050818103600083015261259b8161255f565b9050919050565b7f4e487b7100000000000000000000000000000000000000000000000000000000600052603260045260246000fd5b60006125dc826116c7565b91506125e7836116c7565b9250826125f7576125f661241b565b5b828206905092915050565b7f41207061796f757420686173206265656e2063616c6c65642e00000000000000600082015250565b6000612638601983611b2d565b915061264382612602565b602082019050919050565b600060208201905081810360008301526126678161262b565b9050919050565b6000819050919050565b6126818161266e565b82525050565b600067ffffffffffffffff82169050919050565b6126a481612687565b82525050565b600061ffff82169050919050565b6126c1816126aa565b82525050565b600063ffffffff82169050919050565b6126e0816126c7565b82525050565b600060a0820190506126fb6000830188612678565b612708602083018761269b565b61271560408301866126b8565b61272260608301856126d7565b61272f60808301846126d7565b9695505050505050565b600081519050612748816116d1565b92915050565b600060208284031215612764576127636116bd565b5b600061277284828501612739565b91505092915050565b6000612786826116c7565b9150612791836116c7565b925082820261279f816116c7565b915082820484148315176127b6576127b5611cce565b5b5092915050565b60006127c8826117f1565b91506127d3836117f1565b9250828203905060ff8111156127ec576127eb611cce565b5b92915050565b60006127fd826117f1565b9150612808836117f1565b9250828202612816816117f1565b915080821461282857612827611cce565b5b5092915050565b7f5468652067616d652068617320656e6465640000000000000000000000000000600082015250565b6000612865601283611b2d565b91506128708261282f565b602082019050919050565b6000602082019050818103600083015261289481612858565b9050919050565b7f506c617965722068617320776f6e2e0000000000000000000000000000000000600082015250565b60006128d1600f83611b2d565b91506128dc8261289b565b602082019050919050565b60006060820190506128fc6000830185611d72565b818103602083015261290d816128c4565b905061291c604083018461176b565b9392505050565b7f506c6179657220686173206c6f73742e00000000000000000000000000000000600082015250565b6000612959601083611b2d565b915061296482612923565b602082019050919050565b60006060820190506129846000830185611d72565b81810360208301526129958161294c565b90506129a4604083018461176b565b939250505056fea26469706673582212204bf0ed5cfdd40276516ee95959bf0642e44834685cd92eac6410ae6ba4e95f1564736f6c63430008110033",
					"opcodes": "PUSH1 0xA0 PUSH1 0x40 MSTORE PUSH32 0x79D3D8832D904592C0BF9818B621522C988BB8B0C05CDC3B15AEA1B6E8DB0C15 PUSH1 0x0 SHL PUSH1 0x1 SSTORE PUSH3 0x249F0 PUSH1 0x2 PUSH1 0x0 PUSH2 0x100 EXP DUP2 SLOAD DUP2 PUSH4 0xFFFFFFFF MUL NOT AND SWAP1 DUP4 PUSH4 0xFFFFFFFF AND MUL OR SWAP1 SSTORE POP CALLVALUE DUP1 ISZERO PUSH3 0x5C JUMPI PUSH1 0x0 DUP1 REVERT JUMPDEST POP PUSH1 0x40 MLOAD PUSH3 0x2C11 CODESIZE SUB DUP1 PUSH3 0x2C11 DUP4 CODECOPY DUP2 DUP2 ADD PUSH1 0x40 MSTORE DUP2 ADD SWAP1 PUSH3 0x82 SWAP2 SWAP1 PUSH3 0x1DB JUMP JUMPDEST PUSH20 0x2CA8E0C643BDE4C2E08AB1FA0DA3401ADAD7734D DUP1 PUSH20 0xFFFFFFFFFFFFFFFFFFFFFFFFFFFFFFFFFFFFFFFF AND PUSH1 0x80 DUP2 PUSH20 0xFFFFFFFFFFFFFFFFFFFFFFFFFFFFFFFFFFFFFFFF AND DUP2 MSTORE POP POP POP PUSH20 0x2CA8E0C643BDE4C2E08AB1FA0DA3401ADAD7734D PUSH1 0x0 DUP1 PUSH2 0x100 EXP DUP2 SLOAD DUP2 PUSH20 0xFFFFFFFFFFFFFFFFFFFFFFFFFFFFFFFFFFFFFFFF MUL NOT AND SWAP1 DUP4 PUSH20 0xFFFFFFFFFFFFFFFFFFFFFFFFFFFFFFFFFFFFFFFF AND MUL OR SWAP1 SSTORE POP DUP1 PUSH1 0x0 PUSH1 0x14 PUSH2 0x100 EXP DUP2 SLOAD DUP2 PUSH8 0xFFFFFFFFFFFFFFFF MUL NOT AND SWAP1 DUP4 PUSH8 0xFFFFFFFFFFFFFFFF AND MUL OR SWAP1 SSTORE POP CALLER PUSH1 0x2 PUSH1 0x4 PUSH2 0x100 EXP DUP2 SLOAD DUP2 PUSH20 0xFFFFFFFFFFFFFFFFFFFFFFFFFFFFFFFFFFFFFFFF MUL NOT AND SWAP1 DUP4 PUSH20 0xFFFFFFFFFFFFFFFFFFFFFFFFFFFFFFFFFFFFFFFF AND MUL OR SWAP1 SSTORE POP POP PUSH3 0x20D JUMP JUMPDEST PUSH1 0x0 DUP1 REVERT JUMPDEST PUSH1 0x0 PUSH8 0xFFFFFFFFFFFFFFFF DUP3 AND SWAP1 POP SWAP2 SWAP1 POP JUMP JUMPDEST PUSH3 0x1B5 DUP2 PUSH3 0x196 JUMP JUMPDEST DUP2 EQ PUSH3 0x1C1 JUMPI PUSH1 0x0 DUP1 REVERT JUMPDEST POP JUMP JUMPDEST PUSH1 0x0 DUP2 MLOAD SWAP1 POP PUSH3 0x1D5 DUP2 PUSH3 0x1AA JUMP JUMPDEST SWAP3 SWAP2 POP POP JUMP JUMPDEST PUSH1 0x0 PUSH1 0x20 DUP3 DUP5 SUB SLT ISZERO PUSH3 0x1F4 JUMPI PUSH3 0x1F3 PUSH3 0x191 JUMP JUMPDEST JUMPDEST PUSH1 0x0 PUSH3 0x204 DUP5 DUP3 DUP6 ADD PUSH3 0x1C4 JUMP JUMPDEST SWAP2 POP POP SWAP3 SWAP2 POP POP JUMP JUMPDEST PUSH1 0x80 MLOAD PUSH2 0x29E1 PUSH3 0x230 PUSH1 0x0 CODECOPY PUSH1 0x0 DUP2 DUP2 PUSH2 0x4F4 ADD MSTORE PUSH2 0x548 ADD MSTORE PUSH2 0x29E1 PUSH1 0x0 RETURN INVALID PUSH1 0x80 PUSH1 0x40 MSTORE PUSH1 0x4 CALLDATASIZE LT PUSH2 0xA7 JUMPI PUSH1 0x0 CALLDATALOAD PUSH1 0xE0 SHR DUP1 PUSH4 0x5AE2BFDB GT PUSH2 0x64 JUMPI DUP1 PUSH4 0x5AE2BFDB EQ PUSH2 0x1C0 JUMPI DUP1 PUSH4 0x9619367D EQ PUSH2 0x1EB JUMPI DUP1 PUSH4 0xA648567B EQ PUSH2 0x216 JUMPI DUP1 PUSH4 0xB163CC38 EQ PUSH2 0x232 JUMPI DUP1 PUSH4 0xD504CB65 EQ PUSH2 0x23C JUMPI DUP1 PUSH4 0xFF9B3ACF EQ PUSH2 0x26B JUMPI PUSH2 0xA7 JUMP JUMPDEST DUP1 PUSH4 0xD6F8563 EQ PUSH2 0xAC JUMPI DUP1 PUSH4 0x1116FD04 EQ PUSH2 0xD5 JUMPI DUP1 PUSH4 0x1FE543E3 EQ PUSH2 0x116 JUMPI DUP1 PUSH4 0x2E5B2168 EQ PUSH2 0x13F JUMPI DUP1 PUSH4 0x3FB64E75 EQ PUSH2 0x16A JUMPI DUP1 PUSH4 0x453A7097 EQ PUSH2 0x195 JUMPI JUMPDEST PUSH1 0x0 DUP1 REVERT JUMPDEST CALLVALUE DUP1 ISZERO PUSH2 0xB8 JUMPI PUSH1 0x0 DUP1 REVERT JUMPDEST POP PUSH2 0xD3 PUSH1 0x4 DUP1 CALLDATASIZE SUB DUP2 ADD SWAP1 PUSH2 0xCE SWAP2 SWAP1 PUSH2 0x16FD JUMP JUMPDEST PUSH2 0x296 JUMP JUMPDEST STOP JUMPDEST CALLVALUE DUP1 ISZERO PUSH2 0xE1 JUMPI PUSH1 0x0 DUP1 REVERT JUMPDEST POP PUSH2 0xFC PUSH1 0x4 DUP1 CALLDATASIZE SUB DUP2 ADD SWAP1 PUSH2 0xF7 SWAP2 SWAP1 PUSH2 0x16FD JUMP JUMPDEST PUSH2 0x475 JUMP JUMPDEST PUSH1 0x40 MLOAD PUSH2 0x10D SWAP6 SWAP5 SWAP4 SWAP3 SWAP2 SWAP1 PUSH2 0x1828 JUMP JUMPDEST PUSH1 0x40 MLOAD DUP1 SWAP2 SUB SWAP1 RETURN JUMPDEST CALLVALUE DUP1 ISZERO PUSH2 0x122 JUMPI PUSH1 0x0 DUP1 REVERT JUMPDEST POP PUSH2 0x13D PUSH1 0x4 DUP1 CALLDATASIZE SUB DUP2 ADD SWAP1 PUSH2 0x138 SWAP2 SWAP1 PUSH2 0x19D4 JUMP JUMPDEST PUSH2 0x4F2 JUMP JUMPDEST STOP JUMPDEST CALLVALUE DUP1 ISZERO PUSH2 0x14B JUMPI PUSH1 0x0 DUP1 REVERT JUMPDEST POP PUSH2 0x154 PUSH2 0x5B2 JUMP JUMPDEST PUSH1 0x40 MLOAD PUSH2 0x161 SWAP2 SWAP1 PUSH2 0x1A30 JUMP JUMPDEST PUSH1 0x40 MLOAD DUP1 SWAP2 SUB SWAP1 RETURN JUMPDEST CALLVALUE DUP1 ISZERO PUSH2 0x176 JUMPI PUSH1 0x0 DUP1 REVERT JUMPDEST POP PUSH2 0x17F PUSH2 0x5B8 JUMP JUMPDEST PUSH1 0x40 MLOAD PUSH2 0x18C SWAP2 SWAP1 PUSH2 0x1A4B JUMP JUMPDEST PUSH1 0x40 MLOAD DUP1 SWAP2 SUB SWAP1 RETURN JUMPDEST CALLVALUE DUP1 ISZERO PUSH2 0x1A1 JUMPI PUSH1 0x0 DUP1 REVERT JUMPDEST POP PUSH2 0x1AA PUSH2 0x5CB JUMP JUMPDEST PUSH1 0x40 MLOAD PUSH2 0x1B7 SWAP2 SWAP1 PUSH2 0x1A66 JUMP JUMPDEST PUSH1 0x40 MLOAD DUP1 SWAP2 SUB SWAP1 RETURN JUMPDEST CALLVALUE DUP1 ISZERO PUSH2 0x1CC JUMPI PUSH1 0x0 DUP1 REVERT JUMPDEST POP PUSH2 0x1D5 PUSH2 0x5DE JUMP JUMPDEST PUSH1 0x40 MLOAD PUSH2 0x1E2 SWAP2 SWAP1 PUSH2 0x1A30 JUMP JUMPDEST PUSH1 0x40 MLOAD DUP1 SWAP2 SUB SWAP1 RETURN JUMPDEST CALLVALUE DUP1 ISZERO PUSH2 0x1F7 JUMPI PUSH1 0x0 DUP1 REVERT JUMPDEST POP PUSH2 0x200 PUSH2 0x5E4 JUMP JUMPDEST PUSH1 0x40 MLOAD PUSH2 0x20D SWAP2 SWAP1 PUSH2 0x1A30 JUMP JUMPDEST PUSH1 0x40 MLOAD DUP1 SWAP2 SUB SWAP1 RETURN JUMPDEST PUSH2 0x230 PUSH1 0x4 DUP1 CALLDATASIZE SUB DUP2 ADD SWAP1 PUSH2 0x22B SWAP2 SWAP1 PUSH2 0x1AD2 JUMP JUMPDEST PUSH2 0x5EA JUMP JUMPDEST STOP JUMPDEST PUSH2 0x23A PUSH2 0xB1D JUMP JUMPDEST STOP JUMPDEST CALLVALUE DUP1 ISZERO PUSH2 0x248 JUMPI PUSH1 0x0 DUP1 REVERT JUMPDEST POP PUSH2 0x251 PUSH2 0xB27 JUMP JUMPDEST PUSH1 0x40 MLOAD PUSH2 0x262 SWAP6 SWAP5 SWAP4 SWAP3 SWAP2 SWAP1 PUSH2 0x1828 JUMP JUMPDEST PUSH1 0x40 MLOAD DUP1 SWAP2 SUB SWAP1 RETURN JUMPDEST CALLVALUE DUP1 ISZERO PUSH2 0x277 JUMPI PUSH1 0x0 DUP1 REVERT JUMPDEST POP PUSH2 0x280 PUSH2 0xB92 JUMP JUMPDEST PUSH1 0x40 MLOAD PUSH2 0x28D SWAP2 SWAP1 PUSH2 0x1B12 JUMP JUMPDEST PUSH1 0x40 MLOAD DUP1 SWAP2 SUB SWAP1 RETURN JUMPDEST PUSH1 0xC PUSH1 0x0 SWAP1 SLOAD SWAP1 PUSH2 0x100 EXP SWAP1 DIV PUSH1 0xFF AND ISZERO PUSH2 0x2E6 JUMPI PUSH1 0x40 MLOAD PUSH32 0x8C379A000000000000000000000000000000000000000000000000000000000 DUP2 MSTORE PUSH1 0x4 ADD PUSH2 0x2DD SWAP1 PUSH2 0x1B8A JUMP JUMPDEST PUSH1 0x40 MLOAD DUP1 SWAP2 SUB SWAP1 REVERT JUMPDEST PUSH1 0x1 PUSH1 0xC PUSH1 0x0 PUSH2 0x100 EXP DUP2 SLOAD DUP2 PUSH1 0xFF MUL NOT AND SWAP1 DUP4 ISZERO ISZERO MUL OR SWAP1 SSTORE POP PUSH1 0x2 PUSH1 0x4 SWAP1 SLOAD SWAP1 PUSH2 0x100 EXP SWAP1 DIV PUSH20 0xFFFFFFFFFFFFFFFFFFFFFFFFFFFFFFFFFFFFFFFF AND PUSH20 0xFFFFFFFFFFFFFFFFFFFFFFFFFFFFFFFFFFFFFFFF AND CALLER PUSH20 0xFFFFFFFFFFFFFFFFFFFFFFFFFFFFFFFFFFFFFFFF AND EQ PUSH2 0x391 JUMPI PUSH1 0x40 MLOAD PUSH32 0x8C379A000000000000000000000000000000000000000000000000000000000 DUP2 MSTORE PUSH1 0x4 ADD PUSH2 0x388 SWAP1 PUSH2 0x1C1C JUMP JUMPDEST PUSH1 0x40 MLOAD DUP1 SWAP2 SUB SWAP1 REVERT JUMPDEST PUSH1 0xA PUSH1 0x0 SWAP1 SLOAD SWAP1 PUSH2 0x100 EXP SWAP1 DIV PUSH1 0xFF AND ISZERO PUSH2 0x3E1 JUMPI PUSH1 0x40 MLOAD PUSH32 0x8C379A000000000000000000000000000000000000000000000000000000000 DUP2 MSTORE PUSH1 0x4 ADD PUSH2 0x3D8 SWAP1 PUSH2 0x1CAE JUMP JUMPDEST PUSH1 0x40 MLOAD DUP1 SWAP2 SUB SWAP1 REVERT JUMPDEST PUSH1 0x0 SELFBALANCE SWAP1 POP CALLER PUSH20 0xFFFFFFFFFFFFFFFFFFFFFFFFFFFFFFFFFFFFFFFF AND PUSH2 0x8FC DUP4 SWAP1 DUP2 ISZERO MUL SWAP1 PUSH1 0x40 MLOAD PUSH1 0x0 PUSH1 0x40 MLOAD DUP1 DUP4 SUB DUP2 DUP6 DUP9 DUP9 CALL SWAP4 POP POP POP POP ISZERO DUP1 ISZERO PUSH2 0x42C JUMPI RETURNDATASIZE PUSH1 0x0 DUP1 RETURNDATACOPY RETURNDATASIZE PUSH1 0x0 REVERT JUMPDEST POP PUSH1 0x0 SELFBALANCE SWAP1 POP DUP1 DUP4 DUP4 PUSH2 0x43F SWAP2 SWAP1 PUSH2 0x1CFD JUMP JUMPDEST EQ PUSH2 0x44D JUMPI PUSH2 0x44C PUSH2 0x1D31 JUMP JUMPDEST JUMPDEST PUSH2 0x455 PUSH2 0xBB8 JUMP JUMPDEST POP POP PUSH1 0x0 PUSH1 0xC PUSH1 0x0 PUSH2 0x100 EXP DUP2 SLOAD DUP2 PUSH1 0xFF MUL NOT AND SWAP1 DUP4 ISZERO ISZERO MUL OR SWAP1 SSTORE POP POP JUMP JUMPDEST PUSH1 0xB PUSH1 0x20 MSTORE DUP1 PUSH1 0x0 MSTORE PUSH1 0x40 PUSH1 0x0 KECCAK256 PUSH1 0x0 SWAP2 POP SWAP1 POP DUP1 PUSH1 0x0 ADD PUSH1 0x0 SWAP1 SLOAD SWAP1 PUSH2 0x100 EXP SWAP1 DIV PUSH20 0xFFFFFFFFFFFFFFFFFFFFFFFFFFFFFFFFFFFFFFFF AND SWAP1 DUP1 PUSH1 0x1 ADD SLOAD SWAP1 DUP1 PUSH1 0x2 ADD PUSH1 0x0 SWAP1 SLOAD SWAP1 PUSH2 0x100 EXP SWAP1 DIV PUSH1 0xFF AND SWAP1 DUP1 PUSH1 0x2 ADD PUSH1 0x1 SWAP1 SLOAD SWAP1 PUSH2 0x100 EXP SWAP1 DIV PUSH1 0xFF AND SWAP1 DUP1 PUSH1 0x2 ADD PUSH1 0x2 SWAP1 SLOAD SWAP1 PUSH2 0x100 EXP SWAP1 DIV PUSH1 0xFF AND SWAP1 POP DUP6 JUMP JUMPDEST PUSH32 0x0 PUSH20 0xFFFFFFFFFFFFFFFFFFFFFFFFFFFFFFFFFFFFFFFF AND CALLER PUSH20 0xFFFFFFFFFFFFFFFFFFFFFFFFFFFFFFFFFFFFFFFF AND EQ PUSH2 0x5A4 JUMPI CALLER PUSH32 0x0 PUSH1 0x40 MLOAD PUSH32 0x1CF993F400000000000000000000000000000000000000000000000000000000 DUP2 MSTORE PUSH1 0x4 ADD PUSH2 0x59B SWAP3 SWAP2 SWAP1 PUSH2 0x1D81 JUMP JUMPDEST PUSH1 0x40 MLOAD DUP1 SWAP2 SUB SWAP1 REVERT JUMPDEST PUSH2 0x5AE DUP3 DUP3 PUSH2 0xCB4 JUMP JUMPDEST POP POP JUMP JUMPDEST PUSH1 0x3 SLOAD DUP2 JUMP JUMPDEST PUSH1 0xA PUSH1 0x0 SWAP1 SLOAD SWAP1 PUSH2 0x100 EXP SWAP1 DIV PUSH1 0xFF AND DUP2 JUMP JUMPDEST PUSH1 0x5 PUSH1 0x0 SWAP1 SLOAD SWAP1 PUSH2 0x100 EXP SWAP1 DIV PUSH1 0xFF AND DUP2 JUMP JUMPDEST PUSH1 0x9 SLOAD DUP2 JUMP JUMPDEST PUSH1 0x4 SLOAD DUP2 JUMP JUMPDEST PUSH1 0xC PUSH1 0x0 SWAP1 SLOAD SWAP1 PUSH2 0x100 EXP SWAP1 DIV PUSH1 0xFF AND ISZERO PUSH2 0x63A JUMPI PUSH1 0x40 MLOAD PUSH32 0x8C379A000000000000000000000000000000000000000000000000000000000 DUP2 MSTORE PUSH1 0x4 ADD PUSH2 0x631 SWAP1 PUSH2 0x1B8A JUMP JUMPDEST PUSH1 0x40 MLOAD DUP1 SWAP2 SUB SWAP1 REVERT JUMPDEST PUSH1 0x1 PUSH1 0xC PUSH1 0x0 PUSH2 0x100 EXP DUP2 SLOAD DUP2 PUSH1 0xFF MUL NOT AND SWAP1 DUP4 ISZERO ISZERO MUL OR SWAP1 SSTORE POP PUSH1 0xA PUSH1 0x0 SWAP1 SLOAD SWAP1 PUSH2 0x100 EXP SWAP1 DIV PUSH1 0xFF AND ISZERO PUSH2 0x6A5 JUMPI PUSH1 0x40 MLOAD PUSH32 0x8C379A000000000000000000000000000000000000000000000000000000000 DUP2 MSTORE PUSH1 0x4 ADD PUSH2 0x69C SWAP1 PUSH2 0x1E1C JUMP JUMPDEST PUSH1 0x40 MLOAD DUP1 SWAP2 SUB SWAP1 REVERT JUMPDEST PUSH1 0x4 SLOAD CALLVALUE LT ISZERO PUSH2 0x6EA JUMPI PUSH1 0x40 MLOAD PUSH32 0x8C379A000000000000000000000000000000000000000000000000000000000 DUP2 MSTORE PUSH1 0x4 ADD PUSH2 0x6E1 SWAP1 PUSH2 0x1EAE JUMP JUMPDEST PUSH1 0x40 MLOAD DUP1 SWAP2 SUB SWAP1 REVERT JUMPDEST PUSH1 0x3 SLOAD CALLVALUE GT ISZERO PUSH2 0x72F JUMPI PUSH1 0x40 MLOAD PUSH32 0x8C379A000000000000000000000000000000000000000000000000000000000 DUP2 MSTORE PUSH1 0x4 ADD PUSH2 0x726 SWAP1 PUSH2 0x1F40 JUMP JUMPDEST PUSH1 0x40 MLOAD DUP1 SWAP2 SUB SWAP1 REVERT JUMPDEST PUSH1 0x0 PUSH1 0x5 DUP2 GT ISZERO PUSH2 0x743 JUMPI PUSH2 0x742 PUSH2 0x177A JUMP JUMPDEST JUMPDEST DUP2 PUSH1 0x5 DUP2 GT ISZERO PUSH2 0x756 JUMPI PUSH2 0x755 PUSH2 0x177A JUMP JUMPDEST JUMPDEST SUB PUSH2 0x7B7 JUMPI PUSH1 0x0 DUP3 PUSH1 0xFF AND LT ISZERO DUP1 ISZERO PUSH2 0x773 JUMPI POP PUSH1 0x24 DUP3 PUSH1 0xFF AND GT ISZERO JUMPDEST PUSH2 0x7B2 JUMPI PUSH1 0x40 MLOAD PUSH32 0x8C379A000000000000000000000000000000000000000000000000000000000 DUP2 MSTORE PUSH1 0x4 ADD PUSH2 0x7A9 SWAP1 PUSH2 0x1FD2 JUMP JUMPDEST PUSH1 0x40 MLOAD DUP1 SWAP2 SUB SWAP1 REVERT JUMPDEST PUSH2 0x987 JUMP JUMPDEST PUSH1 0x1 PUSH1 0x5 DUP2 GT ISZERO PUSH2 0x7CB JUMPI PUSH2 0x7CA PUSH2 0x177A JUMP JUMPDEST JUMPDEST DUP2 PUSH1 0x5 DUP2 GT ISZERO PUSH2 0x7DE JUMPI PUSH2 0x7DD PUSH2 0x177A JUMP JUMPDEST JUMPDEST SUB PUSH2 0x83F JUMPI PUSH1 0x1 DUP3 PUSH1 0xFF AND LT ISZERO DUP1 ISZERO PUSH2 0x7FB JUMPI POP PUSH1 0x3 DUP3 PUSH1 0xFF AND GT ISZERO JUMPDEST PUSH2 0x83A JUMPI PUSH1 0x40 MLOAD PUSH32 0x8C379A000000000000000000000000000000000000000000000000000000000 DUP2 MSTORE PUSH1 0x4 ADD PUSH2 0x831 SWAP1 PUSH2 0x2064 JUMP JUMPDEST PUSH1 0x40 MLOAD DUP1 SWAP2 SUB SWAP1 REVERT JUMPDEST PUSH2 0x986 JUMP JUMPDEST PUSH1 0x2 PUSH1 0x5 DUP2 GT ISZERO PUSH2 0x853 JUMPI PUSH2 0x852 PUSH2 0x177A JUMP JUMPDEST JUMPDEST DUP2 PUSH1 0x5 DUP2 GT ISZERO PUSH2 0x866 JUMPI PUSH2 0x865 PUSH2 0x177A JUMP JUMPDEST JUMPDEST EQ DUP1 PUSH2 0x896 JUMPI POP PUSH1 0x3 PUSH1 0x5 DUP2 GT ISZERO PUSH2 0x881 JUMPI PUSH2 0x880 PUSH2 0x177A JUMP JUMPDEST JUMPDEST DUP2 PUSH1 0x5 DUP2 GT ISZERO PUSH2 0x894 JUMPI PUSH2 0x893 PUSH2 0x177A JUMP JUMPDEST JUMPDEST EQ JUMPDEST DUP1 PUSH2 0x8C5 JUMPI POP PUSH1 0x4 PUSH1 0x5 DUP2 GT ISZERO PUSH2 0x8B0 JUMPI PUSH2 0x8AF PUSH2 0x177A JUMP JUMPDEST JUMPDEST DUP2 PUSH1 0x5 DUP2 GT ISZERO PUSH2 0x8C3 JUMPI PUSH2 0x8C2 PUSH2 0x177A JUMP JUMPDEST JUMPDEST EQ JUMPDEST DUP1 PUSH2 0x8F3 JUMPI POP PUSH1 0x5 DUP1 DUP2 GT ISZERO PUSH2 0x8DE JUMPI PUSH2 0x8DD PUSH2 0x177A JUMP JUMPDEST JUMPDEST DUP2 PUSH1 0x5 DUP2 GT ISZERO PUSH2 0x8F1 JUMPI PUSH2 0x8F0 PUSH2 0x177A JUMP JUMPDEST JUMPDEST EQ JUMPDEST ISZERO PUSH2 0x943 JUMPI PUSH1 0x1 DUP3 PUSH1 0xFF AND EQ PUSH2 0x93E JUMPI PUSH1 0x40 MLOAD PUSH32 0x8C379A000000000000000000000000000000000000000000000000000000000 DUP2 MSTORE PUSH1 0x4 ADD PUSH2 0x935 SWAP1 PUSH2 0x211C JUMP JUMPDEST PUSH1 0x40 MLOAD DUP1 SWAP2 SUB SWAP1 REVERT JUMPDEST PUSH2 0x985 JUMP JUMPDEST PUSH1 0x0 PUSH2 0x984 JUMPI PUSH1 0x40 MLOAD PUSH32 0x8C379A000000000000000000000000000000000000000000000000000000000 DUP2 MSTORE PUSH1 0x4 ADD PUSH2 0x97B SWAP1 PUSH2 0x21D4 JUMP JUMPDEST PUSH1 0x40 MLOAD DUP1 SWAP2 SUB SWAP1 REVERT JUMPDEST JUMPDEST JUMPDEST JUMPDEST PUSH1 0x1 PUSH1 0xA PUSH1 0x0 PUSH2 0x100 EXP DUP2 SLOAD DUP2 PUSH1 0xFF MUL NOT AND SWAP1 DUP4 ISZERO ISZERO MUL OR SWAP1 SSTORE POP PUSH1 0x40 MLOAD DUP1 PUSH1 0xA0 ADD PUSH1 0x40 MSTORE DUP1 CALLER PUSH20 0xFFFFFFFFFFFFFFFFFFFFFFFFFFFFFFFFFFFFFFFF AND DUP2 MSTORE PUSH1 0x20 ADD CALLVALUE DUP2 MSTORE PUSH1 0x20 ADD DUP3 PUSH1 0x5 DUP2 GT ISZERO PUSH2 0x9E2 JUMPI PUSH2 0x9E1 PUSH2 0x177A JUMP JUMPDEST JUMPDEST DUP2 MSTORE PUSH1 0x20 ADD DUP4 PUSH1 0xFF AND DUP2 MSTORE PUSH1 0x20 ADD PUSH1 0x0 ISZERO ISZERO DUP2 MSTORE POP PUSH1 0x6 PUSH1 0x0 DUP3 ADD MLOAD DUP2 PUSH1 0x0 ADD PUSH1 0x0 PUSH2 0x100 EXP DUP2 SLOAD DUP2 PUSH20 0xFFFFFFFFFFFFFFFFFFFFFFFFFFFFFFFFFFFFFFFF MUL NOT AND SWAP1 DUP4 PUSH20 0xFFFFFFFFFFFFFFFFFFFFFFFFFFFFFFFFFFFFFFFF AND MUL OR SWAP1 SSTORE POP PUSH1 0x20 DUP3 ADD MLOAD DUP2 PUSH1 0x1 ADD SSTORE PUSH1 0x40 DUP3 ADD MLOAD DUP2 PUSH1 0x2 ADD PUSH1 0x0 PUSH2 0x100 EXP DUP2 SLOAD DUP2 PUSH1 0xFF MUL NOT AND SWAP1 DUP4 PUSH1 0x5 DUP2 GT ISZERO PUSH2 0xA75 JUMPI PUSH2 0xA74 PUSH2 0x177A JUMP JUMPDEST JUMPDEST MUL OR SWAP1 SSTORE POP PUSH1 0x60 DUP3 ADD MLOAD DUP2 PUSH1 0x2 ADD PUSH1 0x1 PUSH2 0x100 EXP DUP2 SLOAD DUP2 PUSH1 0xFF MUL NOT AND SWAP1 DUP4 PUSH1 0xFF AND MUL OR SWAP1 SSTORE POP PUSH1 0x80 DUP3 ADD MLOAD DUP2 PUSH1 0x2 ADD PUSH1 0x2 PUSH2 0x100 EXP DUP2 SLOAD DUP2 PUSH1 0xFF MUL NOT AND SWAP1 DUP4 ISZERO ISZERO MUL OR SWAP1 SSTORE POP SWAP1 POP POP PUSH32 0x17765110FDCA5F4BA1CF2DF414D1CF822FA07C70797D184D4C43E9FDE1846EB5 PUSH1 0x6 PUSH1 0x40 MLOAD PUSH2 0xAEE SWAP2 SWAP1 PUSH2 0x23CC JUMP JUMPDEST PUSH1 0x40 MLOAD DUP1 SWAP2 SUB SWAP1 LOG1 PUSH2 0xAFE PUSH2 0xD7B JUMP JUMPDEST PUSH1 0x0 PUSH1 0xC PUSH1 0x0 PUSH2 0x100 EXP DUP2 SLOAD DUP2 PUSH1 0xFF MUL NOT AND SWAP1 DUP4 ISZERO ISZERO MUL OR SWAP1 SSTORE POP POP POP JUMP JUMPDEST PUSH2 0xB25 PUSH2 0xBB8 JUMP JUMPDEST JUMP JUMPDEST PUSH1 0x6 DUP1 PUSH1 0x0 ADD PUSH1 0x0 SWAP1 SLOAD SWAP1 PUSH2 0x100 EXP SWAP1 DIV PUSH20 0xFFFFFFFFFFFFFFFFFFFFFFFFFFFFFFFFFFFFFFFF AND SWAP1 DUP1 PUSH1 0x1 ADD SLOAD SWAP1 DUP1 PUSH1 0x2 ADD PUSH1 0x0 SWAP1 SLOAD SWAP1 PUSH2 0x100 EXP SWAP1 DIV PUSH1 0xFF AND SWAP1 DUP1 PUSH1 0x2 ADD PUSH1 0x1 SWAP1 SLOAD SWAP1 PUSH2 0x100 EXP SWAP1 DIV PUSH1 0xFF AND SWAP1 DUP1 PUSH1 0x2 ADD PUSH1 0x2 SWAP1 SLOAD SWAP1 PUSH2 0x100 EXP SWAP1 DIV PUSH1 0xFF AND SWAP1 POP DUP6 JUMP JUMPDEST PUSH1 0x2 PUSH1 0x4 SWAP1 SLOAD SWAP1 PUSH2 0x100 EXP SWAP1 DIV PUSH20 0xFFFFFFFFFFFFFFFFFFFFFFFFFFFFFFFFFFFFFFFF AND DUP2 JUMP JUMPDEST PUSH1 0x0 SELFBALANCE SWAP1 POP PUSH1 0x0 PUSH2 0x7530 SWAP1 POP DUP1 PUSH1 0x2 PUSH1 0x0 SWAP1 SLOAD SWAP1 PUSH2 0x100 EXP SWAP1 DIV PUSH4 0xFFFFFFFF AND PUSH4 0xFFFFFFFF AND PUSH2 0xBE8 SWAP2 SWAP1 PUSH2 0x23E7 JUMP JUMPDEST PUSH1 0x4 DUP2 SWAP1 SSTORE POP PUSH1 0x4 SLOAD PUSH1 0x23 DUP4 PUSH2 0xBFE SWAP2 SWAP1 PUSH2 0x244A JUMP JUMPDEST GT PUSH2 0xC3E JUMPI PUSH1 0x40 MLOAD PUSH32 0x8C379A000000000000000000000000000000000000000000000000000000000 DUP2 MSTORE PUSH1 0x4 ADD PUSH2 0xC35 SWAP1 PUSH2 0x24ED JUMP JUMPDEST PUSH1 0x40 MLOAD DUP1 SWAP2 SUB SWAP1 REVERT JUMPDEST PUSH1 0x4 SLOAD PUSH1 0x23 DUP4 PUSH2 0xC4E SWAP2 SWAP1 PUSH2 0x244A JUMP JUMPDEST PUSH2 0xC58 SWAP2 SWAP1 PUSH2 0x1CFD JUMP JUMPDEST PUSH1 0x3 DUP2 SWAP1 SSTORE POP PUSH32 0xD6C35F99CD113B65660D600ED2917DA92E279B96836A62BD211B0445E6AFA0CF PUSH1 0x3 SLOAD PUSH1 0x4 SLOAD PUSH1 0x40 MLOAD PUSH2 0xC93 SWAP3 SWAP2 SWAP1 PUSH2 0x250D JUMP JUMPDEST PUSH1 0x40 MLOAD DUP1 SWAP2 SUB SWAP1 LOG1 PUSH1 0x4 SLOAD PUSH1 0x3 SLOAD LT ISZERO PUSH2 0xCB0 JUMPI PUSH2 0xCAF PUSH2 0x1D31 JUMP JUMPDEST JUMPDEST POP POP JUMP JUMPDEST DUP2 PUSH1 0x9 SLOAD EQ PUSH2 0xCF8 JUMPI PUSH1 0x40 MLOAD PUSH32 0x8C379A000000000000000000000000000000000000000000000000000000000 DUP2 MSTORE PUSH1 0x4 ADD PUSH2 0xCEF SWAP1 PUSH2 0x2582 JUMP JUMPDEST PUSH1 0x40 MLOAD DUP1 SWAP2 SUB SWAP1 REVERT JUMPDEST PUSH1 0x25 DUP2 PUSH1 0x0 DUP2 MLOAD DUP2 LT PUSH2 0xD0E JUMPI PUSH2 0xD0D PUSH2 0x25A2 JUMP JUMPDEST JUMPDEST PUSH1 0x20 MUL PUSH1 0x20 ADD ADD MLOAD PUSH2 0xD20 SWAP2 SWAP1 PUSH2 0x25D1 JUMP JUMPDEST PUSH1 0x5 PUSH1 0x0 PUSH2 0x100 EXP DUP2 SLOAD DUP2 PUSH1 0xFF MUL NOT AND SWAP1 DUP4 PUSH1 0xFF AND MUL OR SWAP1 SSTORE POP PUSH32 0xD26A1EF5C184C4E0EB2179564CC0202C6EE2F00C1B3514D54DED3D5BC598E516 PUSH1 0x40 MLOAD PUSH2 0xD67 SWAP1 PUSH2 0x264E JUMP JUMPDEST PUSH1 0x40 MLOAD DUP1 SWAP2 SUB SWAP1 LOG1 PUSH2 0xD77 PUSH2 0xF82 JUMP JUMPDEST POP POP JUMP JUMPDEST PUSH1 0x0 PUSH1 0x3 SWAP1 POP PUSH1 0x0 PUSH1 0x1 SWAP1 POP PUSH1 0x0 DUP1 SLOAD SWAP1 PUSH2 0x100 EXP SWAP1 DIV PUSH20 0xFFFFFFFFFFFFFFFFFFFFFFFFFFFFFFFFFFFFFFFF AND PUSH20 0xFFFFFFFFFFFFFFFFFFFFFFFFFFFFFFFFFFFFFFFF AND PUSH4 0x5D3B1D30 PUSH1 0x1 SLOAD PUSH1 0x0 PUSH1 0x14 SWAP1 SLOAD SWAP1 PUSH2 0x100 EXP SWAP1 DIV PUSH8 0xFFFFFFFFFFFFFFFF AND DUP6 PUSH1 0x2 PUSH1 0x0 SWAP1 SLOAD SWAP1 PUSH2 0x100 EXP SWAP1 DIV PUSH4 0xFFFFFFFF AND DUP7 PUSH1 0x40 MLOAD DUP7 PUSH4 0xFFFFFFFF AND PUSH1 0xE0 SHL DUP2 MSTORE PUSH1 0x4 ADD PUSH2 0xE12 SWAP6 SWAP5 SWAP4 SWAP3 SWAP2 SWAP1 PUSH2 0x26E6 JUMP JUMPDEST PUSH1 0x20 PUSH1 0x40 MLOAD DUP1 DUP4 SUB DUP2 PUSH1 0x0 DUP8 GAS CALL ISZERO DUP1 ISZERO PUSH2 0xE31 JUMPI RETURNDATASIZE PUSH1 0x0 DUP1 RETURNDATACOPY RETURNDATASIZE PUSH1 0x0 REVERT JUMPDEST POP POP POP POP PUSH1 0x40 MLOAD RETURNDATASIZE PUSH1 0x1F NOT PUSH1 0x1F DUP3 ADD AND DUP3 ADD DUP1 PUSH1 0x40 MSTORE POP DUP2 ADD SWAP1 PUSH2 0xE55 SWAP2 SWAP1 PUSH2 0x274E JUMP JUMPDEST PUSH1 0x9 DUP2 SWAP1 SSTORE POP PUSH1 0x6 PUSH1 0xB PUSH1 0x0 PUSH1 0x9 SLOAD DUP2 MSTORE PUSH1 0x20 ADD SWAP1 DUP2 MSTORE PUSH1 0x20 ADD PUSH1 0x0 KECCAK256 PUSH1 0x0 DUP3 ADD PUSH1 0x0 SWAP1 SLOAD SWAP1 PUSH2 0x100 EXP SWAP1 DIV PUSH20 0xFFFFFFFFFFFFFFFFFFFFFFFFFFFFFFFFFFFFFFFF AND DUP2 PUSH1 0x0 ADD PUSH1 0x0 PUSH2 0x100 EXP DUP2 SLOAD DUP2 PUSH20 0xFFFFFFFFFFFFFFFFFFFFFFFFFFFFFFFFFFFFFFFF MUL NOT AND SWAP1 DUP4 PUSH20 0xFFFFFFFFFFFFFFFFFFFFFFFFFFFFFFFFFFFFFFFF AND MUL OR SWAP1 SSTORE POP PUSH1 0x1 DUP3 ADD SLOAD DUP2 PUSH1 0x1 ADD SSTORE PUSH1 0x2 DUP3 ADD PUSH1 0x0 SWAP1 SLOAD SWAP1 PUSH2 0x100 EXP SWAP1 DIV PUSH1 0xFF AND DUP2 PUSH1 0x2 ADD PUSH1 0x0 PUSH2 0x100 EXP DUP2 SLOAD DUP2 PUSH1 0xFF MUL NOT AND SWAP1 DUP4 PUSH1 0x5 DUP2 GT ISZERO PUSH2 0xF1B JUMPI PUSH2 0xF1A PUSH2 0x177A JUMP JUMPDEST JUMPDEST MUL OR SWAP1 SSTORE POP PUSH1 0x2 DUP3 ADD PUSH1 0x1 SWAP1 SLOAD SWAP1 PUSH2 0x100 EXP SWAP1 DIV PUSH1 0xFF AND DUP2 PUSH1 0x2 ADD PUSH1 0x1 PUSH2 0x100 EXP DUP2 SLOAD DUP2 PUSH1 0xFF MUL NOT AND SWAP1 DUP4 PUSH1 0xFF AND MUL OR SWAP1 SSTORE POP PUSH1 0x2 DUP3 ADD PUSH1 0x2 SWAP1 SLOAD SWAP1 PUSH2 0x100 EXP SWAP1 DIV PUSH1 0xFF AND DUP2 PUSH1 0x2 ADD PUSH1 0x2 PUSH2 0x100 EXP DUP2 SLOAD DUP2 PUSH1 0xFF MUL NOT AND SWAP1 DUP4 ISZERO ISZERO MUL OR SWAP1 SSTORE POP SWAP1 POP POP POP POP JUMP JUMPDEST PUSH1 0x0 PUSH1 0x6 PUSH1 0x0 ADD PUSH1 0x0 SWAP1 SLOAD SWAP1 PUSH2 0x100 EXP SWAP1 DIV PUSH20 0xFFFFFFFFFFFFFFFFFFFFFFFFFFFFFFFFFFFFFFFF AND SWAP1 POP PUSH1 0x0 PUSH1 0x6 PUSH1 0x1 ADD SLOAD SWAP1 POP PUSH1 0x0 PUSH1 0x6 PUSH1 0x2 ADD PUSH1 0x0 SWAP1 SLOAD SWAP1 PUSH2 0x100 EXP SWAP1 DIV PUSH1 0xFF AND SWAP1 POP PUSH1 0x0 PUSH1 0x6 PUSH1 0x2 ADD PUSH1 0x1 SWAP1 SLOAD SWAP1 PUSH2 0x100 EXP SWAP1 DIV PUSH1 0xFF AND SWAP1 POP PUSH1 0x0 PUSH1 0x5 DUP2 GT ISZERO PUSH2 0xFF8 JUMPI PUSH2 0xFF7 PUSH2 0x177A JUMP JUMPDEST JUMPDEST DUP3 PUSH1 0x5 DUP2 GT ISZERO PUSH2 0x100B JUMPI PUSH2 0x100A PUSH2 0x177A JUMP JUMPDEST JUMPDEST SUB PUSH2 0x10AE JUMPI DUP1 PUSH1 0xFF AND PUSH1 0x5 PUSH1 0x0 SWAP1 SLOAD SWAP1 PUSH2 0x100 EXP SWAP1 DIV PUSH1 0xFF AND PUSH1 0xFF AND SUB PUSH2 0x109C JUMPI DUP4 PUSH20 0xFFFFFFFFFFFFFFFFFFFFFFFFFFFFFFFFFFFFFFFF AND PUSH2 0x8FC PUSH1 0x23 DUP6 PUSH2 0x1053 SWAP2 SWAP1 PUSH2 0x277B JUMP JUMPDEST SWAP1 DUP2 ISZERO MUL SWAP1 PUSH1 0x40 MLOAD PUSH1 0x0 PUSH1 0x40 MLOAD DUP1 DUP4 SUB DUP2 DUP6 DUP9 DUP9 CALL SWAP4 POP POP POP POP ISZERO DUP1 ISZERO PUSH2 0x107E JUMPI RETURNDATASIZE PUSH1 0x0 DUP1 RETURNDATACOPY RETURNDATASIZE PUSH1 0x0 REVERT JUMPDEST POP PUSH2 0x1097 DUP5 PUSH1 0x1 PUSH1 0x23 DUP7 PUSH2 0x1092 SWAP2 SWAP1 PUSH2 0x277B JUMP JUMPDEST PUSH2 0x154C JUMP JUMPDEST PUSH2 0x10A9 JUMP JUMPDEST PUSH2 0x10A8 DUP5 PUSH1 0x0 DUP1 PUSH2 0x154C JUMP JUMPDEST JUMPDEST PUSH2 0x14EE JUMP JUMPDEST PUSH1 0x1 PUSH1 0x5 DUP2 GT ISZERO PUSH2 0x10C2 JUMPI PUSH2 0x10C1 PUSH2 0x177A JUMP JUMPDEST JUMPDEST DUP3 PUSH1 0x5 DUP2 GT ISZERO PUSH2 0x10D5 JUMPI PUSH2 0x10D4 PUSH2 0x177A JUMP JUMPDEST JUMPDEST SUB PUSH2 0x11BF JUMPI PUSH1 0xC PUSH1 0x1 DUP3 PUSH2 0x10E9 SWAP2 SWAP1 PUSH2 0x27BD JUMP JUMPDEST PUSH2 0x10F3 SWAP2 SWAP1 PUSH2 0x27F2 JUMP JUMPDEST PUSH1 0xFF AND PUSH1 0x5 PUSH1 0x0 SWAP1 SLOAD SWAP1 PUSH2 0x100 EXP SWAP1 DIV PUSH1 0xFF AND PUSH1 0xFF AND LT ISZERO DUP1 ISZERO PUSH2 0x1138 JUMPI POP PUSH1 0xC DUP2 PUSH2 0x111F SWAP2 SWAP1 PUSH2 0x27F2 JUMP JUMPDEST PUSH1 0xFF AND PUSH1 0x5 PUSH1 0x0 SWAP1 SLOAD SWAP1 PUSH2 0x100 EXP SWAP1 DIV PUSH1 0xFF AND PUSH1 0xFF AND GT ISZERO JUMPDEST ISZERO PUSH2 0x11AD JUMPI DUP4 PUSH20 0xFFFFFFFFFFFFFFFFFFFFFFFFFFFFFFFFFFFFFFFF AND PUSH2 0x8FC PUSH1 0x3 DUP6 PUSH2 0x1164 SWAP2 SWAP1 PUSH2 0x277B JUMP JUMPDEST SWAP1 DUP2 ISZERO MUL SWAP1 PUSH1 0x40 MLOAD PUSH1 0x0 PUSH1 0x40 MLOAD DUP1 DUP4 SUB DUP2 DUP6 DUP9 DUP9 CALL SWAP4 POP POP POP POP ISZERO DUP1 ISZERO PUSH2 0x118F JUMPI RETURNDATASIZE PUSH1 0x0 DUP1 RETURNDATACOPY RETURNDATASIZE PUSH1 0x0 REVERT JUMPDEST POP PUSH2 0x11A8 DUP5 PUSH1 0x1 PUSH1 0x3 DUP7 PUSH2 0x11A3 SWAP2 SWAP1 PUSH2 0x277B JUMP JUMPDEST PUSH2 0x154C JUMP JUMPDEST PUSH2 0x11BA JUMP JUMPDEST PUSH2 0x11B9 DUP5 PUSH1 0x0 DUP1 PUSH2 0x154C JUMP JUMPDEST JUMPDEST PUSH2 0x14ED JUMP JUMPDEST PUSH1 0x2 PUSH1 0x5 DUP2 GT ISZERO PUSH2 0x11D3 JUMPI PUSH2 0x11D2 PUSH2 0x177A JUMP JUMPDEST JUMPDEST DUP3 PUSH1 0x5 DUP2 GT ISZERO PUSH2 0x11E6 JUMPI PUSH2 0x11E5 PUSH2 0x177A JUMP JUMPDEST JUMPDEST SUB PUSH2 0x128A JUMPI PUSH2 0x1203 PUSH1 0x5 PUSH1 0x0 SWAP1 SLOAD SWAP1 PUSH2 0x100 EXP SWAP1 DIV PUSH1 0xFF AND PUSH2 0x1600 JUMP JUMPDEST ISZERO PUSH2 0x1278 JUMPI DUP4 PUSH20 0xFFFFFFFFFFFFFFFFFFFFFFFFFFFFFFFFFFFFFFFF AND PUSH2 0x8FC PUSH1 0x2 DUP6 PUSH2 0x122F SWAP2 SWAP1 PUSH2 0x277B JUMP JUMPDEST SWAP1 DUP2 ISZERO MUL SWAP1 PUSH1 0x40 MLOAD PUSH1 0x0 PUSH1 0x40 MLOAD DUP1 DUP4 SUB DUP2 DUP6 DUP9 DUP9 CALL SWAP4 POP POP POP POP ISZERO DUP1 ISZERO PUSH2 0x125A JUMPI RETURNDATASIZE PUSH1 0x0 DUP1 RETURNDATACOPY RETURNDATASIZE PUSH1 0x0 REVERT JUMPDEST POP PUSH2 0x1273 DUP5 PUSH1 0x1 PUSH1 0x2 DUP7 PUSH2 0x126E SWAP2 SWAP1 PUSH2 0x277B JUMP JUMPDEST PUSH2 0x154C JUMP JUMPDEST PUSH2 0x1285 JUMP JUMPDEST PUSH2 0x1284 DUP5 PUSH1 0x0 DUP1 PUSH2 0x154C JUMP JUMPDEST JUMPDEST PUSH2 0x14EC JUMP JUMPDEST PUSH1 0x3 PUSH1 0x5 DUP2 GT ISZERO PUSH2 0x129E JUMPI PUSH2 0x129D PUSH2 0x177A JUMP JUMPDEST JUMPDEST DUP3 PUSH1 0x5 DUP2 GT ISZERO PUSH2 0x12B1 JUMPI PUSH2 0x12B0 PUSH2 0x177A JUMP JUMPDEST JUMPDEST SUB PUSH2 0x1354 JUMPI PUSH2 0x12CE PUSH1 0x5 PUSH1 0x0 SWAP1 SLOAD SWAP1 PUSH2 0x100 EXP SWAP1 DIV PUSH1 0xFF AND PUSH2 0x1600 JUMP JUMPDEST PUSH2 0x1342 JUMPI DUP4 PUSH20 0xFFFFFFFFFFFFFFFFFFFFFFFFFFFFFFFFFFFFFFFF AND PUSH2 0x8FC PUSH1 0x2 DUP6 PUSH2 0x12F9 SWAP2 SWAP1 PUSH2 0x277B JUMP JUMPDEST SWAP1 DUP2 ISZERO MUL SWAP1 PUSH1 0x40 MLOAD PUSH1 0x0 PUSH1 0x40 MLOAD DUP1 DUP4 SUB DUP2 DUP6 DUP9 DUP9 CALL SWAP4 POP POP POP POP ISZERO DUP1 ISZERO PUSH2 0x1324 JUMPI RETURNDATASIZE PUSH1 0x0 DUP1 RETURNDATACOPY RETURNDATASIZE PUSH1 0x0 REVERT JUMPDEST POP PUSH2 0x133D DUP5 PUSH1 0x1 PUSH1 0x2 DUP7 PUSH2 0x1338 SWAP2 SWAP1 PUSH2 0x277B JUMP JUMPDEST PUSH2 0x154C JUMP JUMPDEST PUSH2 0x134F JUMP JUMPDEST PUSH2 0x134E DUP5 PUSH1 0x0 DUP1 PUSH2 0x154C JUMP JUMPDEST JUMPDEST PUSH2 0x14EB JUMP JUMPDEST PUSH1 0x4 PUSH1 0x5 DUP2 GT ISZERO PUSH2 0x1368 JUMPI PUSH2 0x1367 PUSH2 0x177A JUMP JUMPDEST JUMPDEST DUP3 PUSH1 0x5 DUP2 GT ISZERO PUSH2 0x137B JUMPI PUSH2 0x137A PUSH2 0x177A JUMP JUMPDEST JUMPDEST SUB PUSH2 0x141F JUMPI PUSH2 0x1398 PUSH1 0x5 PUSH1 0x0 SWAP1 SLOAD SWAP1 PUSH2 0x100 EXP SWAP1 DIV PUSH1 0xFF AND PUSH2 0x16A1 JUMP JUMPDEST ISZERO PUSH2 0x140D JUMPI DUP4 PUSH20 0xFFFFFFFFFFFFFFFFFFFFFFFFFFFFFFFFFFFFFFFF AND PUSH2 0x8FC PUSH1 0x2 DUP6 PUSH2 0x13C4 SWAP2 SWAP1 PUSH2 0x277B JUMP JUMPDEST SWAP1 DUP2 ISZERO MUL SWAP1 PUSH1 0x40 MLOAD PUSH1 0x0 PUSH1 0x40 MLOAD DUP1 DUP4 SUB DUP2 DUP6 DUP9 DUP9 CALL SWAP4 POP POP POP POP ISZERO DUP1 ISZERO PUSH2 0x13EF JUMPI RETURNDATASIZE PUSH1 0x0 DUP1 RETURNDATACOPY RETURNDATASIZE PUSH1 0x0 REVERT JUMPDEST POP PUSH2 0x1408 DUP5 PUSH1 0x1 PUSH1 0x2 DUP7 PUSH2 0x1403 SWAP2 SWAP1 PUSH2 0x277B JUMP JUMPDEST PUSH2 0x154C JUMP JUMPDEST PUSH2 0x141A JUMP JUMPDEST PUSH2 0x1419 DUP5 PUSH1 0x0 DUP1 PUSH2 0x154C JUMP JUMPDEST JUMPDEST PUSH2 0x14EA JUMP JUMPDEST PUSH1 0x5 DUP1 DUP2 GT ISZERO PUSH2 0x1432 JUMPI PUSH2 0x1431 PUSH2 0x177A JUMP JUMPDEST JUMPDEST DUP3 PUSH1 0x5 DUP2 GT ISZERO PUSH2 0x1445 JUMPI PUSH2 0x1444 PUSH2 0x177A JUMP JUMPDEST JUMPDEST SUB PUSH2 0x14E8 JUMPI PUSH2 0x1462 PUSH1 0x5 PUSH1 0x0 SWAP1 SLOAD SWAP1 PUSH2 0x100 EXP SWAP1 DIV PUSH1 0xFF AND PUSH2 0x16A1 JUMP JUMPDEST PUSH2 0x14D6 JUMPI DUP4 PUSH20 0xFFFFFFFFFFFFFFFFFFFFFFFFFFFFFFFFFFFFFFFF AND PUSH2 0x8FC PUSH1 0x2 DUP6 PUSH2 0x148D SWAP2 SWAP1 PUSH2 0x277B JUMP JUMPDEST SWAP1 DUP2 ISZERO MUL SWAP1 PUSH1 0x40 MLOAD PUSH1 0x0 PUSH1 0x40 MLOAD DUP1 DUP4 SUB DUP2 DUP6 DUP9 DUP9 CALL SWAP4 POP POP POP POP ISZERO DUP1 ISZERO PUSH2 0x14B8 JUMPI RETURNDATASIZE PUSH1 0x0 DUP1 RETURNDATACOPY RETURNDATASIZE PUSH1 0x0 REVERT JUMPDEST POP PUSH2 0x14D1 DUP5 PUSH1 0x1 PUSH1 0x2 DUP7 PUSH2 0x14CC SWAP2 SWAP1 PUSH2 0x277B JUMP JUMPDEST PUSH2 0x154C JUMP JUMPDEST PUSH2 0x14E3 JUMP JUMPDEST PUSH2 0x14E2 DUP5 PUSH1 0x0 DUP1 PUSH2 0x154C JUMP JUMPDEST JUMPDEST PUSH2 0x14E9 JUMP JUMPDEST JUMPDEST JUMPDEST JUMPDEST JUMPDEST JUMPDEST JUMPDEST PUSH2 0x14F6 PUSH2 0xBB8 JUMP JUMPDEST PUSH1 0x0 PUSH1 0xA PUSH1 0x0 PUSH2 0x100 EXP DUP2 SLOAD DUP2 PUSH1 0xFF MUL NOT AND SWAP1 DUP4 ISZERO ISZERO MUL OR SWAP1 SSTORE POP PUSH32 0x9E32D9879388C92FA8390C5A92317126522AE46EAC27FDDFEDAC4DDC795B8F3 PUSH1 0x40 MLOAD PUSH2 0x153E SWAP1 PUSH2 0x287B JUMP JUMPDEST PUSH1 0x40 MLOAD DUP1 SWAP2 SUB SWAP1 LOG1 POP POP POP POP JUMP JUMPDEST DUP2 ISZERO PUSH2 0x15C1 JUMPI PUSH32 0xC32342DC8906E5E3A410389D8EA8527ACA5F746CCD18F74703CC4A2A32C99F46 DUP4 DUP3 PUSH1 0x40 MLOAD PUSH2 0x1583 SWAP3 SWAP2 SWAP1 PUSH2 0x28E7 JUMP JUMPDEST PUSH1 0x40 MLOAD DUP1 SWAP2 SUB SWAP1 LOG1 PUSH1 0x1 PUSH1 0xB PUSH1 0x0 PUSH1 0x9 SLOAD DUP2 MSTORE PUSH1 0x20 ADD SWAP1 DUP2 MSTORE PUSH1 0x20 ADD PUSH1 0x0 KECCAK256 PUSH1 0x2 ADD PUSH1 0x2 PUSH2 0x100 EXP DUP2 SLOAD DUP2 PUSH1 0xFF MUL NOT AND SWAP1 DUP4 ISZERO ISZERO MUL OR SWAP1 SSTORE POP PUSH2 0x15FB JUMP JUMPDEST PUSH32 0xC32342DC8906E5E3A410389D8EA8527ACA5F746CCD18F74703CC4A2A32C99F46 DUP4 DUP3 PUSH1 0x40 MLOAD PUSH2 0x15F2 SWAP3 SWAP2 SWAP1 PUSH2 0x296F JUMP JUMPDEST PUSH1 0x40 MLOAD DUP1 SWAP2 SUB SWAP1 LOG1 JUMPDEST POP POP POP JUMP JUMPDEST PUSH1 0x0 PUSH1 0x1 DUP3 PUSH1 0xFF AND LT ISZERO DUP1 ISZERO PUSH2 0x161A JUMPI POP PUSH1 0xA DUP3 PUSH1 0xFF AND GT ISZERO JUMPDEST DUP1 PUSH2 0x1639 JUMPI POP PUSH1 0x13 DUP3 PUSH1 0xFF AND LT ISZERO DUP1 ISZERO PUSH2 0x1638 JUMPI POP PUSH1 0x1C DUP3 PUSH1 0xFF AND GT ISZERO JUMPDEST JUMPDEST DUP1 ISZERO PUSH2 0x164A JUMPI POP PUSH2 0x1649 DUP3 PUSH2 0x16A1 JUMP JUMPDEST JUMPDEST DUP1 PUSH2 0x169A JUMPI POP PUSH1 0xB DUP3 PUSH1 0xFF AND LT ISZERO DUP1 ISZERO PUSH2 0x1668 JUMPI POP PUSH1 0x12 DUP3 PUSH1 0xFF AND GT ISZERO JUMPDEST DUP1 PUSH2 0x1687 JUMPI POP PUSH1 0x1D DUP3 PUSH1 0xFF AND LT ISZERO DUP1 ISZERO PUSH2 0x1686 JUMPI POP PUSH1 0x24 DUP3 PUSH1 0xFF AND GT ISZERO JUMPDEST JUMPDEST DUP1 ISZERO PUSH2 0x1699 JUMPI POP PUSH2 0x1697 DUP3 PUSH2 0x16A1 JUMP JUMPDEST ISZERO JUMPDEST JUMPDEST SWAP1 POP SWAP2 SWAP1 POP JUMP JUMPDEST PUSH1 0x0 PUSH1 0x1 DUP1 DUP4 AND PUSH1 0xFF AND EQ SWAP1 POP SWAP2 SWAP1 POP JUMP JUMPDEST PUSH1 0x0 PUSH1 0x40 MLOAD SWAP1 POP SWAP1 JUMP JUMPDEST PUSH1 0x0 DUP1 REVERT JUMPDEST PUSH1 0x0 DUP1 REVERT JUMPDEST PUSH1 0x0 DUP2 SWAP1 POP SWAP2 SWAP1 POP JUMP JUMPDEST PUSH2 0x16DA DUP2 PUSH2 0x16C7 JUMP JUMPDEST DUP2 EQ PUSH2 0x16E5 JUMPI PUSH1 0x0 DUP1 REVERT JUMPDEST POP JUMP JUMPDEST PUSH1 0x0 DUP2 CALLDATALOAD SWAP1 POP PUSH2 0x16F7 DUP2 PUSH2 0x16D1 JUMP JUMPDEST SWAP3 SWAP2 POP POP JUMP JUMPDEST PUSH1 0x0 PUSH1 0x20 DUP3 DUP5 SUB SLT ISZERO PUSH2 0x1713 JUMPI PUSH2 0x1712 PUSH2 0x16BD JUMP JUMPDEST JUMPDEST PUSH1 0x0 PUSH2 0x1721 DUP5 DUP3 DUP6 ADD PUSH2 0x16E8 JUMP JUMPDEST SWAP2 POP POP SWAP3 SWAP2 POP POP JUMP JUMPDEST PUSH1 0x0 PUSH20 0xFFFFFFFFFFFFFFFFFFFFFFFFFFFFFFFFFFFFFFFF DUP3 AND SWAP1 POP SWAP2 SWAP1 POP JUMP JUMPDEST PUSH1 0x0 PUSH2 0x1755 DUP3 PUSH2 0x172A JUMP JUMPDEST SWAP1 POP SWAP2 SWAP1 POP JUMP JUMPDEST PUSH2 0x1765 DUP2 PUSH2 0x174A JUMP JUMPDEST DUP3 MSTORE POP POP JUMP JUMPDEST PUSH2 0x1774 DUP2 PUSH2 0x16C7 JUMP JUMPDEST DUP3 MSTORE POP POP JUMP JUMPDEST PUSH32 0x4E487B7100000000000000000000000000000000000000000000000000000000 PUSH1 0x0 MSTORE PUSH1 0x21 PUSH1 0x4 MSTORE PUSH1 0x24 PUSH1 0x0 REVERT JUMPDEST PUSH1 0x6 DUP2 LT PUSH2 0x17BA JUMPI PUSH2 0x17B9 PUSH2 0x177A JUMP JUMPDEST JUMPDEST POP JUMP JUMPDEST PUSH1 0x0 DUP2 SWAP1 POP PUSH2 0x17CB DUP3 PUSH2 0x17A9 JUMP JUMPDEST SWAP2 SWAP1 POP JUMP JUMPDEST PUSH1 0x0 PUSH2 0x17DB DUP3 PUSH2 0x17BD JUMP JUMPDEST SWAP1 POP SWAP2 SWAP1 POP JUMP JUMPDEST PUSH2 0x17EB DUP2 PUSH2 0x17D0 JUMP JUMPDEST DUP3 MSTORE POP POP JUMP JUMPDEST PUSH1 0x0 PUSH1 0xFF DUP3 AND SWAP1 POP SWAP2 SWAP1 POP JUMP JUMPDEST PUSH2 0x1807 DUP2 PUSH2 0x17F1 JUMP JUMPDEST DUP3 MSTORE POP POP JUMP JUMPDEST PUSH1 0x0 DUP2 ISZERO ISZERO SWAP1 POP SWAP2 SWAP1 POP JUMP JUMPDEST PUSH2 0x1822 DUP2 PUSH2 0x180D JUMP JUMPDEST DUP3 MSTORE POP POP JUMP JUMPDEST PUSH1 0x0 PUSH1 0xA0 DUP3 ADD SWAP1 POP PUSH2 0x183D PUSH1 0x0 DUP4 ADD DUP9 PUSH2 0x175C JUMP JUMPDEST PUSH2 0x184A PUSH1 0x20 DUP4 ADD DUP8 PUSH2 0x176B JUMP JUMPDEST PUSH2 0x1857 PUSH1 0x40 DUP4 ADD DUP7 PUSH2 0x17E2 JUMP JUMPDEST PUSH2 0x1864 PUSH1 0x60 DUP4 ADD DUP6 PUSH2 0x17FE JUMP JUMPDEST PUSH2 0x1871 PUSH1 0x80 DUP4 ADD DUP5 PUSH2 0x1819 JUMP JUMPDEST SWAP7 SWAP6 POP POP POP POP POP POP JUMP JUMPDEST PUSH1 0x0 DUP1 REVERT JUMPDEST PUSH1 0x0 PUSH1 0x1F NOT PUSH1 0x1F DUP4 ADD AND SWAP1 POP SWAP2 SWAP1 POP JUMP JUMPDEST PUSH32 0x4E487B7100000000000000000000000000000000000000000000000000000000 PUSH1 0x0 MSTORE PUSH1 0x41 PUSH1 0x4 MSTORE PUSH1 0x24 PUSH1 0x0 REVERT JUMPDEST PUSH2 0x18C9 DUP3 PUSH2 0x1880 JUMP JUMPDEST DUP2 ADD DUP2 DUP2 LT PUSH8 0xFFFFFFFFFFFFFFFF DUP3 GT OR ISZERO PUSH2 0x18E8 JUMPI PUSH2 0x18E7 PUSH2 0x1891 JUMP JUMPDEST JUMPDEST DUP1 PUSH1 0x40 MSTORE POP POP POP JUMP JUMPDEST PUSH1 0x0 PUSH2 0x18FB PUSH2 0x16B3 JUMP JUMPDEST SWAP1 POP PUSH2 0x1907 DUP3 DUP3 PUSH2 0x18C0 JUMP JUMPDEST SWAP2 SWAP1 POP JUMP JUMPDEST PUSH1 0x0 PUSH8 0xFFFFFFFFFFFFFFFF DUP3 GT ISZERO PUSH2 0x1927 JUMPI PUSH2 0x1926 PUSH2 0x1891 JUMP JUMPDEST JUMPDEST PUSH1 0x20 DUP3 MUL SWAP1 POP PUSH1 0x20 DUP2 ADD SWAP1 POP SWAP2 SWAP1 POP JUMP JUMPDEST PUSH1 0x0 DUP1 REVERT JUMPDEST PUSH1 0x0 PUSH2 0x1950 PUSH2 0x194B DUP5 PUSH2 0x190C JUMP JUMPDEST PUSH2 0x18F1 JUMP JUMPDEST SWAP1 POP DUP1 DUP4 DUP3 MSTORE PUSH1 0x20 DUP3 ADD SWAP1 POP PUSH1 0x20 DUP5 MUL DUP4 ADD DUP6 DUP2 GT ISZERO PUSH2 0x1973 JUMPI PUSH2 0x1972 PUSH2 0x1938 JUMP JUMPDEST JUMPDEST DUP4 JUMPDEST DUP2 DUP2 LT ISZERO PUSH2 0x199C JUMPI DUP1 PUSH2 0x1988 DUP9 DUP3 PUSH2 0x16E8 JUMP JUMPDEST DUP5 MSTORE PUSH1 0x20 DUP5 ADD SWAP4 POP POP PUSH1 0x20 DUP2 ADD SWAP1 POP PUSH2 0x1975 JUMP JUMPDEST POP POP POP SWAP4 SWAP3 POP POP POP JUMP JUMPDEST PUSH1 0x0 DUP3 PUSH1 0x1F DUP4 ADD SLT PUSH2 0x19BB JUMPI PUSH2 0x19BA PUSH2 0x187B JUMP JUMPDEST JUMPDEST DUP2 CALLDATALOAD PUSH2 0x19CB DUP5 DUP3 PUSH1 0x20 DUP7 ADD PUSH2 0x193D JUMP JUMPDEST SWAP2 POP POP SWAP3 SWAP2 POP POP JUMP JUMPDEST PUSH1 0x0 DUP1 PUSH1 0x40 DUP4 DUP6 SUB SLT ISZERO PUSH2 0x19EB JUMPI PUSH2 0x19EA PUSH2 0x16BD JUMP JUMPDEST JUMPDEST PUSH1 0x0 PUSH2 0x19F9 DUP6 DUP3 DUP7 ADD PUSH2 0x16E8 JUMP JUMPDEST SWAP3 POP POP PUSH1 0x20 DUP4 ADD CALLDATALOAD PUSH8 0xFFFFFFFFFFFFFFFF DUP2 GT ISZERO PUSH2 0x1A1A JUMPI PUSH2 0x1A19 PUSH2 0x16C2 JUMP JUMPDEST JUMPDEST PUSH2 0x1A26 DUP6 DUP3 DUP7 ADD PUSH2 0x19A6 JUMP JUMPDEST SWAP2 POP POP SWAP3 POP SWAP3 SWAP1 POP JUMP JUMPDEST PUSH1 0x0 PUSH1 0x20 DUP3 ADD SWAP1 POP PUSH2 0x1A45 PUSH1 0x0 DUP4 ADD DUP5 PUSH2 0x176B JUMP JUMPDEST SWAP3 SWAP2 POP POP JUMP JUMPDEST PUSH1 0x0 PUSH1 0x20 DUP3 ADD SWAP1 POP PUSH2 0x1A60 PUSH1 0x0 DUP4 ADD DUP5 PUSH2 0x1819 JUMP JUMPDEST SWAP3 SWAP2 POP POP JUMP JUMPDEST PUSH1 0x0 PUSH1 0x20 DUP3 ADD SWAP1 POP PUSH2 0x1A7B PUSH1 0x0 DUP4 ADD DUP5 PUSH2 0x17FE JUMP JUMPDEST SWAP3 SWAP2 POP POP JUMP JUMPDEST PUSH2 0x1A8A DUP2 PUSH2 0x17F1 JUMP JUMPDEST DUP2 EQ PUSH2 0x1A95 JUMPI PUSH1 0x0 DUP1 REVERT JUMPDEST POP JUMP JUMPDEST PUSH1 0x0 DUP2 CALLDATALOAD SWAP1 POP PUSH2 0x1AA7 DUP2 PUSH2 0x1A81 JUMP JUMPDEST SWAP3 SWAP2 POP POP JUMP JUMPDEST PUSH1 0x6 DUP2 LT PUSH2 0x1ABA JUMPI PUSH1 0x0 DUP1 REVERT JUMPDEST POP JUMP JUMPDEST PUSH1 0x0 DUP2 CALLDATALOAD SWAP1 POP PUSH2 0x1ACC DUP2 PUSH2 0x1AAD JUMP JUMPDEST SWAP3 SWAP2 POP POP JUMP JUMPDEST PUSH1 0x0 DUP1 PUSH1 0x40 DUP4 DUP6 SUB SLT ISZERO PUSH2 0x1AE9 JUMPI PUSH2 0x1AE8 PUSH2 0x16BD JUMP JUMPDEST JUMPDEST PUSH1 0x0 PUSH2 0x1AF7 DUP6 DUP3 DUP7 ADD PUSH2 0x1A98 JUMP JUMPDEST SWAP3 POP POP PUSH1 0x20 PUSH2 0x1B08 DUP6 DUP3 DUP7 ADD PUSH2 0x1ABD JUMP JUMPDEST SWAP2 POP POP SWAP3 POP SWAP3 SWAP1 POP JUMP JUMPDEST PUSH1 0x0 PUSH1 0x20 DUP3 ADD SWAP1 POP PUSH2 0x1B27 PUSH1 0x0 DUP4 ADD DUP5 PUSH2 0x175C JUMP JUMPDEST SWAP3 SWAP2 POP POP JUMP JUMPDEST PUSH1 0x0 DUP3 DUP3 MSTORE PUSH1 0x20 DUP3 ADD SWAP1 POP SWAP3 SWAP2 POP POP JUMP JUMPDEST PUSH32 0x4E6F2072652D656E7472616E6379000000000000000000000000000000000000 PUSH1 0x0 DUP3 ADD MSTORE POP JUMP JUMPDEST PUSH1 0x0 PUSH2 0x1B74 PUSH1 0xE DUP4 PUSH2 0x1B2D JUMP JUMPDEST SWAP2 POP PUSH2 0x1B7F DUP3 PUSH2 0x1B3E JUMP JUMPDEST PUSH1 0x20 DUP3 ADD SWAP1 POP SWAP2 SWAP1 POP JUMP JUMPDEST PUSH1 0x0 PUSH1 0x20 DUP3 ADD SWAP1 POP DUP2 DUP2 SUB PUSH1 0x0 DUP4 ADD MSTORE PUSH2 0x1BA3 DUP2 PUSH2 0x1B67 JUMP JUMPDEST SWAP1 POP SWAP2 SWAP1 POP JUMP JUMPDEST PUSH32 0x4F6E6C792074686520636F6E7472616374206F776E65722063616E2077697468 PUSH1 0x0 DUP3 ADD MSTORE PUSH32 0x64726177206D6F6E657921000000000000000000000000000000000000000000 PUSH1 0x20 DUP3 ADD MSTORE POP JUMP JUMPDEST PUSH1 0x0 PUSH2 0x1C06 PUSH1 0x2B DUP4 PUSH2 0x1B2D JUMP JUMPDEST SWAP2 POP PUSH2 0x1C11 DUP3 PUSH2 0x1BAA JUMP JUMPDEST PUSH1 0x40 DUP3 ADD SWAP1 POP SWAP2 SWAP1 POP JUMP JUMPDEST PUSH1 0x0 PUSH1 0x20 DUP3 ADD SWAP1 POP DUP2 DUP2 SUB PUSH1 0x0 DUP4 ADD MSTORE PUSH2 0x1C35 DUP2 PUSH2 0x1BF9 JUMP JUMPDEST SWAP1 POP SWAP2 SWAP1 POP JUMP JUMPDEST PUSH32 0x446F206E6F7420617474656D707420746F207769746864726177207768696C65 PUSH1 0x0 DUP3 ADD MSTORE PUSH32 0x20612067616D6520697320696E2070726F67726573732E000000000000000000 PUSH1 0x20 DUP3 ADD MSTORE POP JUMP JUMPDEST PUSH1 0x0 PUSH2 0x1C98 PUSH1 0x37 DUP4 PUSH2 0x1B2D JUMP JUMPDEST SWAP2 POP PUSH2 0x1CA3 DUP3 PUSH2 0x1C3C JUMP JUMPDEST PUSH1 0x40 DUP3 ADD SWAP1 POP SWAP2 SWAP1 POP JUMP JUMPDEST PUSH1 0x0 PUSH1 0x20 DUP3 ADD SWAP1 POP DUP2 DUP2 SUB PUSH1 0x0 DUP4 ADD MSTORE PUSH2 0x1CC7 DUP2 PUSH2 0x1C8B JUMP JUMPDEST SWAP1 POP SWAP2 SWAP1 POP JUMP JUMPDEST PUSH32 0x4E487B7100000000000000000000000000000000000000000000000000000000 PUSH1 0x0 MSTORE PUSH1 0x11 PUSH1 0x4 MSTORE PUSH1 0x24 PUSH1 0x0 REVERT JUMPDEST PUSH1 0x0 PUSH2 0x1D08 DUP3 PUSH2 0x16C7 JUMP JUMPDEST SWAP2 POP PUSH2 0x1D13 DUP4 PUSH2 0x16C7 JUMP JUMPDEST SWAP3 POP DUP3 DUP3 SUB SWAP1 POP DUP2 DUP2 GT ISZERO PUSH2 0x1D2B JUMPI PUSH2 0x1D2A PUSH2 0x1CCE JUMP JUMPDEST JUMPDEST SWAP3 SWAP2 POP POP JUMP JUMPDEST PUSH32 0x4E487B7100000000000000000000000000000000000000000000000000000000 PUSH1 0x0 MSTORE PUSH1 0x1 PUSH1 0x4 MSTORE PUSH1 0x24 PUSH1 0x0 REVERT JUMPDEST PUSH1 0x0 PUSH2 0x1D6B DUP3 PUSH2 0x172A JUMP JUMPDEST SWAP1 POP SWAP2 SWAP1 POP JUMP JUMPDEST PUSH2 0x1D7B DUP2 PUSH2 0x1D60 JUMP JUMPDEST DUP3 MSTORE POP POP JUMP JUMPDEST PUSH1 0x0 PUSH1 0x40 DUP3 ADD SWAP1 POP PUSH2 0x1D96 PUSH1 0x0 DUP4 ADD DUP6 PUSH2 0x1D72 JUMP JUMPDEST PUSH2 0x1DA3 PUSH1 0x20 DUP4 ADD DUP5 PUSH2 0x1D72 JUMP JUMPDEST SWAP4 SWAP3 POP POP POP JUMP JUMPDEST PUSH32 0x412067616D6520697320616C726561647920696E2070726F67726573732C2070 PUSH1 0x0 DUP3 ADD MSTORE PUSH32 0x6C6561736520686176652061206D6F6D656E74206F662070617469656E63652E PUSH1 0x20 DUP3 ADD MSTORE POP JUMP JUMPDEST PUSH1 0x0 PUSH2 0x1E06 PUSH1 0x40 DUP4 PUSH2 0x1B2D JUMP JUMPDEST SWAP2 POP PUSH2 0x1E11 DUP3 PUSH2 0x1DAA JUMP JUMPDEST PUSH1 0x40 DUP3 ADD SWAP1 POP SWAP2 SWAP1 POP JUMP JUMPDEST PUSH1 0x0 PUSH1 0x20 DUP3 ADD SWAP1 POP DUP2 DUP2 SUB PUSH1 0x0 DUP4 ADD MSTORE PUSH2 0x1E35 DUP2 PUSH2 0x1DF9 JUMP JUMPDEST SWAP1 POP SWAP2 SWAP1 POP JUMP JUMPDEST PUSH32 0x54686520616D6F756E74206F66206D6F6E657920696E2074686520626574206D PUSH1 0x0 DUP3 ADD MSTORE PUSH32 0x7573742065786365656420746865206D696E696D756D206265742E0000000000 PUSH1 0x20 DUP3 ADD MSTORE POP JUMP JUMPDEST PUSH1 0x0 PUSH2 0x1E98 PUSH1 0x3B DUP4 PUSH2 0x1B2D JUMP JUMPDEST SWAP2 POP PUSH2 0x1EA3 DUP3 PUSH2 0x1E3C JUMP JUMPDEST PUSH1 0x40 DUP3 ADD SWAP1 POP SWAP2 SWAP1 POP JUMP JUMPDEST PUSH1 0x0 PUSH1 0x20 DUP3 ADD SWAP1 POP DUP2 DUP2 SUB PUSH1 0x0 DUP4 ADD MSTORE PUSH2 0x1EC7 DUP2 PUSH2 0x1E8B JUMP JUMPDEST SWAP1 POP SWAP2 SWAP1 POP JUMP JUMPDEST PUSH32 0x54686520616D6F756E74206F66206D6F6E657920696E2074686520626574206D PUSH1 0x0 DUP3 ADD MSTORE PUSH32 0x7573742062652062656C6F7720746865206D6178696D756D206265742E000000 PUSH1 0x20 DUP3 ADD MSTORE POP JUMP JUMPDEST PUSH1 0x0 PUSH2 0x1F2A PUSH1 0x3D DUP4 PUSH2 0x1B2D JUMP JUMPDEST SWAP2 POP PUSH2 0x1F35 DUP3 PUSH2 0x1ECE JUMP JUMPDEST PUSH1 0x40 DUP3 ADD SWAP1 POP SWAP2 SWAP1 POP JUMP JUMPDEST PUSH1 0x0 PUSH1 0x20 DUP3 ADD SWAP1 POP DUP2 DUP2 SUB PUSH1 0x0 DUP4 ADD MSTORE PUSH2 0x1F59 DUP2 PUSH2 0x1F1D JUMP JUMPDEST SWAP1 POP SWAP2 SWAP1 POP JUMP JUMPDEST PUSH32 0x496E76616C6964206265742E2053696E676C6520626574206D75737420626520 PUSH1 0x0 DUP3 ADD MSTORE PUSH32 0x6265747765656E203020616E6420333620696E636C75736976652E0000000000 PUSH1 0x20 DUP3 ADD MSTORE POP JUMP JUMPDEST PUSH1 0x0 PUSH2 0x1FBC PUSH1 0x3B DUP4 PUSH2 0x1B2D JUMP JUMPDEST SWAP2 POP PUSH2 0x1FC7 DUP3 PUSH2 0x1F60 JUMP JUMPDEST PUSH1 0x40 DUP3 ADD SWAP1 POP SWAP2 SWAP1 POP JUMP JUMPDEST PUSH1 0x0 PUSH1 0x20 DUP3 ADD SWAP1 POP DUP2 DUP2 SUB PUSH1 0x0 DUP4 ADD MSTORE PUSH2 0x1FEB DUP2 PUSH2 0x1FAF JUMP JUMPDEST SWAP1 POP SWAP2 SWAP1 POP JUMP JUMPDEST PUSH32 0x496E76616C6964206265742E20546869726420626574206D7573742062652062 PUSH1 0x0 DUP3 ADD MSTORE PUSH32 0x65747765656E203120616E64203320696E636C75736976652E00000000000000 PUSH1 0x20 DUP3 ADD MSTORE POP JUMP JUMPDEST PUSH1 0x0 PUSH2 0x204E PUSH1 0x39 DUP4 PUSH2 0x1B2D JUMP JUMPDEST SWAP2 POP PUSH2 0x2059 DUP3 PUSH2 0x1FF2 JUMP JUMPDEST PUSH1 0x40 DUP3 ADD SWAP1 POP SWAP2 SWAP1 POP JUMP JUMPDEST PUSH1 0x0 PUSH1 0x20 DUP3 ADD SWAP1 POP DUP2 DUP2 SUB PUSH1 0x0 DUP4 ADD MSTORE PUSH2 0x207D DUP2 PUSH2 0x2041 JUMP JUMPDEST SWAP1 POP SWAP2 SWAP1 POP JUMP JUMPDEST PUSH32 0x496E76616C6964206265742E205265642F626C61636B2F6F64642F6576656E20 PUSH1 0x0 DUP3 ADD MSTORE PUSH32 0x62657473206D75737420626520706C616365642077697468206120626574206F PUSH1 0x20 DUP3 ADD MSTORE PUSH32 0x6620312E00000000000000000000000000000000000000000000000000000000 PUSH1 0x40 DUP3 ADD MSTORE POP JUMP JUMPDEST PUSH1 0x0 PUSH2 0x2106 PUSH1 0x44 DUP4 PUSH2 0x1B2D JUMP JUMPDEST SWAP2 POP PUSH2 0x2111 DUP3 PUSH2 0x2084 JUMP JUMPDEST PUSH1 0x60 DUP3 ADD SWAP1 POP SWAP2 SWAP1 POP JUMP JUMPDEST PUSH1 0x0 PUSH1 0x20 DUP3 ADD SWAP1 POP DUP2 DUP2 SUB PUSH1 0x0 DUP4 ADD MSTORE PUSH2 0x2135 DUP2 PUSH2 0x20F9 JUMP JUMPDEST SWAP1 POP SWAP2 SWAP1 POP JUMP JUMPDEST PUSH32 0x496E76616C69642062657420747970652E20506C656173652063686F6F736520 PUSH1 0x0 DUP3 ADD MSTORE PUSH32 0x2773696E676C65272C20277468697264272C2027726564272C2027626C61636B PUSH1 0x20 DUP3 ADD MSTORE PUSH32 0x272C20276F6464272C206F7220276576656E272E000000000000000000000000 PUSH1 0x40 DUP3 ADD MSTORE POP JUMP JUMPDEST PUSH1 0x0 PUSH2 0x21BE PUSH1 0x54 DUP4 PUSH2 0x1B2D JUMP JUMPDEST SWAP2 POP PUSH2 0x21C9 DUP3 PUSH2 0x213C JUMP JUMPDEST PUSH1 0x60 DUP3 ADD SWAP1 POP SWAP2 SWAP1 POP JUMP JUMPDEST PUSH1 0x0 PUSH1 0x20 DUP3 ADD SWAP1 POP DUP2 DUP2 SUB PUSH1 0x0 DUP4 ADD MSTORE PUSH2 0x21ED DUP2 PUSH2 0x21B1 JUMP JUMPDEST SWAP1 POP SWAP2 SWAP1 POP JUMP JUMPDEST PUSH1 0x0 DUP2 PUSH1 0x0 SHR SWAP1 POP SWAP2 SWAP1 POP JUMP JUMPDEST PUSH1 0x0 PUSH20 0xFFFFFFFFFFFFFFFFFFFFFFFFFFFFFFFFFFFFFFFF DUP3 AND SWAP1 POP SWAP2 SWAP1 POP JUMP JUMPDEST PUSH1 0x0 PUSH2 0x2234 PUSH2 0x222F DUP4 PUSH2 0x21F4 JUMP JUMPDEST PUSH2 0x2201 JUMP JUMPDEST SWAP1 POP SWAP2 SWAP1 POP JUMP JUMPDEST PUSH2 0x2244 DUP2 PUSH2 0x174A JUMP JUMPDEST DUP3 MSTORE POP POP JUMP JUMPDEST PUSH1 0x0 DUP2 SWAP1 POP SWAP2 SWAP1 POP JUMP JUMPDEST PUSH1 0x0 PUSH2 0x2267 PUSH2 0x2262 DUP4 PUSH2 0x21F4 JUMP JUMPDEST PUSH2 0x224A JUMP JUMPDEST SWAP1 POP SWAP2 SWAP1 POP JUMP JUMPDEST PUSH2 0x2277 DUP2 PUSH2 0x16C7 JUMP JUMPDEST DUP3 MSTORE POP POP JUMP JUMPDEST PUSH1 0x0 PUSH1 0xFF DUP3 AND SWAP1 POP SWAP2 SWAP1 POP JUMP JUMPDEST PUSH1 0x0 PUSH2 0x229D PUSH2 0x2298 DUP4 PUSH2 0x21F4 JUMP JUMPDEST PUSH2 0x227D JUMP JUMPDEST SWAP1 POP SWAP2 SWAP1 POP JUMP JUMPDEST PUSH2 0x22AD DUP2 PUSH2 0x17D0 JUMP JUMPDEST DUP3 MSTORE POP POP JUMP JUMPDEST PUSH1 0x0 DUP2 PUSH1 0x8 SHR SWAP1 POP SWAP2 SWAP1 POP JUMP JUMPDEST PUSH1 0x0 PUSH1 0xFF DUP3 AND SWAP1 POP SWAP2 SWAP1 POP JUMP JUMPDEST PUSH1 0x0 PUSH2 0x22E0 PUSH2 0x22DB DUP4 PUSH2 0x22B3 JUMP JUMPDEST PUSH2 0x22C0 JUMP JUMPDEST SWAP1 POP SWAP2 SWAP1 POP JUMP JUMPDEST PUSH2 0x22F0 DUP2 PUSH2 0x17F1 JUMP JUMPDEST DUP3 MSTORE POP POP JUMP JUMPDEST PUSH1 0x0 DUP2 PUSH1 0x10 SHR SWAP1 POP SWAP2 SWAP1 POP JUMP JUMPDEST PUSH1 0x0 PUSH1 0xFF DUP3 AND SWAP1 POP SWAP2 SWAP1 POP JUMP JUMPDEST PUSH1 0x0 PUSH2 0x2323 PUSH2 0x231E DUP4 PUSH2 0x22F6 JUMP JUMPDEST PUSH2 0x2303 JUMP JUMPDEST SWAP1 POP SWAP2 SWAP1 POP JUMP JUMPDEST PUSH2 0x2333 DUP2 PUSH2 0x180D JUMP JUMPDEST DUP3 MSTORE POP POP JUMP JUMPDEST PUSH1 0xA0 DUP3 ADD PUSH1 0x0 DUP1 DUP4 ADD SLOAD SWAP1 POP PUSH2 0x234E DUP2 PUSH2 0x2221 JUMP JUMPDEST PUSH2 0x235B PUSH1 0x0 DUP7 ADD DUP3 PUSH2 0x223B JUMP JUMPDEST POP PUSH1 0x1 DUP4 ADD SLOAD SWAP1 POP PUSH2 0x236C DUP2 PUSH2 0x2254 JUMP JUMPDEST PUSH2 0x2379 PUSH1 0x20 DUP7 ADD DUP3 PUSH2 0x226E JUMP JUMPDEST POP PUSH1 0x2 DUP4 ADD SLOAD SWAP1 POP PUSH2 0x238A DUP2 PUSH2 0x228A JUMP JUMPDEST PUSH2 0x2397 PUSH1 0x40 DUP7 ADD DUP3 PUSH2 0x22A4 JUMP JUMPDEST POP PUSH2 0x23A1 DUP2 PUSH2 0x22CD JUMP JUMPDEST PUSH2 0x23AE PUSH1 0x60 DUP7 ADD DUP3 PUSH2 0x22E7 JUMP JUMPDEST POP PUSH2 0x23B8 DUP2 PUSH2 0x2310 JUMP JUMPDEST PUSH2 0x23C5 PUSH1 0x80 DUP7 ADD DUP3 PUSH2 0x232A JUMP JUMPDEST POP POP POP POP POP JUMP JUMPDEST PUSH1 0x0 PUSH1 0xA0 DUP3 ADD SWAP1 POP PUSH2 0x23E1 PUSH1 0x0 DUP4 ADD DUP5 PUSH2 0x2339 JUMP JUMPDEST SWAP3 SWAP2 POP POP JUMP JUMPDEST PUSH1 0x0 PUSH2 0x23F2 DUP3 PUSH2 0x16C7 JUMP JUMPDEST SWAP2 POP PUSH2 0x23FD DUP4 PUSH2 0x16C7 JUMP JUMPDEST SWAP3 POP DUP3 DUP3 ADD SWAP1 POP DUP1 DUP3 GT ISZERO PUSH2 0x2415 JUMPI PUSH2 0x2414 PUSH2 0x1CCE JUMP JUMPDEST JUMPDEST SWAP3 SWAP2 POP POP JUMP JUMPDEST PUSH32 0x4E487B7100000000000000000000000000000000000000000000000000000000 PUSH1 0x0 MSTORE PUSH1 0x12 PUSH1 0x4 MSTORE PUSH1 0x24 PUSH1 0x0 REVERT JUMPDEST PUSH1 0x0 PUSH2 0x2455 DUP3 PUSH2 0x16C7 JUMP JUMPDEST SWAP2 POP PUSH2 0x2460 DUP4 PUSH2 0x16C7 JUMP JUMPDEST SWAP3 POP DUP3 PUSH2 0x2470 JUMPI PUSH2 0x246F PUSH2 0x241B JUMP JUMPDEST JUMPDEST DUP3 DUP3 DIV SWAP1 POP SWAP3 SWAP2 POP POP JUMP JUMPDEST PUSH32 0x5468652066756E647320696E207468697320636F6E7472616374206172652074 PUSH1 0x0 DUP3 ADD MSTORE PUSH32 0x6F6F206C6F7720616E64206E65656420746F206265206869676865722E000000 PUSH1 0x20 DUP3 ADD MSTORE POP JUMP JUMPDEST PUSH1 0x0 PUSH2 0x24D7 PUSH1 0x3D DUP4 PUSH2 0x1B2D JUMP JUMPDEST SWAP2 POP PUSH2 0x24E2 DUP3 PUSH2 0x247B JUMP JUMPDEST PUSH1 0x40 DUP3 ADD SWAP1 POP SWAP2 SWAP1 POP JUMP JUMPDEST PUSH1 0x0 PUSH1 0x20 DUP3 ADD SWAP1 POP DUP2 DUP2 SUB PUSH1 0x0 DUP4 ADD MSTORE PUSH2 0x2506 DUP2 PUSH2 0x24CA JUMP JUMPDEST SWAP1 POP SWAP2 SWAP1 POP JUMP JUMPDEST PUSH1 0x0 PUSH1 0x40 DUP3 ADD SWAP1 POP PUSH2 0x2522 PUSH1 0x0 DUP4 ADD DUP6 PUSH2 0x176B JUMP JUMPDEST PUSH2 0x252F PUSH1 0x20 DUP4 ADD DUP5 PUSH2 0x176B JUMP JUMPDEST SWAP4 SWAP3 POP POP POP JUMP JUMPDEST PUSH32 0x54686520726571756573742049447320646F206E6F74206D6174636800000000 PUSH1 0x0 DUP3 ADD MSTORE POP JUMP JUMPDEST PUSH1 0x0 PUSH2 0x256C PUSH1 0x1C DUP4 PUSH2 0x1B2D JUMP JUMPDEST SWAP2 POP PUSH2 0x2577 DUP3 PUSH2 0x2536 JUMP JUMPDEST PUSH1 0x20 DUP3 ADD SWAP1 POP SWAP2 SWAP1 POP JUMP JUMPDEST PUSH1 0x0 PUSH1 0x20 DUP3 ADD SWAP1 POP DUP2 DUP2 SUB PUSH1 0x0 DUP4 ADD MSTORE PUSH2 0x259B DUP2 PUSH2 0x255F JUMP JUMPDEST SWAP1 POP SWAP2 SWAP1 POP JUMP JUMPDEST PUSH32 0x4E487B7100000000000000000000000000000000000000000000000000000000 PUSH1 0x0 MSTORE PUSH1 0x32 PUSH1 0x4 MSTORE PUSH1 0x24 PUSH1 0x0 REVERT JUMPDEST PUSH1 0x0 PUSH2 0x25DC DUP3 PUSH2 0x16C7 JUMP JUMPDEST SWAP2 POP PUSH2 0x25E7 DUP4 PUSH2 0x16C7 JUMP JUMPDEST SWAP3 POP DUP3 PUSH2 0x25F7 JUMPI PUSH2 0x25F6 PUSH2 0x241B JUMP JUMPDEST JUMPDEST DUP3 DUP3 MOD SWAP1 POP SWAP3 SWAP2 POP POP JUMP JUMPDEST PUSH32 0x41207061796F757420686173206265656E2063616C6C65642E00000000000000 PUSH1 0x0 DUP3 ADD MSTORE POP JUMP JUMPDEST PUSH1 0x0 PUSH2 0x2638 PUSH1 0x19 DUP4 PUSH2 0x1B2D JUMP JUMPDEST SWAP2 POP PUSH2 0x2643 DUP3 PUSH2 0x2602 JUMP JUMPDEST PUSH1 0x20 DUP3 ADD SWAP1 POP SWAP2 SWAP1 POP JUMP JUMPDEST PUSH1 0x0 PUSH1 0x20 DUP3 ADD SWAP1 POP DUP2 DUP2 SUB PUSH1 0x0 DUP4 ADD MSTORE PUSH2 0x2667 DUP2 PUSH2 0x262B JUMP JUMPDEST SWAP1 POP SWAP2 SWAP1 POP JUMP JUMPDEST PUSH1 0x0 DUP2 SWAP1 POP SWAP2 SWAP1 POP JUMP JUMPDEST PUSH2 0x2681 DUP2 PUSH2 0x266E JUMP JUMPDEST DUP3 MSTORE POP POP JUMP JUMPDEST PUSH1 0x0 PUSH8 0xFFFFFFFFFFFFFFFF DUP3 AND SWAP1 POP SWAP2 SWAP1 POP JUMP JUMPDEST PUSH2 0x26A4 DUP2 PUSH2 0x2687 JUMP JUMPDEST DUP3 MSTORE POP POP JUMP JUMPDEST PUSH1 0x0 PUSH2 0xFFFF DUP3 AND SWAP1 POP SWAP2 SWAP1 POP JUMP JUMPDEST PUSH2 0x26C1 DUP2 PUSH2 0x26AA JUMP JUMPDEST DUP3 MSTORE POP POP JUMP JUMPDEST PUSH1 0x0 PUSH4 0xFFFFFFFF DUP3 AND SWAP1 POP SWAP2 SWAP1 POP JUMP JUMPDEST PUSH2 0x26E0 DUP2 PUSH2 0x26C7 JUMP JUMPDEST DUP3 MSTORE POP POP JUMP JUMPDEST PUSH1 0x0 PUSH1 0xA0 DUP3 ADD SWAP1 POP PUSH2 0x26FB PUSH1 0x0 DUP4 ADD DUP9 PUSH2 0x2678 JUMP JUMPDEST PUSH2 0x2708 PUSH1 0x20 DUP4 ADD DUP8 PUSH2 0x269B JUMP JUMPDEST PUSH2 0x2715 PUSH1 0x40 DUP4 ADD DUP7 PUSH2 0x26B8 JUMP JUMPDEST PUSH2 0x2722 PUSH1 0x60 DUP4 ADD DUP6 PUSH2 0x26D7 JUMP JUMPDEST PUSH2 0x272F PUSH1 0x80 DUP4 ADD DUP5 PUSH2 0x26D7 JUMP JUMPDEST SWAP7 SWAP6 POP POP POP POP POP POP JUMP JUMPDEST PUSH1 0x0 DUP2 MLOAD SWAP1 POP PUSH2 0x2748 DUP2 PUSH2 0x16D1 JUMP JUMPDEST SWAP3 SWAP2 POP POP JUMP JUMPDEST PUSH1 0x0 PUSH1 0x20 DUP3 DUP5 SUB SLT ISZERO PUSH2 0x2764 JUMPI PUSH2 0x2763 PUSH2 0x16BD JUMP JUMPDEST JUMPDEST PUSH1 0x0 PUSH2 0x2772 DUP5 DUP3 DUP6 ADD PUSH2 0x2739 JUMP JUMPDEST SWAP2 POP POP SWAP3 SWAP2 POP POP JUMP JUMPDEST PUSH1 0x0 PUSH2 0x2786 DUP3 PUSH2 0x16C7 JUMP JUMPDEST SWAP2 POP PUSH2 0x2791 DUP4 PUSH2 0x16C7 JUMP JUMPDEST SWAP3 POP DUP3 DUP3 MUL PUSH2 0x279F DUP2 PUSH2 0x16C7 JUMP JUMPDEST SWAP2 POP DUP3 DUP3 DIV DUP5 EQ DUP4 ISZERO OR PUSH2 0x27B6 JUMPI PUSH2 0x27B5 PUSH2 0x1CCE JUMP JUMPDEST JUMPDEST POP SWAP3 SWAP2 POP POP JUMP JUMPDEST PUSH1 0x0 PUSH2 0x27C8 DUP3 PUSH2 0x17F1 JUMP JUMPDEST SWAP2 POP PUSH2 0x27D3 DUP4 PUSH2 0x17F1 JUMP JUMPDEST SWAP3 POP DUP3 DUP3 SUB SWAP1 POP PUSH1 0xFF DUP2 GT ISZERO PUSH2 0x27EC JUMPI PUSH2 0x27EB PUSH2 0x1CCE JUMP JUMPDEST JUMPDEST SWAP3 SWAP2 POP POP JUMP JUMPDEST PUSH1 0x0 PUSH2 0x27FD DUP3 PUSH2 0x17F1 JUMP JUMPDEST SWAP2 POP PUSH2 0x2808 DUP4 PUSH2 0x17F1 JUMP JUMPDEST SWAP3 POP DUP3 DUP3 MUL PUSH2 0x2816 DUP2 PUSH2 0x17F1 JUMP JUMPDEST SWAP2 POP DUP1 DUP3 EQ PUSH2 0x2828 JUMPI PUSH2 0x2827 PUSH2 0x1CCE JUMP JUMPDEST JUMPDEST POP SWAP3 SWAP2 POP POP JUMP JUMPDEST PUSH32 0x5468652067616D652068617320656E6465640000000000000000000000000000 PUSH1 0x0 DUP3 ADD MSTORE POP JUMP JUMPDEST PUSH1 0x0 PUSH2 0x2865 PUSH1 0x12 DUP4 PUSH2 0x1B2D JUMP JUMPDEST SWAP2 POP PUSH2 0x2870 DUP3 PUSH2 0x282F JUMP JUMPDEST PUSH1 0x20 DUP3 ADD SWAP1 POP SWAP2 SWAP1 POP JUMP JUMPDEST PUSH1 0x0 PUSH1 0x20 DUP3 ADD SWAP1 POP DUP2 DUP2 SUB PUSH1 0x0 DUP4 ADD MSTORE PUSH2 0x2894 DUP2 PUSH2 0x2858 JUMP JUMPDEST SWAP1 POP SWAP2 SWAP1 POP JUMP JUMPDEST PUSH32 0x506C617965722068617320776F6E2E0000000000000000000000000000000000 PUSH1 0x0 DUP3 ADD MSTORE POP JUMP JUMPDEST PUSH1 0x0 PUSH2 0x28D1 PUSH1 0xF DUP4 PUSH2 0x1B2D JUMP JUMPDEST SWAP2 POP PUSH2 0x28DC DUP3 PUSH2 0x289B JUMP JUMPDEST PUSH1 0x20 DUP3 ADD SWAP1 POP SWAP2 SWAP1 POP JUMP JUMPDEST PUSH1 0x0 PUSH1 0x60 DUP3 ADD SWAP1 POP PUSH2 0x28FC PUSH1 0x0 DUP4 ADD DUP6 PUSH2 0x1D72 JUMP JUMPDEST DUP2 DUP2 SUB PUSH1 0x20 DUP4 ADD MSTORE PUSH2 0x290D DUP2 PUSH2 0x28C4 JUMP JUMPDEST SWAP1 POP PUSH2 0x291C PUSH1 0x40 DUP4 ADD DUP5 PUSH2 0x176B JUMP JUMPDEST SWAP4 SWAP3 POP POP POP JUMP JUMPDEST PUSH32 0x506C6179657220686173206C6F73742E00000000000000000000000000000000 PUSH1 0x0 DUP3 ADD MSTORE POP JUMP JUMPDEST PUSH1 0x0 PUSH2 0x2959 PUSH1 0x10 DUP4 PUSH2 0x1B2D JUMP JUMPDEST SWAP2 POP PUSH2 0x2964 DUP3 PUSH2 0x2923 JUMP JUMPDEST PUSH1 0x20 DUP3 ADD SWAP1 POP SWAP2 SWAP1 POP JUMP JUMPDEST PUSH1 0x0 PUSH1 0x60 DUP3 ADD SWAP1 POP PUSH2 0x2984 PUSH1 0x0 DUP4 ADD DUP6 PUSH2 0x1D72 JUMP JUMPDEST DUP2 DUP2 SUB PUSH1 0x20 DUP4 ADD MSTORE PUSH2 0x2995 DUP2 PUSH2 0x294C JUMP JUMPDEST SWAP1 POP PUSH2 0x29A4 PUSH1 0x40 DUP4 ADD DUP5 PUSH2 0x176B JUMP JUMPDEST SWAP4 SWAP3 POP POP POP JUMP INVALID LOG2 PUSH5 0x6970667358 0x22 SLT KECCAK256 0x4B CREATE 0xED 0x5C REVERT 0xD4 MUL PUSH23 0x516EE95959BF0642E44834685CD92EAC6410AE6BA4E95F ISZERO PUSH5 0x736F6C6343 STOP ADDMOD GT STOP CALLER "
				},
				"gasEstimates": {
					"creation": {
						"codeDepositCost": "2144200",
						"executionCost": "infinite",
						"totalCost": "infinite"
					},
					"external": {
						"addBalance()": "infinite",
						"book(uint256)": "infinite",
						"currentBet()": "11779",
						"currentRequestId()": "2429",
						"currentWinningNumber()": "2582",
						"gameInProgress()": "2560",
						"house()": "2674",
						"maxBet()": "2496",
						"minBet()": "2451",
						"placeBet(uint8,uint8)": "infinite",
						"rawFulfillRandomWords(uint256,uint256[])": "infinite",
						"withdrawWei(uint256)": "infinite"
					},
					"internal": {
						"fulfillRandomWords(uint256,uint256[] memory)": "infinite",
						"isOdd(uint8)": "46",
						"isRed(uint8)": "infinite",
						"logWinningNumber(address,bool,uint256)": "infinite",
						"payoutWinner()": "infinite",
						"setMinMaxBets()": "infinite",
						"spinWheel()": "infinite"
					}
				},
				"methodIdentifiers": {
					"addBalance()": "b163cc38",
					"book(uint256)": "1116fd04",
					"currentBet()": "d504cb65",
					"currentRequestId()": "5ae2bfdb",
					"currentWinningNumber()": "453a7097",
					"gameInProgress()": "3fb64e75",
					"house()": "ff9b3acf",
					"maxBet()": "2e5b2168",
					"minBet()": "9619367d",
					"placeBet(uint8,uint8)": "a648567b",
					"rawFulfillRandomWords(uint256,uint256[])": "1fe543e3",
					"withdrawWei(uint256)": "0d6f8563"
				}
			},
			"storageLayout": {
				"storage": [
					{
						"astId": 162,
						"contract": "contract/roulette.sol:Roulette",
						"label": "COORDINATOR",
						"offset": 0,
						"slot": "0",
						"type": "t_contract(VRFCoordinatorV2Interface)153"
					},
					{
						"astId": 164,
						"contract": "contract/roulette.sol:Roulette",
						"label": "s_subscriptionId",
						"offset": 20,
						"slot": "0",
						"type": "t_uint64"
					},
					{
						"astId": 167,
						"contract": "contract/roulette.sol:Roulette",
						"label": "keyHash",
						"offset": 0,
						"slot": "1",
						"type": "t_bytes32"
					},
					{
						"astId": 170,
						"contract": "contract/roulette.sol:Roulette",
						"label": "_callbackGasLimit",
						"offset": 0,
						"slot": "2",
						"type": "t_uint32"
					},
					{
						"astId": 172,
						"contract": "contract/roulette.sol:Roulette",
						"label": "house",
						"offset": 4,
						"slot": "2",
						"type": "t_address_payable"
					},
					{
						"astId": 174,
						"contract": "contract/roulette.sol:Roulette",
						"label": "maxBet",
						"offset": 0,
						"slot": "3",
						"type": "t_uint256"
					},
					{
						"astId": 176,
						"contract": "contract/roulette.sol:Roulette",
						"label": "minBet",
						"offset": 0,
						"slot": "4",
						"type": "t_uint256"
					},
					{
						"astId": 190,
						"contract": "contract/roulette.sol:Roulette",
						"label": "currentWinningNumber",
						"offset": 0,
						"slot": "5",
						"type": "t_uint8"
					},
					{
						"astId": 193,
						"contract": "contract/roulette.sol:Roulette",
						"label": "currentBet",
						"offset": 0,
						"slot": "6",
						"type": "t_struct(Bet)188_storage"
					},
					{
						"astId": 195,
						"contract": "contract/roulette.sol:Roulette",
						"label": "currentRequestId",
						"offset": 0,
						"slot": "9",
						"type": "t_uint256"
					},
					{
						"astId": 197,
						"contract": "contract/roulette.sol:Roulette",
						"label": "gameInProgress",
						"offset": 0,
						"slot": "10",
						"type": "t_bool"
					},
					{
						"astId": 202,
						"contract": "contract/roulette.sol:Roulette",
						"label": "book",
						"offset": 0,
						"slot": "11",
						"type": "t_mapping(t_uint256,t_struct(Bet)188_storage)"
					},
					{
						"astId": 266,
						"contract": "contract/roulette.sol:Roulette",
						"label": "lockedPlacingBet",
						"offset": 0,
						"slot": "12",
						"type": "t_bool"
					}
				],
				"types": {
					"t_address_payable": {
						"encoding": "inplace",
						"label": "address payable",
						"numberOfBytes": "20"
					},
					"t_bool": {
						"encoding": "inplace",
						"label": "bool",
						"numberOfBytes": "1"
					},
					"t_bytes32": {
						"encoding": "inplace",
						"label": "bytes32",
						"numberOfBytes": "32"
					},
					"t_contract(VRFCoordinatorV2Interface)153": {
						"encoding": "inplace",
						"label": "contract VRFCoordinatorV2Interface",
						"numberOfBytes": "20"
					},
					"t_enum(BetTypeEnum)209": {
						"encoding": "inplace",
						"label": "enum Roulette.BetTypeEnum",
						"numberOfBytes": "1"
					},
					"t_mapping(t_uint256,t_struct(Bet)188_storage)": {
						"encoding": "mapping",
						"key": "t_uint256",
						"label": "mapping(uint256 => struct Roulette.Bet)",
						"numberOfBytes": "32",
						"value": "t_struct(Bet)188_storage"
					},
					"t_struct(Bet)188_storage": {
						"encoding": "inplace",
						"label": "struct Roulette.Bet",
						"members": [
							{
								"astId": 178,
								"contract": "contract/roulette.sol:Roulette",
								"label": "player",
								"offset": 0,
								"slot": "0",
								"type": "t_address_payable"
							},
							{
								"astId": 180,
								"contract": "contract/roulette.sol:Roulette",
								"label": "betAmount",
								"offset": 0,
								"slot": "1",
								"type": "t_uint256"
							},
							{
								"astId": 183,
								"contract": "contract/roulette.sol:Roulette",
								"label": "betType",
								"offset": 0,
								"slot": "2",
								"type": "t_enum(BetTypeEnum)209"
							},
							{
								"astId": 185,
								"contract": "contract/roulette.sol:Roulette",
								"label": "betNumber",
								"offset": 1,
								"slot": "2",
								"type": "t_uint8"
							},
							{
								"astId": 187,
								"contract": "contract/roulette.sol:Roulette",
								"label": "winner",
								"offset": 2,
								"slot": "2",
								"type": "t_bool"
							}
						],
						"numberOfBytes": "96"
					},
					"t_uint256": {
						"encoding": "inplace",
						"label": "uint256",
						"numberOfBytes": "32"
					},
					"t_uint32": {
						"encoding": "inplace",
						"label": "uint32",
						"numberOfBytes": "4"
					},
					"t_uint64": {
						"encoding": "inplace",
						"label": "uint64",
						"numberOfBytes": "8"
					},
					"t_uint8": {
						"encoding": "inplace",
						"label": "uint8",
						"numberOfBytes": "1"
					}
				}
			},
			"userdoc": {
				"kind": "user",
				"methods": {
					"constructor": {
						"notice": "HARDCODED FOR GOERLI-Testnet COORDINATOR: 0x2Ca8E0C643bDe4C2E08ab1fA0da3401AdAD7734D"
					}
				},
				"version": 1
			}
		}
	}
}